:100000000C94BE010C94DB010C94DB010C94DB011D
:100010000C94DB010C94DB010C94DB010C94DB01F0
:100020000C94DB010C94DB010C94DB010C94DB01E0
:100030000C94DB010C94DB010C94DB010C94DB01D0
:100040000C94DB010C94DB010C94DB010C94DB01C0
:100050000C94DB010C94DB010C94DB010C94DB01B0
:100060000C94DB010C94DB010C94DB010C94DB01A0
:100070000C94DB010C94DB010C94DB01020000000A
:1000800000000001222020200000200152505000DA
:10009000000000015250F850F85050012278A07032
:1000A00028F02001C2C81020409818016290A0409A
:1000B000A89068016220400000000001122040402A
:1000C0004020100142201010102040010220A87092
:1000D000A8200001022020F82020000102000000DA
:1000E00000602041020000F8000000010200000052
:1000F000006060010208102040800001728898A80A
:10010000C8887001226020202020700172880810A9
:100110002040F801FA102010088870011230509029
:10012000F8101001FA80F00808887001324080F061
:1001300088887001FA081020404000017288887099
:1001400088887001728888780810600102606000F9
:100150006060000102606000602040011220408069
:10016000402010010200F800F800000142201008B1
:100170001020400172880810200020017288086851
:10018000A8A8700172888888F8888801F28888F0A9
:100190008888F0017288808080887001E290888869
:1001A0008890E001FA8080F08080F801FA8080F089
:1001B00080808001728880B8888878018A8888F871
:1001C0008888880172202020202070013A101010A9
:1001D000109060018A90A0C0A090880182808080E9
:1001E0008080F8018AD8A8A8888888018A88C8A849
:1001F000988888017288888888887001F28888F0D9
:100200008080800172888888A8906801F28888F0D0
:10021000A09088017A8080700808F001FA202020E0
:10022000202020018A888888888870018A888888A8
:10023000885020018A8888A8A8A850018A88502060
:10024000508888018A88885020202001FA081020D0
:100250004080F801724040404040700102804020E0
:100260001008000172101010101070012250880048
:1002700000000001020000000000F8014220100010
:100280000000000102007008788878018280B0C800
:100290008888F00102007080808870010A086898E0
:1002A0008888780102007088F8807001324840E048
:1002B0004040400102788888780870018280B0C888
:1002C00088888801220060202020700112003010F0
:1002D00010906001828090A0C0A090016220202038
:1002E000202070010200D0A8A8A8A8010200B0C870
:1002F0008888880102007088888870010200F08870
:10030000F080800102006898780808010200B0C8F7
:1003100080808001020070807008F0014240E0405F
:100320004048300102008888889868010200888867
:100330008850200102008888A8A850010200885037
:100340002050880102008888780870010200F810A7
:100350002040F801122020402020100122202020DF
:10036000202020014220201020204001020068901F
:1003700000000001020000000000000111241FBE67
:10038000CFEFD0E1DEBFCDBF11E0A0E0B1E0E2E20F
:10039000F2E102C005900D92A233B107D9F711E046
:1003A000A2E3B1E001C01D92A134B107E1F70E94C0
:1003B00092030C940F090C9400000E94F5010E9416
:1003C0007B0290933A01809339010E947B029093C3
:1003D0003C0180933B0108959FEF97B981111498D8
:1003E00068B91398139A149A08951F93CF93DF93C3
:1003F00085B7806885BF85B7806885BF8FE781B97D
:100400008DEF82B917B88FEF88B912981098139AA8
:10041000159A149A169A28E22A95F1F7129A8FEFF4
:1004200094E624E0815090402040E1F700C00000B5
:1004300068E281E00E94EC0161E181E00E94EC0150
:100440008FEF94E624E0815090402040E1F700C017
:10045000000064E381E00E94EC0168E381E00E9417
:10046000EC0163E181E00E94EC0160E281E00E9426
:10047000EC016AE381E00E94EC0165E580E00E9406
:10048000EC0166E381E00E94EC0168E480E00E94F8
:10049000EC016CE281E00E94EC01C0E4D1E010C00C
:1004A00060E080E00E94EC0160E080E00E94EC01EE
:1004B00060E080E00E94EC01115091F7219711F06B
:1004C00010EFEECF69E281E00E94EC01119ADF911A
:1004D000CF911F91089517B88FEF88B9159884E0D0
:1004E0008A95F1F786B1159A0895882311F0119A2B
:1004F0000895119808958091350190913601892BC6
:1005000051F460E070E087E793E00E94110490935B
:10051000360180933501809135019091360108951F
:10052000CF92DF92FF920F931F93CF93DF931F928F
:10053000CDB7DEB7F82E6B0189016AE281E049830D
:100540000E94EC0160E080E00E94EC016F2D80E0F1
:100550000E94EC0160E080E00E94EC016F2D615090
:100560004981640F80E00E94EC016BE281E00E940F
:10057000EC016D2D80E00E94EC01FC2C6C2D80E0E4
:100580000E94EC0181E0C81AD108C00ED11E6D2D69
:1005900080E00E94EC016F2D6150600F80E00F90B1
:1005A000DF91CF911F910F91FF90DF90CF900C942E
:1005B000EC01FF920F931F93CF93DF93082FF92E37
:1005C00020E431E040EF60E070E080E00E949002C3
:1005D0006CE281E00E94EC01C0E4D1E00CC06F2D20
:1005E00080E00E94EC01602F80E00E94EC0111503D
:1005F000B1F7219711F010EFF2CFDF91CF911F915A
:100600000F91FF90089510923401809132019091E2
:1006100033019C01285F3F4F309333012093320117
:1006200040968134914040F080E090E00E94D902F1
:1006300010923301109232010895809134018A5F43
:100640008093340190E08B3E910514F00C940303E9
:100650000895AF92BF92CF92DF92EF92FF920F93E5
:100660001F93CF93DF93C42FB22EA32E28E030E048
:1006700046E00E9490026CE281E00E94EC01E12CD5
:10068000F12CDD27C7FDD095A09793E0CC0FDD1F9F
:100690009A95E1F7F701EC0FFD1FE458FF4FC49066
:1006A00086E0D82EC7FE06C06A2D80E00E94EC01CD
:1006B0006B2D05C0612F80E00E94EC01602F80E06F
:1006C0000E94EC01CC0CDA9469F78FEFE81AF80A73
:1006D00088E0E816F104F1F6DF91CF911F910F91B8
:1006E000FF90EF90DF90CF90BF90AF9008950F9361
:1006F0001F938A3019F40E9403030FC060913201E6
:100700007091330100E010E02FEF3FEF482F809110
:1007100034010E9429030E941D0380E090E01F9194
:100720000F9108950E94DD018AE091E00E94730418
:10073000C2E2D1E00E9401049F938F93DF93CF9395
:100740000E945C049FE729EA83E0915020408040AA
:10075000E1F700C000000F900F900F900F90EACFCC
:100760008F929F92AF92BF92CF92DF92EF92FF92C1
:10077000CF93DF93EC01688179818A819B81611538
:1007800071058105910521F464E279ED8BE597E02F
:100790002DE133EF41E050E00E948E0849015A01FB
:1007A0009B01AC01A7EAB1E40E947B086B017C01CC
:1007B000ACEEB4EFA50194010E948908C60ED71EC5
:1007C000E81EF91EF7FE06C081E0C81AD108E1084C
:1007D00080E8F80AC882D982EA82FB82E894D7F8D6
:1007E000EE24FF24C601DF91CF91FF90EF90DF90C0
:1007F000CF90BF90AF909F908F9008950E94B003CC
:10080000089580E091E00E94B0030895A0E0B0E078
:100810008093000190930101A0930201B093030122
:1008200008950F931F93CF93DF93EC018B010097F3
:1008300031F46115710519F4E0E0F0E037C06EE0C5
:1008400070E081E090E00E947F06FC010097A1F338
:1008500080E883830115110571F01387028781E811
:1008600083838091370190913801892B21F4F09393
:100870003801E09337012097C9F0D187C087838181
:10088000826083838091390190913A01892B71F4C0
:10089000F0933A01E093390180913B0190913C0142
:1008A000892B21F4F0933C01E0933B01CF01DF91D0
:1008B000CF911F910F910895A2E0B0E0E2E6F4E03D
:1008C0000C94BA08FE01379661917191FA83E9831D
:1008D000AF018091390190913A010E94A2042296C1
:1008E000E2E00C94D6080F931F93CF93DF938C0113
:1008F000E0913901F0913A01838181FF1BC0C0E092
:10090000D0E005C00995892B11F0CFEFDFEFF8019A
:1009100081918F016091390170913A01DB01189644
:10092000ED91FC9119978111EDCF8AE00995892B02
:1009300009F402C0CFEFDFEFCE01DF91CF911F911D
:100940000F910895ACE0B0E0E8EAF4E00C94AA0856
:100950007C016B018A01FC0117821682838181FF71
:10096000C7C188248394912C8C0E9D1EF70193811E
:10097000F60193FD859193FF81916F01882309F41E
:10098000B3C1853239F493FD859193FF81916F0155
:10099000853229F4B70190E00E94F107E7CF712C6E
:1009A000312C20E02032A8F48B3261F028F4803220
:1009B00051F0833271F40BC08D3239F0803349F439
:1009C000216028C02260246025C0286023C02061E7
:1009D00021C027FD27C0382F30533A3078F426FF46
:1009E00006C0FAE07F9E300D1124732E13C08AE0FA
:1009F000389E300D1124332E20620CC08E3221F42B
:100A000026FD72C1206406C08C3611F4206802C035
:100A1000883641F4F60193FD859193FF81916F0132
:100A20008111C0CF982F9554933018F09052933085
:100A300028F40C5F1F4FFFE3F9830DC0833631F0BC
:100A4000833771F0833509F05EC023C0F8018081DF
:100A500089830E5F1F4F66246394712C540115C067
:100A60002801F2E04F0E511CF801A080B18026FF52
:100A700003C0672D70E002C06FEF7FEFC5012C87C8
:100A80000E94E6073C0182012C856FE7262E222278
:100A900018C02801F2E04F0E511CF801A080B1806F
:100AA00026FF03C0672D70E002C06FEF7FEFC50126
:100AB0002C870E94D4073C012C8550E8252E222A41
:100AC000820123FC1CC006C0B70180E290E00E94B6
:100AD000F1073A94832D90E068167906A8F30FC0C9
:100AE000F50127FC859127FE81915F01B70190E018
:100AF0000E94F10731103A94F1E06F1A7108611405
:100B0000710471F7EEC0843611F0893641F5F801B1
:100B100027FF07C060817181828193810C5F1F4F25
:100B200008C060817181882777FD8095982F0E5FBE
:100B30001F4F4FE6642E622297FF09C09095809563
:100B4000709561957F4F8F4F9F4FF0E86F2A2AE095
:100B500030E0A4010E941D08A82EA81844C08537C3
:100B600031F43FEEB32EB2222AE030E024C099EFF8
:100B7000B92EB2228F36B9F020F4883509F0B4C00E
:100B80000DC0803721F0883709F0AEC002C020E1E7
:100B9000B22AB4FE0BC084E0B82A08C024FF09C002
:100BA000E6E0BE2A06C028E030E005C020E130E0E3
:100BB00002C020E132E0F801B7FE07C06081718118
:100BC000828193810C5F1F4F06C06081718180E03C
:100BD00090E00E5F1F4FA4010E941D08A82EA818C8
:100BE0008FE7682E6B2066FE0BC0362D3E7FA71464
:100BF00050F464FE0AC062FC08C0362D3E7E05C07B
:100C0000BA2C362D03C0BA2C01C0B72C34FF0DC04E
:100C1000FE01EA0DF11D8081803311F4397E09C097
:100C200032FF06C0B394B39404C0832F867809F0D2
:100C3000B39433FD14C030FF0FC07A2CB31460F4AA
:100C4000730C7B18B32C08C0B70180E290E03C879E
:100C50000E94F107B3943C85B314B0F304C0B314FD
:100C600010F43B1801C0312C34FF12C0B70180E3EF
:100C700090E03C870E94F1073C8532FF1EC031FFA7
:100C800003C088E590E002C088E790E0B7010CC09F
:100C9000832F867891F031FD02C080E201C08BE2A3
:100CA00037FD8DE2B70190E00E94F10706C0B70161
:100CB00080E390E00E94F1077A94A714C0F3AA940D
:100CC000F401EA0DF11DB701808190E00E94F10767
:100CD000A110F5CF06C0B70180E290E00E94F107B5
:100CE0003A943110F8CF42CEF7012681378102C005
:100CF0002FEF3FEFC9012C96E2E10C94C6080F9349
:100D00001F93CF93DF93689F8001699F100D789F99
:100D1000100D1124C8010E949D06C82FD92F2097BD
:100D200031F0A80160E070E08C2F0E94DF07CE0157
:100D3000DF91CF911F910F9108950F931F93CF9340
:100D4000DF938230910510F482E090E0E0913F0162
:100D5000F091400120E030E0C0E0D0E023C04081CD
:100D6000518148175907A8F04817590761F4828143
:100D70009381209719F09B838A832EC09093400122
:100D800080933F0129C02115310529F042175307EF
:100D900010F0A90102C0BE01DF0102811381EF0141
:100DA0009A01F8013097D9F62115310509F1281B70
:100DB000390B2430310590F412968D919C91139744
:100DC0006115710521F0FB019383828304C0909328
:100DD000400180933F01FD01329644C0FD01E20FC6
:100DE000F31F81939193225031092D933C933AC084
:100DF00020913D0130913E01232B41F420910601C9
:100E00003091070130933E0120933D012091040170
:100E1000309105012115310541F42DB73EB74091C0
:100E2000080150910901241B350BE0913D01F0911F
:100E30003E01E217F307A0F42E1B3F0B28173907DA
:100E400078F0AC014E5F5F4F2417350748F04E0F26
:100E50005F1F50933E0140933D018193919302C0E7
:100E6000E0E0F0E0CF01DF91CF911F910F91089565
:100E7000EF92FF920F931F93CF93DF93009709F4A4
:100E80008EC0DC01129713961C921E921297E0906E
:100E90003F01F0904001E114F10489F42D913C915F
:100EA0001197280F391F80913D0190913E018217C3
:100EB000930789F5B0933E01A0933D0170C0E7010F
:100EC00020E030E001C0EA01CA17DB0738F44A81AC
:100ED0005B819E0141155105B1F722C0AC01425022
:100EE0005109FA01D383C28300811181BC01600FD3
:100EF000711F6C177D0761F468817981600F711F24
:100F00006E5F7F4F718360836A817B8173836283AD
:100F10002115310529F4B0934001A0933F013FC052
:100F2000F901B383A283E90149915991C40FD51FF7
:100F3000AC17BD0771F4DC019E918E91840F951F53
:100F400002969183808312968D919C91139793833F
:100F50008283A0E0B0E002C0D7017C01F70182816A
:100F600093810097C9F7C701029620813181820FD2
:100F7000931F20913D0130913E012817390779F4E4
:100F8000109729F41092400110923F0104C013966B
:100F90001C921E921297F0923E01E0923D01CDB755
:100FA000DEB7E6E00C94D208FC0105906150704079
:100FB0000110D8F7809590958E0F9F1F0895DC0142
:100FC00001C06D9341505040E0F70895FC0161501D
:100FD000704001900110D8F7809590958E0F9F1F5B
:100FE00008950F931F93CF93DF938C01EB018B81B7
:100FF00081FD03C00FEF1FEF1AC082FF0DC02E81CD
:101000003F818C819D812817390764F4E881F9813B
:101010000193F983E88306C0E885F985802F099557
:10102000892B41F78E819F8101969F838E83C80112
:10103000DF91CF911F910F910895FA01AA272830CF
:1010400051F1203181F1E8946F936E7F6E5F7F4F95
:101050008F4F9F4FAF4FB1E03ED0B4E03CD0670F11
:10106000781F891F9A1FA11D680F791F8A1F911D64
:10107000A11D6A0F711D811D911DA11D20D009F4B4
:1010800068943F912AE0269F11243019305D3193F6
:10109000DEF6CF010895462F4770405D4193B3E0DF
:1010A0000FD0C9F7F6CF462F4F70405D4A3318F086
:1010B000495D31FD4052419302D0A9F7EACFB4E037
:1010C000A6959795879577956795BA95C9F70097EF
:1010D0006105710508959B01AC010A2E0694579590
:1010E000479537952795BA95C9F7620F731F841FE7
:1010F000951FA01D08950E94E108A59F900DB49F23
:10110000900DA49F800D911D11240895B7FF0C949C
:101110007B080E947B08821B930B0895052E97FB8A
:1011200016F4009407D057FD0DD00E94ED0807FC7F
:1011300009D07EF490958095709561957F4F8F4F83
:101140009F4F089550954095309521953F4F4F4FB3
:101150005F4F08952F923F924F925F926F927F92CE
:101160008F929F92AF92BF92CF92DF92EF92FF92B7
:101170000F931F93CF93DF93CDB7DEB7CA1BDB0B63
:101180000FB6F894DEBF0FBECDBF09942A88398808
:1011900048885F846E847D848C849B84AA84B9840F
:1011A000C884DF80EE80FD800C811B81AA81B9811B
:1011B000CE0FD11D0FB6F894DEBF0FBECDBFED012F
:1011C0000895A29FB001B39FC001A39F01D0B29F19
:1011D000700D811D1124911D0895A1E21A2EAA1BE4
:1011E000BB1BFD010DC0AA1FBB1FEE1FFF1FA217D7
:1011F000B307E407F50720F0A21BB30BE40BF50BD4
:10120000661F771F881F991F1A9469F7609570955C
:10121000809590959B01AC01BD01CF010895F89494
:02122000FFCFFE
:10122200010000000000410120002A2A2A20544621
:1012320054206C69627261727920746573742A2A0F
:101242002A0056616C7565206F6620643A20256419
:021252000A0090
:00000001FF
