:100000000C94C9010C94E6010C94E6010C94E601F1
:100010000C94E6010C94E6010C94E6010C94E601C4
:100020000C94E6010C94E6010C94E6010C94E601B4
:100030000C94E6010C94E6010C94E6010C94E601A4
:100040000C9452100C94E6010C94E6010C94E60119
:100050000C94E6010C94E6010C94E6010C94E60184
:100060000C94E6010C94E6010C94E6010C94E60174
:100070000C94E6010C94E6010C94E60100000000EB
:10008000000000000020202020200020005050A070
:1000900000000000005050F850F85050002070A0B0
:1000A0007028A87000C8C810204098980040A0A0F0
:1000B00048A8906800301020000000000010204088
:1000C0004040201000402010101020400020A8A820
:1000D00070A8A82000202020F82020200000000088
:1000E0000030102000000000F800000000000000B8
:1000F0000000606000080810204080800030484800
:1001000048484830001030101010101000304808D7
:100110001020407800304808300848300010305037
:100120005090F8100078407048084830003048403F
:1001300070484830007808081010202000304848E7
:1001400030484830003048483808483000003030E7
:100150000030300000003030003010200008102047
:10016000402010080000F00000F000000080402057
:10017000102040800070888810200020007088E8DF
:10018000A8E8907800602020505070D800F04848CF
:10019000784848F8007048808080C87800F050485F
:1001A000484858F000F84840704040F800F848408F
:1001B000705040E0007048808098C87800D8505057
:1001C000705050D800702020202020700070101037
:1001D0001010906000D85050606050D800F040403F
:1001E000404048F80088D8D8A8A888880088C8A8BF
:1001F000A8A89888007050888888D87000F048486F
:10020000784040E0007088888898703800F048484E
:10021000785050D8007088807008087800F8A820BE
:100220002020203000D850505050507000D85050EE
:1002300050507020008888A8A8A8505000D850506E
:10024000205050D800D850505020207000F8901006
:10025000204048F80070404040404070008080409E
:1002600020100808007010101010107000205000AE
:100270000000000000000000000000F80020100056
:10028000000000000000006090709068008080E036
:10029000909090E0000000609080906000101070DE
:1002A000909090700000006090F0806000102070CE
:1002B000202020200068906080708870008080E09E
:1002C000909090900020002020202020001000100E
:1002D0001010106000808090A0C0A090002020200E
:1002E00020202018000000D0A8A8A8A8000000E046
:1002F000909090900000006090909060000060905E
:1003000090E080800000609090701010000000B0BD
:10031000C080808000000070806010E0004040F0ED
:1003200040404030000000909090907000000088A5
:1003300088885020000000A8A8A85050000000881D
:100340005020508800000088502020C0000000F895
:10035000102040F8003020204020203000202020B5
:1003600020202020006020201020206000689000C5
:10037000000000000000000000000000FF071F0058
:10038000E0FBE0FFE0071F7800F8F047176636272C
:10039000630011241FBECFEFD0E1DEBFCDBF11E05F
:1003A000A0E0B1E0E2EFF4E202C005900D92A83ABD
:1003B000B107D9F713E0A8EAB1E001C01D92AB384C
:1003C000B107E1F70E94E7100C9477120C94941097
:1003D00084B1837F84B985B1837F85B9279A2F9AA9
:1003E0000E9465060E9402060E9409020E942910CE
:1003F0000E94A4100E9401080E94FE0A0C94D70FCC
:100400009FEF97B98111149868B91398139A149AA9
:1004100008951F93CF93DF9385B7806885BF85B715
:10042000806885BF8FE781B98DEF82B917B88FEFEC
:1004300088B912981098139A159A149A169A28E265
:100440002A95F1F7129A8FEF94E624E081509040BC
:100450002040E1F700C0000068E281E00E94000255
:1004600061E181E00E9400028FEF94E624E0815078
:1004700090402040E1F700C0000064E381E00E946A
:10048000000268E381E00E94000263E181E00E94D3
:10049000000260E281E00E9400026AE381E00E94C3
:1004A000000265E580E00E94000266E381E00E94B0
:1004B000000268E480E00E9400026CE281E00E9499
:1004C0000002C0E4D1E010C060E080E00E940002C1
:1004D00060E080E00E94000260E080E00E94000294
:1004E000115091F7219711F010EFEECF69E281E002
:1004F000DF91CF911F910C94000217B88FEF88B94C
:10050000159884E08A95F1F786B1159A08958823A5
:1005100011F0119A089511980895CF92DF92FF92E9
:100520000F931F93CF93DF931F92CDB7DEB7F82EB3
:100530006B0189016AE281E049830E94000260E068
:1005400080E00E9400026F2D80E00E94000260E0C7
:1005500080E00E9400026F2D61504981640F80E0AD
:100560000E9400026BE281E00E9400026D2D80E09B
:100570000E940002FC2C6C2D80E00E94000281E0B1
:10058000C81AD108C00ED11E6D2D80E00E94000255
:100590006F2D6150600F80E00F90DF91CF911F9120
:1005A0000F91FF90DF90CF900C9400021F93CF9398
:1005B000DF931F92CDB7DEB7142F21E030E041E08A
:1005C00059830E948D026CE281E00E9400025981F1
:1005D000652F80E00E940002612F80E00F90DF9184
:1005E000CF911F910C940002FF920F931F93CF9312
:1005F000DF93082FF92E20E431E040EF60E070E057
:1006000080E00E948D026CE281E00E940002C0E462
:10061000D1E00CC06F2D80E00E940002602F80E0CE
:100620000E9400021150B1F7219711F010EFF2CFA4
:10063000DF91CF911F910F91FF900895DF92EF927C
:10064000FF920F931F93CF93DF93D42E79010E94D3
:100650008D026CE281E00E94000210C0612F80E0F8
:100660000E940002602F80E00E940002219602C0DA
:10067000C0E0D0E0CE15DF0589F7DA94D110F8CFCD
:10068000DF91CF911F910F91FF90EF90DF90089530
:100690004F925F926F927F928F929F92AF92BF9292
:1006A000CF92DF92EF92FF920F931F93CF93DF933E
:1006B000782E6B01542E5901602EC02FD0E0442EAD
:1006C000401A87019E01442D0E941E0345018C1A89
:1006D0009D0A852D870D9401462DB60186190E942D
:1006E0001E03BE016C0D7D1D9401462D872D0E94B9
:1006F0001E03B5016C0D7D1D6C1B7D0B9E01442DF1
:10070000862D870D0E941E03DF91CF911F910F91BF
:10071000FF90EF90DF90CF90BF90AF909F908F9021
:100720007F906F905F904F900895AF92BF92CF925D
:10073000DF92EF92FF920F931F93CF93DF93C42F1B
:10074000B22EA32E28E030E046E00E948D026CE23B
:1007500081E00E940002E12CF12CDD27C7FDD0953D
:10076000A09793E0CC0FDD1F9A95E1F7F701EC0F0E
:10077000FD1FE458FF4FC49086E0D82EC7FE06C088
:100780006A2D80E00E9400026B2D05C0612F80E081
:100790000E940002602F80E00E940002CC0CDA94DC
:1007A00069F78FEFE81AF80A88E0E816F104F1F625
:1007B000DF91CF911F910F91FF90EF90DF90CF903D
:1007C000BF90AF9008955F926F927F928F929F92A9
:1007D000AF92BF92CF92DF92EF92FF920F931F934F
:1007E000CF93DF93582E6B017A015901480124E021
:1007F00030E0C0E1D7E2EAE0F0E00BC0CE01BF019B
:100800000E943B11EB012150310919F4C1E0D0E005
:100810001FC0C701BE010E943B11672B79F318C0AE
:10082000C701BE010E943B11CB01B3010E943B11E5
:10083000482F405D84019501B601852D0E949503E6
:1008400086E0580ECE01B3010E943B11EB0103C0BC
:100850002AE0622E712C209719F7DF91CF911F911A
:100860000F91FF90EF90DF90CF90BF90AF909F904F
:100870008F907F906F905F9008954F925F926F92EC
:100880007F928F929F92AF92BF92CF92DF92EF9220
:10089000FF920F931F93CF93DF93742EC22FA42E3A
:1008A000B12C650133E0CC0CDD1C3A95E1F7440F27
:1008B000470D440F96010E948D026CE281E00E9478
:1008C000000286E0789E40011124612CDD27C7FDDF
:1008D000D095A09743E0CC0FDD1F4A95E1F781E06A
:1008E000A81AB1082DC0862D672D0E942F11FE0178
:1008F000E80FF11DE458FF4F4490512C1BC047FEF8
:1009000006C0612F80E00E940002602F05C06F2D9D
:1009100080E00E9400026E2D80E00E940002852D82
:10092000672D0E942F11292F30E02A153B0509F46D
:10093000440C5394252D30E02815390504F36394B5
:10094000262D30E02C153D0574F2DF91CF911F91DB
:100950000F91FF90EF90DF90CF90BF90AF909F905E
:100960008F907F906F905F904F9008952F923F925D
:100970004F925F926F927F928F929F92AF92BF92AF
:10098000CF92DF92EF92FF920F931F93CF93DF935B
:1009900000D01F92CDB7DEB7382E5B01242E69013F
:1009A0004801370124E030E080E197E29B838A83AD
:1009B000EAE0F0E016C08A819B81BF010E943B11F2
:1009C0007B836A832150310961F4E1E0F0E0FB832D
:1009D000EA83322D330F320D330F5AE0452E512C5E
:1009E00024C0C6016A817B810E943B11672B19F3E9
:1009F000F0CFC6016A817B810E943B11CB01B2011D
:100A00000E943B11282F205D73018401422DB50106
:100A1000832D39830E943D043981330E8A819B8165
:100A2000B2010E943B117B836A838A819B81892B5F
:100A300001F70F900F900F90DF91CF911F910F91C1
:100A4000FF90EF90DF90CF90BF90AF909F908F90EE
:100A50007F906F905F904F903F902F9008958F926E
:100A60009F92AF92BF92CF92DF92EF92FF920F933D
:100A70001F93CF93DF931F92CDB7DEB7982F7B01E3
:100A8000690158014A0109C085019601B701892F02
:100A900099830E94950399819A5FF40141914F01D6
:100AA0004111F2CF0F90DF91CF911F910F91FF90E5
:100AB000EF90DF90CF90BF90AF909F908F90089570
:100AC0005F926F927F928F929F92AF92BF92CF92DE
:100AD000DF92EF92FF920F931F93CF93DF93682ED5
:100AE0006B01542E58014701742E770C740E770C4D
:100AF000E90108C074018501452DB601862D0E94CB
:100B00003D04670C29912111F5CFDF91CF911F9101
:100B10000F91FF90EF90DF90CF90BF90AF909F909C
:100B20008F907F906F905F9008959C01207E37702A
:100B3000AC01452F5527469546954695240F351F00
:100B4000982F8827990F990F990F280F391FC901DE
:100B500008950F931F938B019C01112722273327A0
:100B6000980111270027080F111D211D311DDC01DF
:100B7000CB018827AA27BB27080F191F2A1F3B1F55
:100B8000B801C9011F910F910895CF92DF92EF92A2
:100B9000FF920F931F938B019C0100271C7F22273C
:100BA0003327F5E03695279517950795FA95D1F7F0
:100BB000C12CD12CA8EFEA2EF12CC622D722E82294
:100BC000F922CD2CDE2CEF2CFF240C0D1D1DAB01CA
:100BD000BC01487F55276627772783E07695679580
:100BE000579547958A95D1F7040F151FC8011F9196
:100BF0000F91FF90EF90DF90CF9008950E94A9058C
:100C00000C94C5051AB88FEF8BB989B18B7E809390
:100C1000AA0187E99AE30197F1F700C0000089B1C2
:100C20002091AA0130E090E08B7E2817390769F700
:100C3000089589B12091AA01821301C040C087E9BB
:100C40009AE30197F1F700C0000089B19091AA01E1
:100C50008917A9F182FF2BC084FF2BC08093AA01C2
:100C6000382F3227932F9A70A1F0922F9A709230DA
:100C700031F118F4992349F00CC0983001F19A3001
:100C800041F48A708230B9F418C08A708230A9F4B5
:100C90000895307AA1F0207A31F0203A81F4807AF8
:100CA000803279F410C0807A803269F40AC083E01F
:100CB000089586E0089582E0089581E0089580E037
:100CC000089585E0089584E00895279A2F9808955F
:100CD00004C094E69A95F1F781508111FACF0895F6
:100CE000CF92DF92EF92FF920F931F93CF93DF93F8
:100CF000D82EC12C869FE0011124F12C04E110E0D4
:100D00000FC02F9AC8016D2D7C2D0E944F11E62E29
:100D1000862F0E9468062F988E2D0E946806F394F5
:100D20008F2D90E08C179D0764F3DF91CF911F9179
:100D30000F91FF90EF90DF90CF900895DF92EF92A8
:100D4000FF920F931F93CF93DF93EB019FE0299FB7
:100D5000C00DD11D1124D82E9FE0499FD00C112425
:100D6000BE016F5F7F4F2DE030E04DE08D2D8F5F36
:100D70000E941E038FEEE82E8BE7F82E01E02FE095
:100D800030E04FE050E0BE018D2D0E944803DF911E
:100D9000CF911F910F91FF90EF90DF900895EF9208
:100DA000FF920F931F93682F70E0685F7F4F94E06E
:100DB000660F771F9A95E1F72FE1E22EF12C0FEFE6
:100DC0001FEF25E031E042E089E10E9460051F91BC
:100DD0000F91FF90EF900895EF92FF920F931F9362
:100DE000682F70E0685F7F4F34E0660F771F3A9599
:100DF000E1F7E12C48EFF42E0FEF1FEF20E131E097
:100E000042E089E10E9460051F910F91FF90EF90F1
:100E10000895EF92FF920F931F93CF93C82F8F3FA8
:100E200009F03FC00FE716E620E630E046E960E54E
:100E300070E08AE00E941E03AFE7EA2EA6E6FA2ED3
:100E400000E018EF2BE131E042E060E670E083E182
:100E50000E94600500E010E027E231E042E060E738
:100E600070E083E10E9460050E948E09892B51F099
:100E70000E9492099C0142E060E770E08BE50E94CD
:100E8000B60420C0FFE7EF2EF6E6FF2E00E010E0EC
:100E90002EE231E040E762E070E08BE50E94600501
:100EA00011C081110FC0E0EEEE2EE7E0FE2E0FE143
:100EB00010E024E331E042E060E870E089E10E9464
:100EC000600517C07FE7E72E76E6F72E0FE110E00A
:100ED0002FE331E042E060E870E089E10E946005C4
:100EE000C13039F460EEE62E67E0F62E2AE431E0F8
:100EF00008C05FE7E52E56E6F52E0FE110E025E588
:100F000031E042E060E970E089E10E946005CF9144
:100F10001F910F91FF90EF9008950F931F9300E0A2
:100F200010E028E030E046E460EA70E085EA0E94E4
:100F30001E030E94C3102FE130E0AC0160EA70E0B4
:100F400085EA0E94E3031F910F9108950F931F9369
:100F500000E010E028E030E046E460E770E085EA79
:100F60000E941E03409161035091620320EE3FED09
:100F700060E770E085EA0E94E3031F910F910895F6
:100F80000F931F9300E010E028E030E046E468E8AB
:100F900070E085EA0E941E0340915F035091600358
:100FA00020EE37E068E870E085EA0E94E3031F91D5
:100FB0000F9108950F931F9300E010E028E030E0B8
:100FC00046E468EC70E085EA0E941E0320E038EFFA
:100FD00040E651E068EC70E085EA0E942F051F9121
:100FE0000F9108950F931F9300E010E028E030E088
:100FF00046E468EC70E085EA0E941E031F910F91A1
:101000000895EF92FF920F931F9380E090E00E946B
:10101000F402BFE1EB2EF12C03E022E331E04CE9D6
:1010200050E067E070E087E00E944803E12C18EF91
:10103000F12E22E430E042E450E067E070E087EA1D
:101040000E944803E12CF12C0FEF17E02AE631E073
:1010500042E060E570E085EA0E94600500E010E093
:101060002FEF3FEF41E751E068E670E085EA0E942C
:101070002F052FEF3FEF4DE751E060E870E085EA84
:101080000E942F052FEF3FEF47E851E068E970E03D
:1010900085EA0E942F052FEF3FEF41E951E060EB19
:1010A00070E085EA0E942F058CEF97E00E94CC113A
:1010B00020E038EFAB0168EB70E085EA0E94E303C3
:1010C0001F910F91FF90EF9008950F931F9300E0F1
:1010D00010E028E030E046E468EC70E085EA0E9429
:1010E0001E0300E018EF2FEF3FEF4DE951E068ECF1
:1010F00070E085EA0E942F051F910F910895DF92FD
:10110000EF92FF920F931F93CF93DF938CE3E82E20
:1011100083E0F82ED12C21C0FE01EE0FFF1FEE0D53
:10112000FF1D80819181892B69F020915D032C0F37
:1011300040915C034D0D00E010E06AE070E08AE051
:101140000E949E062196C430D10531F7D39488E0E1
:10115000E80EF11C84E0D81619F0C0E0D0E0DCCF36
:10116000DF91CF911F910F91FF90EF90DF90089545
:10117000DF92EF92FF920F931F93CF93DF930115AE
:10118000110529F400E010E00E949E0621C0EB0149
:101190009FE0299FC00DD11D1124D82E9FE0499FAB
:1011A000D00C1124BE016F5F7F4F2DE030E04DE089
:1011B0008D2D8F5F0E941E03EE24EA94FE2C01E029
:1011C0002FE030E04FE050E0BE018D2D0E9448033B
:1011D000DF91CF911F910F91FF90EF90DF900895D5
:1011E000CF92DF92EF92FF920F931F93CF93DF93F3
:1011F0009BEAE92E91E0F92EC12C18C0F701EC0F03
:10120000FD1F008111812C2D4D2D6AE070E08AE0D8
:101210000E94B808D394A8968AE0D812EFCFC3945E
:1012200082E0E80EF11C84E1C81621F0C0E0D0E0B5
:10123000D12CE4CFDF91CF911F910F91FF90EF90D0
:10124000DF90CF900895CF92DF92EF92FF920F93AD
:101250001F93CF93DF9327E6E22E23E0F22EC12CDB
:1012600018C0F701EC0FFD1F008111812C2D4D2DB1
:101270006AE070E08AEA0E94B808D394289684E075
:10128000D812EFCFC39482E0E80EF11C84E0C816B8
:1012900021F0C0E0D0E0D12CE4CFDF91CF911F91BD
:1012A0000F91FF90EF90DF90CF900895DF92EF9233
:1012B000FF920F931F93CF93DF934CE3E42E43E011
:1012C000F42ED12C20C0FE01EE0FFF1FEE0DFF1DEE
:1012D000008111810115110559F020915D032C0F3A
:1012E00040915C034D0D6AE070E08AE00E94B8080E
:1012F0002196C430D10539F7D39488E0E80EF11C6B
:1013000084E0D81619F0C0E0D0E0DDCFDF91CF91B6
:101310001F910F91FF90EF90DF90089582E090E091
:101320000C94D21187EB91E00C94D211AF92BF9242
:10133000CF92DF92EF92FF920F931F93CF93DF93A1
:1013400061E070E082E090E00E94F6113BEAC32E7B
:1013500031E0D32EC4E0D0E01AC05C0122E0A20E3E
:10136000B11CF601E00FF11F608171810E94F6113E
:10137000085D1F4FC5010039E1E01E0771F7649653
:10138000F2E0CF0ED11CC43921E0D20721F0CE010A
:1013900000E010E0E2CF0CE313E0D12CF801619102
:1013A0008F01D0FAEE24E0F8F12CCE018E0D9F1DB6
:1013B0000E94D811C701880F991FC80FD91FD39455
:1013C000FBE2DF12EBCF6E0122E0C20ED11C87E6FA
:1013D000E82E83E0F82E1CC05C01E2E0AE0EB11CEA
:1013E000F701E00FF11F608171810E94F611085F23
:1013F0001F4FC5010032110579F7F8E0CF0ED11C5F
:1014000022E0E20EF11C8FE6E81683E0F80621F0F8
:10141000C60100E010E0E0CF6091890370918A037B
:10142000CE0182960E94F611609187037091880325
:10143000CE0184960E94F6116091A801CE01869695
:101440000E94D8116091A901CE018796DF91CF91BA
:101450001F910F91FF90EF90DF90CF90BF90AF90D2
:101460000C94D8118F929F92AF92BF92CF92DF923D
:10147000EF92FF920F931F93CF93DF93A09061039E
:10148000B09062036BEAC62E61E0D62EC4E0D0E0D5
:101490001AC04C0122E0820E911C0E94D211F6016A
:1014A000E00FF11F91838083085D1F4FC401003955
:1014B000E1E01E0771F76496F2E0CF0ED11CC4394B
:1014C00021E0D20721F0CE0100E010E0E2CF0CE3F2
:1014D00013E0D12CD0FAEE24E0F8F12CCE018E0DE1
:1014E0009F1D0E94C411F80181938F01C701880FCD
:1014F000991FC80FD91FD394FBE2DF12EBCFB09234
:101500006203A09261036E0122E0C20ED11C47E685
:10151000E42E43E0F42E1CC05C01E2E0AE0EB11CF0
:101520000E94D211F701E00FF11F91838083085FC1
:101530001F4FC5010032110579F7F8E0CF0ED11C1D
:1015400022E0E20EF11C8FE6E81683E0F80621F0B7
:10155000C60100E010E0E0CFCE0182960E94D211D9
:1015600090938A0380938903CE0184960E94D211BE
:101570009093880380938703CE0186960E94C411BE
:101580008093A801CE0187960E94C4118093A9017F
:10159000DF91CF911F910F91FF90EF90DF90CF904F
:1015A000BF90AF909F908F900895811105C00E94C9
:1015B000CF060E9496091EC082E090E00E94D211E0
:1015C000892BB1F481E00E94EC060E941906833059
:1015D00029F0863041F08823C1F30EC00E9419061D
:1015E0008330E1F309C00E9419068630E1F304C09C
:1015F0000E94320A81E0089580E008950E94CD1093
:10160000882361F060E070E080E090E00E94F611D5
:1016100060E070E082E090E00C94F61108950E9482
:10162000F0080E9456090E94A6070E94C0070E9467
:1016300023090C948D07CF938FEF0E940907C0E018
:101640008C2F0E9409070E9419068330C1F028F4EC
:10165000813049F08230B9F70CC0853051F018F074
:10166000863089F713C081E0C13009F480E0C80FEB
:10167000E7CF81E0C11101C080E0C81BE1CF0E942B
:1016800019068330E1F3CF910C940F0B0E941906D9
:101690008630E1F38C2F0E94D50A882389F2F3CF9C
:1016A00015BC0E94DA0781E00E9487026091610305
:1016B0007091620380E090E00E94F6110E9419068A
:1016C0008330E1F30E941906833049F08630D1F768
:1016D0000E9419068630E1F30E941B0BF3CF0E9493
:1016E00019068330E1F30E94F20782E085BD089578
:1016F0008F929F92AF92BF92CF92DF92EF92FF9222
:101700000F931F93CF93DF9380915C03ACE3B3E01F
:10171000C82EDD24C7FCD094C0915D038C2E992483
:1017200087FC9094740194E18902E00CF11C11246F
:1017300080E090E031C08D01040F151FE8010881A1
:101740001981012BE1F089010E0F1F1FE8010881AB
:101750001981012B11F082E005C0D4E1AD16B1046E
:101760002CF081E080933B0380E02AC08B010C0DBC
:101770001D1D17FDF6CF0A3011050CF0F2CF6F5F7B
:101780007F4F485F5F4FB89640325105A1F60196F2
:1017900012968430910589F09C012E0D3F1D220F79
:1017A000331F25553E4FE0E0F0E040E050E060E0C0
:1017B00070E05C01A80CB91CBECF10923B0381E025
:1017C000DF91CF911F910F91FF90EF90DF90CF901D
:1017D000BF90AF909F908F900895CF93C82F909116
:1017E0005C03980F90935C030E94780B811106C0F4
:1017F00090915C039C1B90935C0301C081E0CF91AE
:10180000089580915D038F5F80935D030E94780B44
:10181000811107C080915D03815080935D0380E05A
:10182000089581E00895282F30E0220F331F2555B9
:101830003E4F40E050E0F901E40FF51F60817181F7
:10184000672B69F1485D5F4F403991E0590799F77F
:1018500010C0F901E40FF51FDF0112976D917C9123
:1018600071836083485D5F4F403991E0590789F784
:101870008150882349F0282F30E0220F331F25554F
:101880003E4F40E050E0E5CFEBEAF1E011821082FC
:10189000B89683E0EB33F807C9F781E0089580E05C
:1018A00008950F931F93CF93DF93CCE3D3E010E021
:1018B00000E013C0FE01E80FF91F20813181232BC6
:1018C00059F5089680329105A9F703C01F5F0E9461
:1018D000F0080F5F2296043019F080E090E0EACF24
:1018E000119F900111244AE0429FC001439F900D37
:1018F000112420915F0330916003820F931F909316
:10190000600380935F0311110E94AF10DF91CF91AC
:101910001F910F910C948D0780915D03800F0E94A1
:10192000130C8823B1F2D2CFEF92FF920F931F9343
:10193000CF93DF9315BC20915C0380915D039927C1
:1019400087FD909534E12302800D911D1124880FAD
:10195000991F20E030E085559E4F1AC0F701E40F33
:10196000F51F0190F081E02D309731F08E01060FC8
:10197000171FD801ED93FC93485F5F4F685D7F4F61
:101980004032510559F72E5F3F4F2830310571F035
:10199000EC01C20FD31F60E070E040E050E0ACE328
:1019A000EA2EA3E0FA2EE20EF31ED8CF80915F0359
:1019B0009091600301969093600380935F030E946F
:1019C000510C0E94C00780915F03909160032091A9
:1019D0006103309162032817390730F49093620352
:1019E000809361030E94A60782E085BDDF91CF91BD
:1019F0001F910F91FF90EF900895CF93DF930E9476
:101A0000780B811126C0C1E1D0E0DF5FC4FF0EC0BA
:101A10008D2F81950E94ED0B81111BC0CF702091FD
:101A20003B0380E1289F90011124C22BC0FF09C015
:101A30008D2F0E94ED0B81110CC0C07F80913B0364
:101A4000C82BD33021F08C2F8171F9F603C080E0D0
:101A500001C081E0DF91CF910895FC0180E090E02A
:101A6000DF01A80FB91F2D913C91232B29F5089672
:101A700080329105A9F79F0163E012C0D901A80F38
:101A8000B91F12964D915C9113974D935C930896F4
:101A90008032910599F761502E5F3F4F662319F010
:101AA00080E090E0EBCF1782168217861686178AA1
:101AB000168A178E168ED2CFDF0120E08D919D9170
:101AC000892B09F04DC02F5F2430C1F780E090E0F2
:101AD0009F01285F3F4FD901A80FB91F4D915C911D
:101AE000452B09F085C0029688309105A1F78085C5
:101AF0009185918380838285938593838283848576
:101B00009585958384838685978597838683808949
:101B10009189918780878289938993878287848935
:101B20009589958784878689978997878687808D09
:101B3000918D918B808B828D938D938B828B848DF5
:101B4000958D958B848B868D978D978B868B118E3B
:101B5000108E138E128E158E148E178E168E08957B
:101B600080E090E09F01285E3F4FD901A80FB91F88
:101B70004D915C91452BE1F5029688309105A9F7CE
:101B800080899189918F808F82899389938F828FA9
:101B900084899589958F848F86899789978F868F79
:101BA00080859185918B808B82859385938B828BA9
:101BB00084859585958B848B86859785978B868B79
:101BC00080819181918780878281938193878287A9
:101BD0008481958195878487868197819787868779
:101BE0001182108213821282158214821782168249
:101BF00008958F929F92AF92BF92CF92DF92EF9211
:101C0000FF920F931F93CF93DF93CDB7DEB7A097CB
:101C10000FB6F894DEBF0FBECDBF4C019E012F5F03
:101C20003F4F7E0149E0E40EF11CF9018C011CC01C
:101C30006F01C40ED51E5801A40EB51ED501AD907E
:101C4000BC90D601AD92BC92485F5F4F40325105C7
:101C500079F70E5F1F4F3296EE15FF0529F46C01E0
:101C6000B8E1CB0ED11C24C040E050E0E1CF5901D7
:101C7000A40EB51ED501AD90BC90662319F0B782B5
:101C8000A68203C0D801AD92BC92485F5F4F3297E5
:101C90000E5F1F4F4032510551F72E5F3F4FB8E0A6
:101CA0008B0E911C48E0C41AD1082E153F0529F06F
:101CB0008601F40140E050E0DACFA0960FB6F89428
:101CC000DEBF0FBECDBFDF91CF911F910F91FF906F
:101CD000EF90DF90CF90BF90AF909F908F900C943B
:101CE0002D0DEF92FF920F931F93CF93DF93CDB7FC
:101CF000DEB7A0970FB6F894DEBF0FBECDBF1CE3D2
:101D0000E12E13E0F12E8E010F5F1F4FF801D70176
:101D100094E02D913C9111973183208318962D9159
:101D20003C9119973187208750962D913C9151977E
:101D3000318B208B58962D913C915997318F208F64
:101D40009150129632969111E4CF682F8CE393E074
:101D50000E94F90D0E94FD0C811123C020E0F801C2
:101D600080819181F70191838083F801808591853D
:101D7000F70191878087F80180899189F701918B1C
:101D8000808BF801808D918DF701918F808F2F5F6F
:101D90000E5F1F4FF2E0EF0EF11C243001F780E0E0
:101DA00001C081E0A0960FB6F894DEBF0FBECDBF94
:101DB000DF91CF911F910F91FF90EF900895AF9217
:101DC000BF92CF92DF92EF92FF920F931F93CF9328
:101DD000DF9380916303909164030E94B9110E9484
:101DE000B41167E070E00E944F118C019927FC014B
:101DF000E657FC4FD490FC01EE0FFF1FE458FC4F58
:101E000085919491F82EE92EACE3B3E0C7E6D3E0D8
:101E100020E08881998111969C938E93888599857D
:101E200019969C938E9318978889998951969C93BB
:101E30008E935097888D998D59969C938E93589731
:101E40002F5F22961296243021F783E080935C0363
:101E500010925D030E94FD0C882309F49CC0A7E644
:101E6000B3E040E050E0C0E8D0E0AD2CB12C22C09F
:101E7000BE01082E02C0759567950A94E2F76A21A3
:101E80007B21672B19F460E070E002C06F2D7E2D7E
:101E90006D01C20ED31EF601718360830196285F27
:101EA0003F4F2032310521F712964C5F5F4F48308B
:101EB000510521F0CA0120E030E0DACF10926C0326
:101EC00010926B03109274031092730310927C03B0
:101ED00010927B03109284031092830310926E037E
:101EE00010926D03109276031092750310927E0388
:101EF00010927D0310928603109285030E94B41104
:101F000064E070E00E944F118230910539F0833017
:101F1000910561F1019779F560E029C0002359F13D
:101F2000E7E6F3E0A1E8B3E02D913C9111978081C1
:101F3000918128273927318320838D919C91119796
:101F40008227932711969C938E9320813181282795
:101F50003927318320833896189783E0E738F807CC
:101F600019F787E693E00E942D0D05C061E087E632
:101F700093E00E94F90D0E94B411AA2797FDA09545
:101F8000BA2F8093630390936403A0936503B09387
:101F9000660381E001C080E0DF91CF911F910F9136
:101FA000FF90EF90DF90CF90BF90AF9008952BEA15
:101FB00031E010C0F901E80FF91F118210828896F4
:101FC000803941E09407B1F72E5F3F4F81E0233D18
:101FD000380719F080E090E0EDCF10926003109286
:101FE0005F0381E080935E0380E090E00E94D21165
:101FF00090936203809361030E94B411AA2797FD16
:10200000A095BA2F8093630390936403A093650314
:10201000B09366030E94DF0E0E94DF0E0E940F0B3A
:102020000E9495100C94500B15BC0E94650860919D
:1020300061037091620380E090E00E94F6110E94BB
:1020400019068330E1F70E9419068330E1F30C94FE
:10205000D70F0E94CD10882349F080E090E00E94C5
:10206000B91141E050E060E070E011C08CEF97E002
:102070000E94CC11CB010E94B9118CEF97E00E9415
:10208000CC11AB01BC014F5F5F4F6F4F7F4F8CEFA7
:1020900097E00C94EA1181E08093A80108951092D2
:1020A000A80108951F920F920FB60F9211242F933B
:1020B0003F934F935F938F939F938091A8018823C1
:1020C000B1F08091890390918A039C012F5F3F4F6B
:1020D00030938A0320938903843F9140D0F010927B
:1020E0008A031092890381E08093A90112C0809134
:1020F000890390918A032091870330918803AC0172
:102100004F5F5F4F50938A03409389038217930771
:1021100030F79F918F915F914F913F912F910F9049
:102120000FBE0F901F901895189515BC16BC1092F5
:102130008A03109289038AE698E19093880380933A
:1021400087031092A901089515BC789482E084BD9C
:1021500090EF97BD16BC80936E000C949510809103
:102160008703909188038132934030F080918703F8
:1021700090918803059702C080E293E090938803D2
:1021800080938703089580918703909188032AE6BE
:1021900038E1281B390BC901089580910001853071
:1021A00051F48BEF97E00E94C41191E08A3A09F450
:1021B00090E09093000180910001882329F06AEA61
:1021C0008BEF97E00E94FC118091000108950E941E
:1021D000E8010E9456090E9419068330D1F120F4CB
:1021E000813019F130F506C0853069F140F1863053
:1021F00081F732C08091A901882369F31092A90167
:102200000E947F080E94010C8111E3CF0E944F10B1
:102210000E9456090E94940C0E94DF0E811102C098
:102220000E9414100E942309D4CF0E947F0880E0EE
:1022300003C00E947F0881E00E94710ECACF0E94F5
:102240007F0881E003C00E947F088FEF0E94ED0BA2
:10225000C0CF0E94500BBFCF0E944B10BCCF991B28
:1022600079E004C0991F961708F0961B881F7A958D
:10227000C9F780950895AA1BBB1B51E107C0AA1F8F
:10228000BB1FA617B70710F0A61BB70B881F991F17
:102290005A95A9F780959095BC01CD01089597FBBB
:1022A000072E16F4009407D077FD09D00E943B1149
:1022B00007FC05D03EF4909581959F4F0895709549
:1022C00061957F4F08958F929F92AF92BF92CF9268
:1022D000DF92EF92FF92CF93DF93EC0168817981D7
:1022E0008A819B81611571058105910521F464E264
:1022F00079ED8BE597E02DE133EF41E050E00E946E
:102300002D1249015A019B01AC01A7EAB1E40E94D8
:102310001A126B017C01ACEEB4EFA50194010E948E
:102320002812C60ED71EE81EF91EF7FE06C081E071
:10233000C81AD108E10880E8F80AC882D982EA827E
:10234000FB82E894D7F8EE24FF24C601DF91CF91F9
:10235000FF90EF90DF90CF90BF90AF909F908F90C5
:1023600008950E946311089581E091E00E94631135
:102370000895A0E0B0E08093010190930201A09342
:102380000301B09304010895F999FECF92BD81BD78
:10239000F89A992780B50895A6E1B0E044E050E0AE
:1023A0000C940C12A8E1B0E042E050E00C940C1246
:1023B000262FF999FECF92BD81BDF89A019700B4FE
:1023C000021639F01FBA20BD0FB6F894FA9AF99A9E
:1023D0000FBE08950396272F0E94D9110E94D8118D
:1023E000252F0E94D911242F0C94D9110196272F43
:1023F0000E94D9110C94D811262FF999FECF1FBA3B
:1024000092BD81BD20BD0FB6F894FA9AF99A0FBE1D
:1024100001960895DC01CB01FC01F999FECF06C0BD
:10242000F2BDE1BDF89A319600B40D924150504092
:10243000B8F708950E944912A59F900DB49F900D82
:10244000A49F800D911D11240895B7FF0C941A12BA
:102450000E941A12821B930B0895052E97FB16F407
:10246000009407D057FD0DD00E94551207FC09D0EB
:102470007EF490958095709561957F4F8F4F9F4F1B
:10248000089550954095309521953F4F4F4F5F4FA0
:102490000895A29FB001B39FC001A39F01D0B29F36
:1024A000700D811D1124911D0895A1E21A2EAA1B01
:1024B000BB1BFD010DC0AA1FBB1FEE1FFF1FA217F4
:1024C000B307E407F50720F0A21BB30BE40BF50BF1
:1024D000661F771F881F991F1A9469F7609570957A
:1024E000809590959B01AC01BD01CF010895F894B2
:0224F000FFCF1C
:1024F20005010000002D20536176696E67202D00D2
:102502002D204661696C6564202D0053617665203B
:1025120026204C6F61640053636F726520003C4E4D
:102522002F413E003E3E2053617665203C3C002018
:10253200202053617665202020003E3E204C6F61B2
:1025420064203C3C002020204C6F6164202020004D
:102552002D205041555345202D00546574726973E6
:10256200002A2048696768657374202A002A20536C
:10257200636F7265202A002A205370656564202AE1
:10258200002A2053746172747570202A0047616DAD
:08259200656F766572210000FF
:00000001FF
