:100000000C94C9010C94E6010C94E6010C94E601F1
:100010000C94E6010C94E6010C94E6010C94E601C4
:100020000C94E6010C94E6010C94E6010C94E601B4
:100030000C94E6010C94E6010C94E6010C94E601A4
:100040000C94D80F0C94E6010C94E6010C94E60194
:100050000C94E6010C94E6010C94E6010C94E60184
:100060000C94E6010C94E6010C94E6010C94E60174
:100070000C94E6010C94E6010C94E60102000000E9
:1000800000000001222020200000200152505000DA
:10009000000000015250F850F85050012278A07032
:1000A00028F02001C2C81020409818016290A0409A
:1000B000A89068016220400000000001122040402A
:1000C0004020100142201010102040010220A87092
:1000D000A8200001022020F82020000102000000DA
:1000E00000602041020000F8000000010200000052
:1000F000006060010208102040800001728898A80A
:10010000C8887001226020202020700172880810A9
:100110002040F801FA102010088870011230509029
:10012000F8101001FA80F00808887001324080F061
:1001300088887001FA081020404000017288887099
:1001400088887001728888780810600102606000F9
:100150006060000102606000602040011220408069
:10016000402010010200F800F800000142201008B1
:100170001020400172880810200020017288086851
:10018000A8A8700172888888F8888801F28888F0A9
:100190008888F0017288808080887001E290888869
:1001A0008890E001FA8080F08080F801FA8080F089
:1001B00080808001728880B8888878018A8888F871
:1001C0008888880172202020202070013A101010A9
:1001D000109060018A90A0C0A090880182808080E9
:1001E0008080F8018AD8A8A8888888018A88C8A849
:1001F000988888017288888888887001F28888F0D9
:100200008080800172888888A8906801F28888F0D0
:10021000A09088017A8080700808F001FA202020E0
:10022000202020018A888888888870018A888888A8
:10023000885020018A8888A8A8A850018A88502060
:10024000508888018A88885020202001FA081020D0
:100250004080F801724040404040700102804020E0
:100260001008000172101010101070012250880048
:1002700000000001020000000000F8014220100010
:100280000000000102007008788878018280B0C800
:100290008888F00102007080808870010A086898E0
:1002A0008888780102007088F8807001324840E048
:1002B0004040400102788888780870018280B0C888
:1002C00088888801220060202020700112003010F0
:1002D00010906001828090A0C0A090016220202038
:1002E000202070010200D0A8A8A8A8010200B0C870
:1002F0008888880102007088888870010200F08870
:10030000F080800102006898780808010200B0C8F7
:1003100080808001020070807008F0014240E0405F
:100320004048300102008888889868010200888867
:100330008850200102008888A8A850010200885037
:100340002050880102008888780870010200F810A7
:100350002040F801122020402020100122202020DF
:10036000202020014220201020204001020068901F
:10037000000000010200000000000001FF071F0054
:10038000E0FBE0FFE0071F7800F8F047176636272C
:10039000630011241FBECFEFD0E1DEBFCDBF11E05F
:1003A000A0E0B1E0E6EEF8E202C005900D92AC3CB0
:1003B000B107D9F713E0ACECB1E001C01D92A83B46
:1003C000B107E1F70E94AC100C9471140C941A1050
:1003D00084B1837F84B985B1837F85B9279A2F9AA9
:1003E0000E9406060E9493108BE091E00E94181272
:1003F0000E940D020E94AF0F0E942A100E94A207C5
:100400000E94900A0C945F0F9FEF97B98111149886
:1004100068B91398139A149A08951F93CF93DF9392
:1004200085B7806885BF85B7806885BF8FE781B94C
:100430008DEF82B917B88FEF88B912981098139A78
:10044000159A149A169A28E22A95F1F7129A8FEFC4
:1004500094E624E0815090402040E1F700C0000085
:1004600068E281E00E94040261E181E00E940402EE
:100470008FEF94E624E0815090402040E1F700C0E7
:10048000000064E381E00E94040268E381E00E94CE
:10049000040263E181E00E94040260E281E00E94C4
:1004A00004026AE381E00E94040265E580E00E94A4
:1004B000040266E381E00E94040268E480E00E9496
:1004C00004026CE281E00E940402C0E4D1E010C0AA
:1004D00060E080E00E94040260E080E00E9404028C
:1004E00060E080E00E940402115091F7219711F022
:1004F00010EFEECF69E281E0DF91CF911F910C9474
:10050000040217B88FEF88B9159884E08A95F1F73F
:1005100086B1159A0895882311F0119A08951198BB
:100520000895CF92DF92FF920F931F93CF93DF93A3
:100530001F92CDB7DEB7F82E6B0189016AE281E028
:1005400049830E94040260E080E00E9404026F2D53
:1005500080E00E94040260E080E00E9404026F2DAF
:1005600061504981640F80E00E9404026BE281E0E7
:100570000E9404026D2D80E00E940402FC2C6C2D70
:1005800080E00E94040281E0C81AD108C00ED11E8A
:100590006D2D80E00E9404026F2D6150600F80E09D
:1005A0000F90DF91CF911F910F91FF90DF90CF902F
:1005B0000C9404021F93CF93DF931F92CDB7DEB745
:1005C000142F21E030E041E059830E9491026CE257
:1005D00081E00E9404025981652F80E00E9404029C
:1005E000612F80E00F90DF91CF911F910C94040256
:1005F000FF920F931F93CF93DF93082FF92E20E4E0
:1006000031E040EF60E070E080E00E9491026CE237
:1006100081E00E940402C0E4D1E00CC06F2D80E0B4
:100620000E940402602F80E00E9404021150B1F782
:10063000219711F010EFF2CFDF91CF911F910F9121
:10064000FF900895DF92EF92FF920F931F93CF9345
:10065000DF93D42E79010E9491026CE281E00E9426
:10066000040210C0612F80E00E940402602F80E02D
:100670000E940402219602C0C0E0D0E0CE15DF0542
:1006800089F7DA94D110F8CFDF91CF911F910F91B4
:10069000FF90EF90DF9008954F925F926F927F925C
:1006A0008F929F92AF92BF92CF92DF92EF92FF9282
:1006B0000F931F93CF93DF93782E6B01542E590124
:1006C000602EC02FD0E0442E401A87019E01442D99
:1006D0000E94220345018C1A9D0A852D870D9401E5
:1006E000462DB60186190E942203BE016C0D7D1DA8
:1006F0009401462D872D0E942203B5016C0D7D1DAE
:100700006C1B7D0B9E01442D862D870D0E942203BC
:10071000DF91CF911F910F91FF90EF90DF90CF90DD
:10072000BF90AF909F908F907F906F905F904F9011
:100730000895AF92BF92CF92DF92EF92FF920F9304
:100740001F93CF93DF93C42FB22EA32E28E030E067
:1007500046E00E9491026CE281E00E940402E12CDA
:10076000F12CDD27C7FDD095A09793E0CC0FDD1FBE
:100770009A95E1F7F701EC0FFD1FE458FF4FC49085
:1007800086E0D82EC7FE06C06A2D80E00E940402D3
:100790006B2D05C0612F80E00E940402602F80E075
:1007A0000E940402CC0CDA9469F78FEFE81AF80A79
:1007B00088E0E816F104F1F6DF91CF911F910F91D7
:1007C000FF90EF90DF90CF90BF90AF9008955F9231
:1007D0006F927F928F929F92AF92BF92CF92DF9251
:1007E000EF92FF920F931F93CF93DF93582E6B01DD
:1007F0007A015901480124E030E0C0E1D7E2EAE0A3
:10080000F0E00BC0CE01BF010E940411EB012150AA
:10081000310919F4C1E0D0E01FC0C701BE010E9438
:100820000411672B79F318C0C701BE010E9404119F
:10083000CB01B3010E940411482F405D8401950152
:10084000B601852D0E94990386E0580ECE01B301B2
:100850000E940411EB0103C02AE0622E712C209744
:1008600019F7DF91CF911F910F91FF90EF90DF90DB
:10087000CF90BF90AF909F908F907F906F905F9040
:1008800008954F925F926F927F928F929F92AF9254
:10089000BF92CF92DF92EF92FF920F931F93CF936D
:1008A000DF93742EC22FA42EB12C650133E0CC0C43
:1008B000DD1C3A95E1F7440F470D440F96010E9465
:1008C00091026CE281E00E94040286E0789E400181
:1008D0001124612CDD27C7FDD095A09743E0CC0FF4
:1008E000DD1F4A95E1F781E0A81AB1082DC0862DD9
:1008F000672D0E94F810FE01E80FF11DE458FF4F2C
:100900004490512C1BC047FE06C0612F80E00E941E
:100910000402602F05C06F2D80E00E9404026E2D3E
:1009200080E00E940402852D672D0E94F810292F77
:1009300030E02A153B0509F4440C5394252D30E092
:100940002815390504F36394262D30E02C153D0558
:1009500074F2DF91CF911F910F91FF90EF90DF9094
:10096000CF90BF90AF909F908F907F906F905F904F
:100970004F9008952F923F924F925F926F927F9285
:100980008F929F92AF92BF92CF92DF92EF92FF929F
:100990000F931F93CF93DF9300D01F92CDB7DEB795
:1009A000382E5B01242E69014801370124E030E034
:1009B00080E197E29B838A83EAE0F0E016C08A81B7
:1009C0009B81BF010E9404117B836A8321503109FE
:1009D00061F4E1E0F0E0FB83EA83322D330F320D66
:1009E000330F5AE0452E512C24C0C6016A817B8109
:1009F0000E940411672B19F3F0CFC6016A817B8135
:100A00000E940411CB01B2010E940411282F205D25
:100A100073018401422DB501832D39830E94410465
:100A20003981330E8A819B81B2010E9404117B833C
:100A30006A838A819B81892B01F70F900F900F9019
:100A4000DF91CF911F910F91FF90EF90DF90CF90AA
:100A5000BF90AF909F908F907F906F905F904F90DE
:100A60003F902F9008958F929F92AF92BF92CF9216
:100A7000DF92EF92FF920F931F93CF93DF931F921A
:100A8000CDB7DEB7982F7B01690158014A0109C033
:100A900085019601B701892F99830E949903998155
:100AA0009A5FF40141914F014111F2CF0F90DF9114
:100AB000CF911F910F91FF90EF90DF90CF90BF905B
:100AC000AF909F908F9008955F926F927F928F92D8
:100AD0009F92AF92BF92CF92DF92EF92FF920F93CD
:100AE0001F93CF93DF93682E6B01542E580147015B
:100AF000742E770C740E770CE90108C0740185011F
:100B0000452DB601862D0E944104670C29912111C3
:100B1000F5CFDF91CF911F910F91FF90EF90DF9074
:100B2000CF90BF90AF909F908F907F906F905F908D
:100B300008959C01207E3770AC01452F55274695BE
:100B400046954695240F351F982F8827990F990FA2
:100B5000990F280F391FC90108950F931F938B0117
:100B60009C01112722273327980111270027080FFE
:100B7000111D211D311DDC01CB018827AA27BB27B0
:100B8000080F191F2A1F3B1FB801C9011F910F91A0
:100B90000895CF92DF92EF92FF920F931F938B01F4
:100BA0009C0100271C7F22273327F5E036952795E7
:100BB00017950795FA95D1F7C12CD12CA8EFEA2EFD
:100BC000F12CC622D722E822F922CD2CDE2CEF2CE4
:100BD000FF240C0D1D1DAB01BC01487F5527662766
:100BE000772783E076956795579547958A95D1F74E
:100BF000040F151FC8011F910F91FF90EF90DF9018
:100C0000CF9008950E94AD050C94C905279A2F989E
:100C1000089504C094E69A95F1F781508111FACFB6
:100C20000895CF92DF92EF92FF920F931F93CF938D
:100C3000DF93D82EC12C869FE0011124F12C04E112
:100C400010E00FC02F9AC8016D2D7C2D0E94181145
:100C5000E62E862F0E9409062F988E2D0E940906E7
:100C6000F3948F2D90E08C179D0764F3DF91CF9163
:100C70001F910F91FF90EF90DF90CF900895DF923A
:100C8000EF92FF920F931F93CF93DF93EB019FE0BF
:100C9000299FC00DD11D1124D82E9FE0499FD00C53
:100CA0001124BE016F5F7F4F2DE030E04DE08D2DB0
:100CB0008F5F0E9422038FEEE82E8BE7F82E01E073
:100CC0002FE030E04FE050E0BE018D2D0E944C033C
:100CD000DF91CF911F910F91FF90EF90DF900895DA
:100CE000EF92FF920F931F93682F70E0685F7F4F22
:100CF00094E0660F771F9A95E1F72FE1E22EF12C31
:100D00000FEF1FEF2AE231E042E089E10E94640523
:100D10001F910F91FF90EF900895EF92FF920F9324
:100D20001F93682F70E0685F7F4F34E0660F771F76
:100D30003A95E1F7E12C48EFF42E0FEF1FEF25E392
:100D400031E042E089E10E9464051F910F91FF901C
:100D5000EF900895EF92FF920F931F93CF93C82FB8
:100D60008F3F09F03FC00FE716E620E630E046E986
:100D700060E570E08AE00E942203AFE7EA2EA6E673
:100D8000FA2E00E018EF20E431E042E060E670E087
:100D900083E10E94640500E010E02CE431E042E0D1
:100DA00060E770E083E10E9464050E942F09892BAF
:100DB00051F00E9433099C0142E060E770E08BE54E
:100DC0000E94BA0420C0FFE7EF2EF6E6FF2E00E0F7
:100DD00010E023E531E042E060E770E08BE50E943F
:100DE000640511C081110FC0E0EEEE2EE7E0FE2E8B
:100DF0000FE110E029E531E042E060E870E089E1D0
:100E00000E94640517C07FE7E72E76E6F72E0FE114
:100E100010E024E631E042E060E870E089E10E9401
:100E20006405C13039F460EEE62E67E0F62E2FE659
:100E300031E008C05FE7E52E56E6F52E0FE110E041
:100E40002AE731E042E060E970E089E10E94640550
:100E5000CF911F910F91FF90EF9008950F931F93E3
:100E600000E010E028E030E046E460EA70E085EA67
:100E70000E9422030E9449102FE130E0AC0160EA99
:100E800070E085EA0E94E7031F910F9108950F9388
:100E90001F9300E010E028E030E046E460E770E0F7
:100EA00085EA0E942203409184035091850320EE3D
:100EB0003FED60E770E085EA0E94E7031F910F9124
:100EC00008950F931F9300E010E028E030E046E41F
:100ED00068E870E085EA0E94220340918203509105
:100EE000830320EE37E068E870E085EA0E94E703BC
:100EF0001F910F9108950F931F9300E010E028E0D9
:100F000030E046E468EC70E085EA0E94220320E0CD
:100F100038EF45E851E068EC70E085EA0E9433055F
:100F20001F910F9108950F931F9300E010E028E0A8
:100F300030E046E468EC70E085EA0E9422031F91ED
:100F40000F910895EF92FF920F931F9380E090E02E
:100F50000E94F802BFE1EB2EF12C03E022E331E026
:100F60004CE950E067E070E087E00E944C03E12C20
:100F700018EFF12E22E430E042E450E067E070E048
:100F800087EA0E944C03E12CF12C0FEF17E02FE8C9
:100F900031E042E060E570E085EA0E94640500E02F
:100FA00010E02FEF3FEF46E951E068E670E085EA98
:100FB0000E9433052FEF3FEF42EA51E060E870E016
:100FC00085EA0E9433052FEF3FEF4CEA51E068E9D4
:100FD00070E085EA0E9433052FEF3FEF46EB51E0CA
:100FE00060EB70E085EA0E9433058CEF97E00E9489
:100FF0004F1220E038EFAB0168EB70E085EA0E9409
:10100000E7031F910F91FF90EF9008950F931F93A7
:1010100000E010E028E030E046E468EC70E085EAAB
:101020000E94220300E018EF2FEF3FEF42EC51E067
:1010300068EC70E085EA0E9433051F910F910895D6
:10104000DF92EF92FF920F931F93CF93DF938FE581
:10105000E82E83E0F82ED12C21C0FE01EE0FFF1FF9
:10106000EE0DFF1D80819181892B69F02091800315
:101070002C0F40917F034D0D00E010E06AE070E01E
:101080008AE00E943F062196C430D10531F7D394FF
:1010900088E0E80EF11C84E0D81619F0C0E0D0E03A
:1010A000DCCFDF91CF911F910F91FF90EF90DF90F8
:1010B0000895DF92EF92FF920F931F93CF93DF93E8
:1010C0000115110529F400E010E00E943F0621C03F
:1010D000EB019FE0299FC00DD11D1124D82E9FE068
:1010E000499FD00C1124BE016F5F7F4F2DE030E08F
:1010F0004DE08D2D8F5F0E942203EE24EA94FE2C9A
:1011000001E02FE030E04FE050E0BE018D2D0E9465
:101110004C03DF91CF911F910F91FF90EF90DF90E3
:101120000895CF92DF92EF92FF920F931F93CF9388
:10113000DF939EECE92E91E0F92EC12C18C0F70147
:10114000EC0FFD1F008111812C2D4D2D6AE070E008
:101150008AE00E945908D394A8968AE0D812EFCF6B
:10116000C39482E0E80EF11C84E1C81621F0C0E0CF
:10117000D0E0D12CE4CFDF91CF911F910F91FF9060
:10118000EF90DF90CF900895CF92DF92EF92FF9291
:101190000F931F93CF93DF932AE8E22E23E0F22EE2
:1011A000C12C18C0F701EC0FFD1F008111812C2DFF
:1011B0004D2D6AE070E08AEA0E945908D39428967F
:1011C00084E0D812EFCFC39482E0E80EF11C84E0F3
:1011D000C81621F0C0E0D0E0D12CE4CFDF91CF9150
:1011E0001F910F91FF90EF90DF90CF900895DF92C5
:1011F000EF92FF920F931F93CF93DF934FE5E42E6F
:1012000043E0F42ED12C20C0FE01EE0FFF1FEE0DA7
:10121000FF1D008111810115110559F020918003F6
:101220002C0F40917F034D0D6AE070E08AE00E9430
:1012300059082196C430D10539F7D39488E0E80ED7
:10124000F11C84E0D81619F0C0E0D0E0DDCFDF91CA
:10125000CF911F910F91FF90EF90DF90089582E062
:1012600090E00C94551287EB91E00C945512AF92DC
:10127000BF92CF92DF92EF92FF920F931F93CF9383
:10128000DF9361E070E082E090E00E9479123EEC32
:10129000C32E31E0D32EC4E0D0E01AC05C0122E0BE
:1012A000A20EB11CF601E00FF11F608171810E9456
:1012B0007912085D1F4FC5010039E1E01E0771F783
:1012C0006496F2E0CF0ED11CC43921E0D20721F0A0
:1012D000CE0100E010E0E2CF0FE513E0D12CF801E1
:1012E00061918F01D0FAEE24E0F8F12CCE018E0D41
:1012F0009F1D0E945B12C701880F991FC80FD91F3D
:10130000D394FBE2DF12EBCF6E0122E0C20ED11CC0
:101310008AE8E82E83E0F82E1CC05C01E2E0AE0E05
:10132000B11CF701E00FF11F608171810E947912F9
:10133000085F1F4FC5010032110579F7F8E0CF0EA5
:10134000D11C22E0E20EF11C82E9E81683E0F806E7
:1013500021F0C60100E010E0E0CF6091AC03709195
:10136000AD03CE0182960E9479126091AA0370911A
:10137000AB03CE0184960E9479126091CC01CE011C
:1013800086960E945B126091CD01CE018796DF9117
:10139000CF911F910F91FF90EF90DF90CF90BF9072
:1013A000AF900C945B128F929F92AF92BF92CF92AC
:1013B000DF92EF92FF920F931F93CF93DF93A09052
:1013C0008403B09085036EECC62E61E0D62EC4E097
:1013D000D0E01AC04C0122E0820E911C0E945512EE
:1013E000F601E00FF11F91838083085D1F4FC40158
:1013F0000039E1E01E0771F76496F2E0CF0ED11CD0
:10140000C43921E0D20721F0CE0100E010E0E2CFA4
:101410000FE513E0D12CD0FAEE24E0F8F12CCE0148
:101420008E0D9F1D0E944712F80181938F01C70105
:10143000880F991FC80FD91FD394FBE2DF12EBCF9F
:10144000B0928503A09284036E0122E0C20ED11CEB
:101450004AE8E42E43E0F42E1CC05C01E2E0AE0E4C
:10146000B11C0E945512F701E00FF11F9183808398
:10147000085F1F4FC5010032110579F7F8E0CF0E64
:10148000D11C22E0E20EF11C82E9E81683E0F806A6
:1014900021F0C60100E010E0E0CFCE0182960E946C
:1014A00055129093AD038093AC03CE0184960E94B5
:1014B00055129093AB038093AA03CE0186960E94A7
:1014C00047128093CC01CE0187960E9447128093E9
:1014D000CD01DF91CF911F910F91FF90EF90DF90A1
:1014E000CF90BF90AF909F908F900895811105C0CD
:1014F0000E9470060E94370911C082E090E00E94AD
:101500005512892B49F481E00E948D068091AE032B
:101510009091AF030E94D8110E94D30981E00895F1
:101520000E945310882361F060E070E080E090E05A
:101530000E94791260E070E082E090E00C947912F1
:1015400008950E9491080E94F7080E9447070E9490
:1015500061070E94C4080C942E07CF938FEF0E945E
:10156000AA06C0E08C2F0E94AA060E948A1081362B
:10157000F1F02CF48D30B1F08032B9F718C0833718
:1015800029F0873749F0843681F70CC081E0C130FB
:1015900009F480E0C80FE6CF81E0C11101C080E00E
:1015A000C81BE0CF8C2F0E94760A8823D9F2CF91F6
:1015B0000C94A10A15BC0E947B0781E00E948B025B
:1015C000609184037091850380E090E00E9479121D
:1015D0000E948A10813779F03CF4813649F08436D4
:1015E00039F08032A9F707C0833711F0873781F7C8
:1015F0000E94AD0AEDCF0E94930782E085BD089559
:101600008F929F92AF92BF92CF92DF92EF92FF9212
:101610000F931F93CF93DF9380917F03AFE5B3E0E8
:10162000C82EDD24C7FCD094C09180038C2E992451
:1016300087FC9094740194E18902E00CF11C112460
:1016400080E090E031C08D01040F151FE801088192
:101650001981012BE1F089010E0F1F1FE80108819C
:101660001981012B11F082E005C0D4E1AD16B1045F
:101670002CF081E080935E0380E02AC08B010C0D8A
:101680001D1D17FDF6CF0A3011050CF0F2CF6F5F6C
:101690007F4F485F5F4FB89640325105A1F60196E3
:1016A00012968430910589F09C012E0D3F1D220F6A
:1016B000331F22533E4FE0E0F0E040E050E060E0B6
:1016C00070E05C01A80CB91CBECF10925E0381E0F3
:1016D000DF91CF911F910F91FF90EF90DF90CF900E
:1016E000BF90AF909F908F900895CF93C82F909107
:1016F0007F03980F90937F030E94000B811106C017
:1017000090917F039C1B90937F0301C081E0CF9158
:101710000895809180038F5F809380030E94000B67
:10172000811107C08091800381508093800380E005
:10173000089581E00895282F30E0220F331F2253AF
:101740003E4F40E050E0F901E40FF51F60817181E8
:10175000672B69F1485D5F4F403991E0590799F770
:1017600010C0F901E40FF51FDF0112976D917C9114
:1017700071836083485D5F4F403991E0590789F775
:101780008150882349F0282F30E0220F331F225345
:101790003E4F40E050E0E5CFEEECF1E011821082E8
:1017A000B89683E0EE35F807C9F781E0089580E048
:1017B00008950F931F93CF93DF93CFE5D3E010E00D
:1017C00000E013C0FE01E80FF91F20813181232BB7
:1017D00059F5089680329105A9F703C01F5F0E9452
:1017E00091080F5F2296043019F080E090E0EACF74
:1017F000119F900111244AE0429FC001439F900D28
:1018000011242091820330918303820F931F9093C0
:1018100083038093820311110E943510DF91CF91D1
:101820001F910F910C942E0780918003800F0E94CE
:101830009B0B8823B1F2D2CFEF92FF920F931F93AD
:10184000CF93DF9315BC20917F038091800399276C
:1018500087FD909534E12302800D911D1124880F9E
:10186000991F20E030E082539E4F1AC0F701E40F29
:10187000F51F0190F081E02D309731F08E01060FB9
:10188000171FD801ED93FC93485F5F4F685D7F4F52
:101890004032510559F72E5F3F4F2830310571F026
:1018A000EC01C20FD31F60E070E040E050E0AFE514
:1018B000EA2EA3E0FA2EE20EF31ED8CF8091820327
:1018C00090918303019690938303809382030E94F7
:1018D000D90B0E946107809182039091830320912C
:1018E0008403309185032817390730F490938503DA
:1018F000809384030E94470782E085BDDF91CF91EA
:101900001F910F91FF90EF900895CF93DF930E9466
:10191000000B811126C0C1E1D0E0DF5FC4FF0EC023
:101920008D2F81950E94750B81111BC0CF70209166
:101930005E0380E1289F90011124C22BC0FF09C0E3
:101940008D2F0E94750B81110CC0C07F80915E03AA
:10195000C82BD33021F08C2F8171F9F603C080E0C1
:1019600001C081E0DF91CF910895FC0180E090E01B
:10197000DF01A80FB91F2D913C91232B29F5089663
:1019800080329105A9F79F0163E012C0D901A80F29
:10199000B91F12964D915C9113974D935C930896E5
:1019A0008032910599F761502E5F3F4F662319F001
:1019B00080E090E0EBCF1782168217861686178A92
:1019C000168A178E168ED2CFDF0120E08D919D9161
:1019D000892B09F04DC02F5F2430C1F780E090E0E3
:1019E0009F01285F3F4FD901A80FB91F4D915C910E
:1019F000452B09F085C0029688309105A1F78085B6
:101A00009185918380838285938593838283848566
:101A1000958595838483868597859783868380893A
:101A20009189918780878289938993878287848926
:101A30009589958784878689978997878687808DFA
:101A4000918D918B808B828D938D938B828B848DE6
:101A5000958D958B848B868D978D978B868B118E2C
:101A6000108E138E128E158E148E178E168E08956C
:101A700080E090E09F01285E3F4FD901A80FB91F79
:101A80004D915C91452BE1F5029688309105A9F7BF
:101A900080899189918F808F82899389938F828F9A
:101AA00084899589958F848F86899789978F868F6A
:101AB00080859185918B808B82859385938B828B9A
:101AC00084859585958B848B86859785978B868B6A
:101AD000808191819187808782819381938782879A
:101AE000848195819587848786819781978786876A
:101AF000118210821382128215821482178216823A
:101B000008958F929F92AF92BF92CF92DF92EF9201
:101B1000FF920F931F93CF93DF93CDB7DEB7A097BC
:101B20000FB6F894DEBF0FBECDBF4C019E012F5FF4
:101B30003F4F7E0149E0E40EF11CF9018C011CC00D
:101B40006F01C40ED51E5801A40EB51ED501AD906F
:101B5000BC90D601AD92BC92485F5F4F40325105B8
:101B600079F70E5F1F4F3296EE15FF0529F46C01D1
:101B7000B8E1CB0ED11C24C040E050E0E1CF5901C8
:101B8000A40EB51ED501AD90BC90662319F0B782A6
:101B9000A68203C0D801AD92BC92485F5F4F3297D6
:101BA0000E5F1F4F4032510551F72E5F3F4FB8E097
:101BB0008B0E911C48E0C41AD1082E153F0529F060
:101BC0008601F40140E050E0DACFA0960FB6F89419
:101BD000DEBF0FBECDBFDF91CF911F910F91FF9060
:101BE000EF90DF90CF90BF90AF909F908F900C942C
:101BF000B50CEF92FF920F931F93CF93DF93CDB766
:101C0000DEB7A0970FB6F894DEBF0FBECDBF1FE5BD
:101C1000E12E13E0F12E8E010F5F1F4FF801D70167
:101C200094E02D913C9111973183208318962D914A
:101C30003C9119973187208750962D913C9151976F
:101C4000318B208B58962D913C915997318F208F55
:101C50009150129632969111E4CF682F8FE593E060
:101C60000E94810D0E94850C811123C020E0F801A3
:101C700080819181F70191838083F801808591852E
:101C8000F70191878087F80180899189F701918B0D
:101C9000808BF801808D918DF701918F808F2F5F60
:101CA0000E5F1F4FF2E0EF0EF11C243001F780E0D1
:101CB00001C081E0A0960FB6F894DEBF0FBECDBF85
:101CC000DF91CF911F910F91FF90EF900895AF9208
:101CD000BF92CF92DF92EF92FF920F931F93CF9319
:101CE000DF9380918603909187030E9482110E9466
:101CF0007D1167E070E00E9418118C019927FC01AA
:101D0000E657FC4FD490FC01EE0FFF1FE458FC4F48
:101D100085919491F82EE92EAFE5B3E0CAE8D3E0BF
:101D200020E08881998111969C938E93888599856E
:101D300019969C938E9318978889998951969C93AC
:101D40008E935097888D998D59969C938E93589722
:101D50002F5F22961296243021F783E080937F0331
:101D6000109280030E94850C882309F49CC0AAE885
:101D7000B3E040E050E0C0E8D0E0AD2CB12C22C090
:101D8000BE01082E02C0759567950A94E2F76A2194
:101D90007B21672B19F460E070E002C06F2D7E2D6F
:101DA0006D01C20ED31EF601718360830196285F18
:101DB0003F4F2032310521F712964C5F5F4F48307C
:101DC000510521F0CA0120E030E0DACF10928F03F4
:101DD00010928E03109297031092960310929F0315
:101DE00010929E031092A7031092A60310929103E3
:101DF0001092900310929903109298031092A103ED
:101E00001092A0031092A9031092A8030E947D11C2
:101E100064E070E00E9418118230910539F083303F
:101E2000910561F1019779F560E029C0002359F12E
:101E3000EAE8F3E0A4EAB3E02D913C9111978081A8
:101E4000918128273927318320838D919C91119787
:101E50008227932711969C938E9320813181282786
:101E60003927318320833896189783E0EA3AF807B8
:101E700019F78AE893E00E94B50C05C061E08AE892
:101E800093E00E94810D0E947D11AA2797FDA095E5
:101E9000BA2F8093860390938703A0938803B0930F
:101EA000890381E001C080E0DF91CF911F910F9104
:101EB000FF90EF90DF90CF90BF90AF9008952EEC01
:101EC00031E010C0F901E80FF91F118210828896E5
:101ED000803941E09407B1F72E5F3F4F81E0263F04
:101EE000380719F080E090E0EDCF10928303109254
:101EF000820381E08093810380E090E00E9455128C
:101F000090938503809384030E947D11AA2797FDF7
:101F1000A095BA2F8093860390938703A09388039C
:101F2000B09389030E94670E0E94670E0E94A10A67
:101F30000E941B100C94DA0A15BC0E9406086091DE
:101F400084037091850380E090E00E947912809173
:101F5000AE039091AF030E94D8110C945F0F0E94C2
:101F60005310882349F080E090E00E94821141E004
:101F700050E060E070E011C08CEF97E00E944F12DB
:101F8000CB010E9482118CEF97E00E944F12AB01AF
:101F9000BC014F5F5F4F6F4F7F4F8CEF97E00C940A
:101FA0006D1281E08093CC0108951092CC010895C8
:101FB0001F920F920FB60F9211242F933F934F93BE
:101FC0005F938F939F938091CC018823B1F0809190
:101FD000AC039091AD039C012F5F3F4F3093AD0355
:101FE0002093AC03843F9140D0F01092AD03109247
:101FF000AC0381E08093CD0112C08091AC0390913D
:10200000AD032091AA033091AB03AC014F5F5F4F4A
:102010005093AD034093AC038217930730F79F9121
:102020008F915F914F913F912F910F900FBE0F9025
:102030001F901895189515BC16BC1092AD03109200
:10204000AC038AE698E19093AB038093AA031092C5
:10205000CD01089515BC789482E084BD90EF97BDC2
:1020600016BC80936E000C941B108091AA03909173
:10207000AB038132934030F08091AA039091AB037F
:10208000059702C080E293E09093AB038093AA038C
:1020900008958091AA039091AB032AE638E1281BAA
:1020A000390BC901089580910001853051F48BEFFF
:1020B00097E00E94471291E08A3A09F490E09093E9
:1020C000000180910001882329F06AEA8BEF97E0F4
:1020D0000E947F12809100010895CF93C82F8A300B
:1020E00019F48DE00E946D108091C00085FFFCCF37
:1020F000C093C6002C2F332727FD30958C2F932FAC
:10210000CF9108958091C00087FFFCCF8091C600D9
:1021100090E008958091C00087FF03C08091C600C1
:10212000089580E008958AB18C7F8AB98BB183606D
:102130008BB91092C5008DE48093C4001092C0004A
:1021400088E18093C10086E08093C20062E870E17C
:102150008DE690E10C948D110E94E8010E94F70831
:102160000E948A108436C9F03CF4873581F08136AC
:10217000C1F0803211F51BC08337E1F0873719F0C9
:102180008137D9F414C00E94200880E003C00E9467
:10219000200881E00E94F90DE1CF0E94200881E033
:1021A00003C00E9420088FEF0E94750BD7CF0E94BA
:1021B000DA0AD6CF0E94D10FD3CF8091CD018823E8
:1021C00079F21092CD010E9420080E94890B8111A2
:1021D000C5CF0E94D50F0E94F7080E941C0C0E94D8
:1021E000670E811102C00E949C0F0E94C408B6CFE6
:1021F000991B79E004C0991F961708F0961B881F59
:102200007A95C9F780950895AA1BBB1B51E107C0B9
:10221000AA1FBB1FA617B70710F0A61BB70B881F76
:10222000991F5A95A9F780959095BC01CD01089505
:1022300097FB072E16F4009407D077FD09D00E9473
:10224000041107FC05D03EF4909581959F4F0895A9
:10225000709561957F4F08958F929F92AF92BF9234
:10226000CF92DF92EF92FF92CF93DF93EC016881E0
:1022700079818A819B81611571058105910521F420
:1022800064E279ED8BE597E02DE133EF41E050E03A
:102290000E940C1449015A019B01AC01A7EAB1E468
:1022A0000E94F9136B017C01ACEEB4EFA50194011F
:1022B0000E940714C60ED71EE81EF91EF7FE06C0C0
:1022C00081E0C81AD108E10880E8F80AC882D982FA
:1022D000EA82FB82E894D7F8EE24FF24C601DF915E
:1022E000CF91FF90EF90DF90CF90BF90AF909F90F5
:1022F0008F9008950E942C11089581E091E00E9432
:102300002C110895A0E0B0E08093010190930201A8
:10231000A0930301B093040108950F931F93CF93EB
:10232000DF93EC018B01009731F46115710519F40D
:10233000E0E0F0E037C06EE070E081E090E00E9405
:102340008D12FC010097A1F380E88383011511052C
:1023500071F01387028781E883838091AE039091A7
:10236000AF03892B21F4F093AF03E093AE032097E2
:10237000C9F0D187C0878381826083838091B00355
:102380009091B103892B71F4F093B103E093B00302
:102390008091B2039091B303892B21F4F093B3039E
:1023A000E093B203CF01DF91CF911F910F91089578
:1023B000CF93DF93EC013B8130FF34C036FF0AC07E
:1023C0003F7B3B838E819F8101969F838E832A81F1
:1023D00030E02AC032FF0FC0E881F981808199275F
:1023E00087FD9095009719F430623B831BC03196AE
:1023F000F983E8830EC0EA85FB85099597FF09C03C
:102400002B81019611F480E101C080E2822B8B8345
:1024100009C02E813F812F5F3F4F3F832E839C0158
:10242000332702C02FEF3FEFC901DF91CF9108950D
:102430000F931F93CF93DF938C01E091B003F09142
:10244000B103838181FF1BC0C0E0D0E005C00995C6
:10245000892B11F0CFEFDFEFF80181918F016091AF
:10246000B0037091B103DB011896ED91FC911997BF
:102470008111EDCF8AE00995892B09F402C0CFEFD5
:10248000DFEFCE01DF91CF911F910F910895F99960
:10249000FECF92BD81BDF89A992780B50895A6E137
:1024A000B0E044E050E00C94EB13A8E1B0E042E06F
:1024B00050E00C94EB13262FF999FECF92BD81BD0D
:1024C000F89A019700B4021639F01FBA20BD0FB672
:1024D000F894FA9AF99A0FBE08950396272F0E944E
:1024E0005C120E945B12252F0E945C12242F0C9418
:1024F0005C120196272F0E945C120C945B12262F0F
:10250000F999FECF1FBA92BD81BD20BD0FB6F894D8
:10251000FA9AF99A0FBE019608950F931F93CF93DD
:10252000DF93689F8001699F100D789F100D112423
:10253000C8010E94AB12C82FD92F209731F0A801F3
:1025400060E070E08C2F0E94E213CE01DF91CF910A
:102550001F910F9108950F931F93CF93DF938230B4
:10256000910510F482E090E0E091B603F091B7039A
:1025700020E030E0C0E0D0E023C040815181481726
:102580005907A8F04817590761F482819381209771
:1025900019F09B838A832EC09093B7038093B60370
:1025A00029C02115310529F04217530710F0A90160
:1025B00002C0BE01DF0102811381EF019A01F8011F
:1025C0003097D9F62115310509F1281B390B243034
:1025D000310590F412968D919C91139761157105B8
:1025E00021F0FB019383828304C09093B70380930F
:1025F000B603FD01329644C0FD01E20FF31F819343
:102600009193225031092D933C933AC02091B40309
:102610003091B503232B41F420910701309108013B
:102620003093B5032093B403209105013091060146
:102630002115310541F42DB73EB740910901509164
:102640000A01241B350BE091B403F091B503E217A6
:10265000F307A0F42E1B3F0B2817390778F0AC01C5
:102660004E5F5F4F2417350748F04E0F5F1F5093A2
:10267000B5034093B4038193919302C0E0E0F0E08E
:10268000CF01DF91CF911F910F910895EF92FF92AB
:102690000F931F93CF93DF93009709F48EC0DC0153
:1026A000129713961C921E921297E090B603F09028
:1026B000B703E114F10489F42D913C911197280F8F
:1026C000391F8091B4039091B5038217930789F560
:1026D000B093B503A093B40370C0E70120E030E0ED
:1026E00001C0EA01CA17DB0738F44A815B819E0109
:1026F00041155105B1F722C0AC0142505109FA0110
:10270000D383C28300811181BC01600F711F6C17DC
:102710007D0761F468817981600F711F6E5F7F4F63
:10272000718360836A817B817383628321153105A4
:1027300029F4B093B703A093B6033FC0F901B38364
:10274000A283E90149915991C40FD51FAC17BD0768
:1027500071F4DC019E918E91840F951F02969183F6
:10276000808312968D919C91139793838283A0E02E
:10277000B0E002C0D7017C01F7018281938100970C
:10278000C9F7C701029620813181820F931F2091E2
:10279000B4033091B5032817390779F4109729F459
:1027A0001092B7031092B60304C013961C921E92A7
:1027B0001297F092B503E092B403CDB7DEB7E6E02E
:1027C0000C943414DC0101C06D9341505040E0F78B
:1027D0000895DC01CB01FC01F999FECF06C0F2BDE2
:1027E000E1BDF89A319600B40D9241505040B8F7CF
:1027F00008950E944314A59F900DB49F900DA49F2F
:10280000800D911D11240895B7FF0C94F9130E94B7
:10281000F913821B930B0895052E97FB16F4009471
:1028200007D057FD0DD00E944F1407FC09D07EF44D
:1028300090958095709561957F4F8F4F9F4F08952C
:1028400050954095309521953F4F4F4F5F4F0895DC
:102850002A88398848885F846E847D848C849B8430
:10286000AA84B984C884DF80EE80FD800C811B813E
:10287000AA81B981CE0FD11D0FB6F894DEBF0FBE6D
:10288000CDBFED010895A29FB001B39FC001A39FEA
:1028900001D0B29F700D811D1124911D0895A1E2F8
:1028A0001A2EAA1BBB1BFD010DC0AA1FBB1FEE1FCA
:1028B000FF1FA217B307E407F50720F0A21BB30B15
:1028C000E40BF50B661F771F881F991F1A9469F791
:1028D00060957095809590959B01AC01BD01CF01ED
:0628E0000895F894FFCFFB
:1028E60005010000000000B80320005465747269F9
:1028F600733A205541525420636F6E74726F6C2088
:10290600696E74657266616365002D205361766930
:102916006E67202D002D204661696C6564202D00B0
:10292600536176652026204C6F61640053636F7295
:102936006520003C4E2F413E003E3E2053617665A9
:10294600203C3C0020202053617665202020003E5C
:102956003E204C6F6164203C3C002020204C6F617F
:1029660064202020002D205041555345202D005431
:102976006574726973002A204869676865737420F4
:102986002A002A2053636F7265202A002A2053707A
:10299600656564202A002A2053746172747570205C
:0C29A6002A0047616D656F7665722100A4
:00000001FF
