:100000000C94C1010C94E9010C94E9010C94E901F0
:100010000C94E9010C94E9010C94E9010C94E901B8
:100020000C94E9010C94E9010C94E9010C94E901A8
:100030000C94E9010C94E9010C94E9010C94E90198
:100040000C94E9010C94E9010C94E9010C94E90188
:100050000C94E9010C94E9010C94E9010C94E90178
:100060000C94E9010C94E9010C94E9010C94E90168
:100070000C94E9010C94E9010C94E90100000000E2
:10008000000000000020202020200020005050A070
:1000900000000000005050F850F85050002070A0B0
:1000A0007028A87000C8C810204098980040A0A0F0
:1000B00048A8906800301020000000000010204088
:1000C0004040201000402010101020400020A8A820
:1000D00070A8A82000202020F82020200000000088
:1000E0000030102000000000F800000000000000B8
:1000F0000000606000080810204080800030484800
:1001000048484830001030101010101000304808D7
:100110001020407800304808300848300010305037
:100120005090F8100078407048084830003048403F
:1001300070484830007808081010202000304848E7
:1001400030484830003048483808483000003030E7
:100150000030300000003030003010200008102047
:10016000402010080000F00000F000000080402057
:10017000102040800070888810200020007088E8DF
:10018000A8E8907800602020505070D800F04848CF
:10019000784848F8007048808080C87800F050485F
:1001A000484858F000F84840704040F800F848408F
:1001B000705040E0007048808098C87800D8505057
:1001C000705050D800702020202020700070101037
:1001D0001010906000D85050606050D800F040403F
:1001E000404048F80088D8D8A8A888880088C8A8BF
:1001F000A8A89888007050888888D87000F048486F
:10020000784040E0007088888898703800F048484E
:10021000785050D8007088807008087800F8A820BE
:100220002020203000D850505050507000D85050EE
:1002300050507020008888A8A8A8505000D850506E
:10024000205050D800D850505020207000F8901006
:10025000204048F80070404040404070008080409E
:1002600020100808007010101010107000205000AE
:100270000000000000000000000000F80020100056
:10028000000000000000006090709068008080E036
:10029000909090E0000000609080906000101070DE
:1002A000909090700000006090F0806000102070CE
:1002B000202020200068906080708870008080E09E
:1002C000909090900020002020202020001000100E
:1002D0001010106000808090A0C0A090002020200E
:1002E00020202018000000D0A8A8A8A8000000E046
:1002F000909090900000006090909060000060905E
:1003000090E080800000609090701010000000B0BD
:10031000C080808000000070806010E0004040F0ED
:1003200040404030000000909090907000000088A5
:1003300088885020000000A8A8A85050000000881D
:100340005020508800000088502020C0000000F895
:10035000102040F8003020204020203000202020B5
:1003600020202020006020201020206000689000C5
:10037000000000000000000000000000571286127C
:10038000971211241FBECFEFD0E1DEBFCDBF13E027
:10039000A0E0B1E0ECE0FFE202C005900D92A436CF
:1003A000B107D9F713E0A4E6B3E001C01D92AE3B5C
:1003B000B107E1F713E0C2E8D3E004C02297FE01E1
:1003C0000E94DF12CC37D107C9F70E9405110C94A7
:1003D00084170C9400000E94070262E08AE793E011
:1003E0000E94BB080E94B40A9093B7038093B6039F
:1003F00060E070E08AE793E00C94CB089FEF97B938
:100400008111149868B91398139A149A08951F9338
:10041000CF93DF9385B7806885BF85B7806885BF38
:100420008FE781B98DEF82B917B88FEF88B912982D
:100430001098139A159A149A169A28E22A95F1F7A9
:10044000129A8FEF94E624E0815090402040E1F72B
:1004500000C0000068E281E00E94FE0161E181E0ED
:100460000E94FE018FEF94E624E0815090402040EE
:10047000E1F700C0000064E381E00E94FE0168E350
:1004800081E00E94FE0163E181E00E94FE0160E2E2
:1004900081E00E94FE016AE381E00E94FE0165E5C1
:1004A00080E00E94FE0166E381E00E94FE0168E4B4
:1004B00080E00E94FE016CE281E00E94FE01C0E447
:1004C000D1E010C060E080E00E94FE0160E080E0CA
:1004D0000E94FE0160E080E00E94FE01115091F751
:1004E000219711F010EFEECF69E281E0DF91CF911B
:1004F0001F910C94FE01CF93C82F66E381E00E9408
:10050000FE01C13041F028F0C23039F0C33061F44F
:1005100006C068E205C068E403C068EE01C068E890
:1005200080E0CF910C94FE01CF91089517B88FEF22
:1005300088B9159884E08A95F1F786B1159A0895DF
:10054000882311F0119A0895119808952F923F92DF
:100550004F925F926F927F928F929F92AF92BF92D3
:10056000CF92DF92EF92FF920F931F93CF93DF937F
:10057000CDB7DEB72B970FB6F894DEBF0FBECDBF59
:100580003C017B876A875B834A83298317012801A3
:10059000DD82CC82BF82AE8217FF1EC0DC01ED91EE
:1005A000FC9102A0F3A1E02D6501EC80FD800DE23D
:1005B0000995EA85FB85398126E0329FE00DF11D22
:1005C0001124FB87EA8737FE03C031942194310858
:1005D000442437FC4094542C09E010E0812C8AEC30
:1005E000982E8AE9A82E8BE3B82E9AE0C92ED12C3A
:1005F000E12CF12CC201B101A50194010E94BB12B2
:10060000232B242B252B09F443C08981A6E08A9F44
:10061000C00111249987888735C0D301ED90FC90E3
:10062000C201B101A50194010E94BB12CA01B90126
:100630002AE030E040E050E00E94BB12062F005D4F
:10064000D7019296ED91FC919397CE80DF80EC805C
:10065000FD8029814A815B816A857B85C30109957B
:10066000EA85FB8528853985E20FF31FFB87EA873A
:10067000C501B4012AE030E040E050E00E94BB1226
:1006800049015A0181149104A104B10431F60DC04D
:10069000C501B401A70196010E94BB1249015A018C
:1006A0000150110909F0A6CFB0CF2B960FB6F894E0
:1006B000DEBF0FBECDBFDF91CF911F910F91FF9095
:1006C000EF90DF90CF90BF90AF909F908F907F90F2
:1006D0006F905F904F903F902F9008952F923F9290
:1006E0004F925F926F927F928F929F92AF92BF9242
:1006F000CF92DF92EF92FF920F931F93CF93DF93EE
:10070000CDB7DEB728970FB6F894DEBF0FBECDBFCA
:100710001C0178876F835A83498328013901FC8241
:10072000EB82DE82CD8237FF19C0DC01ED91FC91B6
:1007300000A0F1A1E02D76010B811C812DE209952D
:10074000EF81F8853696F887EF8357FE03C0519402
:1007500041945108662457FC6094762C09E010E01F
:10076000812C2AEC922E2AE9A22E2BE3B22E3AE01B
:10077000C32ED12CE12CF12CC301B201A5019401AF
:100780000E94BB12232B242B252BC1F131C0D10198
:100790000D911C91C301B201A50194010E94BB12ED
:1007A000CA01B9012AE030E040E050E00E94BB12EB
:1007B000262F205DD8019096ED91FC919197ED80C8
:1007C000FE800B811C8149815A816F817885C1012E
:1007D0000995EF81F8853696F887EF83C501B40156
:1007E0002AE030E040E050E00E94BB1249015A018B
:1007F00081149104A104B10451F60DC0C501B401E6
:10080000A70196010E94BB1249015A01015011092A
:1008100009F0B2CFEDCF28960FB6F894DEBF0FBE29
:10082000CDBFDF91CF911F910F91FF90EF90DF909F
:10083000CF90BF90AF909F908F907F906F905F9080
:100840004F903F902F9008952F923F924F925F923A
:100850006F927F928F929F92AF92BF92CF92DF92D0
:10086000EF92FF920F931F93CF93DF9300D000D0AE
:1008700000D0CDB7DEB75C014B013A013A83298342
:100880001C830B838E2D90E09E838D831901281A83
:10089000390AD501ED91FC9104A4F5A5E02D76016E
:1008A0008C019101C50109954B805C800D811E81F1
:1008B000401A510AD501ED91FC9169817A81680D48
:1008C000791D601B710B04A4F5A5E02D82012D811B
:1008D0003E81A301C5010995D501ED91FC914D81A2
:1008E0005E81460D571D04A4F5A5E02D2D813E81A6
:1008F000B401C5010995D501ED91FC914B815C8155
:10090000460D571D8D819E81481B590BBC01680DFA
:10091000791D04A4F5A5E02D8C019101C50109956F
:1009200026960FB6F894DEBF0FBECDBFDF91CF91F4
:100930001F910F91FF90EF90DF90CF90BF90AF90FD
:100940009F908F907F906F905F904F903F902F90EF
:1009500008952F923F924F925F926F927F928F9263
:100960009F92AF92BF92CF92DF92EF92FF920F933E
:100970001F93CF93DF9300D000D0CDB7DEB74C01EB
:100980005B016A013C832B8362177307A1F4041790
:10099000150730F4C026D1260C251D25C026D126EA
:1009A000D401ED91FC910C191D0904A4F5A5E02DCD
:1009B00021E030E01CC040175107F1F4EB81FC81CD
:1009C000E617F70740F4AE26BF26EA25FB25FC8391
:1009D000EB83AE26BF26D401ED91FC912B813C81A7
:1009E0002A193B0904A4F5A5E02D01E010E0A601B9
:1009F000B501C401099599C04B805C80461A570A1D
:100A000057FE03C051944194510838016C187D0879
:100A100077FE03C07194619471084614570408F07E
:100A200042C00C151D0580F4EB81FC81AE26BF266B
:100A3000EA25FB25FC83EB83AE26BF26C026D12604
:100A40000C251D25C026D12620E030E080E090E076
:100A50001DC0D401ED91FC91B3010E94A7122B019E
:100A60004A0C5B1CC901B3010E94A712461A570A1F
:100A700006A4F7A5E02D9701A601B201C4010995CE
:100A8000BFEFCB1ADB0A29813A81C1012B803C8060
:100A9000280E391EF901EA0DFB1DFA83E9830C15B6
:100AA0001D05B8F642C04B815C814A155B0570F4A8
:100AB000A426B5264A255B255C834B83A426B52650
:100AC000C026D1260C251D25C026D12620E030E0E9
:100AD00080E090E01DC0D401ED91FC91B2010E9434
:100AE000A7123B016C0C7D1CC901B2010E94A71228
:100AF000661A770A06A4F7A5E02D9701A301B501B0
:100B0000C4010995BFEFAB1ABB0A29813A81C10123
:100B10001C01200E311EF901EC0DFD1DFA83E98345
:100B20004B815C814A155B05B0F60F900F900F90DA
:100B30000F90DF91CF911F910F91FF90EF90DF9079
:100B4000CF90BF90AF909F908F907F906F905F906D
:100B50004F903F902F9008954F925F926F927F92A7
:100B60008F929F92AF92BF92CF92DF92EF92FF92BD
:100B70000F931F93CF93DF936C01EB015A01480150
:100B8000370129010DC0D601ED91FC9100A0F1A122
:100B9000E02D73018401A501BE01C60109952696C9
:100BA000F20121912F012111EECFDF91CF911F9101
:100BB0000F91FF90EF90DF90CF90BF90AF909F90FC
:100BC0008F907F906F905F904F9008952F923F92FB
:100BD0004F925F926F927F928F929F92AF92BF924D
:100BE000CF92DF92EF92FF920F931F93CF93DF93F9
:100BF00000D000D01F92CDB7DEB75C017D836C833F
:100C00004A01322F3701260186E0289FA0011124D6
:100C10005A834983180118C0D501ED91FC9102A0B7
:100C2000F3A1E02D62017301232FA4016C817D816A
:100C3000C5013B830995EC81FD8149815A81E40F0F
:100C4000F51FFD83EC833B81D1010D911D01011145
:100C5000E3CF0F900F900F900F900F90DF91CF91F7
:100C60001F910F91FF90EF90DF90CF90BF90AF90CA
:100C70009F908F907F906F905F904F903F902F90BC
:100C800008954F925F926F927F928F929F92AF9250
:100C9000BF92CF92DF92EF92FF920F931F93CF9369
:100CA000DF93B22EA02E37014601C22ED12CE601D1
:100CB000E3E0CC0FDD1FEA95E1F726E0B29E70017C
:100CC0001124DC01ED91FC9100A8F1A9E02D8E0129
:100CD000970109956CE281E00E94FE01512C0A2DDA
:100CE000112707FD109500521109F3E0000F111FA5
:100CF000FA95E1F7B1E0CB1AD1082DC0852D6B2D07
:100D00000E949B12F801E80FF11DE458FF4F449038
:100D1000A12C1BC047FE06C0672D80E00E94FE018B
:100D2000662D05C0692D80E00E94FE01682D80E0DF
:100D30000E94FE018A2D6B2D0E949B12292F30E00C
:100D40002C153D0509F4440CA3942A2D30E02E15F2
:100D50003F0504F35394252D30E02C173D0774F222
:100D6000DF91CF911F910F91FF90EF90DF90CF9087
:100D7000BF90AF909F908F907F906F905F904F90BB
:100D80000895AF92BF92CF92DF92EF92FF920F93AE
:100D90001F93CF93DF93C22FB02EA12EDC01ED91D4
:100DA000FC9100A8F1A9E02D08E010E026E030E079
:100DB00009956CE281E00E94FE01C12CD12CDD2757
:100DC000C7FDD095A097A3E0CC0FDD1FAA95E1F752
:100DD000F601EC0FFD1FE458FF4F049116E007FFEA
:100DE00006C06A2D80E00E94FE016B2D05C06F2DAC
:100DF00080E00E94FE016E2D80E00E94FE01000F47
:100E0000115069F7BFEFCB1ADB0A88E0C816D1048E
:100E1000F9F6DF91CF911F910F91FF90EF90DF9046
:100E2000CF90BF90AF900895AF92BF92CF92DF92D4
:100E3000EF92FF920F931F93CF93DF93E901580135
:100E4000DC01ED91FC9100A8F1A9E02D09956CE27F
:100E500081E00E94FE0112C06F2D80E00E94FE0121
:100E60006E2D80E00E94FE01BFEFCB1ADB0A02C0AC
:100E7000C12CD12CCA14DB0479F721972097C1F734
:100E8000DF91CF911F910F91FF90EF90DF90CF9066
:100E9000BF90AF900895BF92CF92DF92EF92FF92F2
:100EA0000F931F93CF93DF93EB017A0169016AE2FD
:100EB00081E00E94FE016D2F80E00E94FE01BC2EA9
:100EC0006C2F80E00E94FE012197CC0DDD1D6D2F5F
:100ED00080E00E94FE016B2D61506C0D80E00E944D
:100EE000FE016BE281E00E94FE016F2D80E00E9416
:100EF000FE01CE2D6E2D80E00E94FE0181E0E81AF9
:100F0000F108E00EF11E6F2D80E00E94FE016C2FB3
:100F10006150600F80E0DF91CF911F910F91FF90A2
:100F2000EF90DF90CF90BF900C94FE01CF93DF93B2
:100F3000EC016AE281E00E94FE0160E080E00E9434
:100F4000FE0160E080E00E94FE018885998501979E
:100F5000692F80E00E94FE016885615080E00E9458
:100F6000FE016BE281E00E94FE0160E080E00E94F1
:100F7000FE0160E080E00E94FE018A859B8501976A
:100F8000692F80E00E94FE016A85615080E0DF9158
:100F9000CF910C94FE010F931F93CF93DF93E90140
:100FA000DC01ED91FC9100A8F1A9E02D01E010E039
:100FB00021E030E009956CE281E00E94FE016D2F96
:100FC00080E00E94FE016C2F80E0DF91CF911F91A5
:100FD0000F910C94FE01CF92DF92EF92FF920F934C
:100FE0001F93CF93DF93EC01D62EC72EE881F981B2
:100FF00002A8F3A9E02D09956CE281E00E94FE01B0
:1010000000E010E015C06C2D80E00E94FE016D2D07
:1010100080E00E94FE018FEFE81AF80A02C0E12C7E
:10102000F12C8A859B85E816F90668F30F5F1F4F40
:10103000888599850817190790F3DF91CF911F9143
:101040000F91FF90EF90DF90CF9008950F931F9333
:10105000CF93DF931F92CDB7DEB78C01862F6983C4
:101060000E947B026981613071F028F0623019F0D2
:10107000633091F408C020E431E0F8013187208723
:1010800020EF30E007C020EF30E0F8013187208703
:1010900020E431E033872287F80163830F90DF91EA
:1010A000CF911F910F910895862F0C94A002DC011F
:1010B00012962C91129786E0289F90011124149685
:1010C0008D919C911597820F931F15969C938E93EB
:1010D0001497820F931F18964D915C91199748179A
:1010E000590740F4ED91FC91119704A8F5A9E02D62
:1010F000CD0109940895CF93DF93EC011D821C82EA
:101100002A8188E0289F900111248E819F81820F7F
:10111000931F9F838E83820F931F4A855B85481799
:10112000590758F4E881F9816E857F85068CF78D23
:10113000E02DCE0109951F821E82DF91CF91089587
:10114000FC018DE093E091838083158214821782E5
:10115000168281E08283838380EF90E0918780878D
:1011600080E491E0938782878FEF9FEF9587848754
:10117000178616860895CF93DF93EC01E881F981F5
:101180000288F389E02D0995CE01DF91CF91089572
:10119000FC01628308951F93CF93DF931F92CDB715
:1011A000DEB7182F81E099830E94A002812F9981D8
:1011B0000F90DF91CF911F9108951F93CF93DF93ED
:1011C0001F92CDB7DEB7182F80E099830E94A0024E
:1011D000812F99810F90DF91CF911F910895CF9228
:1011E000DF92EF92FF920F93CF93DF93EC01E881B0
:1011F000F9816A3021F404A8F5A9E02D15C0CE8448
:10120000DF84EC84FD844E815F818C819D8102A00E
:10121000F3A1E02D062F2A81BC01CE010995E881BA
:10122000F98106A8F7A9E02DCE010995CE01DF913D
:10123000CF910F91FF90EF90DF90CF900895682F9E
:101240008AE793E00E94EF0880E090E008954F92D3
:101250005F926F927F928F929F92AF92BF92CF9246
:10126000DF92EF92FF920F931F93CF93DF938C0146
:101270004A015B01C9E0D0E0C12C8AECD82E8AE992
:10128000E82E8BE3F82E9AE0492E512C612C712C1C
:10129000C501B401A70196010E94BB12232B242B88
:1012A000252B29F119C0C501B401A70196010E949F
:1012B000BB12CA01B901A30192010E94BB12605D79
:1012C000C8010E94EF08C701B601A30192010E9464
:1012D000BB1269017A0105C0BAE04B2E512C612C7A
:1012E000712CC114D104E104F104E9F60BC0C7016B
:1012F000B601A30192010E94BB1269017A012197F4
:1013000039F6EACFC801DF91CF911F910F91FF907D
:10131000EF90DF90CF90BF90AF909F908F907F9095
:101320006F905F904F9008954F925F926F927F926F
:101330008F929F92AF92BF92CF92DF92EF92FF92E5
:101340000F931F93CF93DF938C014A015B0177FFCB
:1013500007C0882499245401841A950AA60AB70A5A
:1013600077FF04C06DE2C8010E94EF08C9E0D0E039
:10137000C12C3AECD32E3AE9E32E3BE3F32E4AE0BC
:10138000442E512C612C712CC501B401A70196018A
:101390000E94BB12232B242B252B29F119C0C50138
:1013A000B401A70196010E94BB12CA01B901A301B1
:1013B00092010E94BB12605DC8010E94EF08C70144
:1013C000B601A30192010E94BB1269017A0105C016
:1013D0002AE0422E512C612C712CC114D104E1045D
:1013E000F104E9F60BC0C701B601A30192010E9406
:1013F000BB1269017A01219739F6EACFC801DF9162
:10140000CF911F910F91FF90EF90DF90CF90BF9001
:10141000AF909F908F907F906F905F904F900895C6
:10142000CF92DF92EF92FF920F931F93CF93DF93B0
:101430006C018B0124E030E0C0E1D7E2EAE0F0E0AB
:10144000C801BE010E94A712672BD1F013C0C801CA
:10145000BE010E94A712CB01B7010E94A712682FFC
:10146000605DC6010E94EF08CE01B7010E94A7127D
:10147000EB0103C05AE0E52EF12C209741F709C09B
:10148000CE01BF010E94A712EB0121503109C1F624
:10149000F1CFC601DF91CF911F910F91FF90EF9097
:1014A000DF90CF900895CF92DF92EF92FF920F934B
:1014B0001F93CF93DF936C018B0177FF04C000274C
:1014C0001127061B170B77FF04C06DE2C6010E94AF
:1014D000EF0824E030E0C0E1D7E2EAE0F0E0C80144
:1014E000BE010E94A712672BD1F013C0C801BE0134
:1014F0000E94A712CB01B7010E94A712682F605D5E
:10150000C6010E94EF08CE01B7010E94A712EB01AD
:1015100003C06AE0E62EF12C209741F709C0CE0106
:10152000BF010E94A712EB0121503109C1F6F1CF92
:10153000C601DF91CF911F910F91FF90EF90DF9047
:10154000CF9008950F931F93CF93DF938C01EB01FE
:1015500002C00E94EF086991C8016111FACFDF91C2
:10156000CF911F910F91089580918A0390918B03E1
:10157000892B51F460E070E08FE199E00E94E31262
:1015800090938B0380938A0380918A0390918B03BD
:10159000089584B1806B84B9269885B18F7085B920
:1015A00082E58CBD8DB58E7F8DBD08958EBD0DB449
:1015B00007FEFDCF08950DB407FEFDCF8EB508954B
:1015C000BF92CF92DF92EF92FF920F931F93CF9330
:1015D000DF93EC01162F69017A01B02EE881F981C1
:1015E0000088F189E02D0FEF20E030E0A90167E3EA
:1015F0000995E881F9810088F189E02D0B2DA7017B
:101600009601612FCE010995DF91CF911F910F9126
:10161000FF90EF90DF90CF90BF90089583B18170DD
:101620000895EF92FF920F93CF93DF9300D000D0F5
:101630001F92CDB7DEB77C01DC01ED91FC91008CEF
:10164000F18DE02D2D833C834B835A83698309956B
:10165000D701ED91FC91008CF18DE02DC70109952A
:101660006981862F80640E94D60A5A81852F0E9444
:10167000D60A4B81842F0E94D60A3C81832F0E9478
:10168000D60A2D81822F0E94D60A802F880F816072
:101690000F900F900F900F900F90DF91CF910F91BF
:1016A000FF90EF900C94D60ADF92EF92FF920F9387
:1016B0001F93CF93DF938C01C0E0D0E084E6D82E57
:1016C0007801EC0EFD1E8FEF0E94D60A0E94DB0A05
:1016D000F70182A38F3F31F4DA94A9F703C0F80130
:1016E00082A105C02196C530D10541F7F8CFDF9121
:1016F000CF911F910F91FF90EF90DF900895CF92BF
:10170000DF92EF92FF920F931F93CF93DF931F927D
:10171000CDB7DEB78C01663008F065E0F12C16C05D
:1017200094E6E92E6801CF0CD11C82E2C80ED11CD0
:101730008FEF69830E94D60A0E94DB0AF60180833C
:1017400069818F3F41F4EA9499F705C0F612E8CF1A
:10175000F80182A102C0F394F9CF0F90DF91CF91ED
:101760001F910F91FF90EF90DF90CF9008958FEF32
:101770000E94D60A0E94DB0A8F3FC9F70895CF92D4
:10178000DF92EF920F931F93FC0192899370308D3B
:10179000818D32953F70911141C0982F9295907F25
:1017A000C92EC32A82958F70928D392F3295307F42
:1017B000D32ED82A92959F70838D83708295807FD7
:1017C000E82EE92A2E2D860130E00F5F1F4F2F4FA4
:1017D0003F4F948D9295969596959370858D8170D7
:1017E000880F880F892B90E0029604C0000F111F0C
:1017F000221F331F8A95D2F7878982958F7004C084
:10180000000F111F221F331F8A95D2F75AE0369519
:101810002795179507955A95D1F723C0982F92953C
:10182000907FC92EC32A82958F70928D392F329561
:10183000307FD32ED82A92959F70838D83708295A6
:10184000807FE82EE92A2E2D860130E00F5F1F4FA2
:101850002F4F3F4F49E0000F111F221F331F4A95A2
:10186000D1F7B801C9011F910F91EF90DF90CF9090
:1018700008951F93CF93DF93EC01199B04C08FEF62
:101880008FA380E024C02FE78FE492E121508040B5
:101890009040E1F700C00000E881F9810480F58103
:1018A000E02DCE010995182F2FE789EA93E021500A
:1018B00080409040E1F700C00000E881F981048099
:1018C000F581E02DCE0109958113E6CF81E0DF910E
:1018D000CF911F910895DF92EF92FF920F931F9384
:1018E000CF93DF93EC017901E881F9810088F189D8
:1018F000E02D0FEF9A01AB0161E10995E881F981D3
:101900000688F789E02D61E0CE010995D82E811176
:1019100020C08FEF0E94D60A0E94DB0A8E3FC9F7D3
:101920008701E12CF12C8FEF0E94D60A0E94DB0A7E
:10193000F80181938F01FFEFEF1AFF0AE11482E0B3
:10194000F80689F7E881F981008CF18DE02DCE0150
:1019500009958D2DDF91CF911F910F91FF90EF9001
:10196000DF900895FC01DB018C9190E036E09595C5
:1019700087953A95E1F7837040814C7F482B4083EF
:1019800011968C911197818312968C911297828374
:1019900013968C911397838315968C91159790E0ED
:1019A00054E0959587955A95E1F714962C911497E4
:1019B00050E1259F90011124822B932B84839F70EB
:1019C0008581807F892B858315969C9115979295AB
:1019D000907F8F70892B858316968C91169790E057
:1019E000880F892F881F990B568180FB50F95683E9
:1019F00016968C91169790E076E0959587957A9556
:101A0000E1F780FB51F9568316968C91169790E07A
:101A100025E0959587952A95E1F780FB52F9568345
:101A200016968C91169790E034E0959587953A95A7
:101A3000E1F780FB53F95683437018962C91189761
:101A400017968C91179730E0411177C096E0359545
:101A500027959A95E1F744E0849FC0011124282B33
:101A6000392B16964C9116974370942F990F990F16
:101A700080E0282B392B442737FD4095822F829513
:101A8000807F5F70582B5683932F9295907F822F83
:101A900082958F70892B8783942F9295907F832FC7
:101AA00082958F70892B8087942F92959370818572
:101AB0008C7F892B818718969C91189796959C719D
:101AC000837E892B818718969C9118979295990F00
:101AD000907E8F71892B818719968C91199790E050
:101AE00025E0959587952A95E1F787709285987FEF
:101AF000982B928719968C911997880F8873977CE9
:101B0000982B92871A968C911A97881F8827881F7E
:101B100019962C911997220F820F282F2295220FA8
:101B2000220F207C9F73922B928782FB882780F95B
:101B300093859E7F982B938726C040E0432F322FBA
:101B40002227482B19968C911997282B822F829542
:101B5000807F5F70582B5683932F9295907F822FB2
:101B600082958F70892B8783942F9295907F832FF6
:101B700082958F70892B8087942F929593708185A1
:101B80008C7F892B81871A968C911A9790E066E05A
:101B9000959587956A95E1F7938580FB91F99387F1
:101BA0001B962C911B97221F2227221F1A968C917D
:101BB0001A97880F822B282F220F220F9370922BB7
:101BC000938786FB992790F984858E7F892B84875C
:101BD0001B969C911B97990F8170892B84871C966B
:101BE0008C911C9790E0880F892F881F990B358561
:101BF00080FB30F935871C968C911C9786958E70EA
:101C0000317F382B35871D962C911D97229526956F
:101C1000269523701C968C911C9754E0859FC001DB
:101C20001124282B2295207F3F70322B35871D965B
:101C30008C911D9790E025E0959587952A95E1F781
:101C4000268580FB20F926871E968C911E9790E0B2
:101C5000880F892F881F990B80FB21F926871E96F4
:101C60008C911E9790E046E0959587954A95E1F70F
:101C700080FB22F926871E968C911E9790E055E0F6
:101C8000959587955A95E1F780FB23F926871E964F
:101C90008C911E9790E064E0959587956A95E1F7A1
:101CA00080FB24F926871E968C911E97880F880F3B
:101CB000880F80762F79282B26871F968C9190E0AD
:101CC0009595879580FB27F92687969587958F733D
:101CD0009785907C982B97870895CF93DF93FC018D
:101CE000DB018C91808312969C91129780E0119673
:101CF0002C911197820F911D928381836D5F7F4F8D
:101D000080E090E0EB014991BE019F01280F391F4F
:101D1000E9014B83019685309105A1F718968C91C6
:101D2000189780871186128613861486ED012996EE
:101D300084E04185528563857485762F652F542F05
:101D4000442741875287638774879991492B41873C
:101D5000528763877487815061F71D969C911D9708
:101D600080E01E962C911E97820F911D8587892FEA
:101D70008F702685207F282B26871F968C9190E0D8
:101D800095958795382F3295307F2F70232B268796
:101D900054E0969587955A95E1F787709785987FD7
:101DA000982B9787DF91CF910895AF92BF92CF92F2
:101DB000DF92EF92FF920F931F93CF93DF93CDB7F4
:101DC000DEB7E0970FB6F894DEBF0FBECDBF7C0143
:101DD000DC0197961C92E7EBFBE03197F1F700C02E
:101DE00000002C9A1AE08FEF0E94D60A1150D9F702
:101DF0002C98D701ED91FC910088F189E02D0AE43F
:101E000020E030E0A90160E0C7010995D701ED911C
:101E1000FC910488F589E02DC7010995813009F00E
:101E20001EC1D701ED91FC910088F189E02D03E4FA
:101E30002AEA31E040E050E068E0C7010995D701A7
:101E4000ED91FC910488F589E02DC7010995813059
:101E500009F03FC0F70185A1813009F0FCC086A1DF
:101E60008A3A09F0F8C0D701ED91FC910288F38914
:101E7000E02D0FEF20E030E040E050E469E2C701E0
:101E80000995D701ED91FC910488F589E02DC701F2
:101E90000995813041F3D701ED91FC910088F189DA
:101EA000E02D20E030E0A9016AE3C7010995D701E0
:101EB000ED91FC910488F589E02DC7010995F701A2
:101EC00083A186FF03C082E187A34CC082E087A381
:101ED0003BC0D701ED91FC910288F389E02D0FEF13
:101EE00020E030E0A90169E2C7010995D701ED9131
:101EF000FC910488F589E02DC70109958E7F31F4A6
:101F0000F70182A1813029F381E01DC0D701ED9155
:101F1000FC910088F189E02D0FEF20E030E0A9016D
:101F200061E0C7010995D701ED91FC910488F5891D
:101F3000E02DC70109958E7F09F08FC0F70182A1BE
:101F4000813021F383E087A3D701ED91FC910088D4
:101F5000F189E02D0FEF20E032E040E050E060E159
:101F6000C7010995D701ED91FC910088F189E02D19
:101F70000FEF20E030E0A9016AE0C7010995D70121
:101F8000ED91FC910688F789E02D62E0C701099583
:101F900081115FC06E01B1E2CB0ED11C5E01E1E3A5
:101FA000AE0EB11C8601D701ED91FC910688F78930
:101FB000E02D61E0C7010995F80181938F01EA15D1
:101FC000FB0589F7BE016F5D7F4FCE0141960E94F0
:101FD0006D0E80E1FE017196D701129601900D926F
:101FE0008A95E1F7D701ED91FC910088F189E02D08
:101FF0000FEF20E030E0A90169E0C7010995D701A2
:10200000ED91FC910688F789E02D62E0C701099502
:1020100081111FC0D701ED91FC910688F789E02D51
:1020200061E0C7010995F60181936F01EA15FB058F
:1020300089F7BE016F5D7F4FCE0101960E94B20C01
:1020400080E1FE013196D701529601900D928A955A
:10205000E1F780E005C082E003C08FEF01C081E0BE
:10206000E0960FB6F894DEBF0FBECDBFDF91CF91E3
:102070001F910F91FF90EF90DF90CF90BF90AF90A6
:102080000895CF93DF93EC0189E493E099838883EB
:102090000E94C90A84B18C7F84B985B1836085B9F7
:1020A0001FA2DF91CF910895FC01DB0114968C9162
:1020B000149780831C9680E04181528163817481F2
:1020C000762F652F542F4427418352836383748373
:1020D0009E91492B41835283638374838F5F843045
:1020E00059F708959F92AF92BF92CF92DF92EF92ED
:1020F000FF920F931F93CF93DF93CDB7DEB7C550F9
:10210000D2400FB6F894DEBF0FBECDBF8C01FC01EC
:1021100010828091B303811102C081E01DC0AA2406
:10212000A394B12CAC0EBD1E950140E050E0BA0165
:102130008CE893E00E946B0CC150DE4F8881CF5F2A
:10214000D140853539F4C050DE4F8881C050D2402F
:102150008A3A21F082E0F801808327C0C12CD12C7B
:102160002EEBE22EFF24F39435E0932EB5016E0D95
:102170007F1DCE018F5F9D4F0E945410D801AC0D82
:10218000BD1DFE01EF5FFD4F1196892D01900D924F
:102190008A95E1F7F0E1EF0EF11C85E0C80ED11C45
:1021A000EEEEEE16E1E0FE0609F7CB5FDD4F0FB66F
:1021B000F894DEBF0FBECDBFDF91CF911F910F917D
:1021C000FF90EF90DF90CF90BF90AF909F900895D9
:1021D000FC011082FB0120812B50223018F022E0FC
:1021E000FC0120830895CF93DF93EC01E881F9810E
:1021F0006E857F85068CF78DE02D09951D821C82EA
:102200001F821E82DF91CF9108950E94EB0141E968
:10221000242E43E0342E54EF452E51E0552E68E035
:10222000662E62E0762ECCE1D2E00BE312E075E59B
:10223000E72E72E0F72EE4EFCE2EE2E0DE2EF1E99B
:10224000AF2EF2E0BF2EA2E68A2EA2E09A2E62E026
:102250008AE793E00E94C8088AE793E00E94F3109F
:1022600081E291E00E94451389E391E00E944513C9
:102270008CE893E00E94390C8823D1F382E591E049
:102280000E9445138CE893E00E940E0B882319F0FE
:1022900084E691E002C085E791E00E9445138CE856
:1022A00093E00E94D50E882339F01F928F938AE81D
:1022B00091E09F938F93BCC08091B3038F701F9266
:1022C0008F9386EA91E09F938F930E942E138091C3
:1022D000B303807F0F900F900F900F9019F086E05E
:1022E00091E002C084E191E09F938F938BEB91E0AA
:1022F0009F938F930E942E1380918E031F928F9332
:1023000088EC91E09F938F930E942E13809190030D
:102310008F9380918F038F938CED91E09F938F9398
:102320000E942E133F922F925F924F920E942E1383
:1023300080919A038F93809199038F938091980352
:102340008F93809197038F937F926F920E942E13A9
:1023500080919B0320919C03922F9F709C012F7072
:1023600033273F932F9324E0959587952A95E1F79E
:102370009F938F93DF93CF930E942E1380919E03A0
:10238000837090E001969F938F931F930F930E9409
:102390002E138DB79EB780960FB6F8949EBF0FBED2
:1023A0008DBF8CE893E00E94BF0B3AE0969587952D
:1023B000779567953A95D1F79F938F937F936F9316
:1023C000FF92EF920E942E139FEF2CED8DE691501D
:1023D00020408040E1F700C0000062E08AE793E01F
:1023E0000E94C8088AE793E00E94F31085E693E014
:1023F0000E947210809165030F900F900F900F90C4
:102400000F900F90882329F01F928F939F928F92A5
:102410000FC08CE792E00E944513809166038B30D9
:1024200009F18C30D1F41EC01F928F93BF92AF92EE
:102430000E942E130F900F900F900F908CEA92E055
:102440009F938F930E942E130F900F908CE893E030
:102450000E94390C8111FACFFACE86EC92E00E94EC
:102460004513ECCF8FED92E00E94451380916A03F3
:102470008F93809169038F93809168038F938091EC
:1024800067038F93DF92CF920E942E1366E673E06C
:1024900084E693E00E94E810809164030F900F900F
:1024A0000F900F900F900F90882341F2BDCF85E6DB
:1024B00093E00E94721081E0809364030895FC0110
:1024C000758364830895FC01778366830895FC0116
:1024D00075836483578346830895FC0184819581C5
:1024E0000895FC01868197810895FC0175876487B2
:1024F0000895FC01778766870895FC018485089517
:10250000FC0186850895FC01838108958AE793E0A4
:102510000C94A008FC0187A108959C012E5F3F4FF9
:10252000C90108959C012E5E3F4FC90108958CE8B2
:1025300093E00C944110991B79E004C0991F961701
:1025400008F0961B881F7A95C9F780950895AA1BF5
:10255000BB1B51E107C0AA1FBB1FA617B70710F08E
:10256000A61BB70B881F991F5A95A9F780959095C0
:10257000BC01CD010895A1E21A2EAA1BBB1BFD01CF
:102580000DC0AA1FBB1FEE1FFF1FA217B307E40752
:10259000F50720F0A21BB30BE40BF50B661F771FAA
:1025A000881F991F1A9469F760957095809590958A
:1025B0009B01AC01BD01CF010895EE0FFF1F0590F7
:1025C000F491E02D09940F931F93CF93DF93EC01C7
:1025D0008B01009731F46115710519F4E0E0F0E02A
:1025E00037C06EE070E081E090E00E945115FC0180
:1025F0000097A1F380E883830115110571F013871B
:10260000028781E883838091B4039091B503892B7D
:1026100021F4F093B503E093B4032097C9F0D18778
:10262000C0878381826083838091B6039091B703D2
:10263000892B71F4F093B703E093B6038091B8034C
:102640009091B903892B21F4F093B903E093B80377
:10265000CF01DF91CF911F910F910895A2E0B0E0DB
:10266000E4E3F3E10C945D17FE01379661917191FB
:10267000FA83E983AF018091B6039091B7030E947A
:1026800074132296E2E00C9479170F931F93CF9363
:10269000DF938C01E091B603F091B703838181FF52
:1026A0001BC0C0E0D0E005C00995892B11F0CFEF29
:1026B000DFEFF80181918F016091B6037091B7034C
:1026C000DB011896ED91FC9119978111EDCF8AE00D
:1026D0000995892B09F402C0CFEFDFEFCE01DF911E
:1026E000CF911F910F910895ACE0B0E0EAE7F3E1DC
:1026F0000C944D177C016B018A01FC011782168234
:10270000838181FFC7C188248394912C8C0E9D1EE8
:10271000F7019381F60193FD859193FF81916F01FC
:10272000882309F4B3C1853239F493FD859193FF71
:1027300081916F01853229F4B70190E00E94C316A0
:10274000E7CF712C312C20E02032A8F48B3261F0DD
:1027500028F4803251F0833271F40BC08D3239F09D
:10276000803349F4216028C02260246025C028609D
:1027700023C0206121C027FD27C0382F30533A30B5
:1027800078F426FF06C0FAE07F9E300D1124732EE8
:1027900013C08AE0389E300D1124332E20620CC005
:1027A0008E3221F426FD72C1206406C08C3611F4ED
:1027B000206802C0883641F4F60193FD859193FFAD
:1027C00081916F018111C0CF982F9554933018F0EB
:1027D0009052933028F40C5F1F4FFFE3F9830DC034
:1027E000833631F0833771F0833509F05EC023C042
:1027F000F801808189830E5F1F4F66246394712CDA
:10280000540115C02801F2E04F0E511CF801A080C0
:10281000B18026FF03C0672D70E002C06FEF7FEF2D
:10282000C5012C870E94B8163C0182012C856FE7F8
:10283000262E222218C02801F2E04F0E511CF8016A
:10284000A080B18026FF03C0672D70E002C06FEF4B
:102850007FEFC5012C870E94A6163C012C8550E80D
:10286000252E222A820123FC1CC006C0B70180E26B
:1028700090E00E94C3163A94832D90E06816790682
:10288000A8F30FC0F50127FC859127FE81915F0118
:10289000B70190E00E94C31631103A94F1E06F1A2C
:1028A00071086114710471F7EEC0843611F0893635
:1028B00041F5F80127FF07C0608171818281938112
:1028C0000C5F1F4F08C060817181882777FD80955C
:1028D000982F0E5F1F4F4FE6642E622297FF09C0AC
:1028E00090958095709561957F4F8F4F9F4FF0E841
:1028F0006F2A2AE030E0A4010E94EF16A82EA81843
:1029000044C0853731F43FEEB32EB2222AE030E0E6
:1029100024C099EFB92EB2228F36B9F020F4883551
:1029200009F0B4C00DC0803721F0883709F0AEC07F
:1029300002C020E1B22AB4FE0BC084E0B82A08C06D
:1029400024FF09C0E6E0BE2A06C028E030E005C04A
:1029500020E130E002C020E132E0F801B7FE07C01C
:1029600060817181828193810C5F1F4F06C06081FD
:10297000718180E090E00E5F1F4FA4010E94EF166E
:10298000A82EA8188FE7682E6B2066FE0BC0362D88
:102990003E7FA71450F464FE0AC062FC08C0362DC6
:1029A0003E7E05C0BA2C362D03C0BA2C01C0B72C10
:1029B00034FF0DC0FE01EA0DF11D8081803311F45A
:1029C000397E09C032FF06C0B394B39404C0832F8C
:1029D000867809F0B39433FD14C030FF0FC07A2C11
:1029E000B31460F4730C7B18B32C08C0B70180E2F9
:1029F00090E03C870E94C316B3943C85B314B0F3B7
:102A000004C0B31410F43B1801C0312C34FF12C0C1
:102A1000B70180E390E03C870E94C3163C8532FFFB
:102A20001EC031FF03C088E590E002C088E790E057
:102A3000B7010CC0832F867891F031FD02C080E28F
:102A400001C08BE237FD8DE2B70190E00E94C31612
:102A500006C0B70180E390E00E94C3167A94A714E1
:102A6000C0F3AA94F401EA0DF11DB701808190E052
:102A70000E94C316A110F5CF06C0B70180E290E016
:102A80000E94C3163A943110F8CF42CEF701268146
:102A9000378102C02FEF3FEFC9012C96E2E10C9481
:102AA00069170F931F93CF93DF93689F8001699FEE
:102AB000100D789F100D1124C8010E946F15C82FAA
:102AC000D92F209731F0A80160E070E08C2F0E9490
:102AD000B116CE01DF91CF911F910F9108950F9301
:102AE0001F93CF93DF938230910510F482E090E042
:102AF000E091BC03F091BD0320E030E0C0E0D0E005
:102B000023C04081518148175907A8F04817590739
:102B100061F482819381209719F09B838A832EC070
:102B20009093BD038093BC0329C02115310529F082
:102B30004217530710F0A90102C0BE01DF01028154
:102B40001381EF019A01F8013097D9F6211531056B
:102B500009F1281B390B2430310590F412968D9120
:102B60009C9113976115710521F0FB01938382837A
:102B700004C09093BD038093BC03FD01329644C012
:102B8000FD01E20FF31F81939193225031092D93A0
:102B90003C933AC02091BA033091BB03232B41F4FC
:102BA00020910201309103013093BB032093BA03BB
:102BB00020910001309101012115310541F42DB71B
:102BC0003EB74091040150910501241B350BE09163
:102BD000BA03F091BB03E217F307A0F42E1B3F0BDF
:102BE0002817390778F0AC014E5F5F4F241735077F
:102BF00048F04E0F5F1F5093BB034093BA0381937D
:102C0000919302C0E0E0F0E0CF01DF91CF911F91FE
:102C10000F910895EF92FF920F931F93CF93DF933D
:102C2000009709F48EC0DC01129713961C921E9235
:102C30001297E090BC03F090BD03E114F10489F415
:102C40002D913C911197280F391F8091BA039091D3
:102C5000BB038217930789F5B093BB03A093BA0314
:102C600070C0E70120E030E001C0EA01CA17DB07CD
:102C700038F44A815B819E0141155105B1F722C0AC
:102C8000AC0142505109FA01D383C2830081118102
:102C9000BC01600F711F6C177D0761F46881798139
:102CA000600F711F6E5F7F4F718360836A817B81CC
:102CB000738362832115310529F4B093BD03A0937A
:102CC000BC033FC0F901B383A283E9014991599143
:102CD000C40FD51FAC17BD0771F4DC019E918E9116
:102CE000840F951F02969183808312968D919C91FB
:102CF000139793838283A0E0B0E002C0D7017C01E8
:102D0000F701828193810097C9F7C701029620815C
:102D10003181820F931F2091BA033091BB03281792
:102D2000390779F4109729F41092BD031092BC036F
:102D300004C013961C921E921297F092BB03E0926D
:102D4000BA03CDB7DEB7E6E00C947517FC01059029
:102D5000615070400110D8F7809590958E0F9F1F9D
:102D60000895DC0101C06D9341505040E0F7089593
:102D7000FC016150704001900110D8F7809590954A
:102D80008E0F9F1F08950F931F93CF93DF938C0196
:102D9000EB018B8181FD03C00FEF1FEF1AC082FF93
:102DA0000DC02E813F818C819D812817390764F4E5
:102DB000E881F9810193F983E88306C0E885F98504
:102DC000802F0995892B41F78E819F8101969F83E2
:102DD0008E83C801DF91CF911F910F910895FA0161
:102DE000AA27283051F1203181F1E8946F936E7F4A
:102DF0006E5F7F4F8F4F9F4FAF4FB1E03ED0B4E03B
:102E00003CD0670F781F891F9A1FA11D680F791F7B
:102E10008A1F911DA11D6A0F711D811D911DA11D8C
:102E200020D009F468943F912AE0269F112430199C
:102E3000305D3193DEF6CF010895462F4770405D37
:102E40004193B3E00FD0C9F7F6CF462F4F70405DE6
:102E50004A3318F0495D31FD4052419302D0A9F741
:102E6000EACFB4E0A6959795879577956795BA953B
:102E7000C9F700976105710508959B01AC010A2E01
:102E800006945795479537952795BA95C9F7620FD8
:102E9000731F841F951FA01D08952F923F924F927C
:102EA0005F926F927F928F929F92AF92BF92CF92DA
:102EB000DF92EF92FF920F931F93CF93DF93CDB7E3
:102EC000DEB7CA1BDB0B0FB6F894DEBF0FBECDBF5B
:102ED00009942A88398848885F846E847D848C842C
:102EE0009B84AA84B984C884DF80EE80FD800C8135
:102EF0001B81AA81B981CE0FD11D0FB6F894DEBF18
:0C2F00000FBECDBFED010895F894FFCF87
:102F0C000000BE032000426C6F636B20616464722E
:102F1C0065737300427974652061646472657373C0
:102F2C00002A2A2A205344206C696272617279202B
:102F3C0074657374202A2A2A0057616974696E6754
:102F4C0020666F7220534420696E736572742E2E46
:102F5C002E0053442043617264206465746563746D
:102F6C006564210057726974652D70726F746563A6
:102F7C0074656421004E6F742077726974652D70CE
:102F8C00726F7465637465642E00496E697469614F
:102F9C006C697365206661696C6564207769746817
:102FAC00202564210A005344204361726420766515
:102FBC007273696F6E3A2025640A0041646472650D
:102FCC0073733A2025730A004D616E7566616374E4
:102FDC007572652049443A2025750A004F454D2FDE
:102FEC004170706C69636174696F6E2049443A205A
:102FFC0025750A0050726F64756374206E616D657F
:10300C003A20252E35730A0053657269616C206E67
:10301C00756D6265723A20256C750A004D61756696
:10302C0061637475726520646174653A2032302571
:10303C003032752D30253031750A004353442072DF
:10304C00656769737465722076657273696F6E3A21
:10305C002025750A0053697A653A20256C754D4216
:10306C000A004469736B2072656164206661696C47
:10307C00656420776974682025750A004469736B50
:10308C002073747275637475726520726561642E39
:10309C000052656164204641543332206661696C8C
:1030AC00656420776974682025640A0052656D6F29
:1030BC00766520534420746F2072756E20616761B1
:1030CC00696E2E2E2E00506172746974696F6E20B9
:1030DC0031206973206E6F74204641543332005096
:1030EC006172746974696F6E203120697320464176
:1030FC0054333200537461727420617420736563AD
:10310C00746F7220256C750A00000000005F12635A
:10311C001267126D127112751279127D12801226BD
:10312C000883125408F310A9042404EB07C10641C8
:10313C00066E03A602AC05E6051407CB074B0796F3
:10314C00077B08570800000000D50E390C0E0B8ABF
:10315C00128D129212BF0B6B0C110BE00A540B7FE9
:04316C000BB70B0092
:00000001FF
