:100000000C94C1010C94E9010C94E9010C94E901F0
:100010000C94E9010C94E9010C94E9010C94E901B8
:100020000C94E9010C94E9010C94E9010C94E901A8
:100030000C94E9010C94E9010C94E9010C94E90198
:100040000C94E9010C94E9010C94E9010C94E90188
:100050000C94E9010C94E9010C94E9010C94E90178
:100060000C94E9010C94E9010C94E9010C94E90168
:100070000C94E9010C94E9010C94E90102000000E0
:1000800000000001222020200000200152505000DA
:10009000000000015250F850F85050012278A07032
:1000A00028F02001C2C81020409818016290A0409A
:1000B000A89068016220400000000001122040402A
:1000C0004020100142201010102040010220A87092
:1000D000A8200001022020F82020000102000000DA
:1000E00000602041020000F8000000010200000052
:1000F000006060010208102040800001728898A80A
:10010000C8887001226020202020700172880810A9
:100110002040F801FA102010088870011230509029
:10012000F8101001FA80F00808887001324080F061
:1001300088887001FA081020404000017288887099
:1001400088887001728888780810600102606000F9
:100150006060000102606000602040011220408069
:10016000402010010200F800F800000142201008B1
:100170001020400172880810200020017288086851
:10018000A8A8700172888888F8888801F28888F0A9
:100190008888F0017288808080887001E290888869
:1001A0008890E001FA8080F08080F801FA8080F089
:1001B00080808001728880B8888878018A8888F871
:1001C0008888880172202020202070013A101010A9
:1001D000109060018A90A0C0A090880182808080E9
:1001E0008080F8018AD8A8A8888888018A88C8A849
:1001F000988888017288888888887001F28888F0D9
:100200008080800172888888A8906801F28888F0D0
:10021000A09088017A8080700808F001FA202020E0
:10022000202020018A888888888870018A888888A8
:10023000885020018A8888A8A8A850018A88502060
:10024000508888018A88885020202001FA081020D0
:100250004080F801724040404040700102804020E0
:100260001008000172101010101070012250880048
:1002700000000001020000000000F8014220100010
:100280000000000102007008788878018280B0C800
:100290008888F00102007080808870010A086898E0
:1002A0008888780102007088F8807001324840E048
:1002B0004040400102788888780870018280B0C888
:1002C00088888801220060202020700112003010F0
:1002D00010906001828090A0C0A090016220202038
:1002E000202070010200D0A8A8A8A8010200B0C870
:1002F0008888880102007088888870010200F08870
:10030000F080800102006898780808010200B0C8F7
:1003100080808001020070807008F0014240E0405F
:100320004048300102008888889868010200888867
:100330008850200102008888A8A850010200885037
:100340002050880102008888780870010200F810A7
:100350002040F801122020402020100122202020DF
:10036000202020014220201020204001020068901F
:10037000000000010200000000000001E40FBB10BB
:10038000261111241FBECFEFD0E1DEBFCDBF12E09A
:10039000A0E0B1E0EEEEFCE202C005900D92A43DBB
:1003A000B107D9F713E0A4EDB2E001C01D92A73860
:1003B000B107E1F713E0C2E8D3E004C02297FE01E1
:1003C0000E947411CC37D107C9F70E94190E0C9402
:1003D00075160C9400008FEF0E94390D0E943E0D9F
:1003E0008F3FC9F708950E94020262E08CEF92E00D
:1003F0000E94A7040E9492049093800380937F033D
:10040000119A08951F93CF93DF9385B7806885BFB6
:1004100085B7806885BF8FE781B98DEF82B917B83E
:100420008FEF88B912981098139A159A149A169A01
:1004300028E22A95F1F7129A8FEF94E624E0815092
:1004400090402040E1F700C0000068E281E00E9497
:10045000C40C61E181E00E94C40C8FEF94E624E0BB
:10046000815090402040E1F700C0000064E381E04B
:100470000E94C40C68E381E00E94C40C63E181E047
:100480000E94C40C60E281E00E94C40C6AE381E037
:100490000E94C40C65E580E00E94C40C66E381E024
:1004A0000E94C40C68E480E00E94C40C6CE281E00D
:1004B0000E94C40CC0E4D1E010C060E080E00E9463
:1004C000C40C60E080E00E94C40C60E080E00E9408
:1004D000C40C115091F7219711F010EFEECF69E2A3
:1004E00081E0DF91CF911F910C94C40CFC01138229
:1004F00012821582148281E08083818380EF90E0F4
:100500009783868380E491E0918780878FEF9FEFC8
:1005100093878287158614860895AF92BF92CF92F3
:10052000DF92EF92FF920F931F93CF93DF93E90136
:1005300058010E9407106CE281E00E94C40C12C0B6
:100540006F2D80E00E94C40C6E2D80E00E94C40CD0
:100550008FEFC81AD80A02C0C12CD12CCA14DB04F0
:1005600079F721972097C1F7DF91CF911F910F91D4
:10057000FF90EF90DF90CF90BF90AF9008952F92B3
:100580003F924F925F926F927F928F929F92AF9223
:10059000BF92CF92DF92EF92FF920F931F93CF9370
:1005A000DF935C014B016A01E9016217730771F483
:1005B0000417150730F4C026D1260C251D25C026AA
:1005C000D1260C191D0921E030E011C04017510758
:1005D000A1F42617370730F482269326C825D9259B
:1005E0008C269D269E012819390901E010E0A601FC
:1005F000B401C5010E948D027CC02901461A570A28
:1006000057FE03C051944194510838016C187D087D
:1006100077FE03C071946194710846145704A8F5DD
:100620000C151D0560F48C269D26C825D9258C2621
:100630009D26C026D1260C251D25C026D12620E0CA
:1006400030E080E090E017C0B3010E945211FB013E
:10065000E80DF91DC901B3010E945211E61BF70B09
:100660009701A601BF01C5010E9452108FEFC81A61
:10067000D80A9101C2012C014C0E5D1E1901280CF3
:10068000391C0C151D0500F734C0C815D90560F4D8
:100690008C269D26C825D9258C269D26C026D126A8
:1006A0000C251D25C026D12620E030E080E090E01A
:1006B00017C0B2010E945211FB01EC0DFD1DC901D2
:1006C000B2010E945211E61BF70B9701AF01B40172
:1006D000C5010E9452108FEF881A980A9101C30138
:1006E0003C01600E711E19012C0C3D1CC815D9056A
:1006F00000F7DF91CF911F910F91FF90EF90DF9066
:10070000CF90BF90AF909F908F907F906F905F90B1
:100710004F903F902F9008952F923F924F925F926B
:100720006F927F928F929F92AF92BF92CF92DF9201
:10073000EF92FF920F931F93CF93DF9300D000D0DF
:1007400000D0CDB7DEB79E838D835B014A013A832B
:1007500029831C830B836E2C712C190126183708F2
:100760007601830191010E948D024B805C804618C6
:10077000570869817A816A0D7B1D661977098201A4
:100780009301A4018D819E810E948D02A301480DD9
:10079000591D9301B5018D819E810E948D024B816F
:1007A0005C81480D591D46195709B3016A0D7B1D1F
:1007B000830191018D819E810E948D0226960FB644
:1007C000F894DEBF0FBECDBFDF91CF911F910F9187
:1007D000FF90EF90DF90CF90BF90AF909F908F9061
:1007E0007F906F905F904F903F902F900895DF9291
:1007F000EF92FF920F931F93CF93DF93EC01E62EBE
:10080000288188E0289F8001112486E0289F90019C
:1008100011244C815D816A817B81CE010E94071089
:100820006CE281E00E94C40CF12C0E2D112707FD13
:1008300010950052110983E0000F111F8A95E1F70E
:1008400036C08F2D0E944611F801E80FF11DE458C3
:10085000FF4FD490E12C20C0D7FE06C06B8580E00E
:100860000E94C40C6A8505C06D8580E00E94C40C9E
:100870006C8580E00E94C40C48818E2D642F0E94FC
:100880004611292F30E0642F70E06150710926175E
:10089000370709F4DD0CE39428814E2D50E086E003
:1008A000289F9001112442175307B4F2F3946881F2
:1008B0004F2D50E088E0689F9001112442175307A4
:1008C0000CF4BFCFDF91CF911F910F91FF90EF906C
:1008D000DF9008958A3029F48CEF92E00E946D1029
:1008E0001EC0682F8CEF92E00E94F7032091FC025B
:1008F00086E0289F900111248091FE029091FF02D2
:10090000820F931F9093FF028093FE02820F931F2A
:10091000409102035091030348175907E8F280E021
:1009200090E0089580910A0390910B03892B51F474
:1009300060E070E08AE694E00E94D41190930B038B
:1009400080930A0380910A0390910B0308950F93FB
:100950001F93CF93DF931F92CDB7DEB78C01862F05
:1009600069830E94EC0F6981613071F028F0623078
:1009700019F0633091F408C020E431E0F8013783C6
:10098000268320EF30E007C020EF30E0F801378306
:10099000268320E431E031872087F80161830F90BE
:1009A000DF91CF911F910F9108958FEF0E94390D24
:1009B0000DB407FEFDCF8EB58F3FB9F70895CF93E5
:1009C000DF9300D000D000D0CDB7DEB72E834D83AB
:1009D0005C836B837A8389830E94D5040E94D5044B
:1009E000898180640E94390D7A81872F0E94390D98
:1009F0006B81862F0E94390D5C81852F0E94390DF5
:100A00004D81842F0E94390D2E81822F880F8160A5
:100A100026960FB6F894DEBF0FBECDBFDF91CF9103
:100A20000C94390DFC01DB018C9190E026E095954A
:100A300087952A95E1F7837040814C7F482B40834E
:100A400011968C911197818312968C9112978283C3
:100A500013968C911397838315968C91159790E03C
:100A600034E0959587953A95E1F714962C91149773
:100A700050E1259F90011124822B932B84839F703A
:100A80008581807F892B858315969C9115979295FA
:100A9000907F8F70892B858316968C91169790E0A6
:100AA000880F892F881F990B568180FB50F9568338
:100AB00016968C91169790E066E0959587956A95C5
:100AC000E1F780FB51F9568316968C91169790E0CA
:100AD00075E0959587957A95E1F780FB52F95683F5
:100AE00016968C91169790E024E0959587952A9517
:100AF000E1F780FB53F95683437018962C911897B1
:100B000017968C91179730E0411177C066E03595C4
:100B100027956A95E1F744E0849FC0011124282BB2
:100B2000392B16964C9116974370942F990F990F65
:100B300080E0282B392B442737FD4095822F829562
:100B4000807F5F70582B5683932F9295907F822FD2
:100B500082958F70892B8783942F9295907F832F16
:100B600082958F70892B8087942F929593708185C1
:100B70008C7F892B818718969C91189796959C71EC
:100B8000837E892B818718969C9118979295990F4F
:100B9000907E8F71892B818719968C91199790E09F
:100BA00075E0959587957A95E1F787709285987F9E
:100BB000982B928719968C911997880F8873977C38
:100BC000982B92871A968C911A97881F8827881FCE
:100BD00019962C911997220F820F282F2295220FF8
:100BE000220F207C9F73922B928782FB882780F9AB
:100BF00093859E7F982B938726C040E0432F322F0A
:100C00002227482B19968C911997282B822F829591
:100C1000807F5F70582B5683932F9295907F822F01
:100C200082958F70892B8783942F9295907F832F45
:100C300082958F70892B8087942F929593708185F0
:100C40008C7F892B81871A968C911A9790E026E0E9
:100C5000959587952A95E1F7938580FB91F9938780
:100C60001B962C911B97221F2227221F1A968C91CC
:100C70001A97880F822B282F220F220F9370922B06
:100C8000938786FB992790F984858E7F892B8487AB
:100C90001B969C911B97990F8170892B84871C96BA
:100CA0008C911C9790E0880F892F881F990B3585B0
:100CB00080FB30F935871C968C911C9786958E7039
:100CC000317F382B35871D962C911D9722952695BF
:100CD000269523701C968C911C9754E0859FC0012B
:100CE0001124282B2295207F3F70322B35871D96AB
:100CF0008C911D9790E045E0959587954A95E1F791
:100D0000268580FB20F926871E968C911E9790E001
:100D1000880F892F881F990B80FB21F926871E9643
:100D20008C911E9790E066E0959587956A95E1F71E
:100D300080FB22F926871E968C911E9790E075E025
:100D4000959587957A95E1F780FB23F926871E967E
:100D50008C911E9790E034E0959587953A95E1F750
:100D600080FB24F926871E968C911E97880F880F8A
:100D7000880F80762F79282B26871F968C9190E0FC
:100D80009595879580FB27F92687969587958F738C
:100D90009785907C982B97870895CF93DF93FC01DC
:100DA000DB018C91808312969C91129780E01196C2
:100DB0002C911197820F911D928381836D5F7F4FDC
:100DC00080E090E0EB014991BE019F01280F391F9F
:100DD000E9014B83019685309105A1F718968C9116
:100DE000189780871186128613861486ED0129963E
:100DF00084E04185528563857485762F652F542F55
:100E0000442741875287638774879991492B41878B
:100E1000528763877487815061F71D969C911D9757
:100E200080E01E962C911E97820F911D8587892F39
:100E30008F702685207F282B26871F968C9190E027
:100E400095958795382F3295307F2F70232B2687E5
:100E500044E0969587954A95E1F787709785987F46
:100E6000982B9787DF91CF910895CF92DF92EF92E1
:100E7000FF920F931F93CF93DF93CDB7DEB7A09769
:100E80000FB6F894DEBF0FBECDBF8C01FC01158AF2
:100E900087EB9BE00197F1F700C000002C9A2AE055
:100EA000F22E8FEF0E94390DFA94D9F72C982AE48C
:100EB00040E050E0BA0180E00E94DF04C8010E94D7
:100EC000F910813009F0A1C023E44AEA51E060E062
:100ED00070E088E00E94DF04C8010E94F9108130B0
:100EE00089F5F8018389813009F091C084898A3AB3
:100EF00009F08DC02FEF40E050E0BA0187E30E9477
:100F0000DF042FEF40E050E060E070E489E20E94EF
:100F1000DF04C8010E94F910813061F32FEF40E037
:100F200050E0BA018AE30E94DF04C8010E94F91070
:100F3000F801818986FF03C082E1858B37C082E09A
:100F4000F8012BC02FEF40E050E0BA0187E30E9488
:100F5000DF042FEF40E050E0BA0189E20E94DF0495
:100F6000C8010E94F9108E7F31F4F8018089813028
:100F700049F381E012C02FEF40E050E0BA0181E078
:100F80000E94DF04C8010E94F9108E7F09F041C061
:100F9000F8018089813079F383E0858B2FEF40E081
:100FA00052E060E070E080E10E94DF042FEF40E05B
:100FB00050E0BA0189E00E94DF0462E0C8010E94AB
:100FC000BF10811128C07E01F1E1EF0EF11C6E010E
:100FD00081E2C80ED11C61E0C8010E94BF10F70178
:100FE00081937F01EC15FD05B1F7BE016F5E7F4F68
:100FF000CE0101960E94120580E1FE013196D801D2
:1010000001900D928A95E1F706C081E005C082E06B
:1010100003C08FEF01C080E0A0960FB6F894DEBF4A
:101020000FBECDBFDF91CF911F910F91FF90EF9039
:10103000DF90CF900895199B05C02FEFFC01258B01
:1010400080E00895FFE72FE432E1F1502040304086
:10105000E1F700C0000083B19FE7E9EAF3E09150B7
:10106000E040F040E1F700C0000093B19170817062
:101070009813F1CF81E008950F931F93FC018181B4
:10108000028110E020E030E0980111270027182BA2
:101090008081082B8381382BB801C9011F910F91E2
:1010A00008958FEF0E94390D0E943E0D8F3FC9F7C2
:1010B000089580E090E008958F929F92AF92BF9242
:1010C000CF92DF92EF92FF92CF93DF93CDB7DEB74F
:1010D000D2500FB6F894DEBF0FBECDBF4A015B0100
:1010E0006A017B0122E0CC0CDD1CEE1CFF1C2A9562
:1010F000D1F739E0F694E794D794C7943A95D1F7AD
:10110000FC0146815781608571854C0D5D1D6E1D0A
:101110007F1D9E012F5F3F4F8CE093E00E94430DA7
:1011200047E0CC0CDD1CEE1CFF1C4A95D1F7D50125
:10113000C4018C199D09AE09BF0952E0880F991F9F
:10114000AA1FBB1F5A95D1F721E030E02C0F3D1F9D
:10115000820F931F0E943C08DE5F0FB6F894DEBF3B
:101160000FBECDBFDF91CF91FF90EF90DF90CF907A
:10117000BF90AF909F908F9008954F925F926F9223
:101180007F928F929F92BF92CF92DF92EF92FF92C7
:101190000F931F93CF93DF93CDB7DEB7D2500FB627
:1011A000F894DEBF0FBECDBF7C018B01C12CD12CCA
:1011B00026E02C9DC0012D9D900D11248D599C4F32
:1011C0000817190709F451C04FEFC41AD40A84E074
:1011D000C816D10471F7EDC0F80124813581C90129
:1011E0008F70992745E0880F991F4A95E1F7E1E054
:1011F000F0E0EC0FFD1FE80FF91F4081442309F4D4
:10120000D8C0453E09F05DC0C9010196D8011596C8
:101210009C938E9314979C012F703327232BE1F618
:10122000F7012289F0E12F9F900111248217930783
:10123000E1F415961C921E9214974D915D916D915B
:101240007C91C7010E945C08D8016D937D938D93BA
:101250009C931397693F7F4F8F4F9F4030F087E0FB
:10126000F701818320E030E0ACC0F701A289F801EA
:101270002081318142815381225031094109510934
:10128000B0E00E943B11AB01BC018481958124E058
:10129000969587952A95E1F7480F591F611D711D95
:1012A000F70182819381A481B581480F591F6A1F7C
:1012B0007B1F9E012F5F3F4F8CE093E00E94430D08
:1012C0008BCFACE0B0E0AC0FBD1FA80FB91FBC9036
:1012D000B8E0BB1609F498CF4FE0B41609F494CFE8
:1012E00064E0CC0CDD1C6A95E1F773E2872E73E0B5
:1012F000972E8C0C9D1C9E01280F391FD9015596E5
:101300007C90559756964C91569750E060E070E06F
:10131000762F652F542F4427470D511D611D711DD8
:10132000BA01552744275B962C915B97420F511DBC
:10133000611D711D5C963C9120E02901662457FCDB
:101340006094762C440D551D661D771DD4014D9378
:101350005D936D937C9313971496BC924BE050E091
:10136000BF01C601885D9C4F0E949E11F8018481D7
:101370009581019695838483D70152962C91B0E193
:101380002B9F9001112482179307C1F415821482B8
:101390004081518162817381C7010E945C08F8011C
:1013A0006083718382839383693F7F4F8F4F9F4018
:1013B00028F087E0D70111968C9354CF96012D5DCC
:1013C0003C4FC901DE5F0FB6F894DEBF0FBECDBF44
:1013D000DF91CF911F910F91FF90EF90DF90CF9011
:1013E000BF909F908F907F906F905F904F900895E7
:1013F00020E030E0E6E0E29FA001E39F500D1124E1
:101400004D595C4F6417750731F02F5F3F4F243003
:10141000310589F70FC081E090E0022E01C0880FEE
:101420000A94EAF7809590912203982390932203DF
:1014300080E0089527E0FC01218381E008958F92E8
:101440009F92BF92CF92DF92EF92FF920F931F93E2
:10145000CF93DF938C01CB01009729F485E0D8016D
:1014600011968C9375C04091220350E020E030E04B
:10147000B22EBA01022E02C0759567950A94E2F762
:1014800060FD0AC046E0429FE001439FD00D112459
:10149000CD59DC4F41F405C02F5F3F4F243031055B
:1014A00039F786E053C0D8011A964D915D916D9140
:1014B0007C911D97488359836A837B831D821C829C
:1014C00065EC72E02FC0D7010D900020E9F76D01A7
:1014D00081E0C81AD108CE18DF08A601B701C401FF
:1014E00005960E948611892B41F580E090E007C0A7
:1014F0000196F401E20FF11D25812032F1F42C2D2B
:10150000280F2B30A8F3D4014D915D916D917C9102
:10151000488359836A837B831D821C8265EC72E059
:1015200080E090E00E9478117C01009731F4809176
:1015300022038B29809322030DC0BE01C8010E94A3
:10154000BD084C01009709F0BECF85E0F80181830A
:10155000C0E0D0E0CE01DF91CF911F910F91FF90BD
:10156000EF90DF90CF90BF909F908F9008952F9233
:101570003F924F925F926F927F928F929F92AF9223
:10158000BF92CF92DF92EF92FF920F931F93CF9370
:10159000DF93CDB7DEB7C450D2400FB6F894DEBFAC
:1015A0000FBECDBF6C01CF5FDD4F1882C150D2405E
:1015B000BE016F5F7D4F0E941F0A8C01B801C601FA
:1015C0000E94BD08CD5FDD4F99838883C350D24010
:1015D00068EC72E005960E947D11009779F7F6019C
:1015E000A289CD5FDD4FE881F981C350D2402081CF
:1015F0003181428153812250310941095109B0E0C2
:101600000E943B11AB01BC01F60182819381A48150
:10161000B581480F591F6A1F7B1F88248394912C22
:101620008C0E9D1E94018CE093E00E94430DCE0130
:101630000B960E943C087B01FFEECE5FDD4FF883E6
:10164000C250D24022242394312CF2C0C701039609
:10165000813022E0920770F460C0452C562C672C34
:101660007724EEEFF1E0EC0FFD1FE40FF11D308168
:10167000632A09C080E090E0412C512C32012E2DCC
:101680005E2D5D5F2E5F452F480F0196322F380F7C
:10169000333019F7F601A289CD5FDD4FE881F9817A
:1016A000C350D2402081318142815381225031097F
:1016B00041095109B0E00E943B11AB01BC01F601A8
:1016C00082819381A481B581480F591F6A1F7B1FB6
:1016D000420D531D611D711DFFEF2F1A3F0A94012A
:1016E0008CE093E00E94430D2DEFE21A21E0F20A14
:1016F00020E00DC0452C562C672C7724E1E0F0E06B
:10170000EC0FFD1FE80FF91F8081682A2F5F822FE1
:1017100090E08E159F0570F313C0E1E0F0E0EC0F50
:10172000FD1FEE0DFF1D22814180512C612C712C7B
:10173000762C652C542C4424622A2081422A7C0178
:10174000D301C20188279C7FAA27BB2755E0B69505
:10175000A795979587955A95D1F7B301A20144278C
:101760005527687F7727452F562F672F77275C01EE
:10177000A40EB51E88EF4822552466247724F3E092
:101780007694679457944794FA95D1F7A40CB51CB6
:101790006AE281E00E94C40C612F80E00E94C40CC8
:1017A000602F80E00E94C40C612F80E00E94C40C76
:1017B000602F80E00E94C40C6BE281E00E94C40CA8
:1017C00060E080E00E94C40CCE5FDD4F6881C250B3
:1017D000D24080E00E94C40C60E080E00E94C40C13
:1017E000CE5FDD4F6881C250D24080E00E94C40CC1
:1017F0006CE281E00E94C40C6B2D80E00E94C40C5E
:101800006A2D80E00E94C40C0F5F1F4F0034E1E09E
:101810001E0709F01BCFCE5FDD4FF881C250D240CA
:10182000F150CE5FDD4FF883C250D240FF3F19F038
:1018300000E010E00BCFCC5FDD4F0FB6F894DEBFB9
:101840000FBECDBFDF91CF911F910F91FF90EF9011
:10185000DF90CF90BF90AF909F908F907F906F90D0
:101860005F904F903F902F900895CF92DF92EF922C
:10187000FF920F931F93CF93DF93CDB7DEB7D25074
:101880000FB6F894DEBF0FBECDBF8C017B01FC010B
:101890001082FB0180818B50823010F082E026C0E4
:1018A000FB0141815281638174819E012F5F3F4F13
:1018B0008CE093E00E94430DC150DE4F8881CF5FE2
:1018C000D140853539F4C050DE4F8881C050D240B8
:1018D0008A3A11F083E00AC08C85811106C08D859B
:1018E000823019F48989823021F084E0F801808304
:1018F0003CC08E85F801828BCE018D960E943C08FB
:10190000F80162877387848795878F85F701C18087
:10191000D280E380F480C80ED11CE11CF11C9889B0
:1019200080E0AA2797FDA095BA2FC80ED91EEA1EFF
:10193000FB1EF801C682D782E086F186CE0185962D
:101940000E943C08F80166877787808B918BDC01C9
:10195000CB01880F991FAA1FBB1F8C0D9D1DAE1DAB
:10196000BF1D82839383A483B583DE5F0FB6F89493
:10197000DEBF0FBECDBFDF91CF911F910F91FF90C2
:10198000EF90DF90CF9008959FEF97B98111149851
:1019900068B91398139A149A0895CF93DF93EC01C2
:1019A0006AE281E00E94C40C60E080E00E94C40C06
:1019B00060E080E00E94C40C8E819F810197692FB6
:1019C00080E00E94C40C6E81615080E00E94C40CD3
:1019D0006BE281E00E94C40C60E080E00E94C40CD5
:1019E00060E080E00E94C40C888599850197692F8A
:1019F00080E00E94C40C6885615080E0DF91CF9147
:101A00000C94C40CCF92DF92EF92FF920F931F932E
:101A1000CF93DF93EC01D62EC72E0E94CD0C6CE243
:101A200081E00E94C40C00E010E015C06C2D80E045
:101A30000E94C40C6D2D80E00E94C40C8FEFE81A48
:101A4000F80A02C0E12CF12C88859985E816F90680
:101A500068F30F5F1F4F8E819F810817190790F35E
:101A6000DF91CF911F910F91FF90EF90DF90CF907A
:101A700008958EBD0DB407FEFDCF08950DB407FE89
:101A8000FDCF8EB50895CF92DF92FF920F931F93F3
:101A9000CF93DF9300D000D0CDB7DEB76C01F22E2C
:101AA000032F4C835B836A8379830E94EB010E943E
:101AB000EB0181E50E94390D7981872F0E94390D54
:101AC0006A81862F0E94390D5B81852F0E94390D16
:101AD0004C81842F0E94390D8FEF0E94390D14E63E
:101AE0008FEF0E94390D0E943E0DF601808B8F3FD3
:101AF00019F0882321F01FC0115091F71CC08FEFFF
:101B00000E94390D0E943E0D8E3FC9F7CF2CD02E7A
:101B100000E010E08FEF0E94390D0E943E0DF601AB
:101B200081936F010F5F1F4F0115F2E01F0791F7BF
:101B30000E94EB0180E00F900F900F900F90DF91CB
:101B4000CF911F910F91FF90DF90CF900895AF92AA
:101B5000BF92CF92DF92EF92FF920F931F93CF939A
:101B6000DF93CDB7DEB7D2500FB6F894DEBF0FBE0D
:101B7000CDBF8C0180912103811102C081E01EC084
:101B8000F8011082AA24A394B12CAC0EBD1E9501BD
:101B900040E050E0BA018CE093E00E94430DC15058
:101BA000DE4F8881CF5FD140853539F4C050DE4F9C
:101BB0008881C050D2408A3A21F082E0F8018083C7
:101BC00027C02EEB31E080E090E065E0F501E20F08
:101BD000F31F54813C9640E0FE2CED2CDC2CCC24F1
:101BE0007291C72A4F5F4430B9F7689FF001699F2F
:101BF000F00D11243196E00FF11F5083C182D28283
:101C0000E382F4820196205F3F4F83309105F1F625
:101C1000DE5F0FB6F894DEBF0FBECDBFDF91CF9170
:101C20001F910F91FF90EF90DF90CF90BF90AF90FA
:101C30000895CF93DF93CDB7DEB72E970FB6F89404
:101C4000DEBF0FBECDBF0E94F30148E6242E42E066
:101C5000342E58EA452E51E0552E6DEB662E61E08C
:101C6000762E0AEC11E09E012B5F3F4F3E872D87B9
:101C700077E4A72E72E0B72EE8E58E2EE2E09E2EE6
:101C800032E03093FC0260910803709109038CEFFD
:101C900092E00E94020D1092FF021092FE0210923A
:101CA00001031092000381E291E00E94361289E361
:101CB00091E00E9436128CE093E00E941B0888237A
:101CC000D1F382E591E00E943612189B03C084E6AE
:101CD00091E002C085E791E00E9436128CE093E02B
:101CE0000E943507882329F01F928F938AE891E09C
:101CF000FCC0809121038F701F928F935F924F924F
:101D00000E941F1280912103807F0F900F900F90EF
:101D10000F9019F086E091E002C084E191E09F937A
:101D20008F937F926F920E941F1280910C03837099
:101D300090E001969F938F931F930F930E941F1221
:101D400082E08093FC0260910803709109038CEF9C
:101D500092E00E94020D1092FF021092FE02109279
:101D600001031092000380910C0383700FB6F89466
:101D7000DEBF0FBECDBF3091120320911303329509
:101D80003F70422F4295407F811141C0842F832BA9
:101D900022952F7030911403432F4295407F942F4A
:101DA000922B32953F702091150323702295207F4E
:101DB000A22FA32BB0E00196A11DB11D30911603F7
:101DC0003295369536953370209117032170220F86
:101DD000220F232B30E02E5F3F4F04C0880F991F46
:101DE000AA1FBB1F2A95D2F72091110322952F70AD
:101DF00004C0880F991FAA1FBB1F2A95D2F73AE08B
:101E0000B695A795979587953A95D1F71FC0842FDA
:101E1000832B22952F7030911403432F4295407FDE
:101E2000942F922B32953F702091150323702295A9
:101E3000207FA22FA32BB0E00196A11DB11D29E0A8
:101E4000880F991FAA1FBB1F2A95D1F7FAE0B695F4
:101E5000A79597958795FA95D1F7BF93AF939F93E1
:101E60008F9324EE31E03F932F930E941F1287EE51
:101E700092E00E94A70D8091E7020F900F900F90C3
:101E80000F900F900F90882329F01F928F9384EF6B
:101E900091E02BC08091E8028B3009F46EC08C3049
:101EA00009F066C06AC01F928F9380E192E01DC066
:101EB00081E08093FC0219821A821B821C8288E0D6
:101EC000ED85FE8511928A95E9F7BE016F5F7F4F20
:101ED00084ED92E00E941F0A7C01009721F5809119
:101EE000D5021F928F938DE292E09F938F930E9471
:101EF0001F120F900F900F900F902DC0C6010596E6
:101F00009F938F93BF92AF920E941F12F60184811C
:101F10001F928F939F928F920E941F120FB6F89478
:101F2000DEBF0FBECDBFB70184ED92E00E94BD08B9
:101F30006C01009719F7B70184ED92E00E94F8094F
:101F400084ED92E00E94B70A8CE093E00E941B08A7
:101F50008111FACF95CE3F922F920E941F120F90BF
:101F60000F908CE093E00E941B088111FACF88CE7D
:101F700082E892E00E943612EECF8BE992E00E9456
:101F800036128091EC028F938091EB028F938091B7
:101F9000EA028F938091E9028F9380EB92E09F9306
:101FA0008F930E941F1268EE72E084ED92E00E940F
:101FB000350C8091D4020F900F900F900F900F90DE
:101FC0000F90811170CF74CF87EE92E00E94A70D21
:101FD00081E08093D4020895CF93C82F66E381E017
:101FE0000E94C40CC13041F028F0C23039F0C33037
:101FF00061F406C068E205C068E403C068EE01C091
:1020000068E880E0CF910C94C40CCF910895BF9202
:10201000CF92DF92EF92FF920F931F93CF93DF93B4
:10202000EB017A0169016AE281E00E94C40C6D2F24
:1020300080E00E94C40CBC2E6C2F80E00E94C40C77
:102040002197CC0DDD1D6D2F80E00E94C40C6B2DFF
:1020500061506C0D80E00E94C40C6BE281E00E9434
:10206000C40C6F2D80E00E94C40CCE2D6E2D80E03C
:102070000E94C40C81E0E81AF108E00EF11E6F2DF9
:1020800080E00E94C40C6C2F6150600F80E0DF91F3
:10209000CF911F910F91FF90EF90DF90CF90BF9065
:1020A0000C94C40C0F931F93CF93DF93E90101E0CD
:1020B00010E021E030E00E9407106CE281E00E9415
:1020C000C40C6D2F80E00E94C40C6C2F80E0DF9167
:1020D000CF911F910F910C94C40CCF92DF92EF928D
:1020E000FF920F931F93CF93DF93EC011B821A8211
:1020F000288188E0289F900111248C819D81820F86
:10210000931F9D838C83820F931F488559854817A1
:10211000590740F5DC84CD84CE010E94CD0C6CE2E1
:1021200081E00E94C40C00E010E015C06C2D80E03E
:102130000E94C40C6D2D80E00E94C40C8FEFE81A41
:10214000F80A02C0E12CF12C88859985E816F90679
:1021500068F30F5F1F4F8E819F810817190790F357
:102160001D821C82DF91CF911F910F91FF90EF9004
:10217000DF90CF9008958CEF92E00C947602CF928E
:10218000DF92EF92FF920F931F93CF93DF931F92F3
:10219000CDB7DEB78C01663008F065E0F12C18C0D1
:1021A00084E6E82E6801CF0CD11C80E1C80ED11C5A
:1021B0008FEF69830E94390D69810DB407FEFDCF51
:1021C0008EB5F60180838F3F41F4EA9489F705C00C
:1021D000F612E6CFF801808902C0F394F9CF0F9090
:1021E000DF91CF911F910F91FF90EF90DF90CF90F3
:1021F0000895DF92EF92FF920F931F93CF93DF9397
:102200008C01C0E0D0E094E6D92E7801EC0EFD1EE2
:102210008FEF0E94390D0DB407FEFDCF8EB5F7018B
:10222000808B8F3F31F4DA9499F703C0F8018089ED
:1022300005C02196C530D10531F7F8CFDF91CF9198
:102240001F910F91FF90EF90DF90089584B1806B04
:1022500084B9269885B18F7085B982E58CBD8DB51E
:102260008E7F8DBD84B18C7F84B985B1836085B943
:102270001092210308950E946611A59F900DB49FAE
:10228000900DA49F800D911D11240895991B79E054
:1022900004C0991F961708F0961B881F7A95C9F7F6
:1022A00080950895AA1BBB1B51E107C0AA1FBB1F45
:1022B000A617B70710F0A61BB70B881F991F5A95D2
:1022C000A9F780959095BC01CD010895A29FB0011A
:1022D000B39FC001A39F01D0B29F700D811D112437
:1022E000911D0895EE0FFF1F0590F491E02D0994C4
:1022F0004BE753E00E94AD110895FB01DC018D9185
:10230000019080190110D9F3990B0895FB01DC01AC
:102310004150504088F08D9181341CF08B350CF485
:10232000805E619161341CF06B350CF4605E861B3D
:10233000611171F3990B0895881BFCCFFB01DC013F
:102340004150504048F001900D920020C9F701C063
:102350001D9241505040E0F70895FA01A191B081DB
:10236000009719F41097E1F0CD01DC01CD010D903B
:10237000002011F4C00113C0FB012191222319F0A8
:102380002015D9F7F3CFFB012191201519F41E92E6
:10239000119606C02223C1F70D900020A1F7D001AD
:1023A000FA01A193B08308950F931F93CF93DF9306
:1023B000EC018B01009731F46115710519F4E0E02F
:1023C000F0E037C06EE070E081E090E00E944214DF
:1023D000FC010097A1F380E883830115110571F0DA
:1023E0001387028781E8838380917D0390917E0328
:1023F000892B21F4F0937E03E0937D032097C9F0AD
:10240000D187C08783818260838380917F0390918D
:102410008003892B71F4F0938003E0937F03809114
:10242000810390918203892B21F4F0938203E0933E
:102430008103CF01DF91CF911F910F910895A2E009
:10244000B0E0E5E2F2E10C944E16FE0137966191A0
:102450007191FA83E983AF0180917F0390918003AA
:102460000E9465122296E2E00C946A160F931F9365
:10247000CF93DF938C01E0917F03F0918003838100
:1024800081FF1BC0C0E0D0E005C00995892B11F089
:10249000CFEFDFEFF80181918F0160917F037091A1
:1024A0008003DB011896ED91FC9119978111EDCF16
:1024B0008AE00995892B09F402C0CFEFDFEFCE0146
:1024C000DF91CF911F910F910895ACE0B0E0EBE662
:1024D000F2E10C943E167C016B018A01FC0117822B
:1024E0001682838181FFC7C188248394912C8C0E2E
:1024F0009D1EF7019381F60193FD859193FF8191D4
:102500006F01882309F4B3C1853239F493FD8591B5
:1025100093FF81916F01853229F4B70190E00E9409
:10252000B415E7CF712C312C20E02032A8F48B3287
:1025300061F028F4803251F0833271F40BC08D3297
:1025400039F0803349F4216028C02260246025C01E
:10255000286023C0206121C027FD27C0382F3053B9
:102560003A3078F426FF06C0FAE07F9E300D112441
:10257000732E13C08AE0389E300D1124332E206252
:102580000CC08E3221F426FD72C1206406C08C3648
:1025900011F4206802C0883641F4F60193FD85915C
:1025A00093FF81916F018111C0CF982F9554933083
:1025B00018F09052933028F40C5F1F4FFFE3F9831B
:1025C0000DC0833631F0833771F0833509F05EC07A
:1025D00023C0F801808189830E5F1F4F66246394B6
:1025E000712C540115C02801F2E04F0E511CF80166
:1025F000A080B18026FF03C0672D70E002C06FEF9E
:102600007FEFC5012C870E94A9153C0182012C8512
:102610006FE7262E222218C02801F2E04F0E511C2F
:10262000F801A080B18026FF03C0672D70E002C0D2
:102630006FEF7FEFC5012C870E9497153C012C8519
:1026400050E8252E222A820123FC1CC006C0B701B7
:1026500080E290E00E94B4153A94832D90E06816D1
:102660007906A8F30FC0F50127FC859127FE81911B
:102670005F01B70190E00E94B41531103A94F1E087
:102680006F1A71086114710471F7EEC0843611F08D
:10269000893641F5F80127FF07C060817181828189
:1026A00093810C5F1F4F08C060817181882777FD7F
:1026B0008095982F0E5F1F4F4FE6642E622297FF82
:1026C00009C090958095709561957F4F8F4F9F4F72
:1026D000F0E86F2A2AE030E0A4010E94E015A82E5D
:1026E000A81844C0853731F43FEEB32EB2222AE059
:1026F00030E024C099EFB92EB2228F36B9F020F421
:10270000883509F0B4C00DC0803721F0883709F052
:10271000AEC002C020E1B22AB4FE0BC084E0B82AE9
:1027200008C024FF09C0E6E0BE2A06C028E030E069
:1027300005C020E130E002C020E132E0F801B7FE40
:1027400007C060817181828193810C5F1F4F06C039
:102750006081718180E090E00E5F1F4FA4010E94B4
:10276000E015A82EA8188FE7682E6B2066FE0BC018
:10277000362D3E7FA71450F464FE0AC062FC08C0E8
:10278000362D3E7E05C0BA2C362D03C0BA2C01C0B2
:10279000B72C34FF0DC0FE01EA0DF11D808180339E
:1027A00011F4397E09C032FF06C0B394B39404C05B
:1027B000832F867809F0B39433FD14C030FF0FC027
:1027C0007A2CB31460F4730C7B18B32C08C0B701D7
:1027D00080E290E03C870E94B415B3943C85B3142A
:1027E000B0F304C0B31410F43B1801C0312C34FF13
:1027F00012C0B70180E390E03C870E94B4153C858D
:1028000032FF1EC031FF03C088E590E002C088E7B8
:1028100090E0B7010CC0832F867891F031FD02C0A3
:1028200080E201C08BE237FD8DE2B70190E00E94AB
:10283000B41506C0B70180E390E00E94B4157A9405
:10284000A714C0F3AA94F401EA0DF11DB701808129
:1028500090E00E94B415A110F5CF06C0B70180E248
:1028600090E00E94B4153A943110F8CF42CEF701AF
:102870002681378102C02FEF3FEFC9012C96E2E19C
:102880000C945A160F931F93CF93DF93689F800188
:10289000699F100D789F100D1124C8010E946014CB
:1028A000C82FD92F209731F0A80160E070E08C2F5D
:1028B0000E94A215CE01DF91CF911F910F91089533
:1028C0000F931F93CF93DF938230910510F482E032
:1028D00090E0E0918503F091860320E030E0C0E0D5
:1028E000D0E023C04081518148175907A8F048170C
:1028F000590761F482819381209719F09B838A8321
:102900002EC0909386038093850329C0211531053D
:1029100029F04217530710F0A90102C0BE01DF01E0
:1029200002811381EF019A01F8013097D9F6211540
:10293000310509F1281B390B2430310590F412962A
:102940008D919C9113976115710521F0FB01938383
:10295000828304C09093860380938503FD013296A1
:1029600044C0FD01E20FF31F81939193225031097E
:102970002D933C933AC02091830330918403232B01
:1029800041F420910201309103013093840320939C
:10299000830320910001309101012115310541F49B
:1029A0002DB73EB74091040150910501241B350B12
:1029B000E0918303F0918403E217F307A0F42E1B48
:1029C0003F0B2817390778F0AC014E5F5F4F241793
:1029D000350748F04E0F5F1F5093840340938303E5
:1029E0008193919302C0E0E0F0E0CF01DF91CF91BD
:1029F0001F910F910895EF92FF920F931F93CF9322
:102A0000DF93009709F48EC0DC01129713961C9295
:102A10001E921297E0908503F0908603E114F10472
:102A200089F42D913C911197280F391F80918303D0
:102A3000909184038217930789F5B0938403A09340
:102A4000830370C0E70120E030E001C0EA01CA174B
:102A5000DB0738F44A815B819E0141155105B1F7CE
:102A600022C0AC0142505109FA01D383C2830081D4
:102A70001181BC01600F711F6C177D0761F46881C3
:102A80007981600F711F6E5F7F4F718360836A81F0
:102A90007B81738362832115310529F4B09386030A
:102AA000A09385033FC0F901B383A283E901499153
:102AB0005991C40FD51FAC17BD0771F4DC019E916D
:102AC0008E91840F951F02969183808312968D912B
:102AD0009C91139793838283A0E0B0E002C0D7015A
:102AE0007C01F701828193810097C9F7C7010296A3
:102AF00020813181820F931F2091830330918403C1
:102B00002817390779F4109729F410928603109248
:102B1000850304C013961C921E921297F0928403B0
:102B2000E0928303CDB7DEB7E6E00C946616FC01B5
:102B30000590615070400110D8F7809590958E0FE8
:102B40009F1F0895DC0101C06D9341505040E0F794
:102B50000895FC016150704001900110D8F78095F4
:102B600090958E0F9F1F08950F931F93CF93DF9320
:102B70008C01EB018B8181FD03C00FEF1FEF1AC0A9
:102B800082FF0DC02E813F818C819D8128173907DE
:102B900064F4E881F9810193F983E88306C0E8854C
:102BA000F985802F0995892B41F78E819F810196A8
:102BB0009F838E83C801DF91CF911F910F9108955C
:102BC000FA01AA27283051F1203181F1E8946F935E
:102BD0006E7F6E5F7F4F8F4F9F4FAF4FB1E03ED004
:102BE000B4E03CD0670F781F891F9A1FA11D680FA2
:102BF000791F8A1F911DA11D6A0F711D811D911DD5
:102C0000A11D20D009F468943F912AE0269F112449
:102C10003019305D3193DEF6CF010895462F4770AD
:102C2000405D4193B3E00FD0C9F7F6CF462F4F7008
:102C3000405D4A3318F0495D31FD4052419302D066
:102C4000A9F7EACFB4E0A69597958795779567950C
:102C5000BA95C9F700976105710508959B01AC010C
:102C60000A2E06945795479537952795BA95C9F733
:102C7000620F731F841F951FA01D08952F923F920E
:102C80004F925F926F927F928F929F92AF92BF927C
:102C9000CF92DF92EF92FF920F931F93CF93DF9328
:102CA000CDB7DEB7CA1BDB0B0FB6F894DEBF0FBE85
:102CB000CDBF09942A88398848885F846E847D84D2
:102CC0008C849B84AA84B984C884DF80EE80FD80D4
:102CD0000C811B81AA81B981CE0FD11D0FB6F8944A
:0E2CE000DEBF0FBECDBFED010895F894FFCF0B
:102CEE00000087032000426C6F636B206164647286
:102CFE0065737300427974652061646472657373E1
:102D0E00002A2A2A205344206C696272617279204B
:102D1E0074657374202A2A2A0057616974696E6774
:102D2E0020666F7220534420696E736572742E2E66
:102D3E002E0053442043617264206465746563748D
:102D4E006564210057726974652D70726F746563C6
:102D5E0074656421004E6F742077726974652D70EE
:102D6E00726F7465637465642E00496E697469616F
:102D7E006C697365206661696C6564207769746837
:102D8E002025303258210A005344204361726420BA
:102D9E0076657273696F6E3A2025750A0041646418
:102DAE00726573733A2025730A004353442072658B
:102DBE006769737465722076657273696F6E3A20F7
:102DCE0025750A0053442053697A653A20256C759F
:102DDE004D420A004469736B20726561642066611E
:102DEE00696C6564207769746820253032580A0052
:102DFE0052656164204641543332206661696C65C8
:102E0E0064207769746820253032580A0045727242
:102E1E006F72206F70656E206469722077697468B6
:102E2E0020253032580A0052656164206E616D654E
:102E3E003A20252E313173002C20747970653A209A
:102E4E003078253032580A0052656D6F7665205302
:102E5E004420746F2072756E20616761696E2E2E2C
:102E6E002E00506172746974696F6E20312069731F
:102E7E00206E6F7420464154333200506172746973
:102E8E0074696F6E203120697320464154333200CD
:102E9E00537461727420617420736563746F722051
:102EAE00256C750A002F5C005446542020202020EB
:042EBE00424D500031
:00000001FF
