:100000000C94C1010C94E9010C94E9010C94E901F0
:100010000C94E9010C94E9010C94E9010C94E901B8
:100020000C94E9010C94E9010C94E9010C94E901A8
:100030000C94E9010C94E9010C94E9010C94E90198
:100040000C94E9010C94E9010C94E9010C94E90188
:100050000C94E9010C94E9010C94E9010C94E90178
:100060000C94E9010C94E9010C94E9010C94E90168
:100070000C94E9010C94E9010C94E90102000000E0
:1000800000000001222020200000200152505000DA
:10009000000000015250F850F85050012278A07032
:1000A00028F02001C2C81020409818016290A0409A
:1000B000A89068016220400000000001122040402A
:1000C0004020100142201010102040010220A87092
:1000D000A8200001022020F82020000102000000DA
:1000E00000602041020000F8000000010200000052
:1000F000006060010208102040800001728898A80A
:10010000C8887001226020202020700172880810A9
:100110002040F801FA102010088870011230509029
:10012000F8101001FA80F00808887001324080F061
:1001300088887001FA081020404000017288887099
:1001400088887001728888780810600102606000F9
:100150006060000102606000602040011220408069
:10016000402010010200F800F800000142201008B1
:100170001020400172880810200020017288086851
:10018000A8A8700172888888F8888801F28888F0A9
:100190008888F0017288808080887001E290888869
:1001A0008890E001FA8080F08080F801FA8080F089
:1001B00080808001728880B8888878018A8888F871
:1001C0008888880172202020202070013A101010A9
:1001D000109060018A90A0C0A090880182808080E9
:1001E0008080F8018AD8A8A8888888018A88C8A849
:1001F000988888017288888888887001F28888F0D9
:100200008080800172888888A8906801F28888F0D0
:10021000A09088017A8080700808F001FA202020E0
:10022000202020018A888888888870018A888888A8
:10023000885020018A8888A8A8A850018A88502060
:10024000508888018A88885020202001FA081020D0
:100250004080F801724040404040700102804020E0
:100260001008000172101010101070012250880048
:1002700000000001020000000000F8014220100010
:100280000000000102007008788878018280B0C800
:100290008888F00102007080808870010A086898E0
:1002A0008888780102007088F8807001324840E048
:1002B0004040400102788888780870018280B0C888
:1002C00088888801220060202020700112003010F0
:1002D00010906001828090A0C0A090016220202038
:1002E000202070010200D0A8A8A8A8010200B0C870
:1002F0008888880102007088888870010200F08870
:10030000F080800102006898780808010200B0C8F7
:1003100080808001020070807008F0014240E0405F
:100320004048300102008888889868010200888867
:100330008850200102008888A8A850010200885037
:100340002050880102008888780870010200F810A7
:100350002040F801122020402020100122202020DF
:10036000202020014220201020204001020068901F
:10037000000000010200000000000001F610D7118B
:10038000421211241FBECFEFD0E1DEBFCDBF18E077
:10039000A0E0B1E0EAECFFE202C005900D92A43BC0
:1003A000B107D9F719E0A4EBB8E001C01D92AF3650
:1003B000B107E1F713E0C2E8D3E004C02297FE01E1
:1003C0000E94E212CC37D107C9F70E942C0F0C947F
:1003D000E3170C9400008FEF0E944C0E0E94510E08
:1003E0008F3FC9F708950E94040262E08CED98E007
:1003F0000E94A9040E94940490936809809367095D
:100400000E94CC0D119A08951F93CF93DF9385B767
:10041000806885BF85B7806885BF8FE781B98DEF1C
:1004200082B917B88FEF88B912981098139A159A55
:10043000149A169A28E22A95F1F7129A8FEF94E609
:1004400024E0815090402040E1F700C0000068E2C5
:1004500081E00E94D70D61E181E00E94D70D8FEF0E
:1004600094E624E0815090402040E1F700C0000075
:1004700064E381E00E94D70D68E381E00E94D70D1C
:1004800063E181E00E94D70D60E281E00E94D70D18
:100490006AE381E00E94D70D65E580E00E94D70DF8
:1004A00066E381E00E94D70D68E480E00E94D70DEA
:1004B0006CE281E00E94D70DC0E4D1E010C060E0A2
:1004C00080E00E94D70D60E080E00E94D70D60E0E0
:1004D00080E00E94D70D115091F7219711F010EF95
:1004E000EECF69E281E0DF91CF911F910C94D70D9F
:1004F000FC01138212821582148281E08083818341
:1005000080EF90E09783868380E491E091878087F5
:100510008FEF9FEF93878287158614860895AF9299
:10052000BF92CF92DF92EF92FF920F931F93CF93E0
:10053000DF93E90158010E9423116CE281E00E94DF
:10054000D70D12C06F2D80E00E94D70D6E2D80E078
:100550000E94D70D8FEFC81AD80A02C0C12CD12C27
:10056000CA14DB0479F721972097C1F7DF91CF9167
:100570001F910F91FF90EF90DF90CF90BF90AF90C1
:1005800008952F923F924F925F926F927F928F9237
:100590009F92AF92BF92CF92DF92EF92FF920F9312
:1005A0001F93CF93DF935C014B016A01E90162174E
:1005B000730771F40417150730F4C026D1260C25F3
:1005C0001D25C026D1260C191D0921E030E011C0DF
:1005D00040175107A1F42617370730F482269326D7
:1005E000C825D9258C269D269E012819390901E0A8
:1005F00010E0A601B401C5010E948F027CC0290150
:10060000461A570A57FE03C05194419451083801C5
:100610006C187D0877FE03C07194619471084614CC
:100620005704A8F50C151D0560F48C269D26C825D9
:10063000D9258C269D26C026D1260C251D25C02611
:10064000D12620E030E080E090E017C0B3010E94A6
:100650006E12FB01E80DF91DC901B3010E946E1273
:10066000E61BF70B9701A601BF01C5010E946E11A1
:100670008FEFC81AD80A9101C2012C014C0E5D1EE1
:100680001901280C391C0C151D0500F734C0C815BC
:10069000D90560F48C269D26C825D9258C269D2653
:1006A000C026D1260C251D25C026D12620E030E00D
:1006B00080E090E017C0B2010E946E12FB01EC0DC9
:1006C000FD1DC901B2010E946E12E61BF70B9701D6
:1006D000AF01B401C5010E946E118FEF881A980A0C
:1006E0009101C3013C01600E711E19012C0C3D1CCF
:1006F000C815D90500F7DF91CF911F910F91FF9099
:10070000EF90DF90CF90BF90AF909F908F907F90B1
:100710006F905F904F903F902F9008952F923F924F
:100720004F925F926F927F928F929F92AF92BF9201
:10073000CF92DF92EF92FF920F931F93CF93DF93AD
:1007400000D000D000D0CDB7DEB79E838D835B0193
:100750004A013A8329831C830B836E2C712C190167
:10076000261837087601830191010E948F024B8081
:100770005C804618570869817A816A0D7B1D66196D
:10078000770982019301A4018D819E810E948F02CD
:10079000A301480D591D9301B5018D819E810E94D1
:1007A0008F024B815C81480D591D46195709B301D1
:1007B0006A0D7B1D830191018D819E810E948F02B4
:1007C00026960FB6F894DEBF0FBECDBFDF91CF9156
:1007D0001F910F91FF90EF90DF90CF90BF90AF905F
:1007E0009F908F907F906F905F904F903F902F9051
:1007F0000895DF92EF92FF920F931F93CF93DF93B1
:10080000EC01E62E288188E0289F8001112486E0F3
:10081000289F900111244C815D816A817B81CE01EA
:100820000E9423116CE281E00E94D70DF12C0E2D65
:10083000112707FD10950052110983E0000F111FC9
:100840008A95E1F736C08F2D0E946212F801E80FF9
:10085000F11DE458FF4FD490E12C20C0D7FE06C014
:100860006B8580E00E94D70D6A8505C06D8580E0AC
:100870000E94D70D6C8580E00E94D70D48818E2D97
:10088000642F0E946212292F30E0642F70E06150C3
:1008900071092617370709F4DD0CE39428814E2DE2
:1008A00050E086E0289F9001112442175307B4F2CC
:1008B000F39468814F2D50E088E0689F90011124E7
:1008C000421753070CF4BFCFDF91CF911F910F91C7
:1008D000FF90EF90DF9008958A3029F48CED98E036
:1008E0000E9489111EC0682F8CED98E00E94F903C8
:1008F0002091DC0886E0289F900111248091DE0879
:100900009091DF08820F931F9093DF088093DE0899
:10091000820F931F4091E2085091E308481759074E
:10092000E8F280E090E008958091EA089091EB0869
:10093000892B51F460E070E08CE694E00E94421351
:100940009093EB088093EA088091EA089091EB0875
:1009500008950F931F93CF93DF931F92CDB7DEB708
:100960008C01862F69830E94FE106981613071F0CD
:1009700028F0623019F0633091F408C020E431E0CF
:10098000F8013783268320EF30E007C020EF30E006
:10099000F8013783268320E431E031872087F8018E
:1009A00061830F90DF91CF911F910F9108958FEF89
:1009B0000E944C0E0DB407FEFDCF8EB58F3FB9F7E8
:1009C0000895CF93DF9300D000D000D0CDB7DEB72D
:1009D0002E834D835C836B837A8389830E94D70443
:1009E0000E94D704898180640E944C0E7A81872FEF
:1009F0000E944C0E6B81862F0E944C0E5C81852FCD
:100A00000E944C0E4D81842F0E944C0E2E81822F0D
:100A1000880F816026960FB6F894DEBF0FBECDBF5B
:100A2000DF91CF910C944C0EFC01DB018C9190E096
:100A300026E0959587952A95E1F7837040814C7F54
:100A4000482B408311968C911197818312968C913B
:100A50001297828313968C911397838315968C91AA
:100A6000159790E034E0959587953A95E1F71496BF
:100A70002C91149750E1259F90011124822B932BE8
:100A800084839F708581807F892B858315969C91B7
:100A900015979295907F8F70892B858316968C91F0
:100AA000169790E0880F892F881F990B568180FB3D
:100AB00050F9568316968C91169790E066E09595BE
:100AC00087956A95E1F780FB51F9568316968C91CC
:100AD000169790E075E0959587957A95E1F780FBFC
:100AE00052F9568316968C91169790E024E09595CE
:100AF00087952A95E1F780FB53F956834370189642
:100B00002C91189717968C91179730E0411177C068
:100B100066E0359527956A95E1F744E0849FC0012A
:100B20001124282B392B16964C9116974370942F2D
:100B3000990F990F80E0282B392B442737FD4095DA
:100B4000822F8295807F5F70582B5683932F9295CA
:100B5000907F822F82958F70892B8783942F929517
:100B6000907F832F82958F70892B8087942F929509
:100B7000937081858C7F892B818718969C9118971B
:100B800096959C71837E892B818718969C911897E6
:100B90009295990F907E8F71892B818719968C91F0
:100BA000199790E075E0959587957A95E1F78770AC
:100BB0009285987F982B928719968C911997880F18
:100BC0008873977C982B92871A968C911A97881F16
:100BD0008827881F19962C911997220F820F282F8A
:100BE0002295220F220F207C9F73922B928782FBEB
:100BF000882780F993859E7F982B938726C040E0B5
:100C0000432F322F2227482B19968C911997282B86
:100C1000822F8295807F5F70582B5683932F9295F9
:100C2000907F822F82958F70892B8783942F929546
:100C3000907F832F82958F70892B8087942F929538
:100C4000937081858C7F892B81871A968C911A9756
:100C500090E026E0959587952A95E1F7938580FBAE
:100C600091F993871B962C911B97221F2227221FF5
:100C70001A968C911A97880F822B282F220F220FF9
:100C80009370922B938786FB992790F984858E7FAA
:100C9000892B84871B969C911B97990F8170892BB8
:100CA00084871C968C911C9790E0880F892F881F51
:100CB000990B358580FB30F935871C968C911C97F4
:100CC00086958E70317F382B35871D962C911D9718
:100CD00022952695269523701C968C911C9754E09E
:100CE000859FC0011124282B2295207F3F70322B35
:100CF00035871D968C911D9790E045E095958795D9
:100D00004A95E1F7268580FB20F926871E968C916F
:100D10001E9790E0880F892F881F990B80FB21F97F
:100D200026871E968C911E9790E066E09595879594
:100D30006A95E1F780FB22F926871E968C911E9713
:100D400090E075E0959587957A95E1F780FB23F91A
:100D500026871E968C911E9790E034E09595879596
:100D60003A95E1F780FB24F926871E968C911E9711
:100D7000880F880F880F80762F79282B26871F965B
:100D80008C9190E09595879580FB27F9268796951D
:100D900087958F739785907C982B97870895CF932D
:100DA000DF93FC01DB018C91808312969C9112975A
:100DB00080E011962C911197820F911D928381836F
:100DC0006D5F7F4F80E090E0EB014991BE019F0194
:100DD000280F391FE9014B83019685309105A1F752
:100DE00018968C9118978087118612861386148620
:100DF000ED01299684E04185528563857485762FBF
:100E0000652F542F442741875287638774879991B0
:100E1000492B4187528763877487815061F71D96FC
:100E20009C911D9780E01E962C911E97820F911D1C
:100E30008587892F8F702685207F282B26871F96F0
:100E40008C9190E095958795382F3295307F2F7053
:100E5000232B268744E0969587954A95E1F787707E
:100E60009785987F982B9787DF91CF910895CF92A0
:100E7000DF92EF92FF920F931F93CF93DF93CDB743
:100E8000DEB7A0970FB6F894DEBF0FBECDBF8C01C2
:100E9000FC01158A87EB9BE00197F1F700C0000089
:100EA0002C9A2AE0F22E8FEF0E944C0EFA94D9F77A
:100EB0002C982AE440E050E0BA0180E00E94E1046E
:100EC000C8010E941512813009F0A6C023E44AEA45
:100ED00051E060E070E088E00E94E104C8010E94F7
:100EE0001512813089F5F8018389813009F096C0A7
:100EF00084898A3A09F092C02FEF40E050E0BA01AD
:100F000087E30E94E1042FEF40E050E060E070E4EE
:100F100089E20E94E104C8010E941512813061F348
:100F20002FEF40E050E0BA018AE30E94E104C801DB
:100F30000E941512F801818986FF03C082E1858B2A
:100F400037C082E0F8012BC02FEF40E050E0BA013B
:100F500087E30E94E1042FEF40E050E0BA0189E20C
:100F60000E94E104C8010E9415128E7F31F4F8013D
:100F70008089813049F381E012C02FEF40E050E0DA
:100F8000BA0181E00E94E104C8010E9415128E7F1F
:100F900009F046C0F8018089813079F383E0858BC0
:100FA0002FEF40E052E060E070E080E10E94E10459
:100FB00080E58CBD8DB581608DBD2FEF40E050E0A8
:100FC000BA0189E00E94E10462E0C8010E94DB11DD
:100FD000811128C07E01F1E1EF0EF11C6E0181E26A
:100FE000C80ED11C61E0C8010E94DB11F70181939A
:100FF0007F01EC15FD05B1F7BE016F5E7F4FCE019D
:1010000001960E94140580E1FE013196D8010190FD
:101010000D928A95E1F706C081E005C082E003C029
:101020008FEF01C080E0A0960FB6F894DEBF0FBE30
:10103000CDBFDF91CF911F910F91FF90EF90DF9087
:10104000CF900895199B05C02FEFFC01258B80E000
:101050000895FFE72FE432E1F15020403040E1F7FE
:1010600000C0000083B19FE7E9EAF3E09150E0405F
:10107000F040E1F700C0000093B1917081709813C7
:10108000F1CF81E008950F931F93FC0181810281CC
:1010900010E020E030E0980111270027182B808114
:1010A000082B8381382BB801C9011F910F91089536
:1010B0008FEF0E944C0E0E94510E8F3FC9F708958A
:1010C00080E090E008958F929F92AF92BF92CF926E
:1010D000DF92EF92FF92CF93DF93CDB7DEB7D2507E
:1010E0000FB6F894DEBF0FBECDBF4A015B016A01A7
:1010F0007B0122E0CC0CDD1CEE1CFF1C2A95D1F7F5
:1011000039E0F694E794D794C7943A95D1F7FC0167
:1011100046815781608571854C0D5D1D6E1D7F1D5B
:101120009E012F5F3F4F8CEE98E00E94560E47E0E5
:10113000CC0CDD1CEE1CFF1C4A95D1F7D501C40177
:101140008C199D09AE09BF0952E0880F991FAA1F8B
:10115000BB1F5A95D1F721E030E02C0F3D1F820FC5
:10116000931F0E944308DE5F0FB6F894DEBF0FBEE8
:10117000CDBFDF91CF91FF90EF90DF90CF90BF90E8
:10118000AF909F908F9008954F925F926F927F9251
:101190008F929F92BF92CF92DF92EF92FF920F9326
:1011A0001F93CF93DF93CDB7DEB7D2500FB6F8942D
:1011B000DEBF0FBECDBF7C018B01C12CD12C26E040
:1011C0002C9DC0012D9D900D11248D5B964F08170D
:1011D000190709F451C04FEFC41AD40A84E0C816A5
:1011E000D10471F7EDC0F80124813581C9018F70F8
:1011F000992745E0880F991F4A95E1F7E1E0F0E073
:10120000EC0FFD1FE80FF91F4081442309F4D8C0FB
:10121000453E09F05DC0C9010196D80115969C9321
:101220008E9314979C012F703327232BE1F6F7013F
:101230002289F0E12F9F9001112482179307E1F496
:1012400015961C921E9214974D915D916D917C9113
:10125000C7010E946308D8016D937D938D939C9381
:101260001397693F7F4F8F4F9F4030F087E0F70122
:10127000818320E030E0ACC0F701A289F801208131
:101280003181428153812250310941095109B0E035
:101290000E945712AB01BC018481958124E0969590
:1012A00087952A95E1F7480F591F611D711DF701B8
:1012B00082819381A481B581480F591F6A1F7B1FCA
:1012C0009E012F5F3F4F8CEE98E00E94560E8BCF11
:1012D000ACE0B0E0AC0FBD1FA80FB91FBC90B8E0E8
:1012E000BB1609F498CF4FE0B41609F494CF64E02C
:1012F000CC0CDD1C6A95E1F773E0872E79E0972E20
:101300008C0C9D1C9E01280F391FD90155967C908D
:10131000559756964C91569750E060E070E0762FC6
:10132000652F542F4427470D511D611D711DBA01B2
:10133000552744275B962C915B97420F511D611DE9
:10134000711D5C963C9120E02901662457FC609455
:10135000762C440D551D661D771DD4014D935D936C
:101360006D937C9313971496BC924BE050E0BF01B1
:10137000C601885F964F0E940C13F8018481958105
:10138000019695838483D70152962C91B0E12B9FCF
:101390009001112482179307C1F4158214824081B1
:1013A000518162817381C7010E946308F8016083E3
:1013B000718382839383693F7F4F8F4F9F4028F0D3
:1013C00087E0D70111968C9354CF96012D5F364F4D
:1013D000C901DE5F0FB6F894DEBF0FBECDBFDF914F
:1013E000CF911F910F91FF90EF90DF90CF90BF9022
:1013F0009F908F907F906F905F904F90089520E026
:1014000030E0E6E0E29FA001E39F500D11244D5B28
:10141000564F6417750731F02F5F3F4F2430310569
:1014200089F70FC081E090E0022E01C0880F0A9476
:10143000EAF780959091020998239093020980E041
:10144000089527E0FC01218381E008958F929F9207
:10145000BF92CF92DF92EF92FF920F931F93CF93A1
:10146000DF938C01CB01009729F485E0D801119618
:101470008C9375C04091020950E020E030E0B22E1C
:10148000BA01022E02C0759567950A94E2F760FDD5
:101490000AC046E0429FE001439FD00D1124CD5B7E
:1014A000D64F41F405C02F5F3F4F2430310539F747
:1014B00086E053C0D8011A964D915D916D917C9153
:1014C0001D97488359836A837B831D821C8264EA4B
:1014D00078E02FC0D7010D900020E9F76D0181E081
:1014E000C81AD108CE18DF08A601B701C4010596B5
:1014F0000E94F412892B41F580E090E007C001962C
:10150000F401E20FF11D25812032F1F42C2D280F7A
:101510002B30A8F3D4014D915D916D917C9148835E
:1015200059836A837B831D821C8264EA78E080E0B1
:1015300090E00E94E6127C01009731F4809102094C
:101540008B29809302090DC0BE01C8010E94C40806
:101550004C01009709F0BECF85E0F8018183C0E01F
:10156000D0E0CE01DF91CF911F910F91FF90EF90CE
:10157000DF90CF90BF909F908F9008952F923F92D1
:101580004F925F926F927F928F929F92AF92BF9293
:10159000CF92DF92EF92FF920F931F93CF93DF933F
:1015A000CDB7DEB7C350D2400FB6F894DEBF0FBE42
:1015B000CDBF7C01CF5FDD4F1882C150D240BE014C
:1015C0006F5F7D4F0E94260A8C01B801C7010E94FF
:1015D000C4085C0167EA78E005960E94EB12009768
:1015E000A1F7F701A289F501208131814281538160
:1015F0002250310941095109B0E00E945712AB0154
:10160000BC01F70182819381A481B581480F591FE4
:101610006A1F7B1F9E012F5F3F4F8CEE98E00E9458
:10162000560ECE010B960E9443088B018091DD0877
:10163000823010F484E001C085E00E94FE108CED41
:1016400098E00E94E00D6CE281E00E94D70DE0EF8F
:101650008E2E912CCC24C394D12CC3C0C8010396E8
:101660008130F2E09F0770F45BC0452C562C672C4C
:101670007724EEEFF1E0EC0FFD1FE40FF11D308158
:10168000632A09C080E090E0412C512C3201202FC8
:10169000502F5D5F2E5F452F480F0196322F380F78
:1016A000333019F7F701A289F50120813181428198
:1016B00053812250310941095109B0E00E9457126B
:1016C000AB01BC01F70182819381A481B581480FF0
:1016D000591F6A1F7B1F4C0D5D1D611D711DFFEFA2
:1016E000CF1ADF0A9E012F5F3F4F8CEE98E00E94D9
:1016F000560E0D5F114020E00DC0452C562C672C76
:101700007724E1E0F0E0EC0FFD1FE80FF91F808186
:10171000682A2F5F822F90E08017910770F313C023
:10172000E1E0F0E0EC0FFD1FE00FF11F22814180AE
:10173000512C612C712C762C652C542C4424622A5B
:101740002081422A8C01D301C20188279C7FAA27CD
:10175000BB2765E0B695A795979587956A95D1F7CC
:10176000B301A20144275527687F7727452F562FBD
:10177000672F77279C01240F351F88EF48225524B7
:1017800066247724F3E07694679457944794FA9507
:10179000D1F7240D351DC901A0E0B0E0692F7A2FE3
:1017A0008B2F992780E0CE5FDD4F2883C250D24037
:1017B000CD5FDD4F3883C350D2400E94D70DCE5F3E
:1017C000DD4F2881C250D240622F80E00E94D70DA9
:1017D000E1E02E1A310809F041CFF1E08F1A9108AB
:1017E00029F050E4252E3324339438CF8091DD083E
:1017F0000E94FE10CD5FDD4F0FB6F894DEBF0FBE26
:10180000CDBFDF91CF911F910F91FF90EF90DF90AF
:10181000CF90BF90AF909F908F907F906F905F9090
:101820004F903F902F900895CF92DF92EF92FF92CA
:101830000F931F93CF93DF93CDB7DEB7D2500FB680
:10184000F894DEBF0FBECDBF8C017B01FC0110827E
:10185000FB0180818B50823010F082E026C0FB01BA
:1018600041815281638174819E012F5F3F4F8CEED5
:1018700098E00E94560EC150DE4F8881CF5FD14064
:10188000853539F4C050DE4F8881C050D2408A3A45
:1018900011F083E00AC08C85811106C08D858230ED
:1018A00019F48989823021F084E0F80180833CC0FA
:1018B0008E85F801828BCE018D960E944308F80137
:1018C00062877387848795878F85F701C180D2806F
:1018D000E380F480C80ED11CE11CF11C988980E0E3
:1018E000AA2797FDA095BA2FC80ED91EEA1EFB1E87
:1018F000F801C682D782E086F186CE0185960E94E5
:101900004308F80166877787808B918BDC01CB01D8
:10191000880F991FAA1FBB1F8C0D9D1DAE1DBF1DDB
:1019200082839383A483B583DE5F0FB6F894DEBF12
:101930000FBECDBFDF91CF911F910F91FF90EF9020
:10194000DF90CF90089580EC809380001092820009
:10195000E1E8F0E080E18083808182608083109202
:101960006F001092850010928400109287001092F0
:1019700086001092890010928800559A08959C0163
:1019800040E050E060EB71E78BE090E00E9496123F
:10199000C901309387002093860096958795909390
:1019A00089008093880087EC9FEA0197F1F700C0D7
:1019B00000000C94130DE0EBF0E080EC808380815C
:1019C0008063808380818360808381E08093B10025
:1019D0001092B600109270001092B2008FEF8093B8
:1019E000B3008AB1806C8AB90895E82F282F30E0BF
:1019F00081E0829FA001839F500D521B1124CA01D8
:101A000084569C4924E630E0B9010E94821260931A
:101A1000B3004FEFE49FC0011124B9010E9482126C
:101A20006093B40008958FEF8093B3008093B40067
:101A30000895E0915E09F0915F09809160099091AD
:101A4000610901969093610980936009E80FF91F7D
:101A500080818823F1F1873421F164F48334C9F063
:101A60002CF4813401F18234B9F51FC08534A9F01A
:101A7000B4F411C0843679F034F48236B1F04CF409
:101A8000813651F510C0863651F03CF0873621F58D
:101A900008C09AE10BC09CE109C09EE107C09FE12C
:101AA00005C091E203C093E201C095E29093620900
:101AB0008B352CF080916209845F80936209E091FC
:101AC0006209F0E0EE0FFF1FE050FF4F20813181EF
:101AD00005C020E030E002C022E030E0C9010895F6
:101AE000009711F40C94190D90935F0980935E098F
:101AF000109261091092600980E090E008950E94C0
:101B0000190D90935C0980935B09009709F43FC01D
:101B1000029709F440C09091960180915D09992344
:101B200069F0982F9F5F90935D090E94F50C80915A
:101B30005D09843681F4109296010DC0982F915062
:101B400090935D090E94F50C80915D09811103C09D
:101B500081E08093960180915B0990915C090E94DD
:101B6000BF0C2FEF82E597E0215080409040E1F7D5
:101B700000C0000085B1805885B92FEF82E597E05D
:101B8000215080409040E1F700C0000008958DE9A9
:101B900091E00C94700D0895279A579A5F980E94CF
:101BA000A30C0E94DB0C8DE991E00C94700D9FEF6B
:101BB00097B98111149868B91398139A149A0895D3
:101BC000CF93DF93EC016AE281E00E94D70D60E0E1
:101BD00080E00E94D70D60E080E00E94D70D8E81EA
:101BE0009F810197692F80E00E94D70D6E8161501F
:101BF00080E00E94D70D6BE281E00E94D70D60E08B
:101C000080E00E94D70D60E080E00E94D70D8885BB
:101C100099850197692F80E00E94D70D68856150F2
:101C200080E0DF91CF910C94D70DCF92DF92EF92AD
:101C3000FF920F931F93CF93DF93EC01D62EC72E05
:101C40000E94E00D6CE281E00E94D70D00E010E000
:101C500015C06C2D80E00E94D70D6D2D80E00E9494
:101C6000D70D8FEFE81AF80A02C0E12CF12C888515
:101C70009985E816F90668F30F5F1F4F8E819F81E3
:101C80000817190790F3DF91CF911F910F91FF90E3
:101C9000EF90DF90CF9008958EBD0DB407FEFDCF7D
:101CA00008950DB407FEFDCF8EB50895CF92DF9253
:101CB000FF920F931F93CF93DF9300D000D0CDB747
:101CC000DEB76C01F22E032F4C835B836A8379832A
:101CD0000E94EB010E94EB0181E50E944C0E79818C
:101CE000872F0E944C0E6A81862F0E944C0E5B81CA
:101CF000852F0E944C0E4C81842F0E944C0E8FEF3A
:101D00000E944C0E14E68FEF0E944C0E0E94510E62
:101D1000F601808B8F3F19F0882321F01FC01150EE
:101D200091F71CC08FEF0E944C0E0E94510E8E3F07
:101D3000C9F7CF2CD02E00E010E08FEF0E944C0EA0
:101D40000E94510EF60181936F010F5F1F4F011525
:101D5000F2E01F0791F70E94EB0180E00F900F90D7
:101D60000F900F90DF91CF911F910F91FF90DF9017
:101D7000CF900895AF92BF92CF92DF92EF92FF92F1
:101D80000F931F93CF93DF93CDB7DEB7D2500FB62B
:101D9000F894DEBF0FBECDBF8C0180910109811187
:101DA00002C081E01EC0F8011082AA24A394B12CC5
:101DB000AC0EBD1E950140E050E0BA018CEE98E0FB
:101DC0000E94560EC150DE4F8881CF5FD1408535CD
:101DD00039F4C050DE4F8881C050D2408A3A21F099
:101DE00082E0F801808327C02EEB31E080E090E0B4
:101DF00065E0F501E20FF31F54813C9640E0FE2CB4
:101E0000ED2CDC2CCC247291C72A4F5F4430B9F7FB
:101E1000689FF001699FF00D11243196E00FF11FCA
:101E20005083C182D282E382F4820196205F3F4FC9
:101E300083309105F1F6DE5F0FB6F894DEBF0FBE7A
:101E4000CDBFDF91CF911F910F91FF90EF90DF9069
:101E5000CF90BF90AF900895CF93DF93CDB7DEB70B
:101E60002E970FB6F894DEBF0FBECDBF0E94F301D0
:101E700047E4242E48E0342E57E8452E57E0552EEF
:101E80006CE9662E67E0762E09EA17E09E012B5F6B
:101E90003F4F3E872D8776E2A72E78E0B72EE7E307
:101EA0008E2EE8E09E2E32E03093DC086091E80848
:101EB0007091E9088CED98E00E94150E1092DF08F1
:101EC0001092DE081092E1081092E00880E097E09E
:101ED0000E94A41388E197E00E94A4138CEE98E07E
:101EE0000E9422088823D1F381E397E00E94A41383
:101EF000189B03C083E497E002C084E597E00E944A
:101F0000A4138CEE98E00E943707882329F01F92D3
:101F10008F9389E697E0FCC0809101098F701F9232
:101F20008F935F924F920E948D1380910109807F61
:101F30000F900F900F900F9019F085EE96E002C071
:101F400083EF96E09F938F937F926F920E948D1301
:101F50008091EC08837090E001969F938F931F937C
:101F60000F930E948D1382E08093DC086091E80853
:101F70007091E9088CED98E00E94150E1092DF0830
:101F80001092DE081092E1081092E0088091EC08AF
:101F900083700FB6F894DEBF0FBECDBF3091F2084C
:101FA0002091F30832953F70422F4295407F811176
:101FB00041C0842F832B22952F703091F408432F3A
:101FC0004295407F942F922B32953F702091F508D7
:101FD00023702295207FA22FA32BB0E00196A11D94
:101FE000B11D3091F60832953695369533702091B3
:101FF000F7082170220F220F232B30E02E5F3F4F76
:1020000004C0880F991FAA1FBB1F2A95D2F72091E1
:10201000F10822952F7004C0880F991FAA1FBB1FBB
:102020002A95D2F73AE0B695A795979587953A9570
:10203000D1F71FC0842F832B22952F703091F40885
:10204000432F4295407F942F922B32953F702091E1
:10205000F50823702295207FA22FA32BB0E00196D4
:10206000A11DB11D29E0880F991FAA1FBB1F2A952A
:10207000D1F7FAE0B695A79597958795FA95D1F798
:10208000BF93AF939F938F9323EC37E03F932F93AE
:102090000E948D1387EC98E00E94BA0E8091C708C9
:1020A0000F900F900F900F900F900F90882329F0B2
:1020B0001F928F9383ED97E02BC08091C8088B30DF
:1020C00009F46DC08C3009F065C069C01F928F9310
:1020D0008FEE97E01DC081E08093DC0819821A82A0
:1020E0001B821C8288E0ED85FE8511928A95E9F7B6
:1020F000BE016F5F7F4F84EB98E00E94260A7C014F
:10210000009721F58091B5081F928F938CE098E09D
:102110009F938F930E948D130F900F900F900F90AD
:102120002CC0C60105969F938F93BF92AF920E94D9
:102130008D13F60184811F928F939F928F920E943C
:102140008D130FB6F894DEBF0FBECDBFB70184EB81
:1021500098E00E94C4086C01009719F7B70184EB5E
:1021600098E00E94FF0984EB98E00E94BE0A02C03A
:102170000E947F0D199BFCCF96CE3F922F920E941A
:102180008D130F900F908CEE98E00E942208811121
:10219000FACF89CE81E698E00E94A413EECF8AE7B9
:1021A00098E00E94A4138091CC088F938091CB0873
:1021B0008F938091CA088F938091C9088F938FE87D
:1021C00098E09F938F930E948D1368EC78E084EBE6
:1021D00098E00E94140C8091B4080F900F900F901B
:1021E0000F900F900F90811171CF75CF87EC98E011
:1021F0000E94BA0E81E08093B4080895CF93C82F4F
:1022000066E381E00E94D70DC23081F028F4CC2330
:1022100049F0C130B1F408C0C43061F048F0C530B5
:1022200081F40AC068E209C068E407C068EE05C02E
:1022300068E803C068E601C068EA80E0CF910C94CA
:10224000D70DCF910895BF92CF92DF92EF92FF9278
:102250000F931F93CF93DF93EB017A0169016AE239
:1022600081E00E94D70D6D2F80E00E94D70DBC2E1B
:102270006C2F80E00E94D70D2197CC0DDD1D6D2FB6
:1022800080E00E94D70D6B2D61506C0D80E00E94A4
:10229000D70D6BE281E00E94D70D6F2D80E00E9488
:1022A000D70DCE2D6E2D80E00E94D70D81E0E81A6B
:1022B000F108E00EF11E6F2D80E00E94D70D6C2F0B
:1022C0006150600F80E0DF91CF911F910F91FF90DF
:1022D000EF90DF90CF90BF900C94D70D0F931F938A
:1022E000CF93DF93E90101E010E021E030E00E94AC
:1022F00023116CE281E00E94D70D6D2F80E00E94D7
:10230000D70D6C2F80E0DF91CF911F910F910C942E
:10231000D70DCF92DF92EF92FF920F931F93CF933F
:10232000DF93EC011B821A82288188E0289F9001AC
:1023300011248C819D81820F931F9D838C83820F3A
:10234000931F488559854817590740F5DC84CD848B
:10235000CE010E94E00D6CE281E00E94D70D00E00A
:1023600010E015C06C2D80E00E94D70D6D2D80E02F
:102370000E94D70D8FEFE81AF80A02C0E12CF12C69
:1023800088859985E816F90668F30F5F1F4F8E81DF
:102390009F810817190790F31D821C82DF91CF914E
:1023A0001F910F91FF90EF90DF90CF9008958CEDEB
:1023B00098E00C947802CF92DF92EF92FF920F9305
:1023C0001F93CF93DF931F92CDB7DEB78C0166309A
:1023D00008F065E0F12C18C084E6E82E6801CF0C07
:1023E000D11C80E1C80ED11C8FEF69830E944C0E76
:1023F00069810DB407FEFDCF8EB5F60180838F3F56
:1024000041F4EA9489F705C0F612E6CFF801808915
:1024100002C0F394F9CF0F90DF91CF911F910F91EC
:10242000FF90EF90DF90CF900895DF92EF92FF92B0
:102430000F931F93CF93DF938C01C0E0D0E094E61D
:10244000D92E7801EC0EFD1E8FEF0E944C0E0DB4BC
:1024500007FEFDCF8EB5F701808B8F3F31F4DA9404
:1024600099F703C0F801808905C02196C530D105D0
:1024700031F7F8CFDF91CF911F910F91FF90EF903F
:10248000DF90089584B1806B84B9269885B1806F00
:1024900085B982E58CBD8DB58E7F8DBD84B18C7F75
:1024A00084B985B1836085B91092010908950E94AD
:1024B000B212A59F900DB49F900DA49F800D911D09
:1024C00011240895991B79E004C0991F961708F00C
:1024D000961B881F7A95C9F780950895AA1BBB1B88
:1024E00051E107C0AA1FBB1FA617B70710F0A61B14
:1024F000B70B881F991F5A95A9F780959095BC0135
:10250000CD01089597FB072E16F4009407D077FDB0
:1025100009D00E946E1207FC05D03EF4909581957B
:102520009F4F0895709561957F4F0895052E97FBF5
:1025300016F4009407D057FD0DD00E94BE1207FC80
:1025400009D07EF490958095709561957F4F8F4F5F
:102550009F4F089550954095309521953F4F4F4F8F
:102560005F4F0895A29FB001B39FC001A39F01D008
:10257000B29F700D811D1124911D0895A1E21A2EA4
:10258000AA1BBB1BFD010DC0AA1FBB1FEE1FFF1F17
:10259000A217B307E407F50720F0A21BB30BE40B67
:1025A000F50B661F771F881F991F1A9469F76095AE
:1025B0007095809590959B01AC01BD01CF01089568
:1025C000EE0FFF1F0590F491E02D099443E659E0CA
:1025D0000E941B130895FB01DC018D91019080196D
:1025E0000110D9F3990B0895FB01DC0141505040D3
:1025F00088F08D9181341CF08B350CF4805E6191F4
:1026000061341CF06B350CF4605E861B611171F354
:10261000990B0895881BFCCFFB01DC014150504011
:1026200048F001900D920020C9F701C01D92415061
:102630005040E0F70895FA01A191B081009719F494
:102640001097E1F0CD01DC01CD010D90002011F4D7
:10265000C00113C0FB012191222319F02015D9F7E5
:10266000F3CFFB012191201519F41E92119606C09B
:102670002223C1F70D900020A1F7D001FA01A19308
:10268000B08308950F931F93CF93DF93EC018B01D9
:10269000009731F46115710519F4E0E0F0E037C0FE
:1026A0006EE070E081E090E00E94B015FC010097C0
:1026B000A1F380E883830115110571F01387028768
:1026C00081E883838091650990916609892B21F4C3
:1026D000F0936609E09365092097C9F0D187C08718
:1026E0008381826083838091670990916809892B37
:1026F00071F4F0936809E0936709809169099091FA
:102700006A09892B21F4F0936A09E0936909CF01E2
:10271000DF91CF911F910F910895A2E0B0E0E3E91E
:10272000F3E10C94BC17FE01379661917191FA8325
:10273000E983AF0180916709909168090E94D313E2
:102740002296E2E00C94D8170F931F93CF93DF9358
:102750008C01E0916709F0916809838181FF1BC0BA
:10276000C0E0D0E005C00995892B11F0CFEFDFEF75
:10277000F80181918F016091670970916809DB010F
:102780001896ED91FC9119978111EDCF8AE009958A
:10279000892B09F402C0CFEFDFEFCE01DF91CF919B
:1027A0001F910F910895ACE0B0E0E9EDF3E10C94D6
:1027B000AC177C016B018A01FC01178216828381B0
:1027C00081FFC7C188248394912C8C0E9D1EF70134
:1027D0009381F60193FD859193FF81916F01882389
:1027E00009F4B3C1853239F493FD859193FF81914A
:1027F0006F01853229F4B70190E00E942217E7CFDC
:10280000712C312C20E02032A8F48B3261F028F4B6
:10281000803251F0833271F40BC08D3239F0803345
:1028200049F4216028C02260246025C0286023C0AC
:10283000206121C027FD27C0382F30533A3078F46B
:1028400026FF06C0FAE07F9E300D1124732E13C0C0
:102850008AE0389E300D1124332E20620CC08E3257
:1028600021F426FD72C1206406C08C3611F4206864
:1028700002C0883641F4F60193FD859193FF819162
:102880006F018111C0CF982F9554933018F090525A
:10289000933028F40C5F1F4FFFE3F9830DC083369C
:1028A00031F0833771F0833509F05EC023C0F80141
:1028B000808189830E5F1F4F66246394712C5401BD
:1028C00015C02801F2E04F0E511CF801A080B18024
:1028D00026FF03C0672D70E002C06FEF7FEFC501D8
:1028E0002C870E9417173C0182012C856FE7262E4A
:1028F000222218C02801F2E04F0E511CF801A080DE
:10290000B18026FF03C0672D70E002C06FEF7FEF3C
:10291000C5012C870E9405173C012C8550E8252E07
:10292000222A820123FC1CC006C0B70180E290E08D
:102930000E9422173A94832D90E068167906A8F336
:102940000FC0F50127FC859127FE81915F01B7013A
:1029500090E00E94221731103A94F1E06F1A71084A
:102960006114710471F7EEC0843611F0893641F5B7
:10297000F80127FF07C060817181828193810C5F1C
:102980001F4F08C060817181882777FD8095982F3F
:102990000E5F1F4F4FE6642E622297FF09C090958D
:1029A0008095709561957F4F8F4F9F4FF0E86F2A0C
:1029B0002AE030E0A4010E944E17A82EA81844C0B7
:1029C000853731F43FEEB32EB2222AE030E024C046
:1029D00099EFB92EB2228F36B9F020F4883509F07C
:1029E000B4C00DC0803721F0883709F0AEC002C0F6
:1029F00020E1B22AB4FE0BC084E0B82A08C024FF4C
:102A000009C0E6E0BE2A06C028E030E005C020E1AB
:102A100030E002C020E132E0F801B7FE07C060817B
:102A20007181828193810C5F1F4F06C0608171812B
:102A300080E090E00E5F1F4FA4010E944E17A82E69
:102A4000A8188FE7682E6B2066FE0BC0362D3E7FE0
:102A5000A71450F464FE0AC062FC08C0362D3E7E06
:102A600005C0BA2C362D03C0BA2C01C0B72C34FFD8
:102A70000DC0FE01EA0DF11D8081803311F4397E15
:102A800009C032FF06C0B394B39404C0832F867884
:102A900009F0B39433FD14C030FF0FC07A2CB31487
:102AA00060F4730C7B18B32C08C0B70180E290E08F
:102AB0003C870E942217B3943C85B314B0F304C042
:102AC000B31410F43B1801C0312C34FF12C0B7010D
:102AD00080E390E03C870E9422173C8532FF1EC0B5
:102AE00031FF03C088E590E002C088E790E0B701BD
:102AF0000CC0832F867891F031FD02C080E201C0C6
:102B00008BE237FD8DE2B70190E00E94221706C0EC
:102B1000B70180E390E00E9422177A94A714C0F3D3
:102B2000AA94F401EA0DF11DB701808190E00E94A2
:102B30002217A110F5CF06C0B70180E290E00E94F5
:102B400022173A943110F8CF42CEF701268137810F
:102B500002C02FEF3FEFC9012C96E2E10C94C81799
:102B60000F931F93CF93DF93689F8001699F100D90
:102B7000789F100D1124C8010E94CE15C82FD92F9F
:102B8000209731F0A80160E070E08C2F0E941017B0
:102B9000CE01DF91CF911F910F9108950F931F9355
:102BA000CF93DF938230910510F482E090E0E091C2
:102BB0006D09F0916E0920E030E0C0E0D0E023C064
:102BC0004081518148175907A8F04817590761F407
:102BD00082819381209719F09B838A832EC09093E2
:102BE0006E0980936D0929C02115310529F042171E
:102BF000530710F0A90102C0BE01DF010281138159
:102C0000EF019A01F8013097D9F62115310509F144
:102C1000281B390B2430310590F412968D919C912C
:102C200013976115710521F0FB019383828304C022
:102C300090936E0980936D09FD01329644C0FD01A9
:102C4000E20FF31F81939193225031092D933C930E
:102C50003AC020916B0930916C09232B41F42091EB
:102C6000990130919A0130936C0920936B0920915E
:102C70009701309198012115310541F42DB73EB7E8
:102C800040919B0150919C01241B350BE0916B09F5
:102C9000F0916C09E217F307A0F42E1B3F0B2817E5
:102CA000390778F0AC014E5F5F4F2417350748F0C5
:102CB0004E0F5F1F50936C0940936B098193919362
:102CC00002C0E0E0F0E0CF01DF91CF911F910F91C2
:102CD0000895EF92FF920F931F93CF93DF93009786
:102CE00009F48EC0DC01129713961C921E92129763
:102CF000E0906D09F0906E09E114F10489F42D91D2
:102D00003C911197280F391F80916B0990916C09A4
:102D10008217930789F5B0936C09A0936B0970C073
:102D2000E70120E030E001C0EA01CA17DB0738F410
:102D30004A815B819E0141155105B1F722C0AC016A
:102D400042505109FA01D383C28300811181BC0131
:102D5000600F711F6C177D0761F468817981600FC6
:102D6000711F6E5F7F4F718360836A817B81738384
:102D700062832115310529F4B0936E09A0936D0982
:102D80003FC0F901B383A283E90149915991C40F6E
:102D9000D51FAC17BD0771F4DC019E918E91840F95
:102DA000951F02969183808312968D919C91139723
:102DB00093838283A0E0B0E002C0D7017C01F701D9
:102DC000828193810097C9F7C701029620813181E2
:102DD000820F931F20916B0930916C0928173907D6
:102DE00079F4109729F410926E0910926D0904C0BD
:102DF00013961C921E921297F0926C09E0926B0946
:102E0000CDB7DEB7E6E00C94D417FC010590615015
:102E100070400110D8F7809590958E0F9F1F0895F0
:102E2000DC0101C06D9341505040E0F70895FC0172
:102E30006150704001900110D8F7809590958E0FE9
:102E40009F1F08950F931F93CF93DF938C01EB0186
:102E50008B8181FD03C00FEF1FEF1AC082FF0DC0F1
:102E60002E813F818C819D812817390764F4E88188
:102E7000F9810193F983E88306C0E885F985802FFD
:102E80000995892B41F78E819F8101969F838E83BF
:102E9000C801DF91CF911F910F910895FA01AA27E0
:102EA000283051F1203181F1E8946F936E7F6E5F8D
:102EB0007F4F8F4F9F4FAF4FB1E03ED0B4E03CD03B
:102EC000670F781F891F9A1FA11D680F791F8A1F1E
:102ED000911DA11D6A0F711D811D911DA11D20D085
:102EE00009F468943F912AE0269F11243019305D3F
:102EF0003193DEF6CF010895462F4770405D419330
:102F0000B3E00FD0C9F7F6CF462F4F70405D4A337C
:102F100018F0495D31FD4052419302D0A9F7EACF44
:102F2000B4E0A6959795879577956795BA95C9F773
:102F300000976105710508959B01AC010A2E069466
:102F40005795479537952795BA95C9F7620F731F1F
:102F5000841F951FA01D08952F923F924F925F925C
:102F60006F927F928F929F92AF92BF92CF92DF9299
:102F7000EF92FF920F931F93CF93DF93CDB7DEB7FE
:102F8000CA1BDB0B0FB6F894DEBF0FBECDBF099492
:102F90002A88398848885F846E847D848C849B84E9
:102FA000AA84B984C884DF80EE80FD800C811B81F7
:102FB000AA81B981CE0FD11D0FB6F894DEBF0FBE26
:0A2FC000CDBFED010895F894FFCF96
:102FCA003E004100450049004E00520057005C0097
:102FDA00620068006E0075007B0083008B0093001E
:102FEA009C00A500AF00B900C400D000DC00E900D5
:102FFA00F70006011501260137014A015D01720138
:10300A0088019F01B801D201EE010B022A024B028C
:10301A006E029302BA02E40210033F037003A40390
:10302A00DC03170455049704DD0427057505C80554
:10303A0020067D06E0064907B8072D08A9082D09CC
:10304A00B9094D0AEA0A900B400CFA0CC00D910E10
:10305A006F0F5A1053110100006F092000583A31BE
:10306A000A543A205072656C7564652066726F6DF9
:10307A002066697273742043656C6C6F205375699E
:10308A0074650A433A204A2E532E20426163682C03
:10309A002068657265207472616E73706F736564FF
:1030AA0020666F72206D616E646F6C696E0A4D3AAC
:1030BA0020342F340A4C3A20312F31360A4B3A4405
:1030CA000A28444166296520664166412028444110
:1030DA006629652066416641207C2028444267298A
:1030EA006620674267422028444267296620674271
:1030FA006742207C0A2844636729662067636763FE
:10310A00202844636729662067636763207C202838
:10311A0044646629642066646664202844646629D7
:10312A00642066646664207C0A2844426629652015
:10313A006664636420426463642046415E474620B5
:10314A00207C20285E4764652964206564656420C4
:10315A00285E47646529642065646564207C0A28C2
:10316A00636561295E6720616564652063656465DE
:10317A00204163424120207C2028422C4664296356
:10318A0020644664462028422C466429632064460B
:10319A006446207C0A28422C5E4741294220414746
:1031AA00464520286463422961205E67666564207B
:1031BA007C2028634241296120656163652028419A
:1031CA00426329652064634241207C0A5E64284187
:1031DA003D634229206341644120662841634229B4
:1031EA00206341644120207C2028474265296620CB
:1031FA0067654241202847426529662067655E6304
:10320A0042207C0A5E412863416329206563656325
:10321A002041286341632920656365632020207C5F
:10322A0020286463422964206364656320646342DE
:10323A00412047464544207C0A43474147204147AD
:10324A00414720434741472041474147207C2028A6
:10325A0044463D6329422063466346202844466328
:10326A0029422063466346207C0A28444742294172
:10327A0020424742472028444742294120424742A8
:10328A0047207C2028445E6367296620676367635A
:10329A00202844636729662067636763207C0A28BD
:1032AA0044416629652066646342204147464520B9
:1032BA004443422C412C207C205E472C2845426303
:1032CA0029206442636420472C28454263292064EC
:1032DA00426364207C0A3D472C28454142292063E9
:1032EA00414263203D472C284541422920634142FF
:1032FA0063207C20472C28454163292028655E6786
:10330A002861322920612945463D472041426364AC
:10331A00207C0A257365636F6E6420706172740A7B
:10332A0028656341294220636465662028676563CE
:10333A0029642065666761207C205F62615E67613F
:10334A0020613D676667206765633D4220414546C7
:10335A0047207C0A412C2845416329206566676518
:10336A00202866644129472046444546207C20415E
:10337A002C4446412064656665205E673D66656645
:10338A002066655E6465207C0A653D64636420642A
:10339A00425E4746204547426420655E6761672072
:1033AA007C206165634220636541632045415E4735
:1033BA004620454443422C207C0A412C3220283D99
:1033CA006766206564634220412928676665206430
:1033DA00634241207C204729286665642063424174
:1033EA0047204629286564632042414746207C0AD3
:1033FA0046292864634229205B63635D655B41411A
:10340A005D65205B42425D655B63635D65205B646D
:10341A00645D655B42425D65207C205B63635D653C
:10342A005B41415D65205B64645D655B42425D654D
:10343A00205B63635D655B41415D65205B64645D40
:10344A00655B42425D65207C0A5B63635D655B4147
:10345A00415D65205B42425D655B63635D65205B40
:10346A0064645D655B65655D65205B66665D655B7D
:10347A0041415D65207C205B65655D655B66665DD7
:10348A0065205B67675D655B41415D65205B6666DC
:10349A005D655B67675D65205B61615D655B66664F
:1034AA005D65207C0A5B67675D655B66665D6520B6
:1034BA005B67675D655B65655D65205B66665D6527
:1034CA005B65655D65205B66665D655B64645D651D
:1034DA00207C205B65655D655B64645D65205B657A
:1034EA00655D655B63635D65205B64645D655B6305
:1034FA00635D65205B64645D655B42425D65207C5B
:10350A000A63654142203D63415E63412064415E36
:10351A0064412065413D6641207C205E66416741E9
:10352A00205E67416141205E62413D62413D632701
:10353A00415E632741207C0A642728664166292068
:10354A006427666427662064272866416629206402
:10355A002766642766207C20642728654165292020
:10356A0064276564276520642728654165292064E6
:10357A002765642765207C0A632728674167292015
:10358A0063276763276720632728674167292063C2
:10359A002767632767207C205B44313641666427AE
:1035AA005D207C5D00426C6F636B206164647265B0
:1035BA007373004279746520616464726573730081
:1035CA002A2A2A205344206C696272617279207413
:1035DA00657374202A2A2A0057616974696E672004
:1035EA00666F7220534420696E736572742E2E2E94
:1035FA000053442043617264206465746563746592
:10360A0064210057726974652D70726F74656374F2
:10361A00656421004E6F742077726974652D70722B
:10362A006F7465637465642E00496E697469616CB0
:10363A00697365206661696C6564207769746820BE
:10364A0025303258210A005344204361726420769F
:10365A00657273696F6E3A2025750A004164647257
:10366A006573733A2025730A0043534420726567D1
:10367A0069737465722076657273696F6E3A202574
:10368A00750A0053442053697A653A20256C754DB2
:10369A00420A004469736B2072656164206661693D
:1036AA006C6564207769746820253032580A0052A4
:1036BA00656164204641543332206661696C6564F1
:1036CA00207769746820253032580A004572726F73
:1036DA0072206F70656E2064697220776974682041
:1036EA00253032580A0052656164206E616D653A70
:1036FA0020252E313173002C20747970653A2030E0
:10370A0078253032580A0052656D6F766520534429
:10371A0020746F2072756E20616761696E2E2E2E7D
:10372A0000506172746974696F6E20312069732068
:10373A006E6F74204641543332005061727469745A
:10374A00696F6E2031206973204641543332005329
:10375A007461727420617420736563746F722025BA
:10376A006C750A002F5C0054465420202020204209
:04377A004D500000AE
:00000001FF
