:100000000C94C1010C94E9010C94E9010C94E901F0
:100010000C94E9010C94E9010C94E9010C94E901B8
:100020000C94E9010C94E9010C94E9010C94E901A8
:100030000C94E9010C94E9010C94E9010C94E90198
:100040000C94E9010C94E9010C94E9010C94E90188
:100050000C94E9010C94E9010C94E9010C94E90178
:100060000C94E9010C94E9010C94E9010C94E90168
:100070000C94E9010C94E9010C94E90102000000E0
:1000800000000001222020200000200152505000DA
:10009000000000015250F850F85050012278A07032
:1000A00028F02001C2C81020409818016290A0409A
:1000B000A89068016220400000000001122040402A
:1000C0004020100142201010102040010220A87092
:1000D000A8200001022020F82020000102000000DA
:1000E00000602041020000F8000000010200000052
:1000F000006060010208102040800001728898A80A
:10010000C8887001226020202020700172880810A9
:100110002040F801FA102010088870011230509029
:10012000F8101001FA80F00808887001324080F061
:1001300088887001FA081020404000017288887099
:1001400088887001728888780810600102606000F9
:100150006060000102606000602040011220408069
:10016000402010010200F800F800000142201008B1
:100170001020400172880810200020017288086851
:10018000A8A8700172888888F8888801F28888F0A9
:100190008888F0017288808080887001E290888869
:1001A0008890E001FA8080F08080F801FA8080F089
:1001B00080808001728880B8888878018A8888F871
:1001C0008888880172202020202070013A101010A9
:1001D000109060018A90A0C0A090880182808080E9
:1001E0008080F8018AD8A8A8888888018A88C8A849
:1001F000988888017288888888887001F28888F0D9
:100200008080800172888888A8906801F28888F0D0
:10021000A09088017A8080700808F001FA202020E0
:10022000202020018A888888888870018A888888A8
:10023000885020018A8888A8A8A850018A88502060
:10024000508888018A88885020202001FA081020D0
:100250004080F801724040404040700102804020E0
:100260001008000172101010101070012250880048
:1002700000000001020000000000F8014220100010
:100280000000000102007008788878018280B0C800
:100290008888F00102007080808870010A086898E0
:1002A0008888780102007088F8807001324840E048
:1002B0004040400102788888780870018280B0C888
:1002C00088888801220060202020700112003010F0
:1002D00010906001828090A0C0A090016220202038
:1002E000202070010200D0A8A8A8A8010200B0C870
:1002F0008888880102007088888870010200F08870
:10030000F080800102006898780808010200B0C8F7
:1003100080808001020070807008F0014240E0405F
:100320004048300102008888889868010200888867
:100330008850200102008888A8A850010200885037
:100340002050880102008888780870010200F810A7
:100350002040F801122020402020100122202020DF
:10036000202020014220201020204001020068901F
:10037000000000010200000000000001C90FAA10E7
:10038000151111241FBECFEFD0E1DEBFCDBF12E0AB
:10039000A0E0B1E0ECECFCE202C005900D92A83EBA
:1003A000B107D9F713E0A8EEB2E001C01D92AB3956
:1003B000B107E1F713E0C2E8D3E004C02297FE01E1
:1003C0000E946311CC37D107C9F70E94FE0D0C942F
:1003D00064160C9400008FEF0E941E0D0E94230DE6
:1003E0008F3FC9F708950E94020262E080E193E026
:1003F0000E94A7040E949204909394038093930315
:10040000119A08951F93CF93DF9385B7806885BFB6
:1004100085B7806885BF8FE781B98DEF82B917B83E
:100420008FEF88B912981098139A159A149A169A01
:1004300028E22A95F1F7129A8FEF94E624E0815092
:1004400090402040E1F700C0000068E281E00E9497
:10045000A90C61E181E00E94A90C8FEF94E624E0F1
:10046000815090402040E1F700C0000064E381E04B
:100470000E94A90C68E381E00E94A90C63E181E07D
:100480000E94A90C60E281E00E94A90C6AE381E06D
:100490000E94A90C65E580E00E94A90C66E381E05A
:1004A0000E94A90C68E480E00E94A90C6CE281E043
:1004B0000E94A90CC0E4D1E010C060E080E00E947E
:1004C000A90C60E080E00E94A90C60E080E00E943E
:1004D000A90C115091F7219711F010EFEECF69E2BE
:1004E00081E0DF91CF911F910C94A90CFC01138244
:1004F00012821582148281E08083818380EF90E0F4
:100500009783868380E491E0918780878FEF9FEFC8
:1005100093878287158614860895AF92BF92CF92F3
:10052000DF92EF92FF920F931F93CF93DF93E90136
:1005300058010E94F60F6CE281E00E94A90C12C0E3
:100540006F2D80E00E94A90C6E2D80E00E94A90C06
:100550008FEFC81AD80A02C0C12CD12CCA14DB04F0
:1005600079F721972097C1F7DF91CF911F910F91D4
:10057000FF90EF90DF90CF90BF90AF9008952F92B3
:100580003F924F925F926F927F928F929F92AF9223
:10059000BF92CF92DF92EF92FF920F931F93CF9370
:1005A000DF935C014B016A01E9016217730771F483
:1005B0000417150730F4C026D1260C251D25C026AA
:1005C000D1260C191D0921E030E011C04017510758
:1005D000A1F42617370730F482269326C825D9259B
:1005E0008C269D269E012819390901E010E0A601FC
:1005F000B401C5010E948D027CC02901461A570A28
:1006000057FE03C051944194510838016C187D087D
:1006100077FE03C071946194710846145704A8F5DD
:100620000C151D0560F48C269D26C825D9258C2621
:100630009D26C026D1260C251D25C026D12620E0CA
:1006400030E080E090E017C0B3010E944111FB014F
:10065000E80DF91DC901B3010E944111E61BF70B1A
:100660009701A601BF01C5010E9441108FEFC81A72
:10067000D80A9101C2012C014C0E5D1E1901280CF3
:10068000391C0C151D0500F734C0C815D90560F4D8
:100690008C269D26C825D9258C269D26C026D126A8
:1006A0000C251D25C026D12620E030E080E090E01A
:1006B00017C0B2010E944111FB01EC0DFD1DC901E3
:1006C000B2010E944111E61BF70B9701AF01B40183
:1006D000C5010E9441108FEF881A980A9101C30149
:1006E0003C01600E711E19012C0C3D1CC815D9056A
:1006F00000F7DF91CF911F910F91FF90EF90DF9066
:10070000CF90BF90AF909F908F907F906F905F90B1
:100710004F903F902F9008952F923F924F925F926B
:100720006F927F928F929F92AF92BF92CF92DF9201
:10073000EF92FF920F931F93CF93DF9300D000D0DF
:1007400000D0CDB7DEB79E838D835B014A013A832B
:1007500029831C830B836E2C712C190126183708F2
:100760007601830191010E948D024B805C804618C6
:10077000570869817A816A0D7B1D661977098201A4
:100780009301A4018D819E810E948D02A301480DD9
:10079000591D9301B5018D819E810E948D024B816F
:1007A0005C81480D591D46195709B3016A0D7B1D1F
:1007B000830191018D819E810E948D0226960FB644
:1007C000F894DEBF0FBECDBFDF91CF911F910F9187
:1007D000FF90EF90DF90CF90BF90AF909F908F9061
:1007E0007F906F905F904F903F902F900895DF9291
:1007F000EF92FF920F931F93CF93DF93EC01E62EBE
:10080000288188E0289F8001112486E0289F90019C
:1008100011244C815D816A817B81CE010E94F60F9B
:100820006CE281E00E94A90CF12C0E2D112707FD2E
:1008300010950052110983E0000F111F8A95E1F70E
:1008400036C08F2D0E943511F801E80FF11DE458D4
:10085000FF4FD490E12C20C0D7FE06C06B8580E00E
:100860000E94A90C6A8505C06D8580E00E94A90CD4
:100870006C8580E00E94A90C48818E2D642F0E9417
:100880003511292F30E0642F70E06150710926176F
:10089000370709F4DD0CE39428814E2D50E086E003
:1008A000289F9001112442175307B4F2F3946881F2
:1008B0004F2D50E088E0689F9001112442175307A4
:1008C0000CF4BFCFDF91CF911F910F91FF90EF906C
:1008D000DF9008958A3029F480E193E00E945C1053
:1008E0001EC0682F80E193E00E94F703209110035F
:1008F00086E0289F900111248091120390911303A8
:10090000820F931F9093130380931203820F931F00
:10091000409116035091170348175907E8F280E0F9
:1009200090E0089580911E0390911F03892B51F44C
:1009300060E070E08AE694E00E94C31190931F0388
:1009400080931E0380911E0390911F0308950F93BF
:100950001F93CF93DF931F92CDB7DEB78C01862F05
:1009600069830E94D10F6981613071F028F0623093
:1009700019F0633091F408C020E431E0F8013783C6
:10098000268320EF30E007C020EF30E0F801378306
:10099000268320E431E031872087F80161830F90BE
:1009A000DF91CF911F910F9108958FEF0E941E0D3F
:1009B0000DB407FEFDCF8EB58F3FB9F70895CF93E5
:1009C000DF9300D000D000D0CDB7DEB72E834D83AB
:1009D0005C836B837A8389830E94D5040E94D5044B
:1009E000898180640E941E0D7A81872F0E941E0DCE
:1009F0006B81862F0E941E0D5C81852F0E941E0D2B
:100A00004D81842F0E941E0D2E81822F880F8160C0
:100A100026960FB6F894DEBF0FBECDBFDF91CF9103
:100A20000C941E0DFC01DB018C9190E026E0959565
:100A300087952A95E1F7837040814C7F482B40834E
:100A400011968C911197818312968C9112978283C3
:100A500013968C911397838315968C91159790E03C
:100A600034E0959587953A95E1F714962C91149773
:100A700050E1259F90011124822B932B84839F703A
:100A80008581807F892B858315969C9115979295FA
:100A9000907F8F70892B858316968C91169790E0A6
:100AA000880F892F881F990B568180FB50F9568338
:100AB00016968C91169790E066E0959587956A95C5
:100AC000E1F780FB51F9568316968C91169790E0CA
:100AD00075E0959587957A95E1F780FB52F95683F5
:100AE00016968C91169790E024E0959587952A9517
:100AF000E1F780FB53F95683437018962C911897B1
:100B000017968C91179730E0411177C066E03595C4
:100B100027956A95E1F744E0849FC0011124282BB2
:100B2000392B16964C9116974370942F990F990F65
:100B300080E0282B392B442737FD4095822F829562
:100B4000807F5F70582B5683932F9295907F822FD2
:100B500082958F70892B8783942F9295907F832F16
:100B600082958F70892B8087942F929593708185C1
:100B70008C7F892B818718969C91189796959C71EC
:100B8000837E892B818718969C9118979295990F4F
:100B9000907E8F71892B818719968C91199790E09F
:100BA00075E0959587957A95E1F787709285987F9E
:100BB000982B928719968C911997880F8873977C38
:100BC000982B92871A968C911A97881F8827881FCE
:100BD00019962C911997220F820F282F2295220FF8
:100BE000220F207C9F73922B928782FB882780F9AB
:100BF00093859E7F982B938726C040E0432F322F0A
:100C00002227482B19968C911997282B822F829591
:100C1000807F5F70582B5683932F9295907F822F01
:100C200082958F70892B8783942F9295907F832F45
:100C300082958F70892B8087942F929593708185F0
:100C40008C7F892B81871A968C911A9790E026E0E9
:100C5000959587952A95E1F7938580FB91F9938780
:100C60001B962C911B97221F2227221F1A968C91CC
:100C70001A97880F822B282F220F220F9370922B06
:100C8000938786FB992790F984858E7F892B8487AB
:100C90001B969C911B97990F8170892B84871C96BA
:100CA0008C911C9790E0880F892F881F990B3585B0
:100CB00080FB30F935871C968C911C9786958E7039
:100CC000317F382B35871D962C911D9722952695BF
:100CD000269523701C968C911C9754E0859FC0012B
:100CE0001124282B2295207F3F70322B35871D96AB
:100CF0008C911D9790E045E0959587954A95E1F791
:100D0000268580FB20F926871E968C911E9790E001
:100D1000880F892F881F990B80FB21F926871E9643
:100D20008C911E9790E066E0959587956A95E1F71E
:100D300080FB22F926871E968C911E9790E075E025
:100D4000959587957A95E1F780FB23F926871E967E
:100D50008C911E9790E034E0959587953A95E1F750
:100D600080FB24F926871E968C911E97880F880F8A
:100D7000880F80762F79282B26871F968C9190E0FC
:100D80009595879580FB27F92687969587958F738C
:100D90009785907C982B97870895CF93DF93FC01DC
:100DA000DB018C91808312969C91129780E01196C2
:100DB0002C911197820F911D928381836D5F7F4FDC
:100DC00080E090E0EB014991BE019F01280F391F9F
:100DD000E9014B83019685309105A1F718968C9116
:100DE000189780871186128613861486ED0129963E
:100DF00084E04185528563857485762F652F542F55
:100E0000442741875287638774879991492B41878B
:100E1000528763877487815061F71D969C911D9757
:100E200080E01E962C911E97820F911D8587892F39
:100E30008F702685207F282B26871F968C9190E027
:100E400095958795382F3295307F2F70232B2687E5
:100E500044E0969587954A95E1F787709785987F46
:100E6000982B9787DF91CF910895CF92DF92EF92E1
:100E7000FF920F931F93CF93DF93CDB7DEB7A09769
:100E80000FB6F894DEBF0FBECDBF8C01FC01158AF2
:100E900087EB9BE00197F1F700C000002C9A2AE055
:100EA000F22E8FEF0E941E0DFA94D9F72C9885EC44
:100EB00092E00E9425122AE440E050E0BA0180E06E
:100EC0000E94DF048DEC92E00E942512C8010E946E
:100ED000E810813009F0A6C023E44AEA51E060E05E
:100EE00070E088E00E94DF04C8010E94E8108130B1
:100EF00089F5F8018389813009F096C084898A3A9E
:100F000009F092C02FEF40E050E0BA0187E30E9461
:100F1000DF042FEF40E050E060E070E489E20E94DF
:100F2000DF04C8010E94E810813061F32FEF40E038
:100F300050E0BA018AE30E94DF04C8010E94E81071
:100F4000F801818986FF03C082E1858B37C082E08A
:100F5000F8012BC02FEF40E050E0BA0187E30E9478
:100F6000DF042FEF40E050E0BA0189E20E94DF0485
:100F7000C8010E94E8108E7F31F4F8018089813029
:100F800049F381E012C02FEF40E050E0BA0181E068
:100F90000E94DF04C8010E94E8108E7F09F046C05D
:100FA000F8018089813079F383E0858B2FEF40E071
:100FB00052E060E070E080E10E94DF0480E58CBDDB
:100FC0008DB581608DBD2FEF40E050E0BA0189E022
:100FD0000E94DF0462E0C8010E94AE10811128C0A7
:100FE0007E01F1E1EF0EF11C6E0181E2C80ED11C11
:100FF00061E0C8010E94AE10F70181937F01EC15FA
:10100000FD05B1F7BE016F5E7F4FCE0101960E94D4
:10101000120580E1FE013196D80101900D928A956A
:10102000E1F706C081E005C082E003C08FEF01C098
:1010300080E0A0960FB6F894DEBF0FBECDBFDF9163
:10104000CF911F910F91FF90EF90DF90CF90089577
:10105000199B05C02FEFFC01258B80E00895FFE769
:101060002FE432E1F15020403040E1F700C00000B1
:1010700083B19FE7E9EAF3E09150E040F040E1F707
:1010800000C0000093B1917081709813F1CF81E09E
:1010900008950F931F93FC018181028110E020E0ED
:1010A00030E0980111270027182B8081082B8381BD
:1010B000382BB801C9011F910F9108958FEF0E943D
:1010C0001E0D0E94230D8F3FC9F7089580E090E028
:1010D00008958F929F92AF92BF92CF92DF92EF923C
:1010E000FF92CF93DF93CDB7DEB7D2500FB6F8940F
:1010F000DEBF0FBECDBF4A015B016A017B0122E06A
:10110000CC0CDD1CEE1CFF1C2A95D1F739E0F694BF
:10111000E794D794C7943A95D1F7FC01468157815B
:10112000608571854C0D5D1D6E1D7F1D9E012F5FBD
:101130003F4F80E293E00E94280D47E0CC0CDD1C7D
:10114000EE1CFF1C4A95D1F7D501C4018C199D09ED
:10115000AE09BF0952E0880F991FAA1FBB1F5A95FD
:10116000D1F721E030E02C0F3D1F820F931F0E942A
:101170004908DE5F0FB6F894DEBF0FBECDBFDF912A
:10118000CF91FF90EF90DF90CF90BF90AF909F9066
:101190008F9008954F925F926F927F928F929F925D
:1011A000BF92CF92DF92EF92FF920F931F93CF9354
:1011B000DF93CDB7DEB7D2500FB6F894DEBF0FBEC7
:1011C000CDBF7C018B01C12CD12C26E02C9DC00110
:1011D0002D9D900D112489589C4F0817190709F46B
:1011E00051C04FEFC41AD40A84E0C816D10471F775
:1011F000EDC0F80124813581C9018F70992745E040
:10120000880F991F4A95E1F7E1E0F0E0EC0FFD1F30
:10121000E80FF91F4081442309F4D8C0453E09F086
:101220005DC0C9010196D80115969C938E931497C1
:101230009C012F703327232BE1F6F7012289F0E17F
:101240002F9F9001112482179307E1F415961C92A9
:101250001E9214974D915D916D917C91C7010E94F2
:101260006908D8016D937D938D939C931397693F83
:101270007F4F8F4F9F4030F087E0F701818320E060
:1012800030E0ACC0F701A289F801208131814281B0
:1012900053812250310941095109B0E00E942A11BD
:1012A000AB01BC018481958124E0969587952A95B0
:1012B000E1F7480F591F611D711DF701828193816C
:1012C000A481B581480F591F6A1F7B1F9E012F5FA4
:1012D0003F4F80E293E00E94280D8BCFACE0B0E05E
:1012E000AC0FBD1FA80FB91FBC90B8E0BB1609F426
:1012F00098CF4FE0B41609F494CF64E0CC0CDD1C19
:101300006A95E1F777E3872E73E0972E8C0C9D1C8E
:101310009E01280F391FD90155967C9055975696F6
:101320004C91569750E060E070E0762F652F542F77
:101330004427470D511D611D711DBA0155274427D2
:101340005B962C915B97420F511D611D711D5C9640
:101350003C9120E02901662457FC6094762C440DD2
:10136000551D661D771DD4014D935D936D937C9340
:1013700013971496BC924BE050E0BF01C601845C09
:101380009C4F0E948D11F80184819581019695836F
:101390008483D70152962C91B0E12B9F90011124A8
:1013A00082179307C1F415821482408151816281B2
:1013B0007381C7010E946908F80160837183828389
:1013C0009383693F7F4F8F4F9F4028F087E0D7017D
:1013D00011968C9354CF9601295C3C4FC901DE5F76
:1013E0000FB6F894DEBF0FBECDBFDF91CF911F9136
:1013F0000F91FF90EF90DF90CF90BF909F908F90D4
:101400007F906F905F904F90089520E030E0E6E08D
:10141000E29FA001E39F500D112449585C4F6417CF
:10142000750731F02F5F3F4F2430310589F70FC02A
:1014300081E090E0022E01C0880F0A94EAF78095BF
:101440009091360398239093360380E0089527E027
:10145000FC01218381E008958F929F92BF92CF92E9
:10146000DF92EF92FF920F931F93CF93DF938C0144
:10147000CB01009729F485E0D80111968C9375C0B3
:101480004091360350E020E030E0B22EBA01022E47
:1014900002C0759567950A94E2F760FD0AC046E0C0
:1014A000429FE001439FD00D1124C958DC4F41F405
:1014B00005C02F5F3F4F2430310539F786E053C018
:1014C000D8011A964D915D916D917C911D9748833D
:1014D00059836A837B831D821C8268ED72E02FC072
:1014E000D7010D900020E9F76D0181E0C81AD108FD
:1014F000CE18DF08A601B701C40105960E94751138
:10150000892B41F580E090E007C00196F401E20FDD
:10151000F11D25812032F1F42C2D280F2B30A8F35A
:10152000D4014D915D916D917C91488359836A837B
:101530007B831D821C8268ED72E080E090E00E9457
:1015400067117C01009731F4809136038B298093D9
:1015500036030DC0BE01C8010E94CA084C010097A5
:1015600009F0BECF85E0F8018183C0E0D0E0CE0174
:10157000DF91CF911F910F91FF90EF90DF90CF906F
:10158000BF909F908F9008952F923F924F925F92BD
:101590006F927F928F929F92AF92BF92CF92DF9283
:1015A000EF92FF920F931F93CF93DF93CDB7DEB7E8
:1015B000C350D2400FB6F894DEBF0FBECDBF7C0142
:1015C000CF5FDD4F1882C150D240BE016F5F7D4FAB
:1015D0000E942C0A8C01B801C7010E94CA085C0154
:1015E0006BED72E005960E946C110097A1F7F70170
:1015F000A289F50120813181428153812250310934
:1016000041095109B0E00E942A11AB01BC01F70168
:1016100082819381A481B581480F591F6A1F7B1F66
:101620009E012F5F3F4F80E293E00E94280DCE0184
:101630000B960E9449088B0180911103823010F4AF
:1016400084E001C085E00E94D10F80E193E00E9418
:10165000B20C6CE281E00E94A90CE0EF8E2E912C7E
:10166000CC24C394D12CC3C0C80103968130F2E0CE
:101670009F0770F45BC0452C562C672C7724EEEF47
:10168000F1E0EC0FFD1FE40FF11D3081632A09C06A
:1016900080E090E0412C512C3201202F502F5D5FD3
:1016A0002E5F452F480F0196322F380F333019F730
:1016B000F701A289F50120813181428153812250B5
:1016C000310941095109B0E00E942A11AB01BC0166
:1016D000F70182819381A481B581480F591F6A1F48
:1016E0007B1F4C0D5D1D611D711DFFEFCF1ADF0AC1
:1016F0009E012F5F3F4F80E293E00E94280D0D5F17
:10170000114020E00DC0452C562C672C7724E1E0D9
:10171000F0E0EC0FFD1FE80FF91F8081682A2F5FB2
:10172000822F90E08017910770F313C0E1E0F0E0A2
:10173000EC0FFD1FE00FF11F22814180512C612C25
:10174000712C762C652C542C4424622A2081422A48
:101750008C01D301C20188279C7FAA27BB2765E0A3
:10176000B695A795979587956A95D1F7B301A2018C
:1017700044275527687F7727452F562F672F7727D0
:101780009C01240F351F88EF4822552466247724B6
:10179000F3E07694679457944794FA95D1F7240D23
:1017A000351DC901A0E0B0E0692F7A2F8B2F992752
:1017B00080E0CE5FDD4F2883C250D240CD5FDD4F49
:1017C0003883C350D2400E94A90CCE5FDD4F2881E0
:1017D000C250D240622F80E00E94A90CE1E02E1A94
:1017E000310809F041CFF1E08F1A910829F050E457
:1017F000252E3324339438CF809111030E94D10FCA
:10180000CD5FDD4F0FB6F894DEBF0FBECDBFDF91C9
:10181000CF911F910F91FF90EF90DF90CF90BF90ED
:10182000AF909F908F907F906F905F904F903F9080
:101830002F900895CF92DF92EF92FF920F931F9314
:10184000CF93DF93CDB7DEB7D2500FB6F894DEBF9B
:101850000FBECDBF8C017B01FC011082FB0180819A
:101860008B50823010F082E026C0FB014181528112
:10187000638174819E012F5F3F4F80E293E00E945D
:10188000280DC150DE4F8881CF5FD140853539F4B6
:10189000C050DE4F8881C050D2408A3A11F083E0B8
:1018A0000AC08C85811106C08D85823019F4898922
:1018B000823021F084E0F80180833CC08E85F801FD
:1018C000828BCE018D960E944908F801628773874A
:1018D000848795878F85F701C180D280E380F4806B
:1018E000C80ED11CE11CF11C988980E0AA2797FD45
:1018F000A095BA2FC80ED91EEA1EFB1EF801C6829B
:10190000D782E086F186CE0185960E944908F801CB
:1019100066877787808B918BDC01CB01880F991FBD
:10192000AA1FBB1F8C0D9D1DAE1DBF1D82839383FF
:10193000A483B583DE5F0FB6F894DEBF0FBECDBFC4
:10194000DF91CF911F910F91FF90EF90DF90CF909B
:1019500008959FEF97B98111149868B91398139A55
:10196000149A0895CF93DF93EC016AE281E00E941C
:10197000A90C60E080E00E94A90C60E080E00E9479
:10198000A90C8E819F810197692F80E00E94A90C8C
:101990006E81615080E00E94A90C6BE281E00E94A0
:1019A000A90C60E080E00E94A90C60E080E00E9449
:1019B000A90C888599850197692F80E00E94A90C60
:1019C0006885615080E0DF91CF910C94A90CCF9293
:1019D000DF92EF92FF920F931F93CF93DF93EC016F
:1019E000D62EC72E0E94B20C6CE281E00E94A90C98
:1019F00000E010E015C06C2D80E00E94A90C6D2D58
:101A000080E00E94A90C8FEFE81AF80A02C0E12CCE
:101A1000F12C88859985E816F90668F30F5F1F4F4A
:101A20008E819F810817190790F3DF91CF911F9145
:101A30000F91FF90EF90DF90CF9008958EBD0DB481
:101A400007FEFDCF08950DB407FEFDCF8EB50895B6
:101A5000CF92DF92FF920F931F93CF93DF9300D02B
:101A600000D0CDB7DEB76C01F22E032F4C835B8321
:101A70006A8379830E94EB010E94EB0181E50E9459
:101A80001E0D7981872F0E941E0D6A81862F0E946C
:101A90001E0D5B81852F0E941E0D4C81842F0E949C
:101AA0001E0D8FEF0E941E0D14E68FEF0E941E0D7B
:101AB0000E94230DF601808B8F3F19F0882321F0BF
:101AC0001FC0115091F71CC08FEF0E941E0D0E9485
:101AD000230D8E3FC9F7CF2CD02E00E010E08FEF02
:101AE0000E941E0D0E94230DF60181936F010F5F6E
:101AF0001F4F0115F2E01F0791F70E94EB0180E0F4
:101B00000F900F900F900F90DF91CF911F910F9139
:101B1000FF90DF90CF900895AF92BF92CF92DF9267
:101B2000EF92FF920F931F93CF93DF93CDB7DEB762
:101B3000D2500FB6F894DEBF0FBECDBF8C0180919E
:101B40003503811102C081E01EC0F8011082AA2471
:101B5000A394B12CAC0EBD1E950140E050E0BA013B
:101B600080E293E00E94280DC150DE4F8881CF5F54
:101B7000D140853539F4C050DE4F8881C050D24005
:101B80008A3A21F082E0F801808327C02EEB31E011
:101B900080E090E065E0F501E20FF31F54813C9690
:101BA00040E0FE2CED2CDC2CCC247291C72A4F5F38
:101BB0004430B9F7689FF001699FF00D1124319608
:101BC000E00FF11F5083C182D282E382F48201963A
:101BD000205F3F4F83309105F1F6DE5F0FB6F8943A
:101BE000DEBF0FBECDBFDF91CF911F910F91FF9050
:101BF000EF90DF90CF90BF90AF900895CF93DF9399
:101C0000CDB7DEB72E970FB6F894DEBF0FBECDBFAF
:101C10000E94F30148E6242E42E0342E58EA452E75
:101C200051E0552E6DEB662E61E0762E0AEC11E048
:101C30009E012B5F3F4F3E872D8777E4A72E72E0F2
:101C4000B72EE8E58E2EE2E09E2E32E030931003B0
:101C500060911C0370911D0380E193E00E94E70CEA
:101C60001092130310921203109215031092140392
:101C700081E291E00E94251289E391E00E94251201
:101C800080E293E00E9428088823D1F382E591E066
:101C90000E942512189B03C084E691E002C085E7EC
:101CA00091E00E94251280E293E00E94350788238C
:101CB00029F01F928F938AE891E0FCC08091350350
:101CC0008F701F928F935F924F920E940E1280919D
:101CD0003503807F0F900F900F900F9019F086E0E2
:101CE00091E002C084E191E09F938F937F926F9285
:101CF0000E940E1280912003837090E001969F93C2
:101D00008F931F930F930E940E1282E08093100313
:101D100060911C0370911D0380E193E00E94E70C29
:101D200010921303109212031092150310921403D1
:101D30008091200383700FB6F894DEBF0FBECDBF35
:101D4000309126032091270332953F70422F429510
:101D5000407F811141C0842F832B22952F703091B9
:101D60002803432F4295407F942F922B32953F704A
:101D70002091290323702295207FA22FA32BB0E06E
:101D80000196A11DB11D30912A03329536953695E5
:101D9000337020912B032170220F220F232B30E070
:101DA0002E5F3F4F04C0880F991FAA1FBB1F2A95A3
:101DB000D2F72091250322952F7004C0880F991F18
:101DC000AA1FBB1F2A95D2F73AE0B695A79597951B
:101DD00087953A95D1F71FC0842F832B22952F70BA
:101DE00030912803432F4295407F942F922B3295B8
:101DF0003F702091290323702295207FA22FA32BCF
:101E0000B0E00196A11DB11D29E0880F991FAA1FFE
:101E1000BB1F2A95D1F7FAE0B695A79597958795B8
:101E2000FA95D1F7BF93AF939F938F9324EE31E050
:101E30003F932F930E940E128BEF92E00E948C0D25
:101E40008091FB020F900F900F900F900F900F90CA
:101E5000882329F01F928F9384EF91E02BC080910B
:101E6000FC028B3009F46EC08C3009F066C06AC089
:101E70001F928F9380E192E01DC081E08093100358
:101E800019821A821B821C8288E0ED85FE851192E0
:101E90008A95E9F7BE016F5F7F4F88EE92E00E945E
:101EA0002C0A7C01009721F58091E9021F928F9303
:101EB0008DE292E09F938F930E940E120F900F90ED
:101EC0000F900F902DC0C60105969F938F93BF92E0
:101ED000AF920E940E12F60184811F928F939F92FF
:101EE0008F920E940E120FB6F894DEBF0FBECDBFC8
:101EF000B70188EE92E00E94CA086C01009719F7BA
:101F0000B70188EE92E00E94050A88EE92E00E94F6
:101F1000C40A80E293E00E9428088111FACF95CE8E
:101F20003F922F920E940E120F900F9080E293E04A
:101F30000E9428088111FACF88CE82E892E00E94A0
:101F40002512EECF8BE992E00E94251280910003CA
:101F50008F938091FF028F938091FE028F938091E7
:101F6000FD028F9380EB92E09F938F930E940E125D
:101F70006CEF72E088EE92E00E941A0C8091E80209
:101F80000F900F900F900F900F900F90811170CFC6
:101F900074CF8BEF92E00E948C0D81E08093E80279
:101FA0000895CF93C82F66E381E00E94A90CC23048
:101FB00081F028F4CC2349F0C130B1F408C0C4301A
:101FC00061F048F0C53081F40AC068E209C068E4F5
:101FD00007C068EE05C068E803C068E601C068EAAB
:101FE00080E0CF910C94A90CCF910895BF92CF922D
:101FF000DF92EF92FF920F931F93CF93DF93EB014A
:102000007A0169016AE281E00E94A90C6D2F80E0EB
:102010000E94A90CBC2E6C2F80E00E94A90C219775
:10202000CC0DDD1D6D2F80E00E94A90C6B2D615041
:102030006C0D80E00E94A90C6BE281E00E94A90C6B
:102040006F2D80E00E94A90CCE2D6E2D80E00E94A5
:10205000A90C81E0E81AF108E00EF11E6F2D80E076
:102060000E94A90C6C2F6150600F80E0DF91CF912E
:102070001F910F91FF90EF90DF90CF90BF900C9445
:10208000A90C0F931F93CF93DF93E90101E010E0B8
:1020900021E030E00E94F60F6CE281E00E94A90C82
:1020A0006D2F80E00E94A90C6C2F80E0DF91CF9112
:1020B0001F910F910C94A90CCF92DF92EF92FF9297
:1020C0000F931F93CF93DF93EC011B821A82288119
:1020D00088E0289F900111248C819D81820F931F9D
:1020E0009D838C83820F931F488559854817590714
:1020F00040F5DC84CD84CE010E94B20C6CE281E01C
:102100000E94A90C00E010E015C06C2D80E00E9438
:10211000A90C6D2D80E00E94A90C8FEFE81AF80A37
:1021200002C0E12CF12C88859985E816F90668F340
:102130000F5F1F4F8E819F810817190790F31D8233
:102140001C82DF91CF911F910F91FF90EF90DF9054
:10215000CF90089580E193E00C947602CF92DF92C5
:10216000EF92FF920F931F93CF93DF931F92CDB700
:10217000DEB78C01663008F065E0F12C18C084E60B
:10218000E82E6801CF0CD11C80E1C80ED11C8FEF66
:1021900069830E941E0D69810DB407FEFDCF8EB5C7
:1021A000F60180838F3F41F4EA9489F705C0F61267
:1021B000E6CFF801808902C0F394F9CF0F90DF9148
:1021C000CF911F910F91FF90EF90DF90CF900895E6
:1021D000DF92EF92FF920F931F93CF93DF938C01C7
:1021E000C0E0D0E094E6D92E7801EC0EFD1E8FEF12
:1021F0000E941E0D0DB407FEFDCF8EB5F701808B3A
:102200008F3F31F4DA9499F703C0F801808905C053
:102210002196C530D10531F7F8CFDF91CF911F91CD
:102220000F91FF90EF90DF90089584B1806B84B997
:10223000269885B1806F85B982E58CBD8DB58E7F7E
:102240008DBD84B18C7F84B985B1836085B91092CE
:10225000350308950E945511A59F900DB49F900DD0
:10226000A49F800D911D11240895991B79E004C04D
:10227000991F961708F0961B881F7A95C9F78095C5
:102280000895AA1BBB1B51E107C0AA1FBB1FA617BD
:10229000B70710F0A61BB70B881F991F5A95A9F70F
:1022A00080959095BC01CD010895A29FB001B39F88
:1022B000C001A39F01D0B29F700D811D1124911DFB
:1022C0000895EE0FFF1F0590F491E02D09944FE85B
:1022D00053E00E949C110895FB01DC018D91019057
:1022E00080190110D9F3990B0895FB01DC014150CD
:1022F000504088F08D9181341CF08B350CF4805E59
:10230000619161341CF06B350CF4605E861B6111C9
:1023100071F3990B0895881BFCCFFB01DC01415040
:10232000504048F001900D920020C9F701C01D9265
:1023300041505040E0F70895FA01A191B081009713
:1023400019F41097E1F0CD01DC01CD010D900020D2
:1023500011F4C00113C0FB012191222319F02015B3
:10236000D9F7F3CFFB012191201519F41E92119694
:1023700006C02223C1F70D900020A1F7D001FA0179
:10238000A193B08308950F931F93CF93DF93EC0134
:102390008B01009731F46115710519F4E0E0F0E06C
:1023A00037C06EE070E081E090E00E943114FC01E3
:1023B0000097A1F380E883830115110571F013875D
:1023C000028781E883838091910390919203892B06
:1023D00021F4F0939203E09391032097C9F0D18701
:1023E000C08783818260838380919303909194035B
:1023F000892B71F4F0939403E093930380919503F8
:1024000090919603892B21F4F0939603E093950322
:10241000CF01DF91CF911F910F910895A2E0B0E01D
:10242000E4E1F2E10C943D16FE0137966191719161
:10243000FA83E983AF0180919303909194030E9402
:1024400054122296E2E00C9459160F931F93CF93E7
:10245000DF938C01E0919303F0919403838181FFDA
:102460001BC0C0E0D0E005C00995892B11F0CFEF6B
:10247000DFEFF80181918F016091930370919403D4
:10248000DB011896ED91FC9119978111EDCF8AE04F
:102490000995892B09F402C0CFEFDFEFCE01DF9160
:1024A000CF911F910F910895ACE0B0E0EAE5F2E121
:1024B0000C942D167C016B018A01FC011782168297
:1024C000838181FFC7C188248394912C8C0E9D1E2B
:1024D000F7019381F60193FD859193FF81916F013F
:1024E000882309F4B3C1853239F493FD859193FFB4
:1024F00081916F01853229F4B70190E00E94A31504
:10250000E7CF712C312C20E02032A8F48B3261F01F
:1025100028F4803251F0833271F40BC08D3239F0DF
:10252000803349F4216028C02260246025C02860DF
:1025300023C0206121C027FD27C0382F30533A30F7
:1025400078F426FF06C0FAE07F9E300D1124732E2A
:1025500013C08AE0389E300D1124332E20620CC047
:102560008E3221F426FD72C1206406C08C3611F42F
:10257000206802C0883641F4F60193FD859193FFEF
:1025800081916F018111C0CF982F9554933018F02D
:102590009052933028F40C5F1F4FFFE3F9830DC076
:1025A000833631F0833771F0833509F05EC023C084
:1025B000F801808189830E5F1F4F66246394712C1C
:1025C000540115C02801F2E04F0E511CF801A08003
:1025D000B18026FF03C0672D70E002C06FEF7FEF70
:1025E000C5012C870E9498153C0182012C856FE75C
:1025F000262E222218C02801F2E04F0E511CF801AD
:10260000A080B18026FF03C0672D70E002C06FEF8D
:102610007FEFC5012C870E9486153C012C8550E870
:10262000252E222A820123FC1CC006C0B70180E2AD
:1026300090E00E94A3153A94832D90E068167906E5
:10264000A8F30FC0F50127FC859127FE81915F015A
:10265000B70190E00E94A31531103A94F1E06F1A8F
:1026600071086114710471F7EEC0843611F0893677
:1026700041F5F80127FF07C0608171818281938154
:102680000C5F1F4F08C060817181882777FD80959E
:10269000982F0E5F1F4F4FE6642E622297FF09C0EE
:1026A00090958095709561957F4F8F4F9F4FF0E883
:1026B0006F2A2AE030E0A4010E94CF15A82EA818A6
:1026C00044C0853731F43FEEB32EB2222AE030E029
:1026D00024C099EFB92EB2228F36B9F020F4883594
:1026E00009F0B4C00DC0803721F0883709F0AEC0C2
:1026F00002C020E1B22AB4FE0BC084E0B82A08C0B0
:1027000024FF09C0E6E0BE2A06C028E030E005C08C
:1027100020E130E002C020E132E0F801B7FE07C05E
:1027200060817181828193810C5F1F4F06C060813F
:10273000718180E090E00E5F1F4FA4010E94CF15D1
:10274000A82EA8188FE7682E6B2066FE0BC0362DCA
:102750003E7FA71450F464FE0AC062FC08C0362D08
:102760003E7E05C0BA2C362D03C0BA2C01C0B72C52
:1027700034FF0DC0FE01EA0DF11D8081803311F49C
:10278000397E09C032FF06C0B394B39404C0832FCE
:10279000867809F0B39433FD14C030FF0FC07A2C53
:1027A000B31460F4730C7B18B32C08C0B70180E23B
:1027B00090E03C870E94A315B3943C85B314B0F31A
:1027C00004C0B31410F43B1801C0312C34FF12C004
:1027D000B70180E390E03C870E94A3153C8532FF5F
:1027E0001EC031FF03C088E590E002C088E790E09A
:1027F000B7010CC0832F867891F031FD02C080E2D2
:1028000001C08BE237FD8DE2B70190E00E94A31575
:1028100006C0B70180E390E00E94A3157A94A71444
:10282000C0F3AA94F401EA0DF11DB701808190E094
:102830000E94A315A110F5CF06C0B70180E290E079
:102840000E94A3153A943110F8CF42CEF7012681A9
:10285000378102C02FEF3FEFC9012C96E2E10C94C3
:1028600049160F931F93CF93DF93689F8001699F51
:10287000100D789F100D1124C8010E944F14C82F0D
:10288000D92F209731F0A80160E070E08C2F0E94D2
:102890009115CE01DF91CF911F910F9108950F9364
:1028A0001F93CF93DF938230910510F482E090E084
:1028B000E0919903F0919A0320E030E0C0E0D0E08D
:1028C00023C04081518148175907A8F0481759077C
:1028D00061F482819381209719F09B838A832EC0B3
:1028E00090939A038093990329C02115310529F00B
:1028F0004217530710F0A90102C0BE01DF01028197
:102900001381EF019A01F8013097D9F621153105AD
:1029100009F1281B390B2430310590F412968D9162
:102920009C9113976115710521F0FB0193838283BC
:1029300004C090939A0380939903FD01329644C09A
:10294000FD01E20FF31F81939193225031092D93E2
:102950003C933AC02091970330919803232B41F484
:102960002091020130910301309398032093970343
:1029700020910001309101012115310541F42DB75D
:102980003EB74091040150910501241B350BE091A5
:102990009703F0919803E217F307A0F42E1B3F0B67
:1029A0002817390778F0AC014E5F5F4F24173507C1
:1029B00048F04E0F5F1F5093980340939703819305
:1029C000919302C0E0E0F0E0CF01DF91CF911F9141
:1029D0000F910895EF92FF920F931F93CF93DF9380
:1029E000009709F48EC0DC01129713961C921E9278
:1029F0001297E0909903F0909A03E114F10489F49E
:102A00002D913C911197280F391F80919703909138
:102A100098038217930789F5B0939803A0939703BF
:102A200070C0E70120E030E001C0EA01CA17DB070F
:102A300038F44A815B819E0141155105B1F722C0EE
:102A4000AC0142505109FA01D383C2830081118144
:102A5000BC01600F711F6C177D0761F4688179817B
:102A6000600F711F6E5F7F4F718360836A817B810E
:102A7000738362832115310529F4B0939A03A093DF
:102A800099033FC0F901B383A283E90149915991A8
:102A9000C40FD51FAC17BD0771F4DC019E918E9158
:102AA000840F951F02969183808312968D919C913D
:102AB000139793838283A0E0B0E002C0D7017C012A
:102AC000F701828193810097C9F7C701029620819F
:102AD0003181820F931F209197033091980328171B
:102AE000390779F4109729F410929A0310929903F8
:102AF00004C013961C921E921297F0929803E092D3
:102B00009703CDB7DEB7E6E00C945516FC010590AF
:102B1000615070400110D8F7809590958E0F9F1FDF
:102B20000895DC0101C06D9341505040E0F70895D5
:102B3000FC016150704001900110D8F7809590958C
:102B40008E0F9F1F08950F931F93CF93DF938C01D8
:102B5000EB018B8181FD03C00FEF1FEF1AC082FFD5
:102B60000DC02E813F818C819D812817390764F427
:102B7000E881F9810193F983E88306C0E885F98546
:102B8000802F0995892B41F78E819F8101969F8324
:102B90008E83C801DF91CF911F910F910895FA01A3
:102BA000AA27283051F1203181F1E8946F936E7F8C
:102BB0006E5F7F4F8F4F9F4FAF4FB1E03ED0B4E07D
:102BC0003CD0670F781F891F9A1FA11D680F791FBE
:102BD0008A1F911DA11D6A0F711D811D911DA11DCF
:102BE00020D009F468943F912AE0269F11243019DF
:102BF000305D3193DEF6CF010895462F4770405D7A
:102C00004193B3E00FD0C9F7F6CF462F4F70405D28
:102C10004A3318F0495D31FD4052419302D0A9F783
:102C2000EACFB4E0A6959795879577956795BA957D
:102C3000C9F700976105710508959B01AC010A2E43
:102C400006945795479537952795BA95C9F7620F1A
:102C5000731F841F951FA01D08952F923F924F92BE
:102C60005F926F927F928F929F92AF92BF92CF921C
:102C7000DF92EF92FF920F931F93CF93DF93CDB725
:102C8000DEB7CA1BDB0B0FB6F894DEBF0FBECDBF9D
:102C900009942A88398848885F846E847D848C846E
:102CA0009B84AA84B984C884DF80EE80FD800C8177
:102CB0001B81AA81B981CE0FD11D0FB6F894DEBF5A
:0C2CC0000FBECDBFED010895F894FFCFCA
:102CCC0000009B032000426C6F636B206164647294
:102CDC006573730042797465206164647265737303
:102CEC00002A2A2A205344206C696272617279206E
:102CFC0074657374202A2A2A0057616974696E6797
:102D0C0020666F7220534420696E736572742E2E88
:102D1C002E005344204361726420646574656374AF
:102D2C006564210057726974652D70726F746563E8
:102D3C0074656421004E6F742077726974652D7010
:102D4C00726F7465637465642E00496E6974696191
:102D5C006C697365206661696C6564207769746859
:102D6C002025303258210A005344204361726420DC
:102D7C0076657273696F6E3A2025750A004164643A
:102D8C00726573733A2025730A00435344207265AD
:102D9C006769737465722076657273696F6E3A2019
:102DAC0025750A0053442053697A653A20256C75C1
:102DBC004D420A004469736B207265616420666140
:102DCC00696C6564207769746820253032580A0074
:102DDC0052656164204641543332206661696C65EA
:102DEC0064207769746820253032580A0045727265
:102DFC006F72206F70656E206469722077697468D9
:102E0C0020253032580A0052656164206E616D6570
:102E1C003A20252E313173002C20747970653A20BC
:102E2C003078253032580A0052656D6F7665205324
:102E3C004420746F2072756E20616761696E2E2E4E
:102E4C002E00506172746974696F6E203120697341
:102E5C00206E6F7420464154333200506172746995
:102E6C0074696F6E203120697320464154333200EF
:102E7C00537461727420617420736563746F722073
:102E8C00256C750A0053544F5045443F004A554D2C
:102E9C0050204F56455221002F5C005446542020A0
:082EAC00202020424D500000DF
:00000001FF
