:100000000C94C1010C94E9010C94E9010C94E901F0
:100010000C94E9010C94E9010C94E9010C94E901B8
:100020000C94E9010C94E9010C94E9010C94E901A8
:100030000C94E9010C94E9010C94E9010C94E90198
:100040000C94E9010C94E9010C94E9010C94E90188
:100050000C94E9010C94E9010C94E9010C94E90178
:100060000C94E9010C94E9010C94E9010C94E90168
:100070000C94E9010C94E9010C94E90100000000E2
:10008000000000000020202020200020005050A070
:1000900000000000005050F850F85050002070A0B0
:1000A0007028A87000C8C810204098980040A0A0F0
:1000B00048A8906800301020000000000010204088
:1000C0004040201000402010101020400020A8A820
:1000D00070A8A82000202020F82020200000000088
:1000E0000030102000000000F800000000000000B8
:1000F0000000606000080810204080800030484800
:1001000048484830001030101010101000304808D7
:100110001020407800304808300848300010305037
:100120005090F8100078407048084830003048403F
:1001300070484830007808081010202000304848E7
:1001400030484830003048483808483000003030E7
:100150000030300000003030003010200008102047
:10016000402010080000F00000F000000080402057
:10017000102040800070888810200020007088E8DF
:10018000A8E8907800602020505070D800F04848CF
:10019000784848F8007048808080C87800F050485F
:1001A000484858F000F84840704040F800F848408F
:1001B000705040E0007048808098C87800D8505057
:1001C000705050D800702020202020700070101037
:1001D0001010906000D85050606050D800F040403F
:1001E000404048F80088D8D8A8A888880088C8A8BF
:1001F000A8A89888007050888888D87000F048486F
:10020000784040E0007088888898703800F048484E
:10021000785050D8007088807008087800F8A820BE
:100220002020203000D850505050507000D85050EE
:1002300050507020008888A8A8A8505000D850506E
:10024000205050D800D850505020207000F8901006
:10025000204048F80070404040404070008080409E
:1002600020100808007010101010107000205000AE
:100270000000000000000000000000F80020100056
:10028000000000000000006090709068008080E036
:10029000909090E0000000609080906000101070DE
:1002A000909090700000006090F0806000102070CE
:1002B000202020200068906080708870008080E09E
:1002C000909090900020002020202020001000100E
:1002D0001010106000808090A0C0A090002020200E
:1002E00020202018000000D0A8A8A8A8000000E046
:1002F000909090900000006090909060000060905E
:1003000090E080800000609090701010000000B0BD
:10031000C080808000000070806010E0004040F0ED
:1003200040404030000000909090907000000088A5
:1003300088885020000000A8A8A85050000000881D
:100340005020508800000088502020C0000000F895
:10035000102040F8003020204020203000202020B5
:1003600020202020006020201020206000689000C5
:10037000000000000000000000000000AD0E840F2F
:10038000EF0F11241FBECFEFD0E1DEBFCDBF12E0D3
:10039000A0E0B1E0EEE6FAE202C005900D92A43DC5
:1003A000B107D9F713E0A4EDB2E001C01D92A73860
:1003B000B107E1F713E0C2E8D3E004C02297FE01E1
:1003C0000E943D10CC37D107C9F70E94E60C0C946F
:1003D00035150C9400008FEF0E94060C0E940B0C48
:1003E0008F3FC9F708950E94020262E08CEF92E00D
:1003F0000E94A7040E9492049093800380937F033D
:10040000119A08951F93CF93DF9385B7806885BFB6
:1004100085B7806885BF8FE781B98DEF82B917B83E
:100420008FEF88B912981098139A159A149A169A01
:1004300028E22A95F1F7129A8FEF94E624E0815092
:1004400090402040E1F700C0000068E281E00E9497
:10045000910B61E181E00E94910B8FEF94E624E023
:10046000815090402040E1F700C0000064E381E04B
:100470000E94910B68E381E00E94910B63E181E0AF
:100480000E94910B60E281E00E94910B6AE381E09F
:100490000E94910B65E580E00E94910B66E381E08C
:1004A0000E94910B68E480E00E94910B6CE281E075
:1004B0000E94910BC0E4D1E010C060E080E00E9497
:1004C000910B60E080E00E94910B60E080E00E9470
:1004D000910B115091F7219711F010EFEECF69E2D7
:1004E00081E0DF91CF911F910C94910BFC0113825D
:1004F00012821582148281E08083818380EF90E0F4
:100500009783868380E491E0918780878FEF9FEFC8
:1005100093878287158614860895AF92BF92CF92F3
:10052000DF92EF92FF920F931F93CF93DF93E90136
:1005300058010E94D00E6CE281E00E94910B12C023
:100540006F2D80E00E94910B6E2D80E00E94910B38
:100550008FEFC81AD80A02C0C12CD12CCA14DB04F0
:1005600079F721972097C1F7DF91CF911F910F91D4
:10057000FF90EF90DF90CF90BF90AF9008952F92B3
:100580003F924F925F926F927F928F929F92AF9223
:10059000BF92CF92DF92EF92FF920F931F93CF9370
:1005A000DF935C014B016A01E9016217730771F483
:1005B0000417150730F4C026D1260C251D25C026AA
:1005C000D1260C191D0921E030E011C04017510758
:1005D000A1F42617370730F482269326C825D9259B
:1005E0008C269D269E012819390901E010E0A601FC
:1005F000B401C5010E948D027CC02901461A570A28
:1006000057FE03C051944194510838016C187D087D
:1006100077FE03C071946194710846145704A8F5DD
:100620000C151D0560F48C269D26C825D9258C2621
:100630009D26C026D1260C251D25C026D12620E0CA
:1006400030E080E090E017C0B3010E941B10FB0176
:10065000E80DF91DC901B3010E941B10E61BF70B41
:100660009701A601BF01C5010E941B0F8FEFC81A99
:10067000D80A9101C2012C014C0E5D1E1901280CF3
:10068000391C0C151D0500F734C0C815D90560F4D8
:100690008C269D26C825D9258C269D26C026D126A8
:1006A0000C251D25C026D12620E030E080E090E01A
:1006B00017C0B2010E941B10FB01EC0DFD1DC9010A
:1006C000B2010E941B10E61BF70B9701AF01B401AA
:1006D000C5010E941B0F8FEF881A980A9101C30170
:1006E0003C01600E711E19012C0C3D1CC815D9056A
:1006F00000F7DF91CF911F910F91FF90EF90DF9066
:10070000CF90BF90AF909F908F907F906F905F90B1
:100710004F903F902F9008952F923F924F925F926B
:100720006F927F928F929F92AF92BF92CF92DF9201
:10073000EF92FF920F931F93CF93DF9300D000D0DF
:1007400000D0CDB7DEB79E838D835B014A013A832B
:1007500029831C830B836E2C712C190126183708F2
:100760007601830191010E948D024B805C804618C6
:10077000570869817A816A0D7B1D661977098201A4
:100780009301A4018D819E810E948D02A301480DD9
:10079000591D9301B5018D819E810E948D024B816F
:1007A0005C81480D591D46195709B3016A0D7B1D1F
:1007B000830191018D819E810E948D0226960FB644
:1007C000F894DEBF0FBECDBFDF91CF911F910F9187
:1007D000FF90EF90DF90CF90BF90AF909F908F9061
:1007E0007F906F905F904F903F902F900895DF9291
:1007F000EF92FF920F931F93CF93DF93EC01E62EBE
:10080000288188E0289F8001112486E0289F90019C
:1008100011244C815D816A817B81CE010E94D00EC2
:100820006CE281E00E94910BF12C0E2D112707FD47
:1008300010950052110983E0000F111F8A95E1F70E
:1008400036C08F2D0E940F10F801E80FF11DE458FB
:10085000FF4FD490E12C20C0D7FE06C06B8580E00E
:100860000E94910B6A8505C06D8580E00E94910B06
:100870006C8580E00E94910B48818E2D642F0E9430
:100880000F10292F30E0642F70E061507109261796
:10089000370709F4DD0CE39428814E2D50E086E003
:1008A000289F9001112442175307B4F2F3946881F2
:1008B0004F2D50E088E0689F9001112442175307A4
:1008C0000CF4BFCFDF91CF911F910F91FF90EF906C
:1008D000DF9008958A3029F48CEF92E00E94360F61
:1008E0001EC0682F8CEF92E00E94F7032091FC025B
:1008F00086E0289F900111248091FE029091FF02D2
:10090000820F931F9093FF028093FE02820F931F2A
:10091000409102035091030348175907E8F280E021
:1009200090E0089580910A0390910B03892B51F474
:1009300060E070E08AE694E00E94941090930B03CC
:1009400080930A0380910A0390910B0308950F93FB
:100950001F93CF93DF931F92CDB7DEB78C01862F05
:1009600069830E94B50E6981613071F028F06230B0
:1009700019F0633091F408C020E431E0F8013783C6
:10098000268320EF30E007C020EF30E0F801378306
:10099000268320E431E031872087F80161830F90BE
:1009A000DF91CF911F910F9108958FEF0E94060C58
:1009B0000DB407FEFDCF8EB58F3FB9F70895CF93E5
:1009C000DF9300D000D000D0CDB7DEB72E834D83AB
:1009D0005C836B837A8389830E94D5040E94D5044B
:1009E000898180640E94060C7A81872F0E94060C00
:1009F0006B81862F0E94060C5C81852F0E94060C5D
:100A00004D81842F0E94060C2E81822F880F8160D9
:100A100026960FB6F894DEBF0FBECDBFDF91CF9103
:100A20000C94060CFC01DB018C9190E026E095957E
:100A300087952A95E1F7837040814C7F482B40834E
:100A400011968C911197818312968C9112978283C3
:100A500013968C911397838315968C91159790E03C
:100A600034E0959587953A95E1F714962C91149773
:100A700050E1259F90011124822B932B84839F703A
:100A80008581807F892B858315969C9115979295FA
:100A9000907F8F70892B858316968C91169790E0A6
:100AA000880F892F881F990B568180FB50F9568338
:100AB00016968C91169790E066E0959587956A95C5
:100AC000E1F780FB51F9568316968C91169790E0CA
:100AD00075E0959587957A95E1F780FB52F95683F5
:100AE00016968C91169790E024E0959587952A9517
:100AF000E1F780FB53F95683437018962C911897B1
:100B000017968C91179730E0411177C066E03595C4
:100B100027956A95E1F744E0849FC0011124282BB2
:100B2000392B16964C9116974370942F990F990F65
:100B300080E0282B392B442737FD4095822F829562
:100B4000807F5F70582B5683932F9295907F822FD2
:100B500082958F70892B8783942F9295907F832F16
:100B600082958F70892B8087942F929593708185C1
:100B70008C7F892B818718969C91189796959C71EC
:100B8000837E892B818718969C9118979295990F4F
:100B9000907E8F71892B818719968C91199790E09F
:100BA00075E0959587957A95E1F787709285987F9E
:100BB000982B928719968C911997880F8873977C38
:100BC000982B92871A968C911A97881F8827881FCE
:100BD00019962C911997220F820F282F2295220FF8
:100BE000220F207C9F73922B928782FB882780F9AB
:100BF00093859E7F982B938726C040E0432F322F0A
:100C00002227482B19968C911997282B822F829591
:100C1000807F5F70582B5683932F9295907F822F01
:100C200082958F70892B8783942F9295907F832F45
:100C300082958F70892B8087942F929593708185F0
:100C40008C7F892B81871A968C911A9790E026E0E9
:100C5000959587952A95E1F7938580FB91F9938780
:100C60001B962C911B97221F2227221F1A968C91CC
:100C70001A97880F822B282F220F220F9370922B06
:100C8000938786FB992790F984858E7F892B8487AB
:100C90001B969C911B97990F8170892B84871C96BA
:100CA0008C911C9790E0880F892F881F990B3585B0
:100CB00080FB30F935871C968C911C9786958E7039
:100CC000317F382B35871D962C911D9722952695BF
:100CD000269523701C968C911C9754E0859FC0012B
:100CE0001124282B2295207F3F70322B35871D96AB
:100CF0008C911D9790E045E0959587954A95E1F791
:100D0000268580FB20F926871E968C911E9790E001
:100D1000880F892F881F990B80FB21F926871E9643
:100D20008C911E9790E066E0959587956A95E1F71E
:100D300080FB22F926871E968C911E9790E075E025
:100D4000959587957A95E1F780FB23F926871E967E
:100D50008C911E9790E034E0959587953A95E1F750
:100D600080FB24F926871E968C911E97880F880F8A
:100D7000880F80762F79282B26871F968C9190E0FC
:100D80009595879580FB27F92687969587958F738C
:100D90009785907C982B97870895CF93DF93FC01DC
:100DA000DB018C91808312969C91129780E01196C2
:100DB0002C911197820F911D928381836D5F7F4FDC
:100DC00080E090E0EB014991BE019F01280F391F9F
:100DD000E9014B83019685309105A1F718968C9116
:100DE000189780871186128613861486ED0129963E
:100DF00084E04185528563857485762F652F542F55
:100E0000442741875287638774879991492B41878B
:100E1000528763877487815061F71D969C911D9757
:100E200080E01E962C911E97820F911D8587892F39
:100E30008F702685207F282B26871F968C9190E027
:100E400095958795382F3295307F2F70232B2687E5
:100E500044E0969587954A95E1F787709785987F46
:100E6000982B9787DF91CF910895CF92DF92EF92E1
:100E7000FF920F931F93CF93DF93CDB7DEB7A09769
:100E80000FB6F894DEBF0FBECDBF8C01FC01158AF2
:100E900087EB9BE00197F1F700C000002C9A2AE055
:100EA000F22E8FEF0E94060CFA94D9F72C982AE4C0
:100EB00040E050E0BA0180E00E94DF04C8010E94D7
:100EC000C20F813009F0A1C023E44AEA51E060E09A
:100ED00070E088E00E94DF04C8010E94C20F8130E8
:100EE00089F5F8018389813009F091C084898A3AB3
:100EF00009F08DC02FEF40E050E0BA0187E30E9477
:100F0000DF042FEF40E050E060E070E489E20E94EF
:100F1000DF04C8010E94C20F813061F32FEF40E06F
:100F200050E0BA018AE30E94DF04C8010E94C20FA8
:100F3000F801818986FF03C082E1858B37C082E09A
:100F4000F8012BC02FEF40E050E0BA0187E30E9488
:100F5000DF042FEF40E050E0BA0189E20E94DF0495
:100F6000C8010E94C20F8E7F31F4F8018089813060
:100F700049F381E012C02FEF40E050E0BA0181E078
:100F80000E94DF04C8010E94C20F8E7F09F041C099
:100F9000F8018089813079F383E0858B2FEF40E081
:100FA00052E060E070E080E10E94DF042FEF40E05B
:100FB00050E0BA0189E00E94DF0462E0C8010E94AB
:100FC000880F811128C07E01F1E1EF0EF11C6E0146
:100FD00081E2C80ED11C61E0C8010E94880FF701B0
:100FE00081937F01EC15FD05B1F7BE016F5E7F4F68
:100FF000CE0101960E94120580E1FE013196D801D2
:1010000001900D928A95E1F706C081E005C082E06B
:1010100003C08FEF01C080E0A0960FB6F894DEBF4A
:101020000FBECDBFDF91CF911F910F91FF90EF9039
:10103000DF90CF900895199B05C02FEFFC01258B01
:1010400080E00895FFE72FE432E1F1502040304086
:10105000E1F700C0000083B19FE7E9EAF3E09150B7
:10106000E040F040E1F700C0000093B19170817062
:101070009813F1CF81E008958FEF0E94060C0E9433
:101080000B0C8F3FC9F708958F929F92AF92BF923A
:10109000CF92DF92EF92FF920F931F93CF93DF9344
:1010A000CDB7DEB7D2500FB6F894DEBF0FBECDBFBE
:1010B0004A015B016A017B0122E0CC0CDD1CEE1CC5
:1010C000FF1C2A95D1F739E0F694E794D794C7949A
:1010D0003A95D1F7FC0146815781608571854C0DA9
:1010E0005D1D6E1D7F1D9E012F5F3F4F8CE093E0C5
:1010F0000E94100C47E0CC0CDD1CEE1CFF1C4A9536
:10110000D1F7D501C4018C199D09AE09BF0952E080
:10111000880F991FAA1FBB1F5A95D1F7AC01BD01BB
:101120004D5F5F4F6F4F7F4FE1E0F0E0EC0FFD1F31
:10113000E40FF51F008110E020E030E0322F212F76
:10114000102F0027AC01BD014E5F5F4F6F4F7F4FE7
:10115000E1E0F0E0EC0FFD1FE40FF51F4081040F0C
:10116000111D211D311D322F212F102F0027AC0101
:10117000BD014F5F5F4F6F4F7F4FE1E0F0E0EC0F3D
:10118000FD1FE40FF51F4081040F111D211D311DAE
:10119000322F212F102F0027E1E0F0E0EC0FFD1F90
:1011A000E80FF91F8081080F111D211D311DB801A5
:1011B000C901DE5F0FB6F894DEBF0FBECDBFDF9171
:1011C000CF911F910F91FF90EF90DF90CF90BF9044
:1011D000AF909F908F9008954F925F926F927F9201
:1011E0008F929F92BF92CF92DF92EF92FF920F93D6
:1011F0001F93CF93DF93CDB7DEB7D2500FB6F894DD
:10120000DEBF0FBECDBF7C018B01C12CD12C26E0EF
:101210002C9DC0012D9D900D11248D599C4F0817B8
:10122000190709F451C04FEFC41AD40A84E0C81654
:10123000D10471F7EDC0F80124813581C9018F70A7
:10124000992745E0880F991F4A95E1F7E1E0F0E022
:10125000EC0FFD1FE80FF91F4081442309F4D8C0AB
:10126000453E09F05DC0C9010196D80115969C93D1
:101270008E9314979C012F703327232BE1F6F701EF
:101280002289F0E12F9F9001112482179307E1F446
:1012900015961C921E9214974D915D916D917C91C3
:1012A000C7010E944408D8016D937D938D939C9350
:1012B0001397693F7F4F8F4F9F4030F087E0F701D2
:1012C000818320E030E0ACC0F701A289F8012081E1
:1012D0003181428153812250310941095109B0E0E5
:1012E0000E940410AB01BC018481958124E0969595
:1012F00087952A95E1F7480F591F611D711DF70168
:1013000082819381A481B581480F591F6A1F7B1F79
:101310009E012F5F3F4F8CE093E00E94100C8BCF1B
:10132000ACE0B0E0AC0FBD1FA80FB91FBC90B8E097
:10133000BB1609F498CF4FE0B41609F494CFA4E09B
:10134000CC0CDD1CAA95E1F7B3E28B2EB3E09B2E0B
:101350008C0C9D1C9E01280F391FD90155967C903D
:10136000559756964C91569750E060E070E0762F76
:10137000652F542F4427470D511D611D711DBA0162
:10138000552744275B962C915B97420F511D611D99
:10139000711D5C963C9120E02901662457FC609405
:1013A000762C440D551D661D771DD4014D935D931C
:1013B0006D937C9313971496BC924BE050E0BF0161
:1013C000C601885D9C4F0E945E10F8018481958162
:1013D000019695838483D70152962C91B0E12B9F7F
:1013E0009001112482179307C1F415821482408161
:1013F000518162817381C7010E944408F8016083B2
:10140000718382839383693F7F4F8F4F9F4028F082
:1014100087E0D70111968C9354CF96012D5D3C4FF8
:10142000C901DE5F0FB6F894DEBF0FBECDBFDF91FE
:10143000CF911F910F91FF90EF90DF90CF90BF90D1
:101440009F908F907F906F905F904F90089520E0D5
:1014500030E0E6E0E29FA001E39F500D11244D59DA
:101460005C4F6417750731F02F5F3F4F2430310513
:1014700089F70FC081E090E0022E01C0880F0A9426
:10148000EAF780959091220398239093220380E0BD
:10149000089527E0FC01218381E008958F929F92B7
:1014A000BF92CF92DF92EF92FF920F931F93CF9351
:1014B000DF938C01CB01009729F485E0D8011196C8
:1014C0008C9375C04091220350E020E030E0B22EB2
:1014D000BA01022E02C0759567950A94E2F760FD85
:1014E0000AC046E0429FE001439FD00D1124CD5930
:1014F000DC4F41F405C02F5F3F4F2430310539F7F1
:1015000086E053C0D8011A964D915D916D917C9102
:101510001D97488359836A837B831D821C8261EDFA
:1015200072E02FC0D7010D900020E9F76D0181E036
:10153000C81AD108CE18DF08A601B701C401059664
:101540000E944610892B41F580E090E007C001968B
:10155000F401E20FF11D25812032F1F42C2D280F2A
:101560002B30A8F3D4014D915D916D917C9148830E
:1015700059836A837B831D821C8261ED72E080E067
:1015800090E00E9441107C01009731F48091220389
:101590008B29809322030DC0BE01C8010E94EC0874
:1015A0004C01009709F0BECF85E0F8018183C0E0CF
:1015B000D0E0CE01DF91CF911F910F91FF90EF907E
:1015C000DF90CF90BF909F908F900895EF92FF9201
:1015D0000F931F93CF93DF93CDB7DEB7D2500FB6E3
:1015E000F894DEBF0FBECDBF8C017B01FC011082E1
:1015F000FB0180818B50823010F082E026C0FB011D
:1016000041815281638174819E012F5F3F4F8CE045
:1016100093E00E94100CC150DE4F8881CF5FD14013
:10162000853539F4C050DE4F8881C050D2408A3AA7
:1016300011F083E00AC08C85811106C08D8582304F
:1016400019F48989823021F084E0F80180835CC03C
:101650008E85F801828B88A990E0A0E0B0E0BA2FD7
:10166000A92F982F88272FA5822BBA2FA92F982F23
:1016700088272EA5822BBA2FA92F982F88272DA532
:10168000822B82879387A487B5878F85F701418155
:10169000528163817481480F511D611D711D9889AC
:1016A00080E0AA2797FDA095BA2F480F591F6A1FFF
:1016B0007B1FF801468357836087718788A590E078
:1016C000A0E0B0E0BA2FA92F982F88272FA1822B56
:1016D000BA2FA92F982F88272EA1822BBA2FA92F96
:1016E000982F88272DA1822B86879787A08BB18B77
:1016F000880F991FAA1FBB1F840F951FA61FB71F16
:1017000082839383A483B583DE5F0FB6F894DEBF34
:101710000FBECDBFDF91CF911F910F91FF90EF9042
:1017200008959FEF97B98111149868B91398139A87
:10173000149A0895CF93DF93EC016AE281E00E944E
:10174000910B60E080E00E94910B60E080E00E94DD
:10175000910B8E819F810197692F80E00E94910BF0
:101760006E81615080E00E94910B6BE281E00E94EB
:10177000910B60E080E00E94910B60E080E00E94AD
:10178000910B888599850197692F80E00E94910BC4
:101790006885615080E0DF91CF910C94910BCF92DE
:1017A000DF92EF92FF920F931F93CF93DF93EC01A1
:1017B000D62EC72E0E949A0B6CE281E00E94910BFC
:1017C00000E010E015C06C2D80E00E94910B6D2DA3
:1017D00080E00E94910B8FEFE81AF80A02C0E12C1A
:1017E000F12C88859985E816F90668F30F5F1F4F7D
:1017F0008E819F810817190790F3DF91CF911F9178
:101800000F91FF90EF90DF90CF9008958EBD0DB4B3
:1018100007FEFDCF08950DB407FEFDCF8EB50895E8
:10182000CF92DF92FF920F931F93CF93DF9300D05D
:1018300000D0CDB7DEB76C01F22E032F4C835B8353
:101840006A8379830E94EB010E94EB0181E50E948B
:10185000060C7981872F0E94060C6A81862F0E94D0
:10186000060C5B81852F0E94060C4C81842F0E9400
:10187000060C8FEF0E94060C14E68FEF0E94060CF8
:101880000E940B0CF601808B8F3F19F0882321F00A
:101890001FC0115091F71CC08FEF0E94060C0E94D0
:1018A0000B0C8E3FC9F7CF2CD02E00E010E08FEF4D
:1018B0000E94060C0E940B0CF60181936F010F5FD2
:1018C0001F4F0115F2E01F0791F70E94EB0180E026
:1018D0000F900F900F900F90DF91CF911F910F916C
:1018E000FF90DF90CF900895AF92BF92CF92DF929A
:1018F000EF92FF920F931F93CF93DF93CDB7DEB795
:10190000D2500FB6F894DEBF0FBECDBF8C018091D0
:101910002103811102C081E01EC0F8011082AA24B7
:10192000A394B12CAC0EBD1E950140E050E0BA016D
:101930008CE093E00E94100CC150DE4F8881CF5F95
:10194000D140853539F4C050DE4F8881C050D24037
:101950008A3A21F082E0F801808327C02EEB31E043
:1019600080E090E065E0F501E20FF31F54813C96C2
:1019700040E0FE2CED2CDC2CCC247291C72A4F5F6A
:101980004430B9F7689FF001699FF00D112431963A
:10199000E00FF11F5083C182D282E382F48201966C
:1019A000205F3F4F83309105F1F6DE5F0FB6F8946C
:1019B000DEBF0FBECDBFDF91CF911F910F91FF9082
:1019C000EF90DF90CF90BF90AF900895CF93DF93CB
:1019D000CDB7DEB72C970FB6F894DEBF0FBECDBFE4
:1019E0000E94F30118EA412E11E0512E0DEB602EFA
:1019F00001E0702E0AEC11E080EBC82E82E0D82EB8
:101A000097E4A92E92E0B92E28E5822E22E0922EAC
:101A100022E02093FC0260910803709109038CEF8F
:101A200092E00E94CF0B1092FF021092FE021092E1
:101A300001031092000381E291E00E94F61089E315
:101A400091E00E94F6108CE093E00E941B0888232E
:101A5000D1F382E591E00E94F610189B03C084E662
:101A600091E002C085E791E00E94F6108CE093E0DF
:101A70000E943507882329F01F928F938AE891E00E
:101A800008C1809121038F701F928F935F924F92B4
:101A90000E94DF1080912103807F0F900F900F90A4
:101AA0000F9019F086E091E002C084E191E09F93ED
:101AB0008F937F926F920E94DF1080910C0383704E
:101AC00090E001969F938F931F930F930E94DF10D6
:101AD0003FEF8CED9DE6315080409040E1F700C033
:101AE0000000E2E0E093FC026091080370910903BA
:101AF0008CEF92E00E94CF0B1092FF021092FE0238
:101B0000109201031092000390910C0393700FB692
:101B1000F894DEBF0FBECDBF209112038091130356
:101B200022952F70911144C0982F9295907F492F44
:101B3000422B82958F7090911403292F2295207F3C
:101B4000522F582B92959F70809115038370829528
:101B5000807F682F692B70E04F5F5F4F6F4F7F4F23
:101B60009091160392959695969593708091170390
:101B70008170880F880F892B90E0029604C0440F73
:101B8000551F661F771F8A95D2F7809111038295A2
:101B90008F7004C0440F551F661F771F8A95D2F7B8
:101BA000BAE07695679557954795BA95D1F723C0D2
:101BB000982F9295907F492F422B82958F7090910C
:101BC0001403292F2295207F522F582B92959F7016
:101BD0008091150383708295807F682F692B70E058
:101BE0004F5F5F4F6F4F7F4FA9E0440F551F661F38
:101BF000771FAA95D1F7FAE076956795579547959F
:101C0000FA95D1F77F936F935F934F9384EE91E0B2
:101C10009F938F930E94DF1087EE92E00E94740CD6
:101C20008091E7020F900F900F900F900F900F9000
:101C3000882329F01F928F9384EF91E02AC080912E
:101C4000E8028B3009F464C08C3009F05CC060C0DD
:101C50001F928F9380E192E01CC0F1E0F093FC02B0
:101C6000E5ECF2E0DE0111968CE001900D928A9590
:101C7000E1F7BE016F5F7F4F84ED92E00E944E0A54
:101C80001C01009721F58091D5021F928F938DE260
:101C900092E09F938F930E94DF100F900F900F9010
:101CA0000F9022C0C70105969F938F93BF92AF926A
:101CB0000E94DF10F70184811F928F939F928F9271
:101CC0000E94DF100FB6F894DEBF0FBECDBFB1018A
:101CD00084ED92E00E94EC087C01009719F7B101B5
:101CE00084ED92E00E94270A88E692E09F938F930A
:101CF0000E94DF100F900F908CE093E00E941B0871
:101D00008111FACF85CE82E892E00E94F610ECCFE6
:101D10008BE992E00E94F6108091EC028F93809103
:101D2000EB028F938091EA028F938091E9028F9367
:101D3000DF92CF920E94DF1068EE72E084ED92E0B5
:101D40000E94E60A8091D4020F900F900F900F909E
:101D50000F900F9081117CCF80CF87EE92E00E9490
:101D6000740C81E08093D4020895CF93C82F66E36A
:101D700081E00E94910BC13041F028F0C23039F06F
:101D8000C33061F406C068E205C068E403C068EED1
:101D900001C068E880E0CF910C94910BCF91089539
:101DA000BF92CF92DF92EF92FF920F931F93CF9348
:101DB000DF93EB017A0169016AE281E00E94910BF5
:101DC0006D2F80E00E94910BBC2E6C2F80E00E9452
:101DD000910B2197CC0DDD1D6D2F80E00E94910BA2
:101DE0006B2D61506C0D80E00E94910B6BE281E0E5
:101DF0000E94910B6F2D80E00E94910BCE2D6E2DD5
:101E000080E00E94910B81E0E81AF108E00EF11EDB
:101E10006F2D80E00E94910B6C2F6150600F80E06D
:101E2000DF91CF911F910F91FF90EF90DF90CF90B6
:101E3000BF900C94910B0F931F93CF93DF93E90105
:101E400001E010E021E030E00E94D00E6CE281E081
:101E50000E94910B6D2F80E00E94910B6C2F80E00F
:101E6000DF91CF911F910F910C94910BCF92DF9244
:101E7000EF92FF920F931F93CF93DF93EC011B829E
:101E80001A82288188E0289F900111248C819D81ED
:101E9000820F931F9D838C83820F931F48855985E2
:101EA0004817590740F5DC84CD84CE010E949A0B77
:101EB0006CE281E00E94910B00E010E015C06C2DF7
:101EC00080E00E94910B6D2D80E00E94910B8FEFBE
:101ED000E81AF80A02C0E12CF12C88859985E816E9
:101EE000F90668F30F5F1F4F8E819F81081719074E
:101EF00090F31D821C82DF91CF911F910F91FF9073
:101F0000EF90DF90CF9008958CEF92E00C947602E2
:101F1000CF92DF92EF92FF920F931F93CF93DF93B5
:101F20001F92CDB7DEB78C01663008F065E0F12C6A
:101F300018C084E6E82E6801CF0CD11C80E1C80EE1
:101F4000D11C8FEF69830E94060C69810DB407FED6
:101F5000FDCF8EB5F60180838F3F41F4EA9489F777
:101F600005C0F612E6CFF801808902C0F394F9CFDC
:101F70000F90DF91CF911F910F91FF90EF90DF9025
:101F8000CF900895DF92EF92FF920F931F93CF931C
:101F9000DF938C01C0E0D0E094E6D92E7801EC0EFE
:101FA000FD1E8FEF0E94060C0DB407FEFDCF8EB50F
:101FB000F701808B8F3F31F4DA9499F703C0F80171
:101FC000808905C02196C530D10531F7F8CFDF9162
:101FD000CF911F910F91FF90EF90DF90089584B102
:101FE000806B84B9269885B18F7085B982E58CBDE8
:101FF0008DB58E7F8DBD84B18C7F84B985B18360B2
:1020000085B91092210308950E942F10A59F900D6D
:10201000B49F900DA49F800D911D11240895991BCC
:1020200079E004C0991F961708F0961B881F7A95CF
:10203000C9F780950895AA1BBB1B51E107C0AA1FD1
:10204000BB1FA617B70710F0A61BB70B881F991F59
:102050005A95A9F780959095BC01CD010895A29F4E
:10206000B001B39FC001A39F01D0B29F700D811D2D
:102070001124911D0895EE0FFF1F0590F491E02D9E
:1020800009944BE753E00E946D100895FB01DC01B9
:102090004150504088F08D9181341CF08B350CF408
:1020A000805E619161341CF06B350CF4605E861BC0
:1020B000611171F3990B0895881BFCCFFB01DC01C2
:1020C0004150504048F001900D920020C9F701C0E6
:1020D0001D9241505040E0F70895FA01A191B0815E
:1020E000009719F41097E1F0CD01DC01CD010D90BE
:1020F000002011F4C00113C0FB012191222319F02B
:102100002015D9F7F3CFFB012191201519F41E9268
:10211000119606C02223C1F70D900020A1F7D0012F
:10212000FA01A193B08308950F931F93CF93DF9388
:10213000EC018B01009731F46115710519F4E0E0B1
:10214000F0E037C06EE070E081E090E00E940213A2
:10215000FC010097A1F380E883830115110571F05C
:102160001387028781E8838380917D0390917E03AA
:10217000892B21F4F0937E03E0937D032097C9F02F
:10218000D187C08783818260838380917F03909110
:102190008003892B71F4F0938003E0937F03809197
:1021A000810390918203892B21F4F0938203E093C1
:1021B0008103CF01DF91CF911F910F910895A2E08C
:1021C000B0E0E5EEF0E10C940E15FE01379661915A
:1021D0007191FA83E983AF0180917F03909180032D
:1021E0000E9425112296E2E00C942A150F931F936A
:1021F000CF93DF938C01E0917F03F0918003838183
:1022000081FF1BC0C0E0D0E005C00995892B11F00B
:10221000CFEFDFEFF80181918F0160917F03709123
:102220008003DB011896ED91FC9119978111EDCF98
:102230008AE00995892B09F402C0CFEFDFEFCE01C8
:10224000DF91CF911F910F910895ACE0B0E0EBE2E8
:10225000F1E10C94FE147C016B018A01FC011782F0
:102260001682838181FFC7C188248394912C8C0EB0
:102270009D1EF7019381F60193FD859193FF819156
:102280006F01882309F4B3C1853239F493FD859138
:1022900093FF81916F01853229F4B70190E00E948C
:1022A0007414E7CF712C312C20E02032A8F48B324B
:1022B00061F028F4803251F0833271F40BC08D321A
:1022C00039F0803349F4216028C02260246025C0A1
:1022D000286023C0206121C027FD27C0382F30533C
:1022E0003A3078F426FF06C0FAE07F9E300D1124C4
:1022F000732E13C08AE0389E300D1124332E2062D5
:102300000CC08E3221F426FD72C1206406C08C36CA
:1023100011F4206802C0883641F4F60193FD8591DE
:1023200093FF81916F018111C0CF982F9554933005
:1023300018F09052933028F40C5F1F4FFFE3F9839D
:102340000DC0833631F0833771F0833509F05EC0FC
:1023500023C0F801808189830E5F1F4F6624639438
:10236000712C540115C02801F2E04F0E511CF801E8
:10237000A080B18026FF03C0672D70E002C06FEF20
:102380007FEFC5012C870E9469143C0182012C85D6
:102390006FE7262E222218C02801F2E04F0E511CB2
:1023A000F801A080B18026FF03C0672D70E002C055
:1023B0006FEF7FEFC5012C870E9457143C012C85DD
:1023C00050E8252E222A820123FC1CC006C0B7013A
:1023D00080E290E00E9474143A94832D90E0681695
:1023E0007906A8F30FC0F50127FC859127FE81919E
:1023F0005F01B70190E00E94741431103A94F1E04B
:102400006F1A71086114710471F7EEC0843611F00F
:10241000893641F5F80127FF07C06081718182810B
:1024200093810C5F1F4F08C060817181882777FD01
:102430008095982F0E5F1F4F4FE6642E622297FF04
:1024400009C090958095709561957F4F8F4F9F4FF4
:10245000F0E86F2A2AE030E0A4010E94A014A82E20
:10246000A81844C0853731F43FEEB32EB2222AE0DB
:1024700030E024C099EFB92EB2228F36B9F020F4A3
:10248000883509F0B4C00DC0803721F0883709F0D5
:10249000AEC002C020E1B22AB4FE0BC084E0B82A6C
:1024A00008C024FF09C0E6E0BE2A06C028E030E0EC
:1024B00005C020E130E002C020E132E0F801B7FEC3
:1024C00007C060817181828193810C5F1F4F06C0BC
:1024D0006081718180E090E00E5F1F4FA4010E9437
:1024E000A014A82EA8188FE7682E6B2066FE0BC0DC
:1024F000362D3E7FA71450F464FE0AC062FC08C06B
:10250000362D3E7E05C0BA2C362D03C0BA2C01C034
:10251000B72C34FF0DC0FE01EA0DF11D8081803320
:1025200011F4397E09C032FF06C0B394B39404C0DD
:10253000832F867809F0B39433FD14C030FF0FC0A9
:102540007A2CB31460F4730C7B18B32C08C0B70159
:1025500080E290E03C870E947414B3943C85B314ED
:10256000B0F304C0B31410F43B1801C0312C34FF95
:1025700012C0B70180E390E03C870E9474143C8550
:1025800032FF1EC031FF03C088E590E002C088E73B
:1025900090E0B7010CC0832F867891F031FD02C026
:1025A00080E201C08BE237FD8DE2B70190E00E942E
:1025B000741406C0B70180E390E00E9474147A940A
:1025C000A714C0F3AA94F401EA0DF11DB7018081AC
:1025D00090E00E947414A110F5CF06C0B70180E20C
:1025E00090E00E9474143A943110F8CF42CEF70173
:1025F0002681378102C02FEF3FEFC9012C96E2E11F
:102600000C941A150F931F93CF93DF93689F80014B
:10261000699F100D789F100D1124C8010E9420138E
:10262000C82FD92F209731F0A80160E070E08C2FDF
:102630000E946214CE01DF91CF911F910F910895F6
:102640000F931F93CF93DF938230910510F482E0B4
:1026500090E0E0918503F091860320E030E0C0E057
:10266000D0E023C04081518148175907A8F048178E
:10267000590761F482819381209719F09B838A83A3
:102680002EC0909386038093850329C021153105C0
:1026900029F04217530710F0A90102C0BE01DF0163
:1026A00002811381EF019A01F8013097D9F62115C3
:1026B000310509F1281B390B2430310590F41296AD
:1026C0008D919C9113976115710521F0FB01938306
:1026D000828304C09093860380938503FD01329624
:1026E00044C0FD01E20FF31F819391932250310901
:1026F0002D933C933AC02091830330918403232B84
:1027000041F420910201309103013093840320931E
:10271000830320910001309101012115310541F41D
:102720002DB73EB74091040150910501241B350B94
:10273000E0918303F0918403E217F307A0F42E1BCA
:102740003F0B2817390778F0AC014E5F5F4F241715
:10275000350748F04E0F5F1F509384034093830367
:102760008193919302C0E0E0F0E0CF01DF91CF913F
:102770001F910F910895EF92FF920F931F93CF93A4
:10278000DF93009709F48EC0DC01129713961C9218
:102790001E921297E0908503F0908603E114F104F5
:1027A00089F42D913C911197280F391F8091830353
:1027B000909184038217930789F5B0938403A093C3
:1027C000830370C0E70120E030E001C0EA01CA17CE
:1027D000DB0738F44A815B819E0141155105B1F751
:1027E00022C0AC0142505109FA01D383C283008157
:1027F0001181BC01600F711F6C177D0761F4688146
:102800007981600F711F6E5F7F4F718360836A8172
:102810007B81738362832115310529F4B09386038C
:10282000A09385033FC0F901B383A283E9014991D5
:102830005991C40FD51FAC17BD0771F4DC019E91EF
:102840008E91840F951F02969183808312968D91AD
:102850009C91139793838283A0E0B0E002C0D701DC
:102860007C01F701828193810097C9F7C701029625
:1028700020813181820F931F209183033091840343
:102880002817390779F4109729F4109286031092CB
:10289000850304C013961C921E921297F092840333
:1028A000E0928303CDB7DEB7E6E00C942615FC0179
:1028B0000590615070400110D8F7809590958E0F6B
:1028C0009F1F0895DC0101C06D9341505040E0F717
:1028D0000895FC016150704001900110D8F7809577
:1028E00090958E0F9F1F08950F931F93CF93DF93A3
:1028F0008C01EB018B8181FD03C00FEF1FEF1AC02C
:1029000082FF0DC02E813F818C819D812817390760
:1029100064F4E881F9810193F983E88306C0E885CE
:10292000F985802F0995892B41F78E819F8101962A
:102930009F838E83C801DF91CF911F910F910895DE
:10294000FA01AA27283051F1203181F1E8946F93E0
:102950006E7F6E5F7F4F8F4F9F4FAF4FB1E03ED086
:10296000B4E03CD0670F781F891F9A1FA11D680F24
:10297000791F8A1F911DA11D6A0F711D811D911D57
:10298000A11D20D009F468943F912AE0269F1124CC
:102990003019305D3193DEF6CF010895462F477030
:1029A000405D4193B3E00FD0C9F7F6CF462F4F708B
:1029B000405D4A3318F0495D31FD4052419302D0E9
:1029C000A9F7EACFB4E0A69597958795779567958F
:1029D000BA95C9F700976105710508959B01AC018F
:1029E0000A2E06945795479537952795BA95C9F7B6
:1029F000620F731F841F951FA01D08952F923F9291
:102A00004F925F926F927F928F929F92AF92BF92FE
:102A1000CF92DF92EF92FF920F931F93CF93DF93AA
:102A2000CDB7DEB7CA1BDB0B0FB6F894DEBF0FBE07
:102A3000CDBF09942A88398848885F846E847D8454
:102A40008C849B84AA84B984C884DF80EE80FD8056
:102A50000C811B81AA81B981CE0FD11D0FB6F894CC
:0E2A6000DEBF0FBECDBFED010895F894FFCF8D
:102A6E00000087032000426C6F636B206164647208
:102A7E006573730042797465206164647265737363
:102A8E00002A2A2A205344206C69627261727920CE
:102A9E0074657374202A2A2A0057616974696E67F7
:102AAE0020666F7220534420696E736572742E2EE9
:102ABE002E00534420436172642064657465637410
:102ACE006564210057726974652D70726F74656349
:102ADE0074656421004E6F742077726974652D7071
:102AEE00726F7465637465642E00496E69746961F2
:102AFE006C697365206661696C65642077697468BA
:102B0E002025303258210A0053442043617264203C
:102B1E0076657273696F6E3A2025750A004164649A
:102B2E00726573733A2025730A004353442072650D
:102B3E006769737465722076657273696F6E3A2079
:102B4E0025750A0053442053697A653A20256C7521
:102B5E004D420A004469736B2072656164206661A0
:102B6E00696C6564207769746820253032580A00D4
:102B7E0052656164204641543332206661696C654A
:102B8E0064207769746820253032580A00457272C5
:102B9E006F72206F70656E20646972207769746839
:102BAE0020253032580A0052656164206E616D65D1
:102BBE003A20252E313173002C20747970653A201D
:102BCE003078253032580A0052656D6F7665205385
:102BDE004420746F2072756E20616761696E2E2EAF
:102BEE002E00506172746974696F6E2031206973A2
:102BFE00206E6F74204641543332005061727469F6
:102C0E0074696F6E2031206973204641543332004F
:102C1E00537461727420617420736563746F7220D3
:102C2E00256C750A004B4F2F7375626469727E3185
:042C3E00002F5C0007
:00000001FF
