:100000000C94C0010C94E8010C94E8010C94E801F4
:100010000C94E8010C94E8010C94E8010C94E801BC
:100020000C94E8010C94E8010C94E8010C94E801AC
:100030000C94E8010C94E8010C94E8010C94E8019C
:100040000C94E8010C94E8010C94E8010C94E8018C
:100050000C94E8010C94E8010C94E8010C94E8017C
:100060000C94E8010C94E8010C94E8010C94E8016C
:100070000C94E8010C94E8010C94E80100000000E5
:10008000000000000020202020200020005050A070
:1000900000000000005050F850F85050002070A0B0
:1000A0007028A87000C8C810204098980040A0A0F0
:1000B00048A8906800301020000000000010204088
:1000C0004040201000402010101020400020A8A820
:1000D00070A8A82000202020F82020200000000088
:1000E0000030102000000000F800000000000000B8
:1000F0000000606000080810204080800030484800
:1001000048484830001030101010101000304808D7
:100110001020407800304808300848300010305037
:100120005090F8100078407048084830003048403F
:1001300070484830007808081010202000304848E7
:1001400030484830003048483808483000003030E7
:100150000030300000003030003010200008102047
:10016000402010080000F00000F000000080402057
:10017000102040800070888810200020007088E8DF
:10018000A8E8907800602020505070D800F04848CF
:10019000784848F8007048808080C87800F050485F
:1001A000484858F000F84840704040F800F848408F
:1001B000705040E0007048808098C87800D8505057
:1001C000705050D800702020202020700070101037
:1001D0001010906000D85050606050D800F040403F
:1001E000404048F80088D8D8A8A888880088C8A8BF
:1001F000A8A89888007050888888D87000F048486F
:10020000784040E0007088888898703800F048484E
:10021000785050D8007088807008087800F8A820BE
:100220002020203000D850505050507000D85050EE
:1002300050507020008888A8A8A8505000D850506E
:10024000205050D800D850505020207000F8901006
:10025000204048F80070404040404070008080409E
:1002600020100808007010101010107000205000AE
:100270000000000000000000000000F80020100056
:10028000000000000000006090709068008080E036
:10029000909090E0000000609080906000101070DE
:1002A000909090700000006090F0806000102070CE
:1002B000202020200068906080708870008080E09E
:1002C000909090900020002020202020001000100E
:1002D0001010106000808090A0C0A090002020200E
:1002E00020202018000000D0A8A8A8A8000000E046
:1002F000909090900000006090909060000060905E
:1003000090E080800000609090701010000000B0BD
:10031000C080808000000070806010E0004040F0ED
:1003200040404030000000909090907000000088A5
:1003300088885020000000A8A8A85050000000881D
:100340005020508800000088502020C0000000F895
:10035000102040F8003020204020203000202020B5
:1003600020202020006020201020206000689000C5
:1003700000000000000000000000000035114611E0
:1003800011241FBECFEFD0E1DEBFCDBF12E0A0E051
:10039000B1E0EAE6FCE202C005900D92A43DB1078F
:1003A000D9F713E0A4EDB2E001C01D92A831B10766
:1003B000E1F713E0C0E8D3E004C02297FE010E94F9
:1003C0008E11CC37D107C9F70E941F100C94331639
:1003D0000C9400000E940F0262E084ED92E00E9403
:1003E000C30862E084ED92E00E94D00884ED92E0C0
:1003F0000E940D100E94BC0A909311038093100379
:1004000060E070E084ED92E00C94D3089FEF97B920
:100410008111149868B91398139A149A08951F9328
:10042000CF93DF9385B7806885BF85B7806885BF28
:100430008FE781B98DEF82B917B88FEF88B912981D
:100440001098139A159A149A169A28E22A95F1F799
:10045000129A8FEF94E624E0815090402040E1F71B
:1004600000C0000068E281E00E94060261E181E0D4
:100470000E9406028FEF94E624E0815090402040D5
:10048000E1F700C0000064E381E00E94060268E337
:1004900081E00E94060263E181E00E94060260E2C0
:1004A00081E00E9406026AE381E00E94060265E59F
:1004B00080E00E94060266E381E00E94060268E492
:1004C00080E00E9406026CE281E00E940602C0E425
:1004D000D1E010C060E080E00E94060260E080E0B1
:1004E0000E94060260E080E00E940602115091F72F
:1004F000219711F010EFEECF69E281E0DF91CF910B
:100500001F910C940602CF93C82F66E381E00E94EE
:100510000602C13041F028F0C23039F0C33061F436
:1005200006C068E205C068E403C068EE01C068E880
:1005300080E0CF910C940602CF91089517B88FEF09
:1005400088B9159884E08A95F1F786B1159A0895CF
:10055000882311F0119A0895119808952F923F92CF
:100560004F925F926F927F928F929F92AF92BF92C3
:10057000CF92DF92EF92FF920F931F93CF93DF936F
:10058000CDB7DEB72B970FB6F894DEBF0FBECDBF49
:100590003C017B876A875B834A8329831701280193
:1005A000DD82CC82BF82AE8217FF1EC0DC01ED91DE
:1005B000FC9102A0F3A1E02D6501EC80FD800DE22D
:1005C0000995EA85FB85398126E0329FE00DF11D12
:1005D0001124FB87EA8737FE03C031942194310848
:1005E000442437FC4094542C09E010E0812C8AEC20
:1005F000982E8AE9A82E8BE3B82E9AE0C92ED12C2A
:10060000E12CF12CC201B101A50194010E946A11F3
:10061000232B242B252B09F443C08981A6E08A9F34
:10062000C00111249987888735C0D301ED90FC90D3
:10063000C201B101A50194010E946A11CA01B90168
:100640002AE030E040E050E00E946A11062F005D91
:10065000D7019296ED91FC919397CE80DF80EC804C
:10066000FD8029814A815B816A857B85C30109956B
:10067000EA85FB8528853985E20FF31FFB87EA872A
:10068000C501B4012AE030E040E050E00E946A1168
:1006900049015A0181149104A104B10431F60DC03D
:1006A000C501B401A70196010E946A1149015A01CE
:1006B0000150110909F0A6CFB0CF2B960FB6F894D0
:1006C000DEBF0FBECDBFDF91CF911F910F91FF9085
:1006D000EF90DF90CF90BF90AF909F908F907F90E2
:1006E0006F905F904F903F902F9008952F923F9280
:1006F0004F925F926F927F928F929F92AF92BF9232
:10070000CF92DF92EF92FF920F931F93CF93DF93DD
:10071000CDB7DEB728970FB6F894DEBF0FBECDBFBA
:100720001C0178876F835A83498328013901FC8231
:10073000EB82DE82CD8237FF19C0DC01ED91FC91A6
:1007400000A0F1A1E02D76010B811C812DE209951D
:10075000EF81F8853696F887EF8357FE03C05194F2
:1007600041945108662457FC6094762C09E010E00F
:10077000812C2AEC922E2AE9A22E2BE3B22E3AE00B
:10078000C32ED12CE12CF12CC301B201A50194019F
:100790000E946A11232B242B252BC1F131C0D101DA
:1007A0000D911C91C301B201A50194010E946A112F
:1007B000CA01B9012AE030E040E050E00E946A112D
:1007C000262F205DD8019096ED91FC919197ED80B8
:1007D000FE800B811C8149815A816F817885C1011E
:1007E0000995EF81F8853696F887EF83C501B40146
:1007F0002AE030E040E050E00E946A1149015A01CD
:1008000081149104A104B10451F60DC0C501B401D5
:10081000A70196010E946A1149015A01015011096C
:1008200009F0B2CFEDCF28960FB6F894DEBF0FBE19
:10083000CDBFDF91CF911F910F91FF90EF90DF908F
:10084000CF90BF90AF909F908F907F906F905F9070
:100850004F903F902F9008952F923F924F925F922A
:100860006F927F928F929F92AF92BF92CF92DF92C0
:10087000EF92FF920F931F93CF93DF9300D000D09E
:1008800000D0CDB7DEB75C014B013A013A83298332
:100890001C830B838E2D90E09E838D831901281A73
:1008A000390AD501ED91FC9104A4F5A5E02D76015E
:1008B0008C019101C50109954B805C800D811E81E1
:1008C000401A510AD501ED91FC9169817A81680D38
:1008D000791D601B710B04A4F5A5E02D82012D810B
:1008E0003E81A301C5010995D501ED91FC914D8192
:1008F0005E81460D571D04A4F5A5E02D2D813E8196
:10090000B401C5010995D501ED91FC914B815C8144
:10091000460D571D8D819E81481B590BBC01680DEA
:10092000791D04A4F5A5E02D8C019101C50109955F
:1009300026960FB6F894DEBF0FBECDBFDF91CF91E4
:100940001F910F91FF90EF90DF90CF90BF90AF90ED
:100950009F908F907F906F905F904F903F902F90DF
:1009600008952F923F924F925F926F927F928F9253
:100970009F92AF92BF92CF92DF92EF92FF920F932E
:100980001F93CF93DF9300D000D0CDB7DEB74C01DB
:100990005B016A013C832B8362177307A1F4041780
:1009A000150730F4C026D1260C251D25C026D126DA
:1009B000D401ED91FC910C191D0904A4F5A5E02DBD
:1009C00021E030E01CC040175107F1F4EB81FC81BD
:1009D000E617F70740F4AE26BF26EA25FB25FC8381
:1009E000EB83AE26BF26D401ED91FC912B813C8197
:1009F0002A193B0904A4F5A5E02D01E010E0A601A9
:100A0000B501C401099599C04B805C80461A570A0C
:100A100057FE03C051944194510838016C187D0869
:100A200077FE03C07194619471084614570408F06E
:100A300042C00C151D0580F4EB81FC81AE26BF265B
:100A4000EA25FB25FC83EB83AE26BF26C026D126F4
:100A50000C251D25C026D12620E030E080E090E066
:100A60001DC0D401ED91FC91B3010E9456112B01E0
:100A70004A0C5B1CC901B3010E945611461A570A61
:100A800006A4F7A5E02D9701A601B201C4010995BE
:100A9000BFEFCB1ADB0A29813A81C1012B803C8050
:100AA000280E391EF901EA0DFB1DFA83E9830C15A6
:100AB0001D05B8F642C04B815C814A155B0570F498
:100AC000A426B5264A255B255C834B83A426B52640
:100AD000C026D1260C251D25C026D12620E030E0D9
:100AE00080E090E01DC0D401ED91FC91B2010E9424
:100AF00056113B016C0C7D1CC901B2010E945611BC
:100B0000661A770A06A4F7A5E02D9701A301B5019F
:100B1000C4010995BFEFAB1ABB0A29813A81C10113
:100B20001C01200E311EF901EC0DFD1DFA83E98335
:100B30004B815C814A155B05B0F60F900F900F90CA
:100B40000F90DF91CF911F910F91FF90EF90DF9069
:100B5000CF90BF90AF909F908F907F906F905F905D
:100B60004F903F902F9008954F925F926F927F9297
:100B70008F929F92AF92BF92CF92DF92EF92FF92AD
:100B80000F931F93CF93DF936C01EB015A01480140
:100B9000370129010DC0D601ED91FC9100A0F1A112
:100BA000E02D73018401A501BE01C60109952696B9
:100BB000F20121912F012111EECFDF91CF911F91F1
:100BC0000F91FF90EF90DF90CF90BF90AF909F90EC
:100BD0008F907F906F905F904F9008952F923F92EB
:100BE0004F925F926F927F928F929F92AF92BF923D
:100BF000CF92DF92EF92FF920F931F93CF93DF93E9
:100C000000D000D01F92CDB7DEB75C017D836C832E
:100C10004A01322F3701260186E0289FA0011124C6
:100C20005A834983180118C0D501ED91FC9102A0A7
:100C3000F3A1E02D62017301232FA4016C817D815A
:100C4000C5013B830995EC81FD8149815A81E40FFF
:100C5000F51FFD83EC833B81D1010D911D01011135
:100C6000E3CF0F900F900F900F900F90DF91CF91E7
:100C70001F910F91FF90EF90DF90CF90BF90AF90BA
:100C80009F908F907F906F905F904F903F902F90AC
:100C900008954F925F926F927F928F929F92AF9240
:100CA000BF92CF92DF92EF92FF920F931F93CF9359
:100CB000DF93B22EA02E37014601C22ED12CE601C1
:100CC000E3E0CC0FDD1FEA95E1F726E0B29E70016C
:100CD0001124DC01ED91FC9100A8F1A9E02D8E0119
:100CE000970109956CE281E00E940602512C0A2DC1
:100CF000112707FD109500521109F3E0000F111F95
:100D0000FA95E1F7B1E0CB1AD1082DC0852D6B2DF6
:100D10000E944A11F801E80FF11DE458FF4F44907A
:100D2000A12C1BC047FE06C0672D80E00E94060272
:100D3000662D05C0692D80E00E940602682D80E0C6
:100D40000E9406028A2D6B2D0E944A11292F30E045
:100D50002C153D0509F4440CA3942A2D30E02E15E2
:100D60003F0504F35394252D30E02C173D0774F212
:100D7000DF91CF911F910F91FF90EF90DF90CF9077
:100D8000BF90AF909F908F907F906F905F904F90AB
:100D90000895AF92BF92CF92DF92EF92FF920F939E
:100DA0001F93CF93DF93C22FB02EA12EDC01ED91C4
:100DB000FC9100A8F1A9E02D08E010E026E030E069
:100DC00009956CE281E00E940602C12CD12CDD273E
:100DD000C7FDD095A097A3E0CC0FDD1FAA95E1F742
:100DE000F601EC0FFD1FE458FF4F049116E007FFDA
:100DF00006C06A2D80E00E9406026B2D05C06F2D93
:100E000080E00E9406026E2D80E00E940602000F24
:100E1000115069F7BFEFCB1ADB0A88E0C816D1047E
:100E2000F9F6DF91CF911F910F91FF90EF90DF9036
:100E3000CF90BF90AF900895AF92BF92CF92DF92C4
:100E4000EF92FF920F931F93CF93DF93E901580125
:100E5000DC01ED91FC9100A8F1A9E02D09956CE26F
:100E600081E00E94060212C06F2D80E00E940602FF
:100E70006E2D80E00E940602BFEFCB1ADB0A02C093
:100E8000C12CD12CCA14DB0479F721972097C1F724
:100E9000DF91CF911F910F91FF90EF90DF90CF9056
:100EA000BF90AF900895BF92CF92DF92EF92FF92E2
:100EB0000F931F93CF93DF93EB017A0169016AE2ED
:100EC00081E00E9406026D2F80E00E940602BC2E87
:100ED0006C2F80E00E9406022197CC0DDD1D6D2F46
:100EE00080E00E9406026B2D61506C0D80E00E9434
:100EF00006026BE281E00E9406026F2D80E00E94F4
:100F00000602CE2D6E2D80E00E94060281E0E81AD6
:100F1000F108E00EF11E6F2D80E00E9406026C2F9A
:100F20006150600F80E0DF91CF911F910F91FF9092
:100F3000EF90DF90CF90BF900C940602CF93DF9399
:100F4000EC016AE281E00E94060260E080E00E941B
:100F5000060260E080E00E9406028885998501977C
:100F6000692F80E00E9406026885615080E00E943F
:100F700006026BE281E00E94060260E080E00E94CF
:100F8000060260E080E00E9406028A859B85019748
:100F9000692F80E00E9406026A85615080E0DF913F
:100FA000CF910C9406020F931F93CF93DF93E90127
:100FB000DC01ED91FC9100A8F1A9E02D01E010E029
:100FC00021E030E009956CE281E00E9406026D2F7D
:100FD00080E00E9406026C2F80E0DF91CF911F918C
:100FE0000F910C940602CF92DF92EF92FF920F9333
:100FF0001F93CF93DF93EC01D62EC72EE881F981A2
:1010000002A8F3A9E02D09956CE281E00E94060296
:1010100000E010E015C06C2D80E00E9406026D2DEE
:1010200080E00E9406028FEFE81AF80A02C0E12C65
:10103000F12C8A859B85E816F90668F30F5F1F4F30
:10104000888599850817190790F3DF91CF911F9133
:101050000F91FF90EF90DF90CF9008950F931F9323
:10106000CF93DF931F92CDB7DEB78C01862F6983B4
:101070000E9483026981613071F028F0623019F0BA
:10108000633091F408C020E431E0F8013187208713
:1010900020EF30E007C020EF30E0F80131872087F3
:1010A00020E431E033872287F80163830F90DF91DA
:1010B000CF911F910F910895862F0C94A802DC0107
:1010C00012962C91129786E0289F90011124149675
:1010D0008D919C911597820F931F15969C938E93DB
:1010E0001497820F931F18964D915C91199748178A
:1010F000590740F4ED91FC91119704A8F5A9E02D52
:10110000CD0109940895CF93DF93EC011D821C82D9
:101110002A8188E0289F900111248E819F81820F6F
:10112000931F9F838E83820F931F4A855B85481789
:10113000590758F4E881F9816E857F85068CF78D13
:10114000E02DCE0109951F821E82DF91CF91089577
:10115000FC0180E892E091838083158214821782DB
:10116000168281E08283838380EF90E0918780877D
:1011700080E491E0938782878FEF9FEF9587848744
:10118000178616860895CF93DF93EC01E881F981E5
:101190000288F389E02D0995CE01DF91CF91089562
:1011A000FC01628308951F93CF93DF931F92CDB705
:1011B000DEB7182F81E099830E94A802812F9981C0
:1011C0000F90DF91CF911F9108951F93CF93DF93DD
:1011D0001F92CDB7DEB7182F80E099830E94A80236
:1011E000812F99810F90DF91CF911F910895CF9218
:1011F000DF92EF92FF920F93CF93DF93EC01E881A0
:10120000F9816A3021F404A8F5A9E02D15C0CE8437
:10121000DF84EC84FD844E815F818C819D8102A0FE
:10122000F3A1E02D062F2A81BC01CE010995E881AA
:10123000F98106A8F7A9E02DCE010995CE01DF912D
:10124000CF910F91FF90EF90DF90CF900895682F8E
:1012500084ED92E00E94F70880E090E008954F92BC
:101260005F926F927F928F929F92AF92BF92CF9236
:10127000DF92EF92FF920F931F93CF93DF938C0136
:101280004A015B01C9E0D0E0C12C8AECD82E8AE982
:10129000E82E8BE3F82E9AE0492E512C612C712C0C
:1012A000C501B401A70196010E946A11232B242BCA
:1012B000252B29F119C0C501B401A70196010E948F
:1012C0006A11CA01B901A30192010E946A11605D0D
:1012D000C8010E94F708C701B601A30192010E944C
:1012E0006A1169017A0105C0BAE04B2E512C612CBC
:1012F000712CC114D104E104F104E9F60BC0C7015B
:10130000B601A30192010E946A1169017A01219735
:1013100039F6EACFC801DF91CF911F910F91FF906D
:10132000EF90DF90CF90BF90AF909F908F907F9085
:101330006F905F904F9008954F925F926F927F925F
:101340008F929F92AF92BF92CF92DF92EF92FF92D5
:101350000F931F93CF93DF938C014A015B0177FFBB
:1013600007C0882499245401841A950AA60AB70A4A
:1013700077FF04C06DE2C8010E94F708C9E0D0E021
:10138000C12C3AECD32E3AE9E32E3BE3F32E4AE0AC
:10139000442E512C612C712CC501B401A70196017A
:1013A0000E946A11232B242B252B29F119C0C5017A
:1013B000B401A70196010E946A11CA01B901A301F3
:1013C00092010E946A11605DC8010E94F708C7017E
:1013D000B601A30192010E946A1169017A0105C058
:1013E0002AE0422E512C612C712CC114D104E1044D
:1013F000F104E9F60BC0C701B601A30192010E94F6
:101400006A1169017A01219739F6EACFC801DF91A3
:10141000CF911F910F91FF90EF90DF90CF90BF90F1
:10142000AF909F908F907F906F905F904F900895B6
:10143000CF92DF92EF92FF920F931F93CF93DF93A0
:101440006C018B0124E030E0C0E1D7E2EAE0F0E09B
:10145000C801BE010E945611672BD1F013C0C8010C
:10146000BE010E945611CB01B7010E945611682F90
:10147000605DC6010E94F708CE01B7010E945611B7
:10148000EB0103C05AE0E52EF12C209741F709C08B
:10149000CE01BF010E945611EB0121503109C1F666
:1014A000F1CFC601DF91CF911F910F91FF90EF9087
:1014B000DF90CF900895CF92DF92EF92FF920F933B
:1014C0001F93CF93DF936C018B0177FF04C000273C
:1014D0001127061B170B77FF04C06DE2C6010E949F
:1014E000F70824E030E0C0E1D7E2EAE0F0E0C8012C
:1014F000BE010E945611672BD1F013C0C801BE0176
:101500000E945611CB01B7010E945611682F605DF1
:10151000C6010E94F708CE01B7010E945611EB01E7
:1015200003C06AE0E62EF12C209741F709C0CE01F6
:10153000BF010E945611EB0121503109C1F6F1CFD4
:10154000C601DF91CF911F910F91FF90EF90DF9037
:10155000CF9008950F931F93CF93DF938C01EB01EE
:1015600002C00E94F7086991C8016111FACFDF91AA
:10157000CF911F910F9108958091E4029091E5021F
:10158000892B51F460E070E087E299E00E949211AB
:101590009093E5028093E4028091E4029091E50249
:1015A000089584B1806B84B9269885B18F7085B910
:1015B00082E58CBD8DB58E7F8DBD08958EBD0DB439
:1015C00007FEFDCF08950DB407FEFDCF8EB508953B
:1015D000BF92CF92DF92EF92FF920F931F93CF9320
:1015E000DF93EC01162F69017A01B02EE881F981B1
:1015F0000684F785E02D0FEF20E030E0A90167E3D6
:101600000995E881F9810684F785E02D0B2DA70166
:101610009601612FCE010995DF91CF911F910F9116
:10162000FF90EF90DF90CF90BF90089583B18170CD
:101630000895EF92FF920F93CF93DF9300D000D0E5
:101640001F92CDB7DEB77C01DC01ED91FC910688DD
:10165000F789E02D2D833C834B835A836983099559
:10166000D701ED91FC910688F789E02DC701099516
:101670006981862F80640E94DE0A5A81852F0E942C
:10168000DE0A4B81842F0E94DE0A3C81832F0E9458
:10169000DE0A2D81822F0E94DE0A802F880F816052
:1016A0000F900F900F900F900F90DF91CF910F91AF
:1016B000FF90EF900C94DE0ADF92EF92FF920F936F
:1016C0001F93CF93DF938C01C0E0D0E082E3D82E4C
:1016D0007801EC0EFD1E8FEF0E94DE0A0E94E30AE5
:1016E000F70182A38F3F31F4DA94A9F703C0F80120
:1016F00082A105C02196C530D10541F7F8CFDF9111
:10170000CF911F910F91FF90EF90DF900895CF92AE
:10171000DF92EF92FF920F931F93CF93DF931F926D
:10172000CDB7DEB78C01F12C16C092E3E92E68012B
:10173000CF0CD11C82E2C80ED11C8FEF69830E94AE
:10174000DE0A0E94E30AF601808369818F3F41F43B
:10175000EA9499F705C0F612E8CFF80182A102C019
:10176000F394F9CF0F90DF91CF911F910F91FF90DC
:10177000EF90DF90CF9008958FEF0E94DE0A0E94D5
:10178000E30A8F3FC9F70895CF92DF92EF920F934C
:101790001F93FC0192899370308D818D32953F703B
:1017A000911141C0982F9295907FC92EC32A82959E
:1017B0008F70928D392F3295307FD32ED82A929503
:1017C0009F70838D83708295807FE82EE92A2E2D6D
:1017D000860130E00F5F1F4F2F4F3F4F948D929542
:1017E000969596959370858D8170880F880F892BBB
:1017F00090E0029604C0000F111F221F331F8A952C
:10180000D2F7878982958F7004C0000F111F221FA5
:10181000331F8A95D2F75AE0369527951795079585
:101820005A95D1F723C0982F9295907FC92EC32A3D
:1018300082958F70928D392F3295307FD32ED82A92
:1018400092959F70838D83708295807FE82EE92A20
:101850002E2D860130E00F5F1F4F2F4F3F4F49E085
:10186000000F111F221F331F4A95D1F7B801C9017C
:101870001F910F91EF90DF90CF9008951F93CF931A
:10188000DF93EC01199B04C08FEF8FA380E024C08D
:101890002FE78FE492E1215080409040E1F700C0B3
:1018A0000000E881F9810480F581E02DCE010995E1
:1018B000182F2FE789EA93E0215080409040E1F70C
:1018C00000C00000E881F9810480F581E02DCE019F
:1018D00009958113E6CF81E0DF91CF911F910895A3
:1018E000FC01DB018C9190E036E0959587953A9567
:1018F000E1F7837040814C7F482B408311968C9197
:101900001197818312968C911297828313968C91F2
:101910001397838315968C91159790E054E09595D5
:1019200087955A95E1F714962C91149750E1259FCD
:1019300090011124822B932B84839F708581807F5B
:10194000892B858315969C9115979295907F8F7022
:10195000892B858316968C91169790E0880F892F96
:10196000881F990B568180FB50F9568316968C91EF
:10197000169790E076E0959587957A95E1F780FB4C
:1019800051F9568316968C91169790E025E095951F
:1019900087952A95E1F780FB52F9568316968C912C
:1019A000169790E034E0959587953A95E1F780FB9E
:1019B00053F95683437018962C91189717968C916B
:1019C000179730E0411177C096E0359527959A95A5
:1019D000E1F744E0849FC0011124282B392B16968F
:1019E0004C9116974370942F990F990F80E0282BF4
:1019F000392B442737FD4095822F8295807F5F7079
:101A0000582B5683932F9295907F822F82958F70BB
:101A1000892B8783942F9295907F832F82958F7047
:101A2000892B8087942F9295937081858C7F892B49
:101A3000818718969C91189796959C71837E892B27
:101A4000818718969C9118979295990F907E8F7127
:101A5000892B818719968C91199790E025E09595AF
:101A600087952A95E1F787709285987F982B9287C2
:101A700019968C911997880F8873977C982B928769
:101A80001A968C911A97881F8827881F19962C916F
:101A90001997220F820F282F2295220F220F207CC8
:101AA0009F73922B928782FB882780F993859E7F74
:101AB000982B938726C040E0432F322F2227482BB4
:101AC00019968C911997282B822F8295807F5F70B1
:101AD000582B5683932F9295907F822F82958F70EB
:101AE000892B8783942F9295907F832F82958F7077
:101AF000892B8087942F9295937081858C7F892B79
:101B000081871A968C911A9790E066E09595879553
:101B10006A95E1F7938580FB91F993871B962C9149
:101B20001B97221F2227221F1A968C911A97880F23
:101B3000822B282F220F220F9370922B938786FBE4
:101B4000992790F984858E7F892B84871B969C9199
:101B50001B97990F8170892B84871C968C911C97F9
:101B600090E0880F892F881F990B358580FB30F90D
:101B700035871C968C911C9786958E70317F382BFB
:101B800035871D962C911D972295269526952370B5
:101B90001C968C911C9754E0859FC0011124282B22
:101BA0002295207F3F70322B35871D968C911D9793
:101BB00090E025E0959587952A95E1F7268580FBAD
:101BC00020F926871E968C911E9790E0880F892F0A
:101BD000881F990B80FB21F926871E968C911E97F2
:101BE00090E046E0959587954A95E1F780FB22F9CC
:101BF00026871E968C911E9790E055E095958795C7
:101C00005A95E1F780FB23F926871E968C911E9743
:101C100090E064E0959587956A95E1F780FB24F95B
:101C200026871E968C911E97880F880F880F8076C6
:101C30002F79282B26871F968C9190E09595879574
:101C400080FB27F92687969587958F739785907CDB
:101C5000982B97870895CF93DF93FC01DB018C913C
:101C6000808312969C91129780E011962C91119787
:101C7000820F911D928381836D5F7F4F80E090E0A2
:101C8000EB014991BE019F01280F391FE9014B83E8
:101C9000019685309105A1F718968C911897808749
:101CA0001186128613861486ED01299684E04185FB
:101CB000528563857485762F652F542F442741877D
:101CC0005287638774879991492B4187528763872D
:101CD0007487815061F71D969C911D9780E01E9638
:101CE0002C911E97820F911D8587892F8F702685D5
:101CF000207F282B26871F968C9190E095958795BD
:101D0000382F3295307F2F70232B268754E09695FD
:101D100087955A95E1F787709785987F982B9787D5
:101D2000DF91CF910895AF92BF92CF92DF92EF9261
:101D3000FF920F931F93CF93DF93CDB7DEB7E0975A
:101D40000FB6F894DEBF0FBECDBF7C01DC019796C5
:101D50001C92E7EBFBE03197F1F700C000002C9AF2
:101D60001AE08FEF0E94DE0A1150D9F72C98D701A4
:101D7000ED91FC910684F785E02D0AE420E030E047
:101D8000A90160E0C7010995D701ED91FC91028896
:101D9000F389E02DC7010995813009F01EC1D701F3
:101DA000ED91FC910684F785E02D03E42AEA31E009
:101DB00040E050E068E0C7010995D701ED91FC9142
:101DC0000288F389E02DC7010995813009F03FC0F1
:101DD000F70185A1813009F0FCC086A18A3A09F09B
:101DE000F8C0D701ED91FC910088F189E02D0FEF4B
:101DF00020E030E040E050E469E2C7010995D701F6
:101E0000ED91FC910288F389E02DC701099581309D
:101E100041F3D701ED91FC910684F785E02D20E098
:101E200030E0A9016AE3C7010995D701ED91FC9162
:101E30000288F389E02DC7010995F70183A186FF88
:101E400003C082E187A34CC082E087A33BC0D701D7
:101E5000ED91FC910088F189E02D0FEF20E030E05A
:101E6000A90169E2C7010995D701ED91FC910288AA
:101E7000F389E02DC70109958E7F31F4F70182A126
:101E8000813029F381E01DC0D701ED91FC910684DA
:101E9000F785E02D0FEF20E030E0A90161E0C701F8
:101EA0000995D701ED91FC910288F389E02DC701D6
:101EB00009958E7F09F08FC0F70182A1813021F34F
:101EC00083E087A3D701ED91FC910684F785E02D8F
:101ED0000FEF20E032E040E050E060E1C7010995FB
:101EE000D701ED91FC910684F785E02D0FEF20E0FE
:101EF00030E0A9016AE0C7010995D701ED91FC9195
:101F00000488F589E02D62E0C701099581115FC061
:101F10006E01B1E2CB0ED11C5E01E1E3AE0EB11C4D
:101F20008601D701ED91FC910488F589E02D61E0EF
:101F3000C7010995F80181938F01EA15FB0589F71F
:101F4000BE016F5D7F4FCE0141960E942B0E80E156
:101F5000FE017196D701129601900D928A95E1F7D4
:101F6000D701ED91FC910684F785E02D0FEF20E07D
:101F700030E0A90169E0C7010995D701ED91FC9115
:101F80000488F589E02D62E0C701099581111FC021
:101F9000D701ED91FC910488F589E02D61E0C7013E
:101FA0000995F60181936F01EA15FB0589F7BE01DA
:101FB0006F5D7F4FCE0101960E94700C80E1FE01A3
:101FC0003196D701529601900D928A95E1F780E003
:101FD00005C082E003C08FEF01C081E0E0960FB63C
:101FE000F894DEBF0FBECDBFDF91CF911F910F914F
:101FF000FF90EF90DF90CF90BF90AF9008952CEBC3
:1020000032E0FC01318320830E94D10A84B18C7FAD
:1020100084B985B1836085B90895CF93DF93EC01CE
:10202000E881F9816E857F85068CF78DE02D099515
:102030001D821C821F821E82DF91CF9108950E9413
:10204000EA0148EC242E41E0342E5CED452E51E0AF
:10205000552E6BEE662E62E0762EC4EFD1E008E0DE
:1020600012E07CE1E72E72E0F72EEBE3CE2EE2E009
:10207000DE2EF5E5AF2EF2E0BF2EAAE88A2EA1E013
:102080009A2E84ED92E00E940D1081E291E00E9470
:10209000F41189E391E00E94F41186EE92E00E942F
:1020A0003E0C8823D1F382E591E00E94F41186EE84
:1020B00092E00E94160B882319F084E691E002C09A
:1020C00085E791E00E94F41186EE92E00E94930E63
:1020D000882359F01F928F939F928F920E94DD1157
:1020E0000F900F900F900F908AC080910D038F700A
:1020F0001F928F9386EA91E09F938F930E94DD1148
:1021000080910D03807F0F900F900F900F9019F02A
:1021100086E091E002C084E191E09F938F938BEB86
:1021200091E09F938F930E94DD118091E8021F92AE
:102130008F933F922F920E94DD118091EA028F933C
:102140008091E9028F935F924F920E94DD117F92FE
:102150006F92DF93CF930E94DD118091F4028F93F1
:102160008091F3028F938091F2028F938091F1021C
:102170008F931F930F930E94DD118091F5022091A0
:10218000F602922F9F709C012F7033273F932F935D
:1021900024E0959587952A95E1F79F938F93FF9279
:1021A000EF920E94DD118091F802837090E0019619
:1021B0009F938F93DF92CF920E94DD118DB79EB7D0
:1021C00080960FB6F8949EBF0FBE8DBF86EE92E04C
:1021D0000E94C40B3AE096958795779567953A9556
:1021E000D1F79F938F937F936F93BF92AF920E948B
:1021F000DD110F900F900F900F900F900F9082E6CF
:1022000092E09F938F930E94DD110F900F9086EEC6
:1022100092E00E943E0C8111FACF33CFFC0175830E
:1022200064830895FC01778366830895FC017583B8
:102230006483578346830895FC01848195810895C2
:10224000FC01868197810895FC0175876487089554
:10225000FC01778766870895FC0184850895FC0159
:1022600086850895FC018381089584ED92E00C94A5
:10227000A808FC0187A108959C012E5F3F4FC9016A
:1022800008959C012E5E3F4FC901089586EE92E0AD
:102290000C94FF0F991B79E004C0991F961708F062
:1022A000961B881F7A95C9F780950895AA1BBB1BBA
:1022B00051E107C0AA1FBB1FA617B70710F0A61B46
:1022C000B70B881F991F5A95A9F780959095BC0167
:1022D000CD010895A1E21A2EAA1BBB1BFD010DC062
:1022E000AA1FBB1FEE1FFF1FA217B307E407F507C6
:1022F00020F0A21BB30BE40BF50B661F771F881FA2
:10230000991F1A9469F760957095809590959B0137
:10231000AC01BD01CF010895EE0FFF1F0590F491B0
:10232000E02D09940F931F93CF93DF93EC018B0162
:10233000009731F46115710519F4E0E0F0E037C061
:102340006EE070E081E090E00E940014FC010097D4
:10235000A1F380E883830115110571F013870287CB
:1023600081E8838380910E0390910F03892B21F4E0
:10237000F0930F03E0930E032097C9F0D187C08735
:102380008381826083838091100390911103892B54
:1023900071F4F0931103E093100380911203909174
:1023A0001303892B21F4F0931303E0931203CF015D
:1023B000DF91CF911F910F910895A2E0B0E0E3EE7D
:1023C000F1E10C940C16FE01379661917191FA833C
:1023D000E983AF0180911003909111030E942312B1
:1023E0002296E2E00C9428160F931F93CF93DF936D
:1023F0008C01E0911003F0911103838181FF1BC0D8
:10240000C0E0D0E005C00995892B11F0CFEFDFEFD8
:10241000F80181918F016091100370911103DB012C
:102420001896ED91FC9119978111EDCF8AE00995ED
:10243000892B09F402C0CFEFDFEFCE01DF91CF91FE
:102440001F910F910895ACE0B0E0E9E2F2E10C9445
:10245000FC157C016B018A01FC01178216828381C5
:1024600081FFC7C188248394912C8C0E9D1EF70197
:102470009381F60193FD859193FF81916F018823EC
:1024800009F4B3C1853239F493FD859193FF8191AD
:102490006F01853229F4B70190E00E947215E7CFF1
:1024A000712C312C20E02032A8F48B3261F028F41A
:1024B000803251F0833271F40BC08D3239F08033A9
:1024C00049F4216028C02260246025C0286023C010
:1024D000206121C027FD27C0382F30533A3078F4CF
:1024E00026FF06C0FAE07F9E300D1124732E13C024
:1024F0008AE0389E300D1124332E20620CC08E32BB
:1025000021F426FD72C1206406C08C3611F42068C7
:1025100002C0883641F4F60193FD859193FF8191C5
:102520006F018111C0CF982F9554933018F09052BD
:10253000933028F40C5F1F4FFFE3F9830DC08336FF
:1025400031F0833771F0833509F05EC023C0F801A4
:10255000808189830E5F1F4F66246394712C540120
:1025600015C02801F2E04F0E511CF801A080B18087
:1025700026FF03C0672D70E002C06FEF7FEFC5013B
:102580002C870E9467153C0182012C856FE7262E5F
:10259000222218C02801F2E04F0E511CF801A08041
:1025A000B18026FF03C0672D70E002C06FEF7FEFA0
:1025B000C5012C870E9455153C012C8550E8252E1D
:1025C000222A820123FC1CC006C0B70180E290E0F1
:1025D0000E9472153A94832D90E068167906A8F34C
:1025E0000FC0F50127FC859127FE81915F01B7019E
:1025F00090E00E94721531103A94F1E06F1A710860
:102600006114710471F7EEC0843611F0893641F51A
:10261000F80127FF07C060817181828193810C5F7F
:102620001F4F08C060817181882777FD8095982FA2
:102630000E5F1F4F4FE6642E622297FF09C09095F0
:102640008095709561957F4F8F4F9F4FF0E86F2A6F
:102650002AE030E0A4010E949E15A82EA81844C0CC
:10266000853731F43FEEB32EB2222AE030E024C0A9
:1026700099EFB92EB2228F36B9F020F4883509F0DF
:10268000B4C00DC0803721F0883709F0AEC002C059
:1026900020E1B22AB4FE0BC084E0B82A08C024FFAF
:1026A00009C0E6E0BE2A06C028E030E005C020E10F
:1026B00030E002C020E132E0F801B7FE07C06081DF
:1026C0007181828193810C5F1F4F06C0608171818F
:1026D00080E090E00E5F1F4FA4010E949E15A82E7F
:1026E000A8188FE7682E6B2066FE0BC0362D3E7F44
:1026F000A71450F464FE0AC062FC08C0362D3E7E6A
:1027000005C0BA2C362D03C0BA2C01C0B72C34FF3B
:102710000DC0FE01EA0DF11D8081803311F4397E78
:1027200009C032FF06C0B394B39404C0832F8678E7
:1027300009F0B39433FD14C030FF0FC07A2CB314EA
:1027400060F4730C7B18B32C08C0B70180E290E0F2
:102750003C870E947215B3943C85B314B0F304C057
:10276000B31410F43B1801C0312C34FF12C0B70170
:1027700080E390E03C870E9472153C8532FF1EC0CA
:1027800031FF03C088E590E002C088E790E0B70120
:102790000CC0832F867891F031FD02C080E201C029
:1027A0008BE237FD8DE2B70190E00E94721506C002
:1027B000B70180E390E00E9472157A94A714C0F3E9
:1027C000AA94F401EA0DF11DB701808190E00E9406
:1027D0007215A110F5CF06C0B70180E290E00E940B
:1027E00072153A943110F8CF42CEF7012681378125
:1027F00002C02FEF3FEFC9012C96E2E10C941816AE
:102800000F931F93CF93DF93689F8001699F100DF3
:10281000789F100D1124C8010E941E14C82FD92FB3
:10282000209731F0A80160E070E08C2F0E946015C5
:10283000CE01DF91CF911F910F9108950F931F93B8
:10284000CF93DF938230910510F482E090E0E09125
:102850001603F091170320E030E0C0E0D0E023C081
:102860004081518148175907A8F04817590761F46A
:1028700082819381209719F09B838A832EC0909345
:1028800017038093160329C02115310529F042173B
:10289000530710F0A90102C0BE01DF0102811381BC
:1028A000EF019A01F8013097D9F62115310509F1A8
:1028B000281B390B2430310590F412968D919C9190
:1028C00013976115710521F0FB019383828304C086
:1028D0009093170380931603FD01329644C0FD01C7
:1028E000E20FF31F81939193225031092D933C9372
:1028F0003AC02091140330911503232B41F4209109
:1029000002013091030130931503209314032091A9
:102910000001309101012115310541F42DB73EB779
:102920004091040150910501241B350BE0911403E3
:10293000F0911503E217F307A0F42E1B3F0B2817A5
:10294000390778F0AC014E5F5F4F2417350748F028
:102950004E0F5F1F5093150340931403819391937F
:1029600002C0E0E0F0E0CF01DF91CF911F910F9125
:102970000895EF92FF920F931F93CF93DF930097E9
:1029800009F48EC0DC01129713961C921E921297C6
:10299000E0901603F0901703E114F10489F42D91EF
:1029A0003C911197280F391F8091140390911503C2
:1029B0008217930789F5B0931503A093140370C091
:1029C000E70120E030E001C0EA01CA17DB0738F474
:1029D0004A815B819E0141155105B1F722C0AC01CE
:1029E00042505109FA01D383C28300811181BC0195
:1029F000600F711F6C177D0761F468817981600F2A
:102A0000711F6E5F7F4F718360836A817B817383E7
:102A100062832115310529F4B0931703A09316039F
:102A20003FC0F901B383A283E90149915991C40FD1
:102A3000D51FAC17BD0771F4DC019E918E91840FF8
:102A4000951F02969183808312968D919C91139786
:102A500093838283A0E0B0E002C0D7017C01F7013C
:102A6000828193810097C9F7C70102962081318145
:102A7000820F931F209114033091150328173907F3
:102A800079F4109729F4109217031092160304C0DA
:102A900013961C921E921297F0921503E092140363
:102AA000CDB7DEB7E6E00C942416FC01059061502A
:102AB00070400110D8F7809590958E0F9F1F089554
:102AC000DC0101C06D9341505040E0F70895FC01D6
:102AD0006150704001900110D8F7809590958E0F4D
:102AE0009F1F08950F931F93CF93DF938C01EB01EA
:102AF0008B8181FD03C00FEF1FEF1AC082FF0DC055
:102B00002E813F818C819D812817390764F4E881EB
:102B1000F9810193F983E88306C0E885F985802F60
:102B20000995892B41F78E819F8101969F838E8322
:102B3000C801DF91CF911F910F910895FA01AA2743
:102B4000283051F1203181F1E8946F936E7F6E5FF0
:102B50007F4F8F4F9F4FAF4FB1E03ED0B4E03CD09E
:102B6000670F781F891F9A1FA11D680F791F8A1F81
:102B7000911DA11D6A0F711D811D911DA11D20D0E8
:102B800009F468943F912AE0269F11243019305DA2
:102B90003193DEF6CF010895462F4770405D419393
:102BA000B3E00FD0C9F7F6CF462F4F70405D4A33E0
:102BB00018F0495D31FD4052419302D0A9F7EACFA8
:102BC000B4E0A6959795879577956795BA95C9F7D7
:102BD00000976105710508959B01AC010A2E0694CA
:102BE0005795479537952795BA95C9F7620F731F83
:102BF000841F951FA01D08952F923F924F925F92C0
:102C00006F927F928F929F92AF92BF92CF92DF92FC
:102C1000EF92FF920F931F93CF93DF93CDB7DEB761
:102C2000CA1BDB0B0FB6F894DEBF0FBECDBF0994F5
:102C30002A88398848885F846E847D848C849B844C
:102C4000AA84B984C884DF80EE80FD800C811B815A
:102C5000AA81B981CE0FD11D0FB6F894DEBF0FBE89
:0A2C6000CDBFED010895F894FFCFF9
:102C6A00000018032000426C6F636B206164647279
:102C7A006573730042797465206164647265737365
:102C8A00002A2A2A205344206C69627261727920D0
:102C9A0074657374202A2A2A0057616974696E67F9
:102CAA0020666F7220534420696E736572742E2EEB
:102CBA002E00534420436172642064657465637412
:102CCA006564210057726974652D70726F7465634B
:102CDA0074656421004E6F742077726974652D7073
:102CEA00726F7465637465642E00496E69746961F4
:102CFA006C697365206661696C65642077697468BC
:102D0A00202564210A0053442043617264207665B9
:102D1A007273696F6E3A2025640A004164647265B1
:102D2A0073733A2025730A004D616E756661637488
:102D3A007572652049443A2025750A004F454D2F82
:102D4A004170706C69636174696F6E2049443A20FE
:102D5A0025750A0050726F64756374206E616D6523
:102D6A003A20252E35730A0053657269616C206E0C
:102D7A00756D6265723A20256C750A004D6175663B
:102D8A0061637475726520646174653A2032302516
:102D9A003032752D30253031750A00435344207284
:102DAA00656769737465722076657273696F6E3AC6
:102DBA002025750A0053697A653A20256C754D42BB
:102DCA000A0052656D6F766520534420746F207235
:102DDA00756E20616761696E2E2E2E00000000005C
:102DEA000E11121116111C112011241128112C1167
:102DFA002F112E0832115C080D10B1042C04F307B0
:102E0A00C90649067603AE02B405EE051C07D307C8
:102E1A0053079E0783085F0800000000930E3E0CCC
:102E2A00160B39113C114111C40B190BE80A5C0B42
:042E3A00870BBC0B3B
:00000001FF
