:100000000C94C0010C94E8010C94E8010C94E801F4
:100010000C94E8010C94E8010C94E8010C94E801BC
:100020000C94E8010C94E8010C94E8010C94E801AC
:100030000C94E8010C94E8010C94E8010C94E8019C
:100040000C94E8010C94E8010C94E8010C94E8018C
:100050000C94E8010C94E8010C94E8010C94E8017C
:100060000C94E8010C94E8010C94E8010C94E8016C
:100070000C94E8010C94E8010C94E80100000000E5
:10008000000000000020202020200020005050A070
:1000900000000000005050F850F85050002070A0B0
:1000A0007028A87000C8C810204098980040A0A0F0
:1000B00048A8906800301020000000000010204088
:1000C0004040201000402010101020400020A8A820
:1000D00070A8A82000202020F82020200000000088
:1000E0000030102000000000F800000000000000B8
:1000F0000000606000080810204080800030484800
:1001000048484830001030101010101000304808D7
:100110001020407800304808300848300010305037
:100120005090F8100078407048084830003048403F
:1001300070484830007808081010202000304848E7
:1001400030484830003048483808483000003030E7
:100150000030300000003030003010200008102047
:10016000402010080000F00000F000000080402057
:10017000102040800070888810200020007088E8DF
:10018000A8E8907800602020505070D800F04848CF
:10019000784848F8007048808080C87800F050485F
:1001A000484858F000F84840704040F800F848408F
:1001B000705040E0007048808098C87800D8505057
:1001C000705050D800702020202020700070101037
:1001D0001010906000D85050606050D800F040403F
:1001E000404048F80088D8D8A8A888880088C8A8BF
:1001F000A8A89888007050888888D87000F048486F
:10020000784040E0007088888898703800F048484E
:10021000785050D8007088807008087800F8A820BE
:100220002020203000D850505050507000D85050EE
:1002300050507020008888A8A8A8505000D850506E
:10024000205050D800D850505020207000F8901006
:10025000204048F80070404040404070008080409E
:1002600020100808007010101010107000205000AE
:100270000000000000000000000000F80020100056
:10028000000000000000006090709068008080E036
:10029000909090E0000000609080906000101070DE
:1002A000909090700000006090F0806000102070CE
:1002B000202020200068906080708870008080E09E
:1002C000909090900020002020202020001000100E
:1002D0001010106000808090A0C0A090002020200E
:1002E00020202018000000D0A8A8A8A8000000E046
:1002F000909090900000006090909060000060905E
:1003000090E080800000609090701010000000B0BD
:10031000C080808000000070806010E0004040F0ED
:1003200040404030000000909090907000000088A5
:1003300088885020000000A8A8A85050000000881D
:100340005020508800000088502020C0000000F895
:10035000102040F8003020204020203000202020B5
:1003600020202020006020201020206000689000C5
:10037000000000000000000000000000AA0EB10E06
:1003800011241FBECFEFD0E1DEBFCDBF12E0A0E051
:10039000B1E0E0E4F7E202C005900D92A43FB1079E
:1003A000D9F713E0A4EFB2E001C01D92A831B10764
:1003B000E1F713E0C0E8D3E004C02297FE010E94F9
:1003C000F90ECC37D107C9F70E94A10D0C949E13EA
:1003D0000C9400000E940A0262E084EF92E00E9406
:1003E000BE0884EF92E00E948F0D0E94B70A90939E
:1003F00011038093100360E070E084EF92E00C94AE
:10040000CE089FEF97B98111149868B91398139A81
:10041000149A08951F93CF93DF9385B7806885BFA3
:1004200085B7806885BF8FE781B98DEF82B917B82E
:100430008FEF88B912981098139A159A149A169AF1
:1004400028E22A95F1F7129A8FEF94E624E0815082
:1004500090402040E1F700C0000068E281E00E9487
:10046000010261E181E00E9401028FEF94E624E045
:10047000815090402040E1F700C0000064E381E03B
:100480000E94010268E381E00E94010263E181E0D1
:100490000E94010260E281E00E9401026AE381E0C1
:1004A0000E94010265E580E00E94010266E381E0AE
:1004B0000E94010268E480E00E9401026CE281E097
:1004C0000E940102C0E4D1E010C060E080E00E9420
:1004D000010260E080E00E94010260E080E00E9492
:1004E0000102115091F7219711F010EFEECF69E260
:1004F00081E0DF91CF911F910C940102CF93C82F1F
:1005000066E381E00E940102C13041F028F0C23070
:1005100039F0C33061F406C068E205C068E403C086
:1005200068EE01C068E880E0CF910C940102CF91A1
:10053000089517B88FEF88B9159884E08A95F1F778
:1005400086B1159A0895882311F0119A089511988B
:1005500008952F923F924F925F926F927F928F9267
:100560009F92AF92BF92CF92DF92EF92FF920F9342
:100570001F93CF93DF93CDB7DEB72B970FB6F894C9
:10058000DEBF0FBECDBF3C017B876A875B834A839A
:10059000298317012801DD82CC82BF82AE8217FF3A
:1005A0001EC0DC01ED91FC9102A0F3A1E02D6501DC
:1005B000EC80FD800DE20995EA85FB85398126E016
:1005C000329FE00DF11D1124FB87EA8737FE03C03F
:1005D000319421943108442437FC4094542C09E090
:1005E00010E0812C8AEC982E8AE9A82E8BE3B82E95
:1005F0009AE0C92ED12CE12CF12CC201B101A50148
:1006000094010E94D50E232B242B252B09F443C0E3
:100610008981A6E08A9FC00111249987888735C007
:10062000D301ED90FC90C201B101A50194010E949B
:10063000D50ECA01B9012AE030E040E050E00E9446
:10064000D50E062F005DD7019296ED91FC91939700
:10065000CE80DF80EC80FD8029814A815B816A85C4
:100660007B85C3010995EA85FB8528853985E20FDD
:10067000F31FFB87EA87C501B4012AE030E040E0C0
:1006800050E00E94D50E49015A0181149104A10441
:10069000B10431F60DC0C501B401A70196010E9455
:1006A000D50E49015A010150110909F0A6CFB0CF6A
:1006B0002B960FB6F894DEBF0FBECDBFDF91CF9162
:1006C0001F910F91FF90EF90DF90CF90BF90AF9070
:1006D0009F908F907F906F905F904F903F902F9062
:1006E00008952F923F924F925F926F927F928F92D6
:1006F0009F92AF92BF92CF92DF92EF92FF920F93B1
:100700001F93CF93DF93CDB7DEB728970FB6F8943A
:10071000DEBF0FBECDBF1C0178876F835A8349832C
:1007200028013901FC82EB82DE82CD8237FF19C0BD
:10073000DC01ED91FC9100A0F1A1E02D76010B818F
:100740001C812DE20995EF81F8853696F887EF83B5
:1007500057FE03C0519441945108662457FC60949D
:10076000762C09E010E0812C2AEC922E2AE9A22EA8
:100770002BE3B22E3AE0C32ED12CE12CF12CC30195
:10078000B201A50194010E94D50E232B242B252B09
:10079000C1F131C0D1010D911C91C301B201A5017C
:1007A00094010E94D50ECA01B9012AE030E040E070
:1007B00050E00E94D50E262F205DD8019096ED9135
:1007C000FC919197ED80FE800B811C8149815A81BB
:1007D0006F817885C1010995EF81F8853696F88794
:1007E000EF83C501B4012AE030E040E050E00E9410
:1007F000D50E49015A0181149104A104B10451F6A6
:100800000DC0C501B401A70196010E94D50E490192
:100810005A010150110909F0B2CFEDCF28960FB659
:10082000F894DEBF0FBECDBFDF91CF911F910F9126
:10083000FF90EF90DF90CF90BF90AF909F908F9000
:100840007F906F905F904F903F902F9008952F92E0
:100850003F924F925F926F927F928F929F92AF9250
:10086000BF92CF92DF92EF92FF920F931F93CF939D
:10087000DF9300D000D000D0CDB7DEB75C014B01D4
:100880003A013A8329831C830B838E2D90E09E834B
:100890008D831901281A390AD501ED91FC9104A420
:1008A000F5A5E02D76018C019101C50109954B80DC
:1008B0005C800D811E81401A510AD501ED91FC9199
:1008C00069817A81680D791D601B710B04A4F5A5FF
:1008D000E02D82012D813E81A301C5010995D5013D
:1008E000ED91FC914D815E81460D571D04A4F5A547
:1008F000E02D2D813E81B401C5010995D501ED9111
:10090000FC914B815C81460D571D8D819E81481B5A
:10091000590BBC01680D791D04A4F5A5E02D8C01CF
:100920009101C501099526960FB6F894DEBF0FBE5A
:10093000CDBFDF91CF911F910F91FF90EF90DF908E
:10094000CF90BF90AF909F908F907F906F905F906F
:100950004F903F902F9008952F923F924F925F9229
:100960006F927F928F929F92AF92BF92CF92DF92BF
:10097000EF92FF920F931F93CF93DF9300D000D09D
:10098000CDB7DEB74C015B016A013C832B83621754
:100990007307A1F40417150730F4C026D1260C25DF
:1009A0001D25C026D126D401ED91FC910C191D09FD
:1009B00004A4F5A5E02D21E030E01CC0401751074C
:1009C000F1F4EB81FC81E617F70740F4AE26BF2671
:1009D000EA25FB25FC83EB83AE26BF26D401ED91EF
:1009E000FC912B813C812A193B0904A4F5A5E02D3B
:1009F00001E010E0A601B501C401099599C04B8042
:100A00005C80461A570A57FE03C05194419451081E
:100A100038016C187D0877FE03C0719461947108E9
:100A20004614570408F042C00C151D0580F4EB81F4
:100A3000FC81AE26BF26EA25FB25FC83EB83AE2690
:100A4000BF26C026D1260C251D25C026D12620E094
:100A500030E080E090E01DC0D401ED91FC91B30145
:100A60000E94C10E2B014A0C5B1CC901B3010E94FC
:100A7000C10E461A570A06A4F7A5E02D9701A60154
:100A8000B201C4010995BFEFCB1ADB0A29813A8173
:100A9000C1012B803C80280E391EF901EA0DFB1D97
:100AA000FA83E9830C151D05B8F642C04B815C81C1
:100AB0004A155B0570F4A426B5264A255B255C83A0
:100AC0004B83A426B526C026D1260C251D25C0267D
:100AD000D12620E030E080E090E01DC0D401ED910F
:100AE000FC91B2010E94C10E3B016C0C7D1CC9013E
:100AF000B2010E94C10E661A770A06A4F7A5E02D7E
:100B00009701A301B501C4010995BFEFAB1ABB0A58
:100B100029813A81C1011C01200E311EF901EC0D21
:100B2000FD1DFA83E9834B815C814A155B05B0F6B4
:100B30000F900F900F900F90DF91CF911F910F9119
:100B4000FF90EF90DF90CF90BF90AF909F908F90ED
:100B50007F906F905F904F903F902F9008954F92AD
:100B60005F926F927F928F929F92AF92BF92CF923D
:100B7000DF92EF92FF920F931F93CF93DF936C015D
:100B8000EB015A014801370129010DC0D601ED9151
:100B9000FC9100A0F1A1E02D73018401A501BE012B
:100BA000C60109952696F20121912F012111EECF60
:100BB000DF91CF911F910F91FF90EF90DF90CF9039
:100BC000BF90AF909F908F907F906F905F904F906D
:100BD00008952F923F924F925F926F927F928F92E1
:100BE0009F92AF92BF92CF92DF92EF92FF920F93BC
:100BF0001F93CF93DF9300D000D01F92CDB7DEB705
:100C00005C017D836C834A01322F3701260186E027
:100C1000289FA00111245A834983180118C0D501C7
:100C2000ED91FC9102A0F3A1E02D62017301232F4D
:100C3000A4016C817D81C5013B830995EC81FD8117
:100C400049815A81E40FF51FFD83EC833B81D1017B
:100C50000D911D010111E3CF0F900F900F900F9098
:100C60000F90DF91CF911F910F91FF90EF90DF9048
:100C7000CF90BF90AF909F908F907F906F905F903C
:100C80004F903F902F9008954F925F926F927F9276
:100C90008F929F92AF92BF92CF92DF92EF92FF928C
:100CA0000F931F93CF93DF93B22EA02E37014601EF
:100CB000C22ED12CE601E3E0CC0FDD1FEA95E1F76F
:100CC00026E0B29E70011124DC01ED91FC9100A898
:100CD000F1A9E02D8E01970109956CE281E00E9457
:100CE0000102512C0A2D112707FD10950052110900
:100CF000F3E0000F111FFA95E1F7B1E0CB1AD1082C
:100D00002DC0852D6B2D0E94B50EF801E80FF11D49
:100D1000E458FF4F4490A12C1BC047FE06C0672D2E
:100D200080E00E940102662D05C0692D80E00E94CE
:100D30000102682D80E00E9401028A2D6B2D0E9425
:100D4000B50E292F30E02C153D0509F4440CA39471
:100D50002A2D30E02E153F0504F35394252D30E065
:100D60002C173D0774F2DF91CF911F910F91FF90E7
:100D7000EF90DF90CF90BF90AF909F908F907F903B
:100D80006F905F904F900895AF92BF92CF92DF9295
:100D9000EF92FF920F931F93CF93DF93C22FB02E4A
:100DA000A12EDC01ED91FC9100A8F1A9E02D08E055
:100DB00010E026E030E009956CE281E00E9401023B
:100DC000C12CD12CDD27C7FDD095A097A3E0CC0F77
:100DD000DD1FAA95E1F7F601EC0FFD1FE458FF4F68
:100DE000049116E007FF06C06A2D80E00E94010210
:100DF0006B2D05C06F2D80E00E9401026E2D80E0FA
:100E00000E940102000F115069F7BFEFCB1ADB0AF5
:100E100088E0C816D104F9F6DF91CF911F910F91A8
:100E2000FF90EF90DF90CF90BF90AF900895AF927A
:100E3000BF92CF92DF92EF92FF920F931F93CF93C7
:100E4000DF93E9015801DC01ED91FC9100A8F1A9C3
:100E5000E02D09956CE281E00E94010212C06F2D25
:100E600080E00E9401026E2D80E00E940102BFEF2F
:100E7000CB1ADB0A02C0C12CD12CCA14DB0479F7CF
:100E800021972097C1F7DF91CF911F910F91FF908C
:100E9000EF90DF90CF90BF90AF900895BF92CF9228
:100EA000DF92EF92FF920F931F93CF93DF93EB01AB
:100EB0007A0169016AE281E00E9401026D2F80E0FF
:100EC0000E940102BC2E6C2F80E00E94010221973B
:100ED000CC0DDD1D6D2F80E00E9401026B2D615055
:100EE0006C0D80E00E9401026BE281E00E94010231
:100EF0006F2D80E00E940102CE2D6E2D80E00E94B9
:100F0000010281E0E81AF108E00EF11E6F2D80E089
:100F10000E9401026C2F6150600F80E0DF91CF9141
:100F20001F910F91FF90EF90DF90CF90BF900C94A6
:100F30000102CF93DF93EC016AE281E00E9401029B
:100F400060E080E00E94010260E080E00E94010217
:100F5000888599850197692F80E00E940102688544
:100F6000615080E00E9401026BE281E00E94010278
:100F700060E080E00E94010260E080E00E940102E7
:100F80008A859B850197692F80E00E9401026A850E
:100F9000615080E0DF91CF910C9401020F931F9379
:100FA000CF93DF93E901DC01ED91FC9100A8F1A959
:100FB000E02D01E010E021E030E009956CE281E0F5
:100FC0000E9401026D2F80E00E9401026C2F80E0E0
:100FD000DF91CF911F910F910C940102CF92DF927C
:100FE000EF92FF920F931F93CF93DF93EC01D62ED6
:100FF000C72EE881F98102A8F3A9E02D09956CE2DA
:1010000081E00E94010200E010E015C06C2D80E03C
:101010000E9401026D2D80E00E9401028FEFE81A0C
:10102000F80A02C0E12CF12C8A859B85E816F906A6
:1010300068F30F5F1F4F888599850817190790F38C
:10104000DF91CF911F910F91FF90EF90DF90CF90A4
:1010500008950F931F93CF93DF931F92CDB7DEB701
:101060008C01862F69830E947E026981613071F054
:1010700028F0623019F0633091F408C020E431E0C8
:10108000F8013187208720EF30E007C020EF30E003
:10109000F8013187208720E431E033872287F80187
:1010A00063830F90DF91CF911F910F910895862F49
:1010B0000C94A302DC0112962C91129786E0289FD3
:1010C0009001112414968D919C911597820F931F76
:1010D00015969C938E931497820F931F18964D919B
:1010E0005C9119974817590740F4ED91FC911197BD
:1010F00004A8F5A9E02DCD0109940895CF93DF93BD
:10110000EC011D821C822A8188E0289F9001112415
:101110008E819F81820F931F9F838E83820F931FE7
:101120004A855B854817590758F4E881F9816E852F
:101130007F85068CF78DE02DCE0109951F821E82DA
:10114000DF91CF910895FC0182EA92E09183808340
:10115000158214821782168281E08283838380EF56
:1011600090E09187808780E491E0938782878FEF7A
:101170009FEF95878487178616860895CF93DF9310
:10118000EC01E881F9810288F389E02D0995CE010F
:10119000DF91CF910895FC01628308951F93CF934F
:1011A000DF931F92CDB7DEB7182F81E099830E949D
:1011B000A302812F99810F90DF91CF911F91089504
:1011C0001F93CF93DF931F92CDB7DEB7182F80E028
:1011D00099830E94A302812F99810F90DF91CF9173
:1011E0001F910895CF92DF92EF92FF920F93CF93CA
:1011F000DF93EC01E881F9816A3021F404A8F5A9B4
:10120000E02D15C0CE84DF84EC84FD844E815F81A7
:101210008C819D8102A0F3A1E02D062F2A81BC01C3
:10122000CE010995E881F98106A8F7A9E02DCE0144
:101230000995CE01DF91CF910F91FF90EF90DF9054
:10124000CF900895682F84EF92E00E94F20880E02A
:1012500090E008954F925F926F927F928F929F924B
:10126000AF92BF92CF92DF92EF92FF920F931F93B4
:10127000CF93DF938C014A015B01C9E0D0E0C12C20
:101280008AECD82E8AE9E82E8BE3F82E9AE0492ED4
:10129000512C612C712CC501B401A70196010E944B
:1012A000D50E232B242B252B29F119C0C501B40100
:1012B000A70196010E94D50ECA01B901A3019201AE
:1012C0000E94D50E605DC8010E94F208C701B601F8
:1012D000A30192010E94D50E69017A0105C0BAE00E
:1012E0004B2E512C612C712CC114D104E104F1045A
:1012F000E9F60BC0C701B601A30192010E94D50E09
:1013000069017A01219739F6EACFC801DF91CF91BF
:101310001F910F91FF90EF90DF90CF90BF90AF9013
:101320009F908F907F906F905F904F9008954F9215
:101330005F926F927F928F929F92AF92BF92CF9265
:10134000DF92EF92FF920F931F93CF93DF938C0165
:101350004A015B0177FF07C0882499245401841A4D
:10136000950AA60AB70A77FF04C06DE2C8010E9479
:10137000F208C9E0D0E0C12C3AECD32E3AE9E32ED2
:101380003BE3F32E4AE0442E512C612C712CC50115
:10139000B401A70196010E94D50E232B242B252BE7
:1013A00029F119C0C501B401A70196010E94D50E0B
:1013B000CA01B901A30192010E94D50E605DC80166
:1013C0000E94F208C701B601A30192010E94D50E46
:1013D00069017A0105C02AE0422E512C612C712C42
:1013E000C114D104E104F104E9F60BC0C701B60150
:1013F000A30192010E94D50E69017A01219739F665
:10140000EACFC801DF91CF911F910F91FF90EF902C
:10141000DF90CF90BF90AF909F908F907F906F9014
:101420005F904F900895CF92DF92EF92FF920F93CB
:101430001F93CF93DF936C018B0124E030E0C0E178
:10144000D7E2EAE0F0E0C801BE010E94C10E672BBE
:10145000D1F013C0C801BE010E94C10ECB01B7017B
:101460000E94C10E682F605DC6010E94F208CE0185
:10147000B7010E94C10EEB0103C05AE0E52EF12C2A
:10148000209741F709C0CE01BF010E94C10EEB01B8
:1014900021503109C1F6F1CFC601DF91CF911F91E3
:1014A0000F91FF90EF90DF90CF900895CF92DF9251
:1014B000EF92FF920F931F93CF93DF936C018B01F9
:1014C00077FF04C000271127061B170B77FF04C006
:1014D0006DE2C6010E94F20824E030E0C0E1D7E2EC
:1014E000EAE0F0E0C801BE010E94C10E672BD1F016
:1014F00013C0C801BE010E94C10ECB01B7010E94FA
:10150000C10E682F605DC6010E94F208CE01B701CE
:101510000E94C10EEB0103C06AE0E62EF12C209779
:1015200041F709C0CE01BF010E94C10EEB0121505D
:101530003109C1F6F1CFC601DF91CF911F910F9113
:10154000FF90EF90DF90CF9008950F931F93CF936C
:10155000DF938C01EB0102C00E94F2086991C8017F
:101560006111FACFDF91CF911F910F910895809172
:10157000040390910503892B51F460E070E082E24E
:1015800099E00E94FD0E90930503809304038091DF
:10159000040390910503089584B1806B84B9269863
:1015A00085B18F7085B982E58CBD8DB58E7F8DBD7F
:1015B00008958EBD0DB407FEFDCF08950DB407FE4E
:1015C000FDCF8EB50895BF92CF92DF92EF92FF923A
:1015D0000F931F93CF93DF93EC01162F69017A01CC
:1015E000B02EE881F9810484F585E02D0FEF20E02D
:1015F00030E0A90167E30995E881F9810484F58564
:10160000E02D0B2DA7019601612FCE010995DF91E9
:10161000CF911F910F91FF90EF90DF90CF90BF90EF
:10162000089580E0089583B181700895EF92FF924C
:101630000F93CF93DF9300D000D01F92CDB7DEB7CA
:101640007C01DC01ED91FC910488F589E02D2D836E
:101650003C834B835A8369830995D701ED91FC91B3
:101660000488F589E02DC70109956981862F80647A
:101670000E94D90A5A81852F0E94D90A4B81842F52
:101680000E94D90A3C81832F0E94D90A2D81822F82
:101690000E94D90A802F880F81600F900F900F90C1
:1016A0000F900F90DF91CF910F91FF90EF900C94DE
:1016B000D90ADF92EF92FF920F931F93CF93DF939C
:1016C0008C01C0E0D0E082E3D82E7801EC0EFD1E44
:1016D0008FEF0E94D90A0E94DE0AF70182838F3FB2
:1016E00031F4DA94A9F703C0F801828105C021968C
:1016F000C530D10541F7F8CFDF91CF911F910F9100
:10170000FF90EF90DF900895CF92DF92EF92FF92DB
:101710000F931F93CF93DF931F92CDB7DEB78C014A
:10172000F12C16C092E3E92E6801CF0CD11C82E0A7
:10173000C80ED11C8FEF69830E94D90A0E94DE0A6D
:10174000F601808369818F3F41F4EA9499F705C0DF
:10175000F612E8CFF801828102C0F394F9CF0F901E
:10176000DF91CF911F910F91FF90EF90DF90CF907D
:1017700008958FEF0E94D90A0E94DE0A8F3FC9F7B1
:1017800008951F93CF93DF93EC01199B04C08FEF53
:101790008F8380E024C02FE78FE492E121508040C6
:1017A0009040E1F700C00000E881F9810480F581F4
:1017B000E02DCE010995182F2FE789EA93E02150FB
:1017C00080409040E1F700C00000E881F98104808A
:1017D000F581E02DCE0109958113E6CF81E0DF91FF
:1017E000CF911F9108950F931F93CF93DF93EC0137
:1017F0001F8287EB9BE00197F1F700C000002C9A55
:101800001AE08FEF0E94D90A1150D9F72C98E8817D
:10181000F9810484F585E02D0AE420E030E0A90197
:1018200060E0CE010995E881F9810088F189E02D19
:10183000CE010995813009F095C0E881F9810484D1
:10184000F585E02D03E42AEA31E040E050E068E06D
:10185000CE010995E881F9810088F189E02DCE015A
:1018600009958130C1F58D81813009F077C08E8175
:101870008A3A09F073C0E881F9810684F785E02D82
:101880000FEF20E030E040E050E469E2CE0109953E
:10189000E881F9810088F189E02DCE010995813038
:1018A00051F3E881F9810484F585E02D20E030E0F2
:1018B000A9016AE3CE010995E881F9810088F189DF
:1018C000E02DCE0109958B8186FF03C082E18F83D5
:1018D00043C082E033C0E881F9810684F785E02DBA
:1018E0000FEF20E030E0A90169E2CE010995E8811F
:1018F000F9810088F189E02DCE0109958E7F29F4C8
:101900008A81813041F381E019C0E881F981048442
:10191000F585E02D0FEF20E030E0A90161E0CE0178
:101920000995E881F9810088F189E02DCE010995BA
:101930008E7FB1F48A81813041F383E08F83E88127
:10194000F9810484F585E02D0FEF20E032E040E0DE
:1019500050E060E1CE01099580E005C082E003C05F
:101960008FEF01C081E0DF91CF911F910F9108951A
:101970000895CF93DF93FC01DB018C918083129655
:101980009C91129780E011962C911197820F911DD6
:10199000928381836D5F7F4F80E090E0EB014991FE
:1019A000BE019F01280F391FE9014B830196853045
:1019B0009105A1F7108618968C9118978187128649
:1019C000138614861586ED01299684E04285538599
:1019D00064857585762F652F542F4427428753875A
:1019E000648775879991492B4287538764877587E8
:1019F000815061F71D962C911D97922F9F7080E06A
:101A00001E962C911E97820F911D8687892F8F70AD
:101A10002785207F282B27871F968C9190E095950E
:101A20008795382F3295307F2F70232B278744E0FE
:101A3000969587954A95E1F787709089987F982BBE
:101A4000908BDF91CF910895AF92BF92CF92DF92AA
:101A5000EF92FF920F931F93CF93DF93CDB7DEB733
:101A600060970FB6F894DEBF0FBECDBF6C017B014F
:101A7000DB01ED91FC910484F585E02D0FEF20E072
:101A800030E0A9016AE0C7010995D701ED91FC9109
:101A90000288F389E02D62E0C7010995882319F0D7
:101AA00060E070E019C08E010F5F1F4F5E01B1E171
:101AB000AB0EB11CD701ED91FC910288F389E02DAA
:101AC00061E0C7010995F80181938F01EA15FB05D3
:101AD00089F7BE016F5F7F4FC6010E94B90CC60136
:101AE00060960FB6F894DEBF0FBECDBFDF91CF91E9
:101AF0001F910F91FF90EF90DF90CF90BF90AF902C
:101B000008952EED32E0FC01318320830E94CC0A3F
:101B100084B18C7F84B985B1836085B90895CF93F2
:101B2000DF93EC01E881F9816E857F85068CF78D66
:101B3000E02D09951D821C821F821E82DF91CF91AC
:101B40000895CF93DF93CDB7DEB761970FB6F894C2
:101B5000DEBF0FBECDBF0E94EA013CED232E31E077
:101B6000332E40EF442E41E0542E3E0124E0620E1D
:101B7000711C08E012E05AE1E52E52E0F52E60E318
:101B8000C62E62E0D62E7CE4A72E72E0B72EEDE6DC
:101B90008E2EE2E09E2E84EF92E00E948F0D81E275
:101BA00091E00E945F0F89E391E00E945F0F86E061
:101BB00093E00E94C10B8823D1F382E591E00E945B
:101BC0005F0F86E093E00E94130B882319F084E6F0
:101BD00091E002C085E791E00E945F0F86E093E00C
:101BE0000E94F30B882339F01F928F938AE891E0CB
:101BF0009F938F9377C086EA91E00E945F0F809158
:101C00000D038F701F928F938AEB91E09F938F93B8
:101C10000E94480F80910D03807F0F900F900F90CE
:101C20000F9019F086E091E002C084E191E09F936B
:101C30008F938FEC91E09F938F930E94480F66E003
:101C400073E0CE0101960E94240D89811F928F932B
:101C50003F922F920E94480F8B818F938A818F939E
:101C60005F924F920E94480F7F926F921F930F9343
:101C70000E94480F8A851F928F93FF92EF920E94D5
:101C8000480F8E858F938D858F938C858F938B8551
:101C90008F93DF92CF920E94480F8F852889922FD1
:101CA0009F709C012F7033273F932F9324E09595CD
:101CB00087952A95E1F79F938F93BF92AF920E94E9
:101CC000480F0FB6F894DEBF0FBECDBF988992952E
:101CD0009F70898987708295807F892B1F928F934F
:101CE0009F928F920E94480F0F900F900F900F902D
:101CF00084E892E00E945F0F86E093E00E94C10BAF
:101D00008111FACF48CFFC01758364830895FC01EB
:101D1000778366830895FC017583648357834683C4
:101D20000895FC01848195810895FC018681978145
:101D30000895FC01758764870895FC01778766879D
:101D40000895FC0184850895FC0186850895FC01B1
:101D50008381089584EF92E00C94A308FC018781AD
:101D6000089586E093E00C94810D991B79E004C0FE
:101D7000991F961708F0961B881F7A95C9F78095CA
:101D80000895AA1BBB1B51E107C0AA1FBB1FA617C2
:101D9000B70710F0A61BB70B881F991F5A95A9F714
:101DA00080959095BC01CD010895A1E21A2EAA1B41
:101DB000BB1BFD010DC0AA1FBB1FEE1FFF1FA217FB
:101DC000B307E407F50720F0A21BB30BE40BF50BF8
:101DD000661F771F881F991F1A9469F76095709581
:101DE000809590959B01AC01BD01CF010895EE0F48
:101DF000FF1F0590F491E02D09940F931F93CF934B
:101E0000DF93EC018B01009731F46115710519F432
:101E1000E0E0F0E037C06EE070E081E090E00E942A
:101E20006B11FC010097A1F380E883830115110574
:101E300071F01387028781E8838380910E0390916C
:101E40000F03892B21F4F0930F03E0930E032097E7
:101E5000C9F0D187C087838182608383809110031A
:101E600090911103892B71F4F0931103E093100307
:101E70008091120390911303892B21F4F0931303A3
:101E8000E0931203CF01DF91CF911F910F9108953D
:101E9000A2E0B0E0EEE4FFE00C947713FE01379689
:101EA00061917191FA83E983AF0180911003909160
:101EB00011030E948E0F2296E2E00C9493130F936D
:101EC0001F93CF93DF938C01E0911003F0911103E6
:101ED000838181FF1BC0C0E0D0E005C00995892B3C
:101EE00011F0CFEFDFEFF80181918F0160911003C6
:101EF00070911103DB011896ED91FC9119978111F6
:101F0000EDCF8AE00995892B09F402C0CFEFDFEF0E
:101F1000CE01DF91CF911F910F910895ACE0B0E019
:101F2000E4E9FFE00C9467137C016B018A01FC017A
:101F300017821682838181FFC7C188248394912CE4
:101F40008C0E9D1EF7019381F60193FD859193FF01
:101F500081916F01882309F4B3C1853239F493FD6F
:101F6000859193FF81916F01853229F4B70190E04B
:101F70000E94DD12E7CF712C312C20E02032A8F432
:101F80008B3261F028F4803251F0833271F40BC04F
:101F90008D3239F0803349F4216028C022602460FA
:101FA00025C0286023C0206121C027FD27C0382F0D
:101FB00030533A3078F426FF06C0FAE07F9E300DA9
:101FC0001124732E13C08AE0389E300D1124332E55
:101FD00020620CC08E3221F426FD72C1206406C03E
:101FE0008C3611F4206802C0883641F4F60193FD66
:101FF000859193FF81916F018111C0CF982F9554E6
:10200000933018F09052933028F40C5F1F4FFFE389
:10201000F9830DC0833631F0833771F0833509F0D1
:102020005EC023C0F801808189830E5F1F4F662444
:102030006394712C540115C02801F2E04F0E511C1D
:10204000F801A080B18026FF03C0672D70E002C0B8
:102050006FEF7FEFC5012C870E94D2123C018201F5
:102060002C856FE7262E222218C02801F2E04F0EA1
:10207000511CF801A080B18026FF03C0672D70E0DD
:1020800002C06FEF7FEFC5012C870E94C0123C0198
:102090002C8550E8252E222A820123FC1CC006C074
:1020A000B70180E290E00E94DD123A94832D90E027
:1020B00068167906A8F30FC0F50127FC859127FE65
:1020C00081915F01B70190E00E94DD1231103A94D6
:1020D000F1E06F1A71086114710471F7EEC0843673
:1020E00011F0893641F5F80127FF07C06081718141
:1020F000828193810C5F1F4F08C0608171818827A6
:1021000077FD8095982F0E5F1F4F4FE6642E622259
:1021100097FF09C090958095709561957F4F8F4F7F
:102120009F4FF0E86F2A2AE030E0A4010E940913D3
:10213000A82EA81844C0853731F43FEEB32EB22242
:102140002AE030E024C099EFB92EB2228F36B9F0E0
:1021500020F4883509F0B4C00DC0803721F08837ED
:1021600009F0AEC002C020E1B22AB4FE0BC084E088
:10217000B82A08C024FF09C0E6E0BE2A06C028E04D
:1021800030E005C020E130E002C020E132E0F8019B
:10219000B7FE07C060817181828193810C5F1F4F00
:1021A00006C06081718180E090E00E5F1F4FA40146
:1021B0000E940913A82EA8188FE7682E6B2066FED0
:1021C0000BC0362D3E7FA71450F464FE0AC062FC9B
:1021D00008C0362D3E7E05C0BA2C362D03C0BA2C61
:1021E00001C0B72C34FF0DC0FE01EA0DF11D808146
:1021F000803311F4397E09C032FF06C0B394B39422
:1022000004C0832F867809F0B39433FD14C030FFE7
:102210000FC07A2CB31460F4730C7B18B32C08C075
:10222000B70180E290E03C870E94DD12B3943C85C8
:10223000B314B0F304C0B31410F43B1801C0312C34
:1022400034FF12C0B70180E390E03C870E94DD12AA
:102250003C8532FF1EC031FF03C088E590E002C01C
:1022600088E790E0B7010CC0832F867891F031FDAC
:1022700002C080E201C08BE237FD8DE2B70190E041
:102280000E94DD1206C0B70180E390E00E94DD12DB
:102290007A94A714C0F3AA94F401EA0DF11DB701D2
:1022A000808190E00E94DD12A110F5CF06C0B70139
:1022B00080E290E00E94DD123A943110F8CF42CED5
:1022C000F7012681378102C02FEF3FEFC9012C961D
:1022D000E2E10C9483130F931F93CF93DF93689FD6
:1022E0008001699F100D789F100D1124C8010E9474
:1022F0008911C82FD92F209731F0A80160E070E034
:102300008C2F0E94CB12CE01DF91CF911F910F91A4
:1023100008950F931F93CF93DF938230910510F4AC
:1023200082E090E0E0911603F091170320E030E0A6
:10233000C0E0D0E023C04081518148175907A8F080
:102340004817590761F482819381209719F09B8384
:102350008A832EC0909317038093160329C02115FA
:10236000310529F04217530710F0A90102C0BE0140
:10237000DF0102811381EF019A01F8013097D9F64C
:102380002115310509F1281B390B2430310590F452
:1023900012968D919C9113976115710521F0FB01A7
:1023A0009383828304C09093170380931603FD01E7
:1023B000329644C0FD01E20FF31F819391932250A6
:1023C00031092D933C933AC02091140330911503A9
:1023D000232B41F420910201309103013093150326
:1023E0002093140320910001309101012115310542
:1023F00041F42DB73EB74091040150910501241BD3
:10240000350BE0911403F0911503E217F307A0F4E4
:102410002E1B3F0B2817390778F0AC014E5F5F4F3A
:102420002417350748F04E0F5F1F50931503409354
:1024300014038193919302C0E0E0F0E0CF01DF91BB
:10244000CF911F910F910895EF92FF920F931F93D9
:10245000CF93DF93009709F48EC0DC011297139697
:102460001C921E921297E0901603F0901703E1144D
:10247000F10489F42D913C911197280F391F809117
:102480001403909115038217930789F5B0931503F0
:10249000A093140370C0E70120E030E001C0EA011E
:1024A000CA17DB0738F44A815B819E01411551054B
:1024B000B1F722C0AC0142505109FA01D383C28363
:1024C00000811181BC01600F711F6C177D0761F4E1
:1024D00068817981600F711F6E5F7F4F71836083A8
:1024E0006A817B81738362832115310529F4B0935E
:1024F0001703A09316033FC0F901B383A283E90138
:1025000049915991C40FD51FAC17BD0771F4DC0177
:102510009E918E91840F951F0296918380831296CF
:102520008D919C91139793838283A0E0B0E002C0C9
:10253000D7017C01F701828193810097C9F7C70118
:10254000029620813181820F931F209114033091D4
:1025500015032817390779F4109729F410921703F7
:102560001092160304C013961C921E921297F092BA
:102570001503E0921403CDB7DEB7E6E00C948F1399
:10258000FC010590615070400110D8F7809590953E
:102590008E0F9F1F0895DC0101C06D934150504084
:1025A000E0F70895FC016150704001900110D8F7E8
:1025B000809590958E0F9F1F08950F931F93CF9333
:1025C000DF938C01EB018B8181FD03C00FEF1FEFC7
:1025D0001AC082FF0DC02E813F818C819D812817FA
:1025E000390764F4E881F9810193F983E88306C02F
:1025F000E885F985802F0995892B41F78E819F8188
:1026000001969F838E83C801DF91CF911F910F9117
:102610000895FA01AA27283051F1203181F1E89478
:102620006F936E7F6E5F7F4F8F4F9F4FAF4FB1E0C5
:102630003ED0B4E03CD0670F781F891F9A1FA11DC0
:10264000680F791F8A1F911DA11D6A0F711D811DC1
:10265000911DA11D20D009F468943F912AE0269F86
:1026600011243019305D3193DEF6CF010895462FE5
:102670004770405D4193B3E00FD0C9F7F6CF462FC6
:102680004F70405D4A3318F0495D31FD405241932F
:1026900002D0A9F7EACFB4E0A695979587957795EC
:1026A0006795BA95C9F700976105710508959B0173
:1026B000AC010A2E06945795479537952795BA95FC
:1026C000C9F7620F731F841F951FA01D08952F92D5
:1026D0003F924F925F926F927F928F929F92AF92B2
:1026E000BF92CF92DF92EF92FF920F931F93CF93FF
:1026F000DF93CDB7DEB7CA1BDB0B0FB6F894DEBF96
:102700000FBECDBF09942A88398848885F846E84BB
:102710007D848C849B84AA84B984C884DF80EE8005
:10272000FD800C811B81AA81B981CE0FD11D0FB60E
:10273000F894DEBF0FBECDBFED010895F894FFCF32
:10274000000018032000426C6F636B2061646472A8
:102750006573730042797465206164647265737394
:10276000002A2A2A205344206C69627261727920FF
:1027700074657374202A2A2A0057616974696E6728
:1027800020666F7220534420696E736572742E2E1A
:102790002E00534420436172642064657465637441
:1027A0006564210057726974652D70726F7465637A
:1027B00074656421004E6F742077726974652D70A2
:1027C000726F7465637465642E00496E6974696123
:1027D0006C697365206661696C65642077697468EB
:1027E000202564210A00496E697469616C6973650A
:1027F00020737563636565642100534420436172EF
:10280000642076657273696F6E3A2025640A004110
:102810006464726573733A2025730A004D616E75A6
:10282000666163747572652049443A2025750A0013
:102830004F454D2F4170706C69636174696F6E20F4
:1028400049443A2025750A0050726F6475637420FC
:102850006E616D653A2025730A0050726F6475636E
:1028600074207265766973696F6E3A2025750A0067
:1028700050726F647563742073657269616C206E49
:10288000756D6265723A20256C750A004D6175663A
:102890006163747572696E6720646174653A203291
:1028A00030253032642D30253031640A00435243E4
:1028B0003720636865636B73756D3A203078253017
:1028C00032580A0052656D6F766520534420746F4C
:1028D0002072756E20616761696E2E2E2E000000D9
:1028E0000000830E870E8B0E910E950E990E9D0E95
:1028F000A10EA40E2908A70E57088F0DAC042704BB
:10290000EE07C40644067103A902AF05E9051707DF
:10291000CE074E0799077E085A0800000000F30B07
:10292000C10B130BAE0E240D110B160BE30A590B42
:04293000840BB90B50
:00000001FF
