:100000000C94C1010C94E9010C94E9010C94E901F0
:100010000C94E9010C94E9010C94E9010C94E901B8
:100020000C94E9010C94E9010C94E9010C94E901A8
:100030000C94E9010C94E9010C94E9010C94E90198
:100040000C94E9010C94E9010C94E9010C94E90188
:100050000C94E9010C94E9010C94E9010C94E90178
:100060000C94E9010C94E9010C94E9010C94E90168
:100070000C94E9010C94E9010C94E90102000000E0
:1000800000000001222020200000200152505000DA
:10009000000000015250F850F85050012278A07032
:1000A00028F02001C2C81020409818016290A0409A
:1000B000A89068016220400000000001122040402A
:1000C0004020100142201010102040010220A87092
:1000D000A8200001022020F82020000102000000DA
:1000E00000602041020000F8000000010200000052
:1000F000006060010208102040800001728898A80A
:10010000C8887001226020202020700172880810A9
:100110002040F801FA102010088870011230509029
:10012000F8101001FA80F00808887001324080F061
:1001300088887001FA081020404000017288887099
:1001400088887001728888780810600102606000F9
:100150006060000102606000602040011220408069
:10016000402010010200F800F800000142201008B1
:100170001020400172880810200020017288086851
:10018000A8A8700172888888F8888801F28888F0A9
:100190008888F0017288808080887001E290888869
:1001A0008890E001FA8080F08080F801FA8080F089
:1001B00080808001728880B8888878018A8888F871
:1001C0008888880172202020202070013A101010A9
:1001D000109060018A90A0C0A090880182808080E9
:1001E0008080F8018AD8A8A8888888018A88C8A849
:1001F000988888017288888888887001F28888F0D9
:100200008080800172888888A8906801F28888F0D0
:10021000A09088017A8080700808F001FA202020E0
:10022000202020018A888888888870018A888888A8
:10023000885020018A8888A8A8A850018A88502060
:10024000508888018A88885020202001FA081020D0
:100250004080F801724040404040700102804020E0
:100260001008000172101010101070012250880048
:1002700000000001020000000000F8014220100010
:100280000000000102007008788878018280B0C800
:100290008888F00102007080808870010A086898E0
:1002A0008888780102007088F8807001324840E048
:1002B0004040400102788888780870018280B0C888
:1002C00088888801220060202020700112003010F0
:1002D00010906001828090A0C0A090016220202038
:1002E000202070010200D0A8A8A8A8010200B0C870
:1002F0008888880102007088888870010200F08870
:10030000F080800102006898780808010200B0C8F7
:1003100080808001020070807008F0014240E0405F
:100320004048300102008888889868010200888867
:100330008850200102008888A8A850010200885037
:100340002050880102008888780870010200F810A7
:100350002040F801122020402020100122202020DF
:10036000202020014220201020204001020068901F
:100370000000000102000000000000010410F21063
:10038000481111241FBECFEFD0E1DEBFCDBF18E072
:10039000A0E0B1E0E0E6FFE202C005900D92AC35CE
:1003A000B107D9F719E0ACE5B8E001C01D92AD3254
:1003B000B107E1F713E0C2E8D3E004C02297FE01E1
:1003C0000E94AD12CC37D107C9F70E94410E0C94A0
:1003D000AE170C9400000E94DC0C0E94D403909392
:1003E0002609809325090E94C90C119A0895AF929D
:1003F000BF92CF92DF92EF92FF920F931F93CF9312
:10040000DF93E90158010E9416106CE281E00E941E
:10041000D40C12C06F2D80E00E94D40C6E2D80E0B1
:100420000E94D40C8FEFC81AD80A02C0C12CD12C5C
:10043000CA14DB0479F721972097C1F7DF91CF9198
:100440001F910F91FF90EF90DF90CF90BF90AF90F2
:1004500008952F923F924F925F926F927F928F9268
:100460009F92AF92BF92CF92DF92EF92FF920F9343
:100470001F93CF93DF935C014B016A01E90162177F
:10048000730771F40417150730F4C026D1260C2524
:100490001D25C026D1260C191D0921E030E011C010
:1004A00040175107A1F42617370730F48226932608
:1004B000C825D9258C269D269E012819390901E0D9
:1004C00010E0A601B401C5010E94F7017CC029011A
:1004D000461A570A57FE03C05194419451083801F7
:1004E0006C187D0877FE03C07194619471084614FE
:1004F0005704A8F50C151D0560F48C269D26C8250B
:10050000D9258C269D26C026D1260C251D25C02642
:10051000D12620E030E080E090E017C0B3010E94D7
:100520003912FB01E80DF91DC901B3010E9439120E
:10053000E61BF70B9701A601BF01C5010E946110E0
:100540008FEFC81AD80A9101C2012C014C0E5D1E12
:100550001901280C391C0C151D0500F734C0C815ED
:10056000D90560F48C269D26C825D9258C269D2684
:10057000C026D1260C251D25C026D12620E030E03E
:1005800080E090E017C0B2010E943912FB01EC0D2F
:10059000FD1DC901B2010E943912E61BF70B97013C
:1005A000AF01B401C5010E9461108FEF881A980A4B
:1005B0009101C3013C01600E711E19012C0C3D1C00
:1005C000C815D90500F7DF91CF911F910F91FF90CA
:1005D000EF90DF90CF90BF90AF909F908F907F90E3
:1005E0006F905F904F903F902F9008952F923F9281
:1005F0004F925F926F927F928F929F92AF92BF9233
:10060000CF92DF92EF92FF920F931F93CF93DF93DE
:1006100000D000D000D0CDB7DEB79E838D835B01C4
:100620004A013A8329831C830B836E2C712C190198
:10063000261837087601830191010E94F7014B804B
:100640005C804618570869817A816A0D7B1D66199E
:10065000770982019301A4018D819E810E94F70197
:10066000A301480D591D9301B5018D819E810E9402
:10067000F7014B815C81480D591D46195709B3019B
:100680006A0D7B1D830191018D819E810E94F7017E
:1006900026960FB6F894DEBF0FBECDBFDF91CF9187
:1006A0001F910F91FF90EF90DF90CF90BF90AF9090
:1006B0009F908F907F906F905F904F903F902F9082
:1006C0000895DF92EF92FF920F931F93CF93DF93E2
:1006D000EC01E62E288188E0289F8001112486E025
:1006E000289F900111244C815D816A817B81CE011C
:1006F0000E9416106CE281E00E94D40CF12C0E2DA9
:10070000112707FD10950052110983E0000F111FFA
:100710008A95E1F736C08F2D0E942D12F801E80F5F
:10072000F11DE458FF4FD490E12C20C0D7FE06C045
:100730006B8580E00E94D40C6A8505C06D8580E0E1
:100740000E94D40C6C8580E00E94D40C48818E2DD0
:10075000642F0E942D12292F30E0642F70E0615029
:1007600071092617370709F4DD0CE39428814E2D13
:1007700050E086E0289F9001112442175307B4F2FD
:10078000F39468814F2D50E088E0689F9001112418
:10079000421753070CF4BFCFDF91CF911F910F91F8
:1007A000FF90EF90DF9008958091A8089091A9089C
:1007B000892B51F460E070E08AEC90E10E940D1307
:1007C0009093A9088093A8088091A8089091A908FF
:1007D00008950E948E0D8F3FE1F708951F93CF93E8
:1007E000DF93EC0115E60E948E0D88838F3F11F494
:1007F0001150C9F7DF91CF911F910895CF93DF93E7
:1008000000D000D000D0CDB7DEB72E834D835C83FF
:100810006B837A8389830E94E903898180640E94C3
:10082000950D7A81872F0E94950D6B81862F0E94EE
:10083000950D5C81852F0E94950D4D81842F0E941E
:10084000950D2E81822F880F816026960FB6F89421
:10085000DEBF0FBECDBFDF91CF910C94950DFC0193
:10086000DB018C9190E026E0959587952A95E1F73C
:10087000837040814C7F482B408311968C91119757
:10088000818312968C911297828313968C91139781
:10089000838315968C91159790E034E09595879514
:1008A0003A95E1F714962C91149750E1259F900109
:1008B0001124822B932B84839F708581807F892BC9
:1008C000858315969C9115979295907F8F70892BB3
:1008D000858316968C91169790E0880F892F881F34
:1008E000990B568180FB50F9568316968C9116977A
:1008F00090E066E0959587956A95E1F780FB51F960
:10090000568316968C91169790E075E0959587958D
:100910007A95E1F780FB52F9568316968C911697DB
:1009200090E024E0959587952A95E1F780FB53F9AF
:100930005683437018962C91189717968C91179799
:1009400030E0411177C066E0359527956A95E1F76B
:1009500044E0849FC0011124282B392B16964C911A
:1009600016974370942F990F990F80E0282B392BFD
:10097000442737FD4095822F8295807F5F70582BEA
:100980005683932F9295907F822F82958F70892B1B
:100990008783942F9295907F832F82958F70892BD8
:1009A0008087942F9295937081858C7F892B818786
:1009B00018969C91189796959C71837E892B8187B8
:1009C00018969C9118979295990F907E8F71892B0C
:1009D000818719968C91199790E075E09595879588
:1009E0007A95E1F787709285987F982B9287199670
:1009F0008C911997880F8873977C982B92871A96F9
:100A00008C911A97881F8827881F19962C911997FF
:100A1000220F820F282F2295220F220F207C9F73F6
:100A2000922B928782FB882780F993859E7F982B53
:100A3000938726C040E0432F322F2227482B199658
:100A40008C911997282B822F8295807F5F70582B6D
:100A50005683932F9295907F822F82958F70892B4A
:100A60008783942F9295907F832F82958F70892B07
:100A70008087942F9295937081858C7F892B8187B5
:100A80001A968C911A9790E026E0959587952A956D
:100A9000E1F7938580FB91F993871B962C911B9727
:100AA000221F2227221F1A968C911A97880F822BB9
:100AB000282F220F220F9370922B938786FB992762
:100AC00090F984858E7F892B84871B969C911B9738
:100AD000990F8170892B84871C968C911C9790E0CC
:100AE000880F892F881F990B358580FB30F9358752
:100AF0001C968C911C9786958E70317F382B35878C
:100B00001D962C911D9722952695269523701C964F
:100B10008C911C9754E0859FC0011124282B2295AD
:100B2000207F3F70322B35871D968C911D9790E06A
:100B300045E0959587954A95E1F7268580FB20F954
:100B400026871E968C911E9790E0880F892F881F0C
:100B5000990B80FB21F926871E968C911E9790E0B9
:100B600066E0959587956A95E1F780FB22F92687DF
:100B70001E968C911E9790E075E0959587957A95D5
:100B8000E1F780FB23F926871E968C911E9790E053
:100B900034E0959587953A95E1F780FB24F926870F
:100BA0001E968C911E97880F880F880F80762F795C
:100BB000282B26871F968C9190E09595879580FB32
:100BC00027F92687969587958F739785907C982B24
:100BD00097870895CF93DF93FC01DB018C9180838D
:100BE00012969C91129780E011962C911197820F8A
:100BF000911D928381836D5F7F4F80E090E0EB01D8
:100C00004991BE019F01280F391FE9014B830196CD
:100C100085309105A1F718968C91189780871186D9
:100C2000128613861486ED01299684E0418552854B
:100C300063857485762F652F542F4427418752870B
:100C4000638774879991492B41875287638774879B
:100C5000815061F71D969C911D9780E01E962C9106
:100C60001E97820F911D8587892F8F702685207F83
:100C7000282B26871F968C9190E095958795382F85
:100C80003295307F2F70232B268744E096958795E9
:100C90004A95E1F787709785987F982B9787DF9122
:100CA000CF910895CF92DF92EF92FF920F931F930F
:100CB000CF93DF93CDB7DEB7A0970FB6F894DEBF22
:100CC0000FBECDBF8C01FC01158A87EB9BE001971D
:100CD000F1F700C0000082E58CBD8DB581608DBD4F
:100CE0002C9A2AE0F22E0E948E0DFA94E1F72C98AD
:100CF0000E94E9032AE440E050E0BA0180E00E944B
:100D0000FE03780190E1E90EF11CC7010E94EE0399
:100D1000813009F0ACC023E44AEA51E060E070E0C1
:100D200088E00E94FE0365E0C8010E941611813030
:100D3000A1F5F8018389813009F09BC084898A3A42
:100D400009F097C02FEF40E050E0BA0187E30E941E
:100D5000FE030E94E9032FEF40E050E060E070E402
:100D600089E20E94FE03C7010E94EE03813051F325
:100D70002FEF40E050E0BA018AE30E94FE0365E0F5
:100D8000C8010E941611F801818986FF03C082E123
:100D9000858B39C082E0F8012DC02FEF40E050E094
:100DA000BA0187E30E94FE030E94E9032FEF40E0AF
:100DB00050E0BA0189E20E94FE03C7010E94EE03DF
:100DC0008E7F31F4F8018089813039F381E012C0DF
:100DD0002FEF40E050E0BA0181E00E94FE03C7011E
:100DE0000E94EE038E7F09F046C0F80180898130B1
:100DF00079F383E0858B2FEF40E052E060E070E014
:100E000080E10E94FE0380E58CBD8DB581608DBDC3
:100E10002FEF40E050E0BA0189E00E94FE0362E05B
:100E2000C8010E941611811128C07E01F1E1EF0E68
:100E3000F11C6E0181E2C80ED11C61E0C8010E9464
:100E40001611F70181937F01EC15FD05B1F7BE0185
:100E50006F5E7F4FCE0101960E942F0480E1FE015C
:100E60003196D80101900D928A95E1F706C081E094
:100E700005C082E003C08FEF01C080E0A0960FB6EE
:100E8000F894DEBF0FBECDBFDF91CF911F910F91C0
:100E9000FF90EF90DF90CF900895199B05C02FEF42
:100EA000FC01258B80E00895FFEF22E537E0F1504B
:100EB00020403040E1F700C0000083B19FE7E9EA3D
:100EC000F3E09150E040F040E1F700C0000093B142
:100ED000917081709813F1CF81E008950F931F9363
:100EE000FC018181028110E020E030E098011127AF
:100EF0000027182B8081082B8381382BB801C9016A
:100F00001F910F9108951F93CF93DF93EC0115E686
:100F10000E948E0D88838F3F11F41150C9F7DF9125
:100F2000CF911F9108950F931F93CF93DF93D62FE7
:100F3000172FC82F092F0E948E0D8F3FE1F781E5F3
:100F40000E94950D802F0E94950D8C2F0E94950D6B
:100F5000812F0E94950D8D2F0E94950D8FEFDF91AF
:100F6000CF911F910F910C94950D80E090E0089522
:100F70004F925F926F927F928F929F92BF92CF9289
:100F8000DF92EF92FF920F931F93CF93DF93CDB732
:100F9000DEB7D2500FB6F894DEBF0FBECDBF7C01D6
:100FA0008B01C12CD12C26E02C9DC0012D9D900DD4
:100FB00011248F5F964F0817190709F451C04FEF9E
:100FC000C41AD40A84E0C816D10471F7EDC0F80140
:100FD00024813581C9018F70992745E0880F991FB9
:100FE0004A95E1F7E1E0F0E0EC0FFD1FE80FF91F93
:100FF0004081442309F4D8C0453E09F05DC0C901D1
:101000000196D80115969C938E9314979C012F708E
:101010003327232BE1F6F70120A5F0E12F9F900164
:10102000112482179307E1F415961C921E921497CF
:101030004D915D916D917C91C7010E949711D801EE
:101040006D937D938D939C931397693F7F4F8F4F43
:101050009F4030F087E0F701878B20E030E0ACC0A4
:10106000F701A0A5F80120813181428153812250EE
:10107000310941095109B0E00E942212AB01BC01C3
:101080008481958124E0969587952A95E1F7480F0C
:10109000591F611D711DF701808D918DA28DB38D3A
:1010A000480F591F6A1F7B1F9E012F5F3F4F8AEA1F
:1010B00098E00E9458118BCFACE0B0E0AC0FBD1FA0
:1010C000A80FB91FBC90B8E0BB1609F498CF4FE049
:1010D000B41609F494CF64E0CC0CDD1C6A95E1F7FA
:1010E00071EC872E78E0972E8C0C9D1C9E01280FAA
:1010F000391FD90155967C90559756964C91569725
:1011000050E060E070E0762F652F542F4427470DA4
:10111000511D611D711DBA01552744275B962C9105
:101120005B97420F511D611D711D5C963C9120E043
:101130002901662457FC6094762C440D551D661DCC
:10114000771DD4014D935D936D937C931397149603
:10115000BC924BE050E0BF01C6018A53974F0E94FA
:10116000D712F80184819581019695838483D701F4
:1011700098962C91B0E12B9F900111248217930730
:10118000C1F4158214824081518162817381C7014B
:101190000E949711F8016083718382839383693F72
:1011A0007F4F8F4F9F4028F087E0D70157968C9351
:1011B00054CF96012F53374FC901DE5F0FB6F89415
:1011C000DEBF0FBECDBFDF91CF911F910F91FF907A
:1011D000EF90DF90CF90BF909F908F907F906F9017
:1011E0005F904F90089520E030E0E6E0E29FA0019C
:1011F000E39F500D11244F5F564F6417750731F070
:101200002F5F3F4F2430310589F70FC081E090E018
:10121000022E01C0880F0A94EAF780959091C008C9
:1012200098239093C00880E0089527E0FC01278B65
:1012300081E008958F929F92BF92CF92DF92EF92BA
:10124000FF920F931F93CF93DF938C01CB010097F5
:1012500029F485E0D80157968C9375C04091C00859
:1012600050E020E030E0B22EBA01022E02C07595A7
:1012700067950A94E2F760FD0AC046E0429FE001EC
:10128000439FD00D1124CF5FD64F41F405C02F5F8F
:101290003F4F2430310539F786E053C0D80190968E
:1012A0004D915D916D917C919397488359836A83A9
:1012B0007B831D821C826DE478E02FC0D7010D90E6
:1012C0000020E9F76D0181E0C81AD108CE18DF08C7
:1012D000A601B701C40105960E94BF12892B41F5F2
:1012E00080E090E007C00196F401E20FF11D258136
:1012F0002032F1F42C2D280F2B30A8F3D4014D917E
:101300005D916D917C91488359836A837B831D82B3
:101310001C826DE478E080E090E00E94B1127C01D4
:10132000009731F48091C0088B298093C0080DC0CC
:10133000BE01C8010E94B8074C01009709F0BECF5A
:1013400085E0F801878BC0E0D0E0CE01DF91CF913E
:101350001F910F91FF90EF90DF90CF90BF909F90E3
:101360008F9008952F923F924F925F926F927F924B
:101370008F929F92AF92BF92CF92DF92EF92FF92A5
:101380000F931F93CF93DF9300D01F92CDB7DEB79B
:101390007C011982BE016F5F7F4F0E941A098C0188
:1013A000B801C7010E94B8075C0160E578E00596C6
:1013B0000E94B6120097A1F7F701A0A5F5012081C0
:1013C0003181428153812250310941095109B0E0F4
:1013D0000E942212AB01BC01F701808D918DA28D7C
:1013E000B38D480F591F6A1F7B1F8AEA98E00E943D
:1013F00080111AE00E948E0D1150E1F70E948E0DAF
:10140000182F0E948E0DD82E0E948E0D482E512C22
:10141000612C712C3201552444245D28412A0E94FC
:101420008E0D8201BEE0DB2E03C00E948E0DD39490
:101430008D2D90E080179107C0F380919B0881303B
:1014400041F028F0823039F0833051F406C084E056
:1014500005C085E003C086E001C087E00E94F81166
:101460008AE998E00E94510D6CE281E00E94D40C60
:10147000E0EF8E2E912CCC24C394D12CAFC09801D8
:101480002D5F3F4F2130F2E03F0768F44FC0452CFD
:10149000562C672C77242B833A830E948E0D682A62
:1014A0002B813A8105C020E030E0412C512C3201E3
:1014B0002F5F3F4F822F800F813049F7F701A0A5A2
:1014C000F501208131814281538122503109410946
:1014D0005109B0E00E942212AB01BC01F701808DDE
:1014E000918DA28DB38D480F591F6A1F7B1F4C0D24
:1014F0005D1D611D711DFFEFCF1ADF0A8AEA98E0BA
:101500000E9480110D5F114020E00AC0452C562C2E
:10151000672C77242B830E948E0D682A2B812F5FE6
:10152000822F90E08017910788F316C02B833A83AF
:101530000E948E0D182F0E948E0D082F0E948E0D76
:10154000482E512C612C712C320155244424502AF0
:10155000412A2B813A818901D301C20188279C7FCE
:10156000AA27BB2765E0B695A795979587956A95B5
:10157000D1F7B301A20144275527687F7727452F6C
:10158000562F672F77279C01240F351F88EF48229D
:10159000552466247724F3E076946794579447940F
:1015A000FA95D1F7240D351DC901A0E0B0E0692FEF
:1015B0007A2F8B2F992780E02B833A830E94D40CBB
:1015C0002B81622F80E00E94D40CE1E02E1A3108BA
:1015D00009F055CFF1E08F1A910829F050E4252E3B
:1015E000332433944CCF0E948E0D8F3FE1F78091CE
:1015F0009B080E94F8110F900F900F90DF91CF91F0
:101600001F910F91FF90EF90DF90CF90BF90AF9020
:101610009F908F907F906F905F904F903F902F9012
:101620000895CF92DF92EF92FF920F931F93CF9383
:10163000DF93CDB7DEB7D2500FB6F894DEBF0FBE42
:10164000CDBF8C017B01FC01168AFB0180818B5090
:10165000823010F082E026C0FB014181528163811B
:1016600074819E012F5F3F4F8AEA98E00E945811D3
:10167000C150DE4F8881CF5FD140853539F4C050ED
:10168000DE4F8881C050D2408A3A11F083E00AC010
:101690008C85811106C08D85823019F4898982304C
:1016A00021F084E0F801868B3CC08E85F80180A78C
:1016B000CE018D960E946E07F80160A371A382A3EC
:1016C00093A38F85F701C180D280E380F480C80E98
:1016D000D11CE11CF11C988980E0AA2797FDA095F8
:1016E000BA2FC80ED91EEA1EFB1EF801C48ED58E75
:1016F000E68EF78ECE0185960E946E07F80164A3F0
:1017000075A386A397A3DC01CB01880F991FAA1F9D
:10171000BB1F8C0D9D1DAE1DBF1D808F918FA28F95
:10172000B38FDE5F0FB6F894DEBF0FBECDBFDF9183
:10173000CF911F910F91FF90EF90DF90CF90089580
:1017400080EC8093800010928200E1E8F0E080E17C
:10175000808380818260808310926F001092850068
:1017600010928400109287001092860010928900D7
:1017700010928800559A08959C0140E050E060EB7B
:1017800071E78BE090E00E946112C90130938700FD
:101790002093860096958795909389008093880082
:1017A00087EC9FEA0197F1F700C000000C94100C41
:1017B000E0EBF0E080EC8083808180638083808137
:1017C0008360808381E08093B1001092B600109214
:1017D00070001092B2008FEF8093B3008AB1806CDA
:1017E0008AB90895E82F282F30E081E0829FA00178
:1017F000839F500D521B1124CA0184569C4924E634
:1018000030E0B9010E944D126093B3004FEFE49FA6
:10181000C0011124B9010E944D126093B4000895D3
:101820008FEF8093B3008093B4000895E0911C097A
:10183000F0911D0980911E0990911F0901969093C6
:101840001F0980931E09E80FF91F80818823F1F199
:10185000873421F164F48334C9F02CF4813401F12C
:101860008234B9F51FC08534A9F0B4F411C08436B0
:1018700079F034F48236B1F04CF4813651F510C071
:10188000863651F03CF0873621F508C09AE10BC04E
:101890009CE109C09EE107C09FE105C091E203C041
:1018A00093E201C095E2909320098B352CF0809152
:1018B0002009845F80932009E0912009F0E0EE0F79
:1018C000FF1FE050FF4F2081318105C020E030E054
:1018D00002C022E030E0C9010895009711F40C9491
:1018E000160C90931D0980931C0910921F091092E9
:1018F0001E0980E090E008950E94160C90931A094A
:1019000080931909009709F43FC0029709F440C079
:101910009091960180911B09992369F0982F9F5F00
:1019200090931B090E94F20B80911B09843681F46D
:10193000109296010DC0982F915090931B090E9410
:10194000F20B80911B09811103C081E08093960105
:101950008091190990911A090E94BC0B2FEF82E522
:1019600097E0215080409040E1F700C0000085B131
:10197000805885B92FEF82E597E021508040904054
:10198000E1F700C0000008958DE991E00C946D0C22
:101990000895279A579A5F980E94A00B0E94D80B2F
:1019A0008DE991E00C946D0C8111149868B913982D
:1019B000139A8111149A08951F93CF93DF9385B7DB
:1019C000806885BF85B7806885BF8FE781B98DEF57
:1019D00082B917B88FEF88B912981098139A159A90
:1019E000149A169A28E22A95F1F7129A3FEF94E694
:1019F00024E0315090402040E1F700C0000087B95A
:101A000068E281E00E94D40C61E181E00E94D40C84
:101A10003FEF84E694E0315080409040E1F700C011
:101A2000000064E381E00E94D40C68E381E00E943E
:101A3000D40C63E181E00E94D40C60E281E00E945A
:101A4000D40C6AE381E00E94D40C65E580E00E943A
:101A5000D40C66E381E00E94D40C68E480E00E942C
:101A6000D40C6CE281E00E94D40CC0E4D1E010C040
:101A700060E080E00E94D40C60E080E00E94D40C22
:101A800060E080E00E94D40C115091F7219711F092
:101A900010EFEECF69E281E0DF91CF911F910C94BE
:101AA000D40CCF93DF93EC016AE281E00E94D40C66
:101AB00060E080E00E94D40C60E080E00E94D40CE2
:101AC0008E819F810197692F80E00E94D40C6E81E6
:101AD000615080E00E94D40C6BE281E00E94D40C43
:101AE00060E080E00E94D40C60E080E00E94D40CB2
:101AF000888599850197692F80E00E94D40C6885BC
:101B0000615080E0DF91CF910C94D40C84B1806B54
:101B100084B9269885B1806F85B908958FEF8EBD01
:101B20000DB407FEFDCF8EB508958EBD0DB407FE32
:101B3000FDCF8EB508958F929F92AF92BF92CF92B4
:101B4000DF92EF92FF920F931F93CF93DF93CDB766
:101B5000DEB7D2500FB6F894DEBF0FBECDBF8C01FA
:101B60008091BF08811102C081E04CC0F801108251
:101B70000E948E0D8F3FE1F781E50E94950D80E078
:101B80000E94950D80E00E94950D80E00E94950DC9
:101B900080E00E94950D8FEF0E94950DF5E6BF2E17
:101BA0000E948E0D8093BA088F3F19F0882359F058
:101BB00002C0BA94A9F7C150DE4F8881CF5FD140EF
:101BC0008535F9F417C00E948E0D8E3FE1F7AA24E7
:101BD000A394B12CAC0EBD1E4E01FFEF8F1AFDEF8A
:101BE0009F0A0E948E0DF50181935F01E815F905AA
:101BF000C1F7E1CFC050DE4F8881C050D2408A3A51
:101C000021F082E0F801808329C02EEB31E080E0F2
:101C100090E065E0E1E0F0E0EC0FFD1FE20FF31F64
:101C200054813C9644E0FE2CED2CDC2CCC247291AB
:101C3000C72A4150C1F7689FF001699FF00D112438
:101C40003196E00FF11F5083C182D282E382F48289
:101C50000196205F3F4F83309105E1F6DE5F0FB6BE
:101C6000F894DEBF0FBECDBFDF91CF911F910F91D2
:101C7000FF90EF90DF90CF90BF90AF909F908F90AC
:101C80000895CF93DF93CDB7DEB72C970FB6F894B6
:101C9000DEBF0FBECDBF0E94EB0150E4452E5524A0
:101CA000539460EF662E712C00EF17E01E0125E0C3
:101CB000220E311C70EE872E77E0972E82E0809303
:101CC0009A0866E381E00E94D40C68EE80E00E94EE
:101CD000D40C5092A1084092A0087092A308609280
:101CE000A20892E090939B0810929D0810929C0885
:101CF00010929F0810929E08D090A608C090A70846
:101D00008AE998E00E94510D6CE281E00E94D40CB7
:101D1000E12CF12C18C06C2D80E00E94D40C6D2DAC
:101D200080E00E94D40CEFEFAE1ABE0A02C0A12CD4
:101D3000B12C8091A2089091A308A816B90658F377
:101D4000FFEFEF1AFF0A8091A0089091A108E81612
:101D5000F90668F310929D0810929C0810929F0853
:101D600010929E0885EE96E00E946F138DEF96E02C
:101D70000E946F138AEA98E00E944D078823D1F3EE
:101D800086E197E00E946F13189B03C088E297E0FA
:101D900002C089E397E00E946F138AEA98E00E94EC
:101DA0005206882329F01F928F938EE497E0BCC0DF
:101DB0008091AA0883703091B0082091B1083295C3
:101DC0003F70422F4295407F811141C0842F832B69
:101DD00022952F703091B208432F4295407F942F67
:101DE000922B32953F702091B30823702295207F6B
:101DF000A22FA32BB0E00196A11DB11D3091B40814
:101E000032953695369533702091B5082170220FA2
:101E1000220F232B30E02E5F3F4F04C0880F991F05
:101E2000AA1FBB1F2A95D2F72091AF0822952F70C9
:101E300004C0880F991FAA1FBB1F2A95D2F74AE03A
:101E4000B695A795979587954A95D1F71FC0842F8A
:101E5000832B22952F703091B208432F4295407FFB
:101E6000942F922B32953F702091B30823702295C6
:101E7000207FA22FA32BB0E00196A11DB11D39E058
:101E8000880F991FAA1FBB1F3A95D1F72AE0B69574
:101E9000A795979587952A95D1F7BF93AF939F9371
:101EA0008F938CE697E09F938F930E94581385E859
:101EB00098E00E949B0D809185080F900F900F90E5
:101EC0000F900F900F90882329F01F928F938CE72B
:101ED00097E02AC0809186088B3009F46EC08C3060
:101EE00009F066C06AC01F928F9388E997E01CC012
:101EF00081E080939A0819821A821B821C8288E0F2
:101F0000F10111928A95E9F7BE016F5F7F4F8CE571
:101F100098E00E941A097C01009731F580917308BE
:101F20001F928F9385EB97E09F938F930E94581396
:101F30000F900F900F900F902EC0C60105969F93A3
:101F40008F938FEC97E09F938F930E945813F60125
:101F500084811F928F939F928F920E9458130FB685
:101F6000F894DEBF0FBECDBFB7018CE598E00E94AC
:101F7000B8076C01009709F7B7018CE598E00E945B
:101F8000F3088CE598E00E94B20902C00E947C0C24
:101F9000199BFCCF93CE1F930F930E9458130F9061
:101FA0000F908AEA98E00E944D078111FACF86CE01
:101FB0008AE098E00E946F13EECF83E298E00E94DF
:101FC0006F1380918A088F93809189088F938091F5
:101FD00088088F93809187088F93E8E3F8E0FF9358
:101FE000EF930E94581366E878E08CE598E00E9431
:101FF000110B809172080F900F900F900F900F901F
:102000000F90811170CF74CF85E898E00E949B0DEE
:102010000E94860D84B18C7F84B985B1836085B9B7
:102020001092710881E0809372080895BF92CF9258
:10203000DF92EF92FF920F931F93CF93DF93EB0109
:102040007A0169016AE281E00E94D40C6D2F80E080
:102050000E94D40CBC2E6C2F80E00E94D40C2197DF
:10206000CC0DDD1D6D2F80E00E94D40C6B2D6150D6
:102070006C0D80E00E94D40C6BE281E00E94D40CD5
:102080006F2D80E00E94D40CCE2D6E2D80E00E943A
:10209000D40C81E0E81AF108E00EF11E6F2D80E00B
:1020A0000E94D40C6C2F6150600F80E0DF91CF91C3
:1020B0001F910F91FF90EF90DF90CF90BF900C9405
:1020C000D40C0F931F93CF93DF93E90101E010E04D
:1020D00021E030E00E9416106CE281E00E94D40CF6
:1020E0006D2F80E00E94D40C6C2F80E0DF91CF91A7
:1020F0001F910F910C94D40CCF92DF92EF92FF922C
:102100000F931F93CF93DF93EC011B821A822881D8
:1021100088E0289F900111248C819D81820F931F5C
:102120009D838C83820F931F4885598548175907D3
:1021300040F5DC84CD84CE010E94510D6CE281E03B
:102140000E94D40C00E010E015C06C2D80E00E94CD
:10215000D40C6D2D80E00E94D40C8FEFE81AF80AA1
:1021600002C0E12CF12C88859985E816F90668F300
:102170000F5F1F4F8E819F810817190790F31D82F3
:102180001C82DF91CF911F910F91FF90EF90DF9014
:10219000CF9008958A3029F48AE998E00E947C1053
:1021A0001EC0682F8AE998E00E94610320919A0876
:1021B00086E0289F9001112480919C0890919D08B1
:1021C000820F931F90939D0880939C08820F931F0A
:1021D0004091A0085091A10848175907E8F280E003
:1021E00090E0089510929D0810929C0810929F080C
:1021F00010929E0881E080939A0880939B0880EF5C
:1022000090E09093A1088093A00880E491E09093DF
:10221000A3088093A2088FEF9FEF9093A508809367
:10222000A4081092A7081092A6080895CF92DF92F2
:10223000EF92FF920F931F93CF93DF931F92CDB72F
:10224000DEB78C01F12C13C085E6E82E6801CF0CB7
:10225000D11C80E1C80ED11C69830E948E0DF6014D
:10226000808369818F3F41F4EA94B1F705C0F6128B
:10227000EBCFF801808902C0F394F9CF0F90DF9182
:10228000CF911F910F91FF90EF90DF90CF90089525
:1022900084B1806B84B9269885B1806F85B984B18B
:1022A0008C7F84B985B1836085B91092BF08089589
:1022B0000F931F93CF93DF93EC018901CB01BA01F8
:1022C0000E949307CE0140960E948307882311F055
:1022D000888911C00E948E0D8E3FE1F7E80100E071
:1022E00010E00E948E0D89930F5F1F4F011582E051
:1022F0001807B9F780E0DF91CF911F910F910895F2
:10230000CF93DF93EC01CB01BA010E949307CE017A
:1023100040960E948307882311F0888905C00E9497
:102320008E0D8E3FE1F780E0DF91CF9108958F927F
:102330009F92AF92BF92CF92DF92EF92FF92CF9394
:10234000DF93CDB7DEB7D2500FB6F894DEBF0FBE25
:10235000CDBF4A015B016A017B0122E0CC0CDD1C90
:10236000EE1CFF1C2A95D1F739E0F694E794D79438
:10237000C7943A95D1F7FC01448D558D668D778DC4
:102380004C0D5D1D6E1D7F1D9E012F5F3F4F8AEA24
:1023900098E00E94581147E0CC0CDD1CEE1CFF1C9D
:1023A0004A95D1F7D501C4018C199D09AE09BF0921
:1023B00052E0880F991FAA1FBB1F5A95D1F721E041
:1023C00030E02C0F3D1F820F931F0E946E07DE5FCF
:1023D0000FB6F894DEBF0FBECDBFDF91CF91FF9057
:1023E000EF90DF90CF90BF90AF909F908F90089527
:1023F000CF93C82F66E381E00E94D40CC33099F0DC
:1024000020F4C13061F068F408C0C53091F068F084
:10241000C63069F0C730A1F40EC068E20DC068E4B0
:102420000BC068EE09C068E807C068E605C068EA46
:1024300003C068ED01C068E180E0CF910C94D40C3A
:10244000CF9108950E947D12A59F900DB49F900D8D
:10245000A49F800D911D11240895991B79E004C05B
:10246000991F961708F0961B881F7A95C9F78095D3
:102470000895AA1BBB1B51E107C0AA1FBB1FA617CB
:10248000B70710F0A61BB70B881F991F5A95A9F71D
:1024900080959095BC01CD01089597FB072E16F409
:1024A000009407D077FD09D00E94391207FC05D0AF
:1024B0003EF4909581959F4F0895709561957F4F5B
:1024C0000895052E97FB16F4009407D057FD0DD004
:1024D0000E94891207FC09D07EF490958095709532
:1024E00061957F4F8F4F9F4F089550954095309540
:1024F00021953F4F4F4F5F4F0895A29FB001B39F6B
:10250000C001A39F01D0B29F700D811D1124911DA8
:102510000895A1E21A2EAA1BBB1BFD010DC0AA1F24
:10252000BB1FEE1FFF1FA217B307E407F50720F03C
:10253000A21BB30BE40BF50B661F771F881F991FB7
:102540001A9469F760957095809590959B01AC0100
:10255000BD01CF010895EE0FFF1F0590F491E02D0E
:10256000099441E259E00E94E6120895FB01DC0162
:102570008D91019080190110D9F3990B0895FB01F9
:10258000DC014150504088F08D9181341CF08B3536
:102590000CF4805E619161341CF06B350CF4605E6C
:1025A000861B611171F3990B0895881BFCCFFB0109
:1025B000DC014150504048F001900D920020C9F7D5
:1025C00001C01D9241505040E0F70895FA01A191D9
:1025D000B081009719F41097E1F0CD01DC01CD0135
:1025E0000D90002011F4C00113C0FB0121912223A2
:1025F00019F02015D9F7F3CFFB012191201519F41B
:102600001E92119606C02223C1F70D900020A1F75B
:10261000D001FA01A193B08308950F931F93CF9334
:10262000DF93EC018B01009731F46115710519F40A
:10263000E0E0F0E037C06EE070E081E090E00E9402
:102640007B15FC010097A1F380E883830115110538
:1026500071F01387028781E8838380912309909129
:102660002409892B21F4F0932409E093230920976E
:10267000C9F0D187C08783818260838380912509D7
:1026800090912609892B71F4F0932609E09325098E
:102690008091270990912809892B21F4F09328092A
:1026A000E0932709CF01DF91CF911F910F910895FA
:1026B000A2E0B0E0EEE5F3E10C948717FE01379657
:1026C00061917191FA83E983AF018091250990911D
:1026D00026090E949E132296E2E00C94A3170F9302
:1026E0001F93CF93DF938C01E0912509F091260988
:1026F000838181FF1BC0C0E0D0E005C00995892B14
:1027000011F0CFEFDFEFF80181918F016091250982
:1027100070912609DB011896ED91FC9119978111B2
:10272000EDCF8AE00995892B09F402C0CFEFDFEFE6
:10273000CE01DF91CF911F910F910895ACE0B0E0F1
:10274000E4EAF3E10C9477177C016B018A01FC0148
:1027500017821682838181FFC7C188248394912CBC
:102760008C0E9D1EF7019381F60193FD859193FFD9
:1027700081916F01882309F4B3C1853239F493FD47
:10278000859193FF81916F01853229F4B70190E023
:102790000E94ED16E7CF712C312C20E02032A8F4F6
:1027A0008B3261F028F4803251F0833271F40BC027
:1027B0008D3239F0803349F4216028C022602460D2
:1027C00025C0286023C0206121C027FD27C0382FE5
:1027D00030533A3078F426FF06C0FAE07F9E300D81
:1027E0001124732E13C08AE0389E300D1124332E2D
:1027F00020620CC08E3221F426FD72C1206406C016
:102800008C3611F4206802C0883641F4F60193FD3D
:10281000859193FF81916F018111C0CF982F9554BD
:10282000933018F09052933028F40C5F1F4FFFE361
:10283000F9830DC0833631F0833771F0833509F0A9
:102840005EC023C0F801808189830E5F1F4F66241C
:102850006394712C540115C02801F2E04F0E511CF5
:10286000F801A080B18026FF03C0672D70E002C090
:102870006FEF7FEFC5012C870E94E2163C018201B9
:102880002C856FE7262E222218C02801F2E04F0E79
:10289000511CF801A080B18026FF03C0672D70E0B5
:1028A00002C06FEF7FEFC5012C870E94D0163C015C
:1028B0002C8550E8252E222A820123FC1CC006C04C
:1028C000B70180E290E00E94ED163A94832D90E0EB
:1028D00068167906A8F30FC0F50127FC859127FE3D
:1028E00081915F01B70190E00E94ED1631103A949A
:1028F000F1E06F1A71086114710471F7EEC084364B
:1029000011F0893641F5F80127FF07C06081718118
:10291000828193810C5F1F4F08C06081718188277D
:1029200077FD8095982F0E5F1F4F4FE6642E622231
:1029300097FF09C090958095709561957F4F8F4F57
:102940009F4FF0E86F2A2AE030E0A4010E94191797
:10295000A82EA81844C0853731F43FEEB32EB2221A
:102960002AE030E024C099EFB92EB2228F36B9F0B8
:1029700020F4883509F0B4C00DC0803721F08837C5
:1029800009F0AEC002C020E1B22AB4FE0BC084E060
:10299000B82A08C024FF09C0E6E0BE2A06C028E025
:1029A00030E005C020E130E002C020E132E0F80173
:1029B000B7FE07C060817181828193810C5F1F4FD8
:1029C00006C06081718180E090E00E5F1F4FA4011E
:1029D0000E941917A82EA8188FE7682E6B2066FE94
:1029E0000BC0362D3E7FA71450F464FE0AC062FC73
:1029F00008C0362D3E7E05C0BA2C362D03C0BA2C39
:102A000001C0B72C34FF0DC0FE01EA0DF11D80811D
:102A1000803311F4397E09C032FF06C0B394B394F9
:102A200004C0832F867809F0B39433FD14C030FFBF
:102A30000FC07A2CB31460F4730C7B18B32C08C04D
:102A4000B70180E290E03C870E94ED16B3943C858C
:102A5000B314B0F304C0B31410F43B1801C0312C0C
:102A600034FF12C0B70180E390E03C870E94ED166E
:102A70003C8532FF1EC031FF03C088E590E002C0F4
:102A800088E790E0B7010CC0832F867891F031FD84
:102A900002C080E201C08BE237FD8DE2B70190E019
:102AA0000E94ED1606C0B70180E390E00E94ED168B
:102AB0007A94A714C0F3AA94F401EA0DF11DB701AA
:102AC000808190E00E94ED16A110F5CF06C0B701FD
:102AD00080E290E00E94ED163A943110F8CF42CE99
:102AE000F7012681378102C02FEF3FEFC9012C96F5
:102AF000E2E10C9493170F931F93CF93DF93689F9A
:102B00008001699F100D789F100D1124C8010E944B
:102B10009915C82FD92F209731F0A80160E070E0F7
:102B20008C2F0E94DB16CE01DF91CF911F910F9168
:102B300008950F931F93CF93DF938230910510F484
:102B400082E090E0E0912B09F0912C0920E030E048
:102B5000C0E0D0E023C04081518148175907A8F058
:102B60004817590761F482819381209719F09B835C
:102B70008A832EC090932C0980932B0929C021159C
:102B8000310529F04217530710F0A90102C0BE0118
:102B9000DF0102811381EF019A01F8013097D9F624
:102BA0002115310509F1281B390B2430310590F42A
:102BB00012968D919C9113976115710521F0FB017F
:102BC0009383828304C090932C0980932B09FD0189
:102BD000329644C0FD01E20FF31F8193919322507E
:102BE00031092D933C933AC02091290930912A094B
:102BF000232B41F42091990130919A0130932A09B5
:102C000020932909209197013091980121153105D0
:102C100041F42DB73EB740919B0150919C01241B7C
:102C2000350BE0912909F0912A09E217F307A0F486
:102C30002E1B3F0B2817390778F0AC014E5F5F4F12
:102C40002417350748F04E0F5F1F50932A09409311
:102C500029098193919302C0E0E0F0E0CF01DF9178
:102C6000CF911F910F910895EF92FF920F931F93B1
:102C7000CF93DF93009709F48EC0DC01129713966F
:102C80001C921E921297E0902B09F0902C09E114EF
:102C9000F10489F42D913C911197280F391F8091EF
:102CA000290990912A098217930789F5B0932A0977
:102CB000A093290970C0E70120E030E001C0EA01DB
:102CC000CA17DB0738F44A815B819E014115510523
:102CD000B1F722C0AC0142505109FA01D383C2833B
:102CE00000811181BC01600F711F6C177D0761F4B9
:102CF00068817981600F711F6E5F7F4F7183608380
:102D00006A817B81738362832115310529F4B09335
:102D10002C09A0932B093FC0F901B383A283E901D9
:102D200049915991C40FD51FAC17BD0771F4DC014F
:102D30009E918E91840F951F0296918380831296A7
:102D40008D919C91139793838283A0E0B0E002C0A1
:102D5000D7017C01F701828193810097C9F7C701F0
:102D6000029620813181820F931F20912909309191
:102D70002A092817390779F4109729F410922C0999
:102D800010922B0904C013961C921E921297F09277
:102D90002A09E0922909CDB7DEB7E6E00C949F1727
:102DA000FC010590615070400110D8F78095909516
:102DB0008E0F9F1F0895DC0101C06D93415050405C
:102DC000E0F70895FC016150704001900110D8F7C0
:102DD000809590958E0F9F1F08950F931F93CF930B
:102DE000DF938C01EB018B8181FD03C00FEF1FEF9F
:102DF0001AC082FF0DC02E813F818C819D812817D2
:102E0000390764F4E881F9810193F983E88306C006
:102E1000E885F985802F0995892B41F78E819F815F
:102E200001969F838E83C801DF91CF911F910F91EF
:102E30000895FA01AA27283051F1203181F1E89450
:102E40006F936E7F6E5F7F4F8F4F9F4FAF4FB1E09D
:102E50003ED0B4E03CD0670F781F891F9A1FA11D98
:102E6000680F791F8A1F911DA11D6A0F711D811D99
:102E7000911DA11D20D009F468943F912AE0269F5E
:102E800011243019305D3193DEF6CF010895462FBD
:102E90004770405D4193B3E00FD0C9F7F6CF462F9E
:102EA0004F70405D4A3318F0495D31FD4052419307
:102EB00002D0A9F7EACFB4E0A695979587957795C4
:102EC0006795BA95C9F700976105710508959B014B
:102ED000AC010A2E06945795479537952795BA95D4
:102EE000C9F7620F731F841F951FA01D08952F92AD
:102EF0003F924F925F926F927F928F929F92AF928A
:102F0000BF92CF92DF92EF92FF920F931F93CF93D6
:102F1000DF93CDB7DEB7CA1BDB0B0FB6F894DEBF6D
:102F20000FBECDBF09942A88398848885F846E8493
:102F30007D848C849B84AA84B984C884DF80EE80DD
:102F4000FD800C811B81AA81B981CE0FD11D0FB6E6
:102F5000F894DEBF0FBECDBFED010895F894FFCF0A
:102F60003E004100450049004E00520057005C0001
:102F7000620068006E0075007B0083008B00930088
:102F80009C00A500AF00B900C400D000DC00E9003F
:102F9000F70006011501260137014A015D017201A2
:102FA00088019F01B801D201EE010B022A024B02F7
:102FB0006E029302BA02E40210033F037003A403FB
:102FC000DC03170455049704DD0427057505C805BF
:102FD00020067D06E0064907B8072D08A9082D0937
:102FE000B9094D0AEA0A900B400CFA0CC00D910E7B
:102FF0006F0F5A1053110100002D092000583A316B
:103000000A543A205072656C7564652066726F6D63
:103010002066697273742043656C6C6F2053756908
:1030200074650A433A204A2E532E20426163682C6D
:103030002068657265207472616E73706F73656469
:1030400020666F72206D616E646F6C696E0A4D3A16
:1030500020342F340A4C3A20312F31360A4B3A446F
:103060000A2844416629652066416641202844417A
:103070006629652066416641207C202844426729F4
:1030800066206742674220284442672966206742DB
:103090006742207C0A284463672966206763676368
:1030A000202844636729662067636763207C2028A3
:1030B0004464662964206664666420284464662942
:1030C000642066646664207C0A2844426629652080
:1030D0006664636420426463642046415E47462020
:1030E000207C20285E47646529642065646564202F
:1030F000285E47646529642065646564207C0A282D
:10310000636561295E672061656465206365646548
:10311000204163424120207C2028422C46642963C0
:1031200020644664462028422C4664296320644675
:103130006446207C0A28422C5E47412942204147B0
:10314000464520286463422961205E6766656420E5
:103150007C20286342412961206561636520284104
:10316000426329652064634241207C0A5E642841F1
:103170003D6342292063416441206628416342291E
:10318000206341644120207C202847426529662035
:1031900067654241202847426529662067655E636E
:1031A00042207C0A5E412863416329206563656390
:1031B0002041286341632920656365632020207CCA
:1031C0002028646342296420636465632064634249
:1031D000412047464544207C0A4347414720414718
:1031E000414720434741472041474147207C202811
:1031F00044463D6329422063466346202844466393
:1032000029422063466346207C0A284447422941DC
:103210002042474247202844474229412042474212
:1032200047207C2028445E636729662067636763C4
:10323000202844636729662067636763207C0A2827
:103240004441662965206664634220414746452023
:103250004443422C412C207C205E472C284542636D
:1032600029206442636420472C2845426329206456
:10327000426364207C0A3D472C2845414229206353
:10328000414263203D472C28454142292063414269
:1032900063207C20472C28454163292028655E67F0
:1032A0002861322920612945463D47204142636417
:1032B000207C0A257365636F6E6420706172740AE6
:1032C0002865634129422063646566202867656339
:1032D00029642065666761207C205F62615E6761AA
:1032E00020613D676667206765633D422041454632
:1032F00047207C0A412C2845416329206566676583
:10330000202866644129472046444546207C2041C8
:103310002C4446412064656665205E673D666566AF
:103320002066655E6465207C0A653D646364206494
:10333000425E4746204547426420655E67616720DC
:103340007C206165634220636541632045415E479F
:103350004620454443422C207C0A412C3220283D03
:10336000676620656463422041292867666520649A
:10337000634241207C2047292866656420634241DE
:1033800047204629286564632042414746207C0A3D
:1033900046292864634229205B63635D655B414184
:1033A0005D65205B42425D655B63635D65205B64D8
:1033B000645D655B42425D65207C205B63635D65A7
:1033C0005B41415D65205B64645D655B42425D65B8
:1033D000205B63635D655B41415D65205B64645DAB
:1033E000655B42425D65207C0A5B63635D655B41B2
:1033F000415D65205B42425D655B63635D65205BAB
:1034000064645D655B65655D65205B66665D655BE7
:1034100041415D65207C205B65655D655B66665D41
:1034200065205B67675D655B41415D65205B666646
:103430005D655B67675D65205B61615D655B6666B9
:103440005D65207C0A5B67675D655B66665D652020
:103450005B67675D655B65655D65205B66665D6591
:103460005B65655D65205B66665D655B64645D6587
:10347000207C205B65655D655B64645D65205B65E4
:10348000655D655B63635D65205B64645D655B636F
:10349000635D65205B64645D655B42425D65207CC5
:1034A0000A63654142203D63415E63412064415EA1
:1034B00064412065413D6641207C205E6641674154
:1034C000205E67416141205E62413D62413D63276C
:1034D000415E632741207C0A6427286641662920D3
:1034E000642766642766206427286641662920646D
:1034F0002766642766207C2064272865416529208B
:103500006427656427652064272865416529206450
:103510002765642765207C0A63272867416729207F
:10352000632767632767206327286741672920632C
:103530002767632767207C205B4431364166642718
:103540005D207C5D002A2A2A205344206C69627227
:103550006172792074657374202A2A2A0057616980
:1035600074696E6720666F7220534420696E7365BC
:1035700072742E2E2E0053442043617264206465C1
:10358000746563746564210057726974652D707287
:103590006F74656374656421004E6F74207772697F
:1035A00074652D70726F7465637465642E00496E66
:1035B000697469616C697365206661696C65642012
:1035C000776974682025303258210A00534420530B
:1035D000697A653A20256C754D420A004469736B1F
:1035E0002072656164206661696C65642077697426
:1035F0006820253032580A005265616420464154E3
:103600003332206661696C656420776974682025AF
:103610003032580A004572726F72206F70656E20EA
:10362000646972207769746820253032580A005224
:10363000656164206E616D653A20252E313173001D
:103640002C20747970653A203078253032580A0081
:1036500052656D6F766520534420746F2072756ECD
:1036600020616761696E2E2E2E005061727469743C
:10367000696F6E2031206973206E6F74204641544B
:10368000333200506172746974696F6E2031206941
:103690007320464154333200537461727420617454
:1036A00020736563746F7220256C750A002F5C00AF
:0C36B0005446542020202020424D5000A1
:00000001FF
