:100000000C94C1010C94E9010C94E9010C94E901F0
:100010000C94E9010C94E9010C94E9010C94E901B8
:100020000C94E9010C94E9010C94E9010C94E901A8
:100030000C94E9010C94E9010C94E9010C94E90198
:100040000C94E9010C94E9010C94E9010C94E90188
:100050000C94E9010C94E9010C94E9010C94E90178
:100060000C94E9010C94E9010C94E9010C94E90168
:100070000C94E9010C94E9010C94E90100000000E2
:10008000000000000020202020200020005050A070
:1000900000000000005050F850F85050002070A0B0
:1000A0007028A87000C8C810204098980040A0A0F0
:1000B00048A8906800301020000000000010204088
:1000C0004040201000402010101020400020A8A820
:1000D00070A8A82000202020F82020200000000088
:1000E0000030102000000000F800000000000000B8
:1000F0000000606000080810204080800030484800
:1001000048484830001030101010101000304808D7
:100110001020407800304808300848300010305037
:100120005090F8100078407048084830003048403F
:1001300070484830007808081010202000304848E7
:1001400030484830003048483808483000003030E7
:100150000030300000003030003010200008102047
:10016000402010080000F00000F000000080402057
:10017000102040800070888810200020007088E8DF
:10018000A8E8907800602020505070D800F04848CF
:10019000784848F8007048808080C87800F050485F
:1001A000484858F000F84840704040F800F848408F
:1001B000705040E0007048808098C87800D8505057
:1001C000705050D800702020202020700070101037
:1001D0001010906000D85050606050D800F040403F
:1001E000404048F80088D8D8A8A888880088C8A8BF
:1001F000A8A89888007050888888D87000F048486F
:10020000784040E0007088888898703800F048484E
:10021000785050D8007088807008087800F8A820BE
:100220002020203000D850505050507000D85050EE
:1002300050507020008888A8A8A8505000D850506E
:10024000205050D800D850505020207000F8901006
:10025000204048F80070404040404070008080409E
:1002600020100808007010101010107000205000AE
:100270000000000000000000000000F80020100056
:10028000000000000000006090709068008080E036
:10029000909090E0000000609080906000101070DE
:1002A000909090700000006090F0806000102070CE
:1002B000202020200068906080708870008080E09E
:1002C000909090900020002020202020001000100E
:1002D0001010106000808090A0C0A090002020200E
:1002E00020202018000000D0A8A8A8A8000000E046
:1002F000909090900000006090909060000060905E
:1003000090E080800000609090701010000000B0BD
:10031000C080808000000070806010E0004040F0ED
:1003200040404030000000909090907000000088A5
:1003300088885020000000A8A8A85050000000881D
:100340005020508800000088502020C0000000F895
:10035000102040F8003020204020203000202020B5
:1003600020202020006020201020206000689000C5
:100370000000000000000000000000003C0D130E13
:100380007E0E11241FBECFEFD0E1DEBFCDBF13E044
:10039000A0E0B1E0ECEFF6E202C005900D92AC30C7
:1003A000B107D9F713E0ACE0B3E001C01D92A2366B
:1003B000B107E1F713E0C2E8D3E004C02297FE01E1
:1003C0000E94D70ECC37D107C9F70E946B0B0C9453
:1003D0007C130C9400008FEF0E948B0A0E94900AFD
:1003E0008F3FC9F708950E94060262E082E293E01F
:1003F0000E94DB020E94980290935B0380935A0351
:1004000060E070E082E293E00C9494021F93CF933B
:10041000DF9385B7806885BF85B7806885BF8FE724
:1004200081B98DEF82B917B88FEF88B912981098FB
:10043000139A159A149A169A28E22A95F1F7129AA5
:100440008FEF94E624E0815090402040E1F700C017
:10045000000068E281E00E94160A61E181E00E94EA
:10046000160A8FEF94E624E0815090402040E1F797
:1004700000C0000064E381E00E94160A68E381E0A6
:100480000E94160A63E181E00E94160A60E281E0A0
:100490000E94160A6AE381E00E94160A65E580E080
:1004A0000E94160A66E381E00E94160A68E480E072
:1004B0000E94160A6CE281E00E94160AC0E4D1E0B4
:1004C00010C060E080E00E94160A60E080E00E94B8
:1004D000160A60E080E00E94160A115091F72197F9
:1004E00011F010EFEECF69E281E0DF91CF911F9123
:1004F0000C94160AFC01138212821582148281E088
:100500008083818380EF90E09783868380E491E00D
:10051000918780878FEF9FEF938782871586148658
:100520000895FC0160830895119A08951198089523
:100530008091300390913103892B51F460E070E099
:1005400083EC94E00E94DB0E9093310380933003A0
:10055000809130039091310308950F931F93CF93AF
:10056000DF931F92CDB7DEB78C01862F69830E947F
:10057000440D6981613071F028F0623019F0633008
:1005800091F408C020E431E0F8013783268320EF9E
:1005900030E007C020EF30E0F8013783268320E405
:1005A00031E031872087F80161830F90DF91CF918F
:1005B0001F910F910895CF93DF93D82FC92F0E94D9
:1005C000AD028D2F9C2FDF91CF910895AF92BF92F6
:1005D000CF92DF92EF92FF920F931F93CF93DF930F
:1005E000E90158010E945F0D6CE281E00E94160A49
:1005F00012C06F2D80E00E94160A6E2D80E00E94CE
:10060000160A8FEFC81AD80A02C0C12CD12CCA14FE
:10061000DB0479F721972097C1F7DF91CF911F91E4
:100620000F91FF90EF90DF90CF90BF90AF90089523
:100630002F923F924F925F926F927F928F929F92F2
:10064000AF92BF92CF92DF92EF92FF920F931F93E0
:10065000CF93DF935C014B016A01E90162177307D5
:1006600071F40417150730F4C026D1260C251D257A
:10067000C026D1260C191D0921E030E011C0401719
:100680005107A1F42617370730F482269326C82590
:10069000D9258C269D269E012819390901E010E0F4
:1006A000A601B401C5010E94E6027CC02901461AD8
:1006B000570A57FE03C051944194510838016C18F1
:1006C0007D0877FE03C07194619471084614570445
:1006D000A8F50C151D0560F48C269D26C825D92586
:1006E0008C269D26C026D1260C251D25C026D12668
:1006F00020E030E080E090E017C0B3010E949F0E40
:10070000FB01E80DF91DC901B3010E949F0EE61B14
:10071000F70B9701A601BF01C5010E94AA0D8FEF3B
:10072000C81AD80A9101C2012C014C0E5D1E190194
:10073000280C391C0C151D0500F734C0C815D90547
:1007400060F48C269D26C825D9258C269D26C0269A
:10075000D1260C251D25C026D12620E030E080E0E2
:1007600090E017C0B2010E949F0EFB01EC0DFD1D31
:10077000C901B2010E949F0EE61BF70B9701AF0162
:10078000B401C5010E94AA0D8FEF881A980A910141
:10079000C3013C01600E711E19012C0C3D1CC815D3
:1007A000D90500F7DF91CF911F910F91FF90EF9046
:1007B000DF90CF90BF90AF909F908F907F906F9081
:1007C0005F904F903F902F9008952F923F924F92BD
:1007D0005F926F927F928F929F92AF92BF92CF92D1
:1007E000DF92EF92FF920F931F93CF93DF9300D08E
:1007F00000D000D0CDB7DEB79E838D835B014A0168
:100800003A8329831C830B836E2C712C19012618C3
:1008100037087601830191010E94E6024B805C80DB
:100820004618570869817A816A0D7B1D6619770918
:1008300082019301A4018D819E810E94E602A301A1
:10084000480D591D9301B5018D819E810E94E602DC
:100850004B815C81480D591D46195709B3016A0D3A
:100860007B1D830191018D819E810E94E602269667
:100870000FB6F894DEBF0FBECDBFDF91CF911F91B1
:100880000F91FF90EF90DF90CF90BF90AF909F902F
:100890008F907F906F905F904F903F902F90089532
:1008A000DF92EF92FF920F931F93CF93DF93EC01B0
:1008B000E62E288188E0289F8001112486E0289F69
:1008C000900111244C815D816A817B81CE010E945F
:1008D0005F0D6CE281E00E94160AF12C0E2D1127AB
:1008E00007FD10950052110983E0000F111F8A9532
:1008F000E1F736C08F2D0E94930EF801E80FF11D2D
:10090000E458FF4FD490E12C20C0D7FE06C06B8581
:1009100080E00E94160A6A8505C06D8580E00E940D
:10092000160A6C8580E00E94160A48818E2D642F7D
:100930000E94930E292F30E0642F70E061507109FE
:100940002617370709F4DD0CE39428814E2D50E07B
:1009500086E0289F9001112442175307B4F2F394C4
:1009600068814F2D50E088E0689F90011124421764
:1009700053070CF4BFCFDF91CF911F910F91FF90E0
:10098000EF90DF900895682F82E293E00E94500478
:1009900080E090E00895CF93DF93EC016A3021F47A
:1009A000CE010E94C50D14C00E945004288186E02B
:1009B000289F900111248A819B81820F931F9B8322
:1009C0008A83820F931F4E815F814817590740F336
:1009D000CE01DF91CF9108950F931F93CF93DF93B3
:1009E0008C01EB0102C00E94CB046991C801611126
:1009F000FACFDF91CF911F910F9108954F925F929F
:100A00006F927F928F929F92AF92BF92CF92DF921E
:100A1000EF92FF920F931F93CF93DF938C014A01C4
:100A20005B01C9E0D0E0C12C2AECD22E2AE9E22EEB
:100A30002BE3F22E3AE0432E512C612C712CC50190
:100A4000B401A70196010E94B30E232B242B252B62
:100A500029F119C0C501B401A70196010E94B30E86
:100A6000CA01B901A30192010E94B30E605DC801E1
:100A70000E94CB04C701B601A30192010E94B30EEC
:100A800069017A0105C09AE0492E512C612C712C24
:100A9000C114D104E104F104E9F60BC0C701B601A9
:100AA000A30192010E94B30E69017A01219739F6E0
:100AB000EACFC801DF91CF911F910F91FF90EF9086
:100AC000DF90CF90BF90AF909F908F907F906F906E
:100AD0005F904F9008954F925F926F927F928F92A6
:100AE0009F92AF92BF92CF92DF92EF92FF920F93BD
:100AF0001F93CF93DF938C014A015B0177FF07C0FF
:100B0000882499245401841A950AA60AB70A77FF03
:100B100004C06DE2C8010E94CB04C9E0D0E0C12C42
:100B20005AECD52E5AE9E52E5BE3F52E6AE0462E07
:100B3000512C612C712CC501B401A70196010E94B2
:100B4000B30E232B242B252B29F119C0C501B40189
:100B5000A70196010E94B30ECA01B901A301920137
:100B60000E94B30E605DC8010E94CB04C701B601AC
:100B7000A30192010E94B30E69017A0105C04AE007
:100B8000442E512C612C712CC114D104E104F104C8
:100B9000E9F60BC0C701B601A30192010E94B30E92
:100BA00069017A01219739F6EACFC801DF91CF9127
:100BB0001F910F91FF90EF90DF90CF90BF90AF907B
:100BC0009F908F907F906F905F904F900895CF92FD
:100BD000DF92EF92FF920F931F93CF93DF936C01FD
:100BE0008B0124E030E0C0E1D7E2EAE0F0E0C801A8
:100BF000BE010E949F0E672BD1F013C0C801BE0139
:100C00000E949F0ECB01B7010E949F0E682F605D6E
:100C1000C6010E94CB04CE01B7010E949F0EEB01DA
:100C200003C07AE0E72EF12C209741F709C0CE01EE
:100C3000BF010E949F0EEB0121503109C1F6F1CF97
:100C4000C601DF91CF911F910F91FF90EF90DF9040
:100C5000CF900895CF92DF92EF92FF920F931F9360
:100C6000CF93DF936C018B0177FF04C0002711271E
:100C7000061B170B77FF04C06DE2C6010E94CB0470
:100C800024E030E0C0E1D7E2EAE0F0E0C801BE01D4
:100C90000E949F0E672BD1F013C0C801BE010E94B5
:100CA0009F0ECB01B7010E949F0E682F605DC601A9
:100CB0000E94CB04CE01B7010E949F0EEB0103C03E
:100CC000EAE0EE2EF12C209741F709C0CE01BF01DA
:100CD0000E949F0EEB0121503109C1F6F1CFC601F0
:100CE000DF91CF911F910F91FF90EF90DF90CF9008
:100CF00008958FEF0E948B0A0DB407FEFDCF8EB5CD
:100D00008F3FB9F70895CF93DF9300D000D000D084
:100D1000CDB7DEB72E834D835C836B837A83898363
:100D20000E9479060E947906898180640E948B0A5C
:100D30007A81872F0E948B0A6B81862F0E948B0AF3
:100D40005C81852F0E948B0A4D81842F0E948B0A23
:100D50002E81822F880F816026960FB6F894DEBF11
:100D60000FBECDBFDF91CF910C948B0AFC01DB014C
:100D70008C9190E026E0959587952A95E1F7837010
:100D800040814C7F482B408311968C911197818331
:100D900012968C911297828313968C91139783836A
:100DA00015968C91159790E034E0959587953A9536
:100DB000E1F714962C91149750E1259F900111248E
:100DC000822B932B84839F708581807F892B8583E1
:100DD00015969C9115979295907F8F70892B85839E
:100DE00016968C91169790E0880F892F881F990B83
:100DF000568180FB50F9568316968C91169790E099
:100E000066E0959587956A95E1F780FB51F95683E1
:100E100016968C91169790E075E0959587957A9542
:100E2000E1F780FB52F9568316968C91169790E065
:100E300024E0959587952A95E1F780FB53F9568331
:100E4000437018962C91189717968C91179730E04D
:100E5000411177C066E0359527956A95E1F744E042
:100E6000849FC0011124282B392B16964C9116977C
:100E70004370942F990F990F80E0282B392B44272A
:100E800037FD4095822F8295807F5F70582B568367
:100E9000932F9295907F822F82958F70892B8783D5
:100EA000942F9295907F832F82958F70892B8087C6
:100EB000942F9295937081858C7F892B81871896CA
:100EC0009C91189796959C71837E892B81871896A3
:100ED0009C9118979295990F907E8F71892B81879D
:100EE00019968C91199790E075E0959587957A956C
:100EF000E1F787709285987F982B928719968C914D
:100F00001997880F8873977C982B92871A968C91E3
:100F10001A97881F8827881F19962C911997220FD6
:100F2000820F282F2295220F220F207C9F73922B55
:100F3000928782FB882780F993859E7F982B9387E1
:100F400026C040E0432F322F2227482B19968C9140
:100F50001997282B822F8295807F5F70582B56839C
:100F6000932F9295907F822F82958F70892B878304
:100F7000942F9295907F832F82958F70892B8087F5
:100F8000942F9295937081858C7F892B81871A96F7
:100F90008C911A9790E026E0959587952A95E1F730
:100FA000938580FB91F993871B962C911B97221FA9
:100FB0002227221F1A968C911A97880F822B282F8E
:100FC000220F220F9370922B938786FB992790F91B
:100FD00084858E7F892B84871B969C911B97990F04
:100FE0008170892B84871C968C911C9790E0880FC8
:100FF000892F881F990B358580FB30F935871C9622
:101000008C911C9786958E70317F382B35871D9675
:101010002C911D9722952695269523701C968C91D0
:101020001C9754E0859FC0011124282B2295207F16
:101030003F70322B35871D968C911D9790E045E0CF
:10104000959587954A95E1F7268580FB20F92687B7
:101050001E968C911E9790E0880F892F881F990B00
:1010600080FB21F926871E968C911E9790E066E002
:10107000959587956A95E1F780FB22F926871E965C
:101080008C911E9790E075E0959587957A95E1F79C
:1010900080FB23F926871E968C911E9790E034E002
:1010A000959587953A95E1F780FB24F926871E965A
:1010B0008C911E97880F880F880F80762F79282BA8
:1010C00026871F968C9190E09595879580FB27F950
:1010D0002687969587958F739785907C982B978711
:1010E0000895CF93DF93FC01DB018C9180831296EE
:1010F0009C91129780E011962C911197820F911D6F
:10110000928381836D5F7F4F80E090E0EB01499196
:10111000BE019F01280F391FE9014B8301968530DD
:101120009105A1F718968C911897808711861286E1
:1011300013861486ED01299684E0418552856385E6
:101140007485762F652F542F4427418752876387F4
:1011500074879991492B418752876387748781509F
:1011600061F71D969C911D9780E01E962C911E970D
:10117000820F911D8587892F8F702685207F282BD0
:1011800026871F968C9190E095958795382F3295FC
:10119000307F2F70232B268744E0969587954A95BC
:1011A000E1F787709785987F982B9787DF91CF918C
:1011B0000895AF92BF92CF92DF92EF92FF920F937A
:1011C0001F93CF93DF93CDB7DEB7E0970FB6F894B8
:1011D000DEBF0FBECDBF8C01FC0115A287EB9BE0EB
:1011E0000197F1F700C000002C9A2AE0F22E8FEF51
:1011F0000E948B0AFA94D9F72C982AE440E050E038
:10120000BA0180E00E948306C8010E94510E81301D
:1012100009F0CAC023E44AEA51E060E070E088E0E7
:101220000E948306C8010E94510E813089F5F801A1
:1012300083A1813009F0BAC084A18A3A09F0B6C00E
:101240002FEF40E050E0BA0187E30E9483062FEFC2
:1012500040E050E060E070E489E20E948306C8014B
:101260000E94510E813061F32FEF40E050E0BA014F
:101270008AE30E948306C8010E94510EF80181A1F1
:1012800086FF03C082E185A337C082E0F8012BC04E
:101290002FEF40E050E0BA0187E30E9483062FEF72
:1012A00040E050E0BA0189E20E948306C8010E9432
:1012B000510E8E7F31F4F80180A1813049F381E035
:1012C00012C02FEF40E050E0BA0181E00E94830697
:1012D000C8010E94510E8E7F09F06AC0F80180A1FA
:1012E000813079F383E085A32FEF40E052E060E0A6
:1012F00070E080E10E9483062FEF40E050E0BA01E9
:101300008AE00E94830662E0C8010E94170E8111E4
:1013100049C07E01F1E2EF0EF11C5E0181E3A80EEF
:10132000B11C670161E0C8010E94170EF6018193AC
:101330006F01EA15FB05B1F7BE016F5D7F4FCE016E
:1013400041960E94710880E1FE017196D8010190DA
:101350000D928A95E1F72FEF40E050E0BA0189E065
:101360000E94830662E0C8010E94170E81111AC014
:1013700061E0C8010E94170EF70181937F01EA1511
:10138000FB05B1F7BE016F5D7F4FCE0101960E9454
:10139000B60680E1FE013196D801509601900D927B
:1013A0008A95E1F780E005C081E003C082E001C0DA
:1013B0008FEFE0960FB6F894DEBF0FBECDBFDF9182
:1013C000CF911F910F91FF90EF90DF90CF90BF9042
:1013D000AF900895199B05C02FEFFC0125A380E075
:1013E0000895FFE72FE432E1F15020403040E1F76B
:1013F00000C0000083B19FE7E9EAF3E09150E040CC
:10140000F040E1F700C0000093B191708170981333
:10141000F1CF81E00895FC011082FB0120812B5067
:10142000223018F022E0FC01208308959FEF97B945
:101430008111149868B91398139A149A0895CF9348
:10144000DF93EC016AE281E00E94160A60E080E02E
:101450000E94160A60E080E00E94160A8E819F8139
:101460000197692F80E00E94160A6E81615080E02A
:101470000E94160A6BE281E00E94160A60E080E09A
:101480000E94160A60E080E00E94160A888599850D
:101490000197692F80E00E94160A6885615080E0FC
:1014A000DF91CF910C94160ACF92DF92EF92FF92C8
:1014B0000F931F93CF93DF93EC01D62EC72E0E947C
:1014C0001F0A6CE281E00E94160A00E010E015C0DD
:1014D0006C2D80E00E94160A6D2D80E00E94160A95
:1014E0008FEFE81AF80A02C0E12CF12C8885998563
:1014F000E816F90668F30F5F1F4F8E819F8108176A
:10150000190790F3DF91CF911F910F91FF90EF900A
:10151000DF90CF9008958EBD0DB407FEFDCF0895E6
:101520000DB407FEFDCF8EB50895CF92DF92FF92E6
:101530000F931F93CF93DF9300D000D0CDB7DEB7CA
:101540006C01F22E032F4C835B836A8379830E94A4
:10155000EB010E94EB0181E50E948B0A7981872FC4
:101560000E948B0A6A81862F0E948B0A5B81852FDD
:101570000E948B0A4C81842F0E948B0A8FEF0E945D
:101580008B0A14E68FEF0E948B0A0E94900AF601E4
:1015900080A38F3F19F0882321F01FC0115091F7CD
:1015A0001CC08FEF0E948B0A0E94900A8E3FC9F7E1
:1015B000CF2CD02E00E010E08FEF0E948B0A0E940B
:1015C000900AF60181936F010F5F1F4F0115F2E042
:1015D0001F0791F70E94EB0180E00F900F900F9092
:1015E0000F90DF91CF911F910F91FF90DF90CF90DF
:1015F0000895AF92BF92CF92DF92EF92FF920F9336
:101600001F93CF93DF93CDB7DEB7D2500FB6F894C8
:10161000DEBF0FBECDBF8C0180915703811102C088
:1016200081E01EC0F8011082AA24A394B12CAC0E54
:10163000BD1E950140E050E0BA0182E393E00E94B4
:10164000950AC150DE4F8881CF5FD140853539F48E
:10165000C050DE4F8881C050D2408A3A21F082E0EB
:10166000F801808327C02EEB31E080E090E065E058
:10167000F501E20FF31F54813C9640E0FE2CED2C67
:10168000DC2CCC247291C72A4F5F4430B9F7689F95
:10169000F001699FF00D11243196E00FF11F508386
:1016A000C182D282E382F4820196205F3F4F833071
:1016B0009105F1F6DE5F0FB6F894DEBF0FBECDBF29
:1016C000DF91CF911F910F91FF90EF90DF90CF901E
:1016D000BF90AF9008950E94F30155E3252E53E08B
:1016E000352E64EF462E61E0562E78E0672E72E0CC
:1016F000772ECCE1D2E00BE312E0E5E5EE2EE2E05E
:10170000FE2EF7EFCF2EF2E0DF2EA4E9AA2EA2E004
:10171000BA2EB5E68B2EB2E09B2E62E082E293E019
:101720000E94910260912E0370912F0382E293E058
:101730000E94540A1092250310922403109227034A
:101740001092260381E291E00E943D0F89E391E02F
:101750000E943D0F82E393E00E94EA098823D1F3BF
:1017600082E591E00E943D0F189B03C084E691E062
:1017700002C085E791E00E943D0F82E393E00E9462
:10178000D908882339F01F928F938AE891E09F93BC
:101790008F9333C1809157038F701F928F9326EAE6
:1017A00031E03F932F930E94260F80915703807F53
:1017B0000F900F900F900F9019F086E091E002C00B
:1017C00084E191E09F938F932BEB31E03F932F9334
:1017D0000E94260F809132031F928F9328EC31E0F4
:1017E0003F932F930E94260F809134038F93809113
:1017F00033038F932CED31E03F932F930E94260FFC
:101800003F922F925F924F920E94260F80913E034B
:101810008F9380913D038F9380913C038F938091B0
:101820003B038F937F926F920E94260F80913F031C
:1018300020914003922F9F709C012F7033273F937C
:101840002F9344E0959587954A95E1F79F938F9361
:10185000DF93CF930E94260F3FEF8CED9DE6315032
:1018600080409040E1F700C0000062E082E293E037
:101870000E94910260912E0370912F0382E293E007
:101880000E94540A109225031092240310922703F9
:101890001092260380914203837090E001969F93FB
:1018A0008F931F930F930E94260F809142038370A2
:1018B0002DB73EB7205E3F4F0FB6F8943EBF0FBE28
:1018C0002DBF309148032091490332953F70422F3C
:1018D0004295407F811141C0842F832B22952F7028
:1018E00030914A03432F4295407F942F922B32959B
:1018F0003F7020914B0323702295207FA22FA32BB2
:10190000B0E00196A11DB11D30914C033295369582
:101910003695337020914D032170220F220F232B17
:1019200030E02E5F3F4F04C0880F991FAA1FBB1FD6
:101930002A95D2F72091470322952F7004C0880F73
:10194000991FAA1FBB1F2A95D2F73AE0B695A79513
:10195000979587953A95D1F71FC0842F832B2295B1
:101960002F7030914A03432F4295407F942F922B42
:1019700032953F7020914B0323702295207FA22F38
:10198000A32BB0E00196A11DB11D29E0880F991F7E
:10199000AA1FBB1F2A95D1F7FAE0B695A795979590
:1019A0008795FA95D1F7BF93AF939F938F93FF924B
:1019B000EF920E94260F8DE093E00E94F90A809139
:1019C0000D030F900F900F900F900F900F908823A2
:1019D00029F01F928F939F928F920FC08FE792E012
:1019E0000E943D0F80910E038B3009F18C30D1F4B1
:1019F0001EC01F928F93BF92AF920E94260F0F902E
:101A00000F900F900F908FEA92E09F938F930E9418
:101A1000260F0F900F9082E393E00E94EA09811154
:101A2000FACF7BCE89EC92E00E943D0FECCF82EEA4
:101A300092E00E943D0F809112038F9380911103D9
:101A40008F93809110038F9380910F038F93DF9278
:101A5000CF920E94260F6EE073E08CE093E00E942C
:101A60000B0A80910C030F900F900F900F900F9026
:101A70000F90882341F2BDCF8DE093E00E94F90AD8
:101A800081E080930C030895CF93C82F66E381E033
:101A90000E94160AC13041F028F0C23039F0C3303C
:101AA00061F406C068E205C068E403C068EE01C0E6
:101AB00068E880E0CF910C94160ACF910895BF9208
:101AC000CF92DF92EF92FF920F931F93CF93DF930A
:101AD000EB017A0169016AE281E00E94160A6D2F2A
:101AE00080E00E94160ABC2E6C2F80E00E94160A2D
:101AF0002197CC0DDD1D6D2F80E00E94160A6B2D05
:101B000061506C0D80E00E94160A6BE281E00E9439
:101B1000160A6F2D80E00E94160ACE2D6E2D80E0F1
:101B20000E94160A81E0E81AF108E00EF11E6F2DFE
:101B300080E00E94160A6C2F6150600F80E0DF91F8
:101B4000CF911F910F91FF90EF90DF90CF90BF90BA
:101B50000C94160A0F931F93CF93DF93E90101E0D2
:101B600010E021E030E00E945F0D6CE281E00E9415
:101B7000160A6D2F80E00E94160A6C2F80E0DF911C
:101B8000CF911F910F910C94160ACF92DF92EF9292
:101B9000FF920F931F93CF93DF93EC011B821A8266
:101BA000288188E0289F900111248C819D81820FDB
:101BB000931F9D838C83820F931F488559854817F7
:101BC000590740F5DC84CD84CE010E941F0A6CE2E7
:101BD00081E00E94160A00E010E015C06C2D80E044
:101BE0000E94160A6D2D80E00E94160A8FEFE81AF7
:101BF000F80A02C0E12CF12C88859985E816F906CF
:101C000068F30F5F1F4F8E819F810817190790F3AC
:101C10001D821C82DF91CF911F910F91FF90EF9059
:101C2000DF90CF90089582E293E00C947A02CF92F5
:101C3000DF92EF92FF920F931F93CF93DF931F9248
:101C4000CDB7DEB78C01663008F065E0F12C18C026
:101C500084E6E82E6801CF0CD11C80E2C80ED11CAE
:101C60008FEF69830E948B0A69810DB407FEFDCF57
:101C70008EB5F60180838F3F41F4EA9489F705C061
:101C8000F612E6CFF80180A102C0F394F9CF0F90CD
:101C9000DF91CF911F910F91FF90EF90DF90CF9048
:101CA0000895DF92EF92FF920F931F93CF93DF93EC
:101CB0008C01C0E0D0E094E6D92E7801EC0EFD1E38
:101CC0008FEF0E948B0A0DB407FEFDCF8EB5F70192
:101CD00080A38F3F31F4DA9499F703C0F80180A113
:101CE00005C02196C530D10531F7F8CFDF91CF91EE
:101CF0001F910F91FF90EF90DF90089584B1806B5A
:101D000084B9269885B18F7085B982E58CBD8DB573
:101D10008E7F8DBD84B18C7F84B985B1836085B998
:101D2000109257030895991B79E004C0991F9617E4
:101D300008F0961B881F7A95C9F780950895AA1B0D
:101D4000BB1B51E107C0AA1FBB1FA617B70710F0A6
:101D5000A61BB70B881F991F5A95A9F780959095D8
:101D6000BC01CD010895A1E21A2EAA1BBB1BFD01E7
:101D70000DC0AA1FBB1FEE1FFF1FA217B307E4076A
:101D8000F50720F0A21BB30BE40BF50B661F771FC2
:101D9000881F991F1A9469F76095709580959095A2
:101DA0009B01AC01BD01CF010895EE0FFF1F05900F
:101DB000F491E02D09940F931F93CF93DF93EC01DF
:101DC0008B01009731F46115710519F4E0E0F0E042
:101DD00037C06EE070E081E090E00E944911FC01A4
:101DE0000097A1F380E883830115110571F0138733
:101DF000028781E883838091580390915903892B4E
:101E000021F4F0935903E09358032097C9F0D18748
:101E1000C08783818260838380915A0390915B03A2
:101E2000892B71F4F0935B03E0935A0380915C0378
:101E300090915D03892B21F4F0935D03E0935C03A3
:101E4000CF01DF91CF911F910F910895A2E0B0E0F3
:101E5000ECE2FFE00C945513FE013796619171910D
:101E6000FA83E983AF0180915A0390915B030E944A
:101E70006C0F2296E2E00C9471130F931F93CF9393
:101E8000DF938C01E0915A03F0915B03838181FF22
:101E90001BC0C0E0D0E005C00995892B11F0CFEF41
:101EA000DFEFF80181918F0160915A0370915B031C
:101EB000DB011896ED91FC9119978111EDCF8AE025
:101EC0000995892B09F402C0CFEFDFEFCE01DF9136
:101ED000CF911F910F910895ACE0B0E0E2E7FFE0F1
:101EE0000C9445137C016B018A01FC011782168258
:101EF000838181FFC7C188248394912C8C0E9D1E01
:101F0000F7019381F60193FD859193FF81916F0114
:101F1000882309F4B3C1853239F493FD859193FF89
:101F200081916F01853229F4B70190E00E94BB12C4
:101F3000E7CF712C312C20E02032A8F48B3261F0F5
:101F400028F4803251F0833271F40BC08D3239F0B5
:101F5000803349F4216028C02260246025C02860B5
:101F600023C0206121C027FD27C0382F30533A30CD
:101F700078F426FF06C0FAE07F9E300D1124732E00
:101F800013C08AE0389E300D1124332E20620CC01D
:101F90008E3221F426FD72C1206406C08C3611F405
:101FA000206802C0883641F4F60193FD859193FFC5
:101FB00081916F018111C0CF982F9554933018F003
:101FC0009052933028F40C5F1F4FFFE3F9830DC04C
:101FD000833631F0833771F0833509F05EC023C05A
:101FE000F801808189830E5F1F4F66246394712CF2
:101FF000540115C02801F2E04F0E511CF801A080D9
:10200000B18026FF03C0672D70E002C06FEF7FEF45
:10201000C5012C870E94B0123C0182012C856FE71C
:10202000262E222218C02801F2E04F0E511CF80182
:10203000A080B18026FF03C0672D70E002C06FEF63
:102040007FEFC5012C870E949E123C012C8550E831
:10205000252E222A820123FC1CC006C0B70180E283
:1020600090E00E94BB123A94832D90E068167906A6
:10207000A8F30FC0F50127FC859127FE81915F0130
:10208000B70190E00E94BB1231103A94F1E06F1A50
:1020900071086114710471F7EEC0843611F089364D
:1020A00041F5F80127FF07C060817181828193812A
:1020B0000C5F1F4F08C060817181882777FD809574
:1020C000982F0E5F1F4F4FE6642E622297FF09C0C4
:1020D00090958095709561957F4F8F4F9F4FF0E859
:1020E0006F2A2AE030E0A4010E94E712A82EA81867
:1020F00044C0853731F43FEEB32EB2222AE030E0FF
:1021000024C099EFB92EB2228F36B9F020F4883569
:1021100009F0B4C00DC0803721F0883709F0AEC097
:1021200002C020E1B22AB4FE0BC084E0B82A08C085
:1021300024FF09C0E6E0BE2A06C028E030E005C062
:1021400020E130E002C020E132E0F801B7FE07C034
:1021500060817181828193810C5F1F4F06C0608115
:10216000718180E090E00E5F1F4FA4010E94E71292
:10217000A82EA8188FE7682E6B2066FE0BC0362DA0
:102180003E7FA71450F464FE0AC062FC08C0362DDE
:102190003E7E05C0BA2C362D03C0BA2C01C0B72C28
:1021A00034FF0DC0FE01EA0DF11D8081803311F472
:1021B000397E09C032FF06C0B394B39404C0832FA4
:1021C000867809F0B39433FD14C030FF0FC07A2C29
:1021D000B31460F4730C7B18B32C08C0B70180E211
:1021E00090E03C870E94BB12B3943C85B314B0F3DB
:1021F00004C0B31410F43B1801C0312C34FF12C0DA
:10220000B70180E390E03C870E94BB123C8532FF1F
:102210001EC031FF03C088E590E002C088E790E06F
:10222000B7010CC0832F867891F031FD02C080E2A7
:1022300001C08BE237FD8DE2B70190E00E94BB1236
:1022400006C0B70180E390E00E94BB127A94A71405
:10225000C0F3AA94F401EA0DF11DB701808190E06A
:102260000E94BB12A110F5CF06C0B70180E290E03A
:102270000E94BB123A943110F8CF42CEF70126816A
:10228000378102C02FEF3FEFC9012C96E2E10C9499
:1022900061130F931F93CF93DF93689F8001699F12
:1022A000100D789F100D1124C8010E946711C82FCE
:1022B000D92F209731F0A80160E070E08C2F0E94A8
:1022C000A912CE01DF91CF911F910F9108950F9325
:1022D0001F93CF93DF938230910510F482E090E05A
:1022E000E0916003F091610320E030E0C0E0D0E0D5
:1022F00023C04081518148175907A8F04817590752
:1023000061F482819381209719F09B838A832EC088
:10231000909361038093600329C02115310529F052
:102320004217530710F0A90102C0BE01DF0102816C
:102330001381EF019A01F8013097D9F62115310583
:1023400009F1281B390B2430310590F412968D9138
:102350009C9113976115710521F0FB019383828392
:1023600004C09093610380936003FD01329644C0E2
:10237000FD01E20FF31F81939193225031092D93B8
:102380003C933AC020915E0330915F03232B41F4CC
:10239000209102013091030130935F0320935E038B
:1023A00020910001309101012115310541F42DB733
:1023B0003EB74091040150910501241B350BE0917B
:1023C0005E03F0915F03E217F307A0F42E1B3F0BAF
:1023D0002817390778F0AC014E5F5F4F2417350797
:1023E00048F04E0F5F1F50935F0340935E0381934D
:1023F000919302C0E0E0F0E0CF01DF91CF911F9117
:102400000F910895EF92FF920F931F93CF93DF9355
:10241000009709F48EC0DC01129713961C921E924D
:102420001297E0906003F0906103E114F10489F4E5
:102430002D913C911197280F391F80915E03909147
:102440005F038217930789F5B0935F03A0935E0340
:1024500070C0E70120E030E001C0EA01CA17DB07E5
:1024600038F44A815B819E0141155105B1F722C0C4
:10247000AC0142505109FA01D383C283008111811A
:10248000BC01600F711F6C177D0761F46881798151
:10249000600F711F6E5F7F4F718360836A817B81E4
:1024A000738362832115310529F4B0936103A093EE
:1024B00060033FC0F901B383A283E90149915991B7
:1024C000C40FD51FAC17BD0771F4DC019E918E912E
:1024D000840F951F02969183808312968D919C9113
:1024E000139793838283A0E0B0E002C0D7017C0100
:1024F000F701828193810097C9F7C7010296208175
:102500003181820F931F20915E0330915F03281762
:10251000390779F4109729F410926103109260033F
:1025200004C013961C921E921297F0925F03E092E1
:102530005E03CDB7DEB7E6E00C946D13FC010590A9
:10254000615070400110D8F7809590958E0F9F1FB5
:102550000895DC0101C06D9341505040E0F70895AB
:10256000FC016150704001900110D8F78095909562
:102570008E0F9F1F08950F931F93CF93DF938C01AE
:10258000EB018B8181FD03C00FEF1FEF1AC082FFAB
:102590000DC02E813F818C819D812817390764F4FD
:1025A000E881F9810193F983E88306C0E885F9851C
:1025B000802F0995892B41F78E819F8101969F83FA
:1025C0008E83C801DF91CF911F910F910895FA0179
:1025D000AA27283051F1203181F1E8946F936E7F62
:1025E0006E5F7F4F8F4F9F4FAF4FB1E03ED0B4E053
:1025F0003CD0670F781F891F9A1FA11D680F791F94
:102600008A1F911DA11D6A0F711D811D911DA11DA4
:1026100020D009F468943F912AE0269F11243019B4
:10262000305D3193DEF6CF010895462F4770405D4F
:102630004193B3E00FD0C9F7F6CF462F4F70405DFE
:102640004A3318F0495D31FD4052419302D0A9F759
:10265000EACFB4E0A6959795879577956795BA9553
:10266000C9F700976105710508959B01AC010A2E19
:1026700006945795479537952795BA95C9F7620FF0
:10268000731F841F951FA01D08952F923F924F9294
:102690005F926F927F928F929F92AF92BF92CF92F2
:1026A000DF92EF92FF920F931F93CF93DF93CDB7FB
:1026B000DEB7CA1BDB0B0FB6F894DEBF0FBECDBF73
:1026C00009942A88398848885F846E847D848C8444
:1026D0009B84AA84B984C884DF80EE80FD800C814D
:1026E0001B81AA81B981CE0FD11D0FB6F894DEBF30
:0C26F0000FBECDBFED010895F894FFCFA0
:1026FC00000062032000426C6F636B2061646472A3
:10270C0065737300427974652061646472657373D8
:10271C00002A2A2A205344206C6962726172792043
:10272C0074657374202A2A2A0057616974696E676C
:10273C0020666F7220534420696E736572742E2E5E
:10274C002E00534420436172642064657465637485
:10275C006564210057726974652D70726F746563BE
:10276C0074656421004E6F742077726974652D70E6
:10277C00726F7465637465642E00496E6974696167
:10278C006C697365206661696C656420776974682F
:10279C00202564210A00534420436172642076652D
:1027AC007273696F6E3A2025640A00416464726525
:1027BC0073733A2025730A004D616E7566616374FC
:1027CC007572652049443A2025750A004F454D2FF6
:1027DC004170706C69636174696F6E2049443A2072
:1027EC0025750A0050726F64756374206E616D6597
:1027FC003A20252E35730A0053657269616C206E80
:10280C00756D6265723A20256C750A004D617566AE
:10281C0061637475726520646174653A2032302589
:10282C003032752D30253031750A004353442072F7
:10283C00656769737465722076657273696F6E3A39
:10284C002025750A0053442053697A653A20256C7B
:10285C00754D420A004469736B2072656164206691
:10286C0061696C656420776974682025750A004479
:10287C0069736B20737472756374757265207265FD
:10288C0061642E00526561642046415433322066E7
:10289C0061696C656420776974682025640A00524C
:1028AC00656D6F766520534420746F2072756E20B1
:1028BC00616761696E2E2E2E0050617274697469A5
:1028CC006F6E2031206973206E6F74204641543333
:1028DC003200506172746974696F6E2031206973B3
:1028EC002046415433320053746172742061742059
:0C28FC00736563746F7220256C750A0010
:00000001FF
