:100000000C94BF010C94E7010C94E7010C94E701F8
:100010000C94E7010C94E7010C94E7010C94E701C0
:100020000C94E7010C94E7010C94E7010C94E701B0
:100030000C94E7010C94E7010C94E7010C94E701A0
:100040000C94E7010C94E7010C94E7010C94E70190
:100050000C94E7010C94E7010C94E7010C94E70180
:100060000C94E7010C94E7010C94E7010C94E70170
:100070000C94E7010C94E7010C94E70102000000E6
:1000800000000001222020200000200152505000DA
:10009000000000015250F850F85050012278A07032
:1000A00028F02001C2C81020409818016290A0409A
:1000B000A89068016220400000000001122040402A
:1000C0004020100142201010102040010220A87092
:1000D000A8200001022020F82020000102000000DA
:1000E00000602041020000F8000000010200000052
:1000F000006060010208102040800001728898A80A
:10010000C8887001226020202020700172880810A9
:100110002040F801FA102010088870011230509029
:10012000F8101001FA80F00808887001324080F061
:1001300088887001FA081020404000017288887099
:1001400088887001728888780810600102606000F9
:100150006060000102606000602040011220408069
:10016000402010010200F800F800000142201008B1
:100170001020400172880810200020017288086851
:10018000A8A8700172888888F8888801F28888F0A9
:100190008888F0017288808080887001E290888869
:1001A0008890E001FA8080F08080F801FA8080F089
:1001B00080808001728880B8888878018A8888F871
:1001C0008888880172202020202070013A101010A9
:1001D000109060018A90A0C0A090880182808080E9
:1001E0008080F8018AD8A8A8888888018A88C8A849
:1001F000988888017288888888887001F28888F0D9
:100200008080800172888888A8906801F28888F0D0
:10021000A09088017A8080700808F001FA202020E0
:10022000202020018A888888888870018A888888A8
:10023000885020018A8888A8A8A850018A88502060
:10024000508888018A88885020202001FA081020D0
:100250004080F801724040404040700102804020E0
:100260001008000172101010101070012250880048
:1002700000000001020000000000F8014220100010
:100280000000000102007008788878018280B0C800
:100290008888F00102007080808870010A086898E0
:1002A0008888780102007088F8807001324840E048
:1002B0004040400102788888780870018280B0C888
:1002C00088888801220060202020700112003010F0
:1002D00010906001828090A0C0A090016220202038
:1002E000202070010200D0A8A8A8A8010200B0C870
:1002F0008888880102007088888870010200F08870
:10030000F080800102006898780808010200B0C8F7
:1003100080808001020070807008F0014240E0405F
:100320004048300102008888889868010200888867
:100330008850200102008888A8A850010200885037
:100340002050880102008888780870010200F810A7
:100350002040F801122020402020100122202020DF
:10036000202020014220201020204001020068901F
:100370000000000102000000000000019F0C112499
:100380001FBECFEFD0E1DEBFCDBF12E0A0E0B1E0F5
:10039000ECEBFDE102C005900D92AC30B107D9F74E
:1003A00012E0ACE0B2E001C01D92A832B107E1F763
:1003B00013E0CEE7D3E004C02297FE010E94E70CD1
:1003C000CC37D107C9F70E94E90A0C94DC0E0C94D3
:1003D0000000279A2F9A0E94150262E08CE092E0BA
:1003E0000E94C9088FE796E690931B0280931A0239
:1003F00010921902109218028CE092E00E94D70A23
:100400000E94C20A909321028093200260E070E073
:100410008CE092E00C94D9089FEF97B98111149861
:1004200068B91398139A149A08951F93CF93DF9382
:1004300085B7806885BF85B7806885BF8FE781B93C
:100440008DEF82B917B88FEF88B912981098139A68
:10045000159A149A169A28E22A95F1F7129A8FEFB4
:1004600094E624E0815090402040E1F700C0000075
:1004700068E281E00E940C0261E181E00E940C02CE
:100480008FEF94E624E0815090402040E1F700C0D7
:10049000000064E381E00E940C0268E381E00E94B6
:1004A0000C0263E181E00E940C0260E281E00E94A4
:1004B0000C026AE381E00E940C0265E580E00E9484
:1004C0000C0266E381E00E940C0268E480E00E9476
:1004D0000C026CE281E00E940C02C0E4D1E010C08A
:1004E00060E080E00E940C0260E080E00E940C026C
:1004F00060E080E00E940C02115091F7219711F00A
:1005000010EFEECF69E281E0DF91CF911F910C9463
:100510000C02CF93C82F66E381E00E940C02C13029
:1005200041F028F0C23039F0C33061F406C068E20F
:1005300005C068E403C068EE01C068E880E0CF91C0
:100540000C940C02CF91089517B88FEF88B91598C5
:1005500084E08A95F1F786B1159A0895882311F001
:10056000119A0895119808952F923F924F925F9299
:100570006F927F928F929F92AF92BF92CF92DF92B3
:10058000EF92FF920F931F93CF93DF93CDB7DEB718
:100590002B970FB6F894DEBF0FBECDBF3C017B8713
:1005A0006A875B834A83298317012801DD82CC8215
:1005B000BF82AE8217FF1EC0DC01ED91FC9102A04C
:1005C000F3A1E02D6501EC80FD800DE20995EA853F
:1005D000FB85398126E0329FE00DF11D1124FB8758
:1005E000EA8737FE03C0319421943108442437FC54
:1005F0004094542C09E010E0812C8AEC982E8AE972
:10060000A82E8BE3B82E9AE0C92ED12CE12CF12C28
:10061000C201B101A50194010E94C30C232B242B1C
:10062000252B09F443C08981A6E08A9FC0011124CB
:100630009987888735C0D301ED90FC90C201B10144
:10064000A50194010E94C30CCA01B9012AE030E05F
:1006500040E050E00E94C30C062F005DD701929647
:10066000ED91FC919397CE80DF80EC80FD80298115
:100670004A815B816A857B85C3010995EA85FB8593
:1006800028853985E20FF31FFB87EA87C501B4018E
:100690002AE030E040E050E00E94C30C49015A01DA
:1006A00081149104A104B10431F60DC0C501B40157
:1006B000A70196010E94C30C49015A01015011097A
:1006C00009F0A6CFB0CF2B960FB6F894DEBF0FBEC1
:1006D000CDBFDF91CF911F910F91FF90EF90DF90F1
:1006E000CF90BF90AF909F908F907F906F905F90D2
:1006F0004F903F902F9008952F923F924F925F928C
:100700006F927F928F929F92AF92BF92CF92DF9221
:10071000EF92FF920F931F93CF93DF93CDB7DEB786
:1007200028970FB6F894DEBF0FBECDBF1C017887A7
:100730006F835A83498328013901FC82EB82DE8270
:10074000CD8237FF19C0DC01ED91FC9100A0F1A131
:10075000E02D76010B811C812DE20995EF81F88552
:100760003696F887EF8357FE03C0519441945108A1
:10077000662457FC6094762C09E010E0812C2AEC6A
:10078000922E2AE9A22E2BE3B22E3AE0C32ED12CD0
:10079000E12CF12CC301B201A50194010E94C30C0C
:1007A000232B242B252BC1F131C0D1010D911C919C
:1007B000C301B201A50194010E94C30CCA01B90191
:1007C0002AE030E040E050E00E94C30C262F205D7C
:1007D000D8019096ED91FC919197ED80FE800B8170
:1007E0001C8149815A816F817885C1010995EF810A
:1007F000F8853696F887EF83C501B4012AE030E02A
:1008000040E050E00E94C30C49015A018114910458
:10081000A104B10451F60DC0C501B401A7019601B0
:100820000E94C30C49015A010150110909F0B2CFCD
:10083000EDCF28960FB6F894DEBF0FBECDBFDF9187
:10084000CF911F910F91FF90EF90DF90CF90BF90CD
:10085000AF909F908F907F906F905F904F903F9060
:100860002F9008952F923F924F925F926F927F92B6
:100870008F929F92AF92BF92CF92DF92EF92FF92B0
:100880000F931F93CF93DF9300D000D000D0CDB74C
:10089000DEB75C014B013A013A8329831C830B8349
:1008A0008E2D90E09E838D831901281A390AD50177
:1008B000ED91FC9104A4F5A5E02D76018C01910148
:1008C000C50109954B805C800D811E81401A510A3B
:1008D000D501ED91FC9169817A81680D791D601BCC
:1008E000710B04A4F5A5E02D82012D813E81A301A9
:1008F000C5010995D501ED91FC914D815E81460DB3
:10090000571D04A4F5A5E02D2D813E81B401C5013C
:100910000995D501ED91FC914B815C81460D571DE8
:100920008D819E81481B590BBC01680D791D04A463
:10093000F5A5E02D8C019101C501099526960FB60C
:10094000F894DEBF0FBECDBFDF91CF911F910F9105
:10095000FF90EF90DF90CF90BF90AF909F908F90DF
:100960007F906F905F904F903F902F9008952F92BF
:100970003F924F925F926F927F928F929F92AF922F
:10098000BF92CF92DF92EF92FF920F931F93CF937C
:10099000DF9300D000D0CDB7DEB74C015B016A0118
:1009A0003C832B8362177307A1F40417150730F4F7
:1009B000C026D1260C251D25C026D126D401ED91B7
:1009C000FC910C191D0904A4F5A5E02D21E030E0EF
:1009D0001CC040175107F1F4EB81FC81E617F707C3
:1009E00040F4AE26BF26EA25FB25FC83EB83AE262A
:1009F000BF26D401ED91FC912B813C812A193B0942
:100A000004A4F5A5E02D01E010E0A601B501C401A4
:100A1000099599C04B805C80461A570A57FE03C05F
:100A200051944194510838016C187D0877FE03C039
:100A30007194619471084614570408F042C00C1573
:100A40001D0580F4EB81FC81AE26BF26EA25FB253F
:100A5000FC83EB83AE26BF26C026D1260C251D25A0
:100A6000C026D12620E030E080E090E01DC0D40117
:100A7000ED91FC91B3010E94AF0C2B014A0C5B1C61
:100A8000C901B3010E94AF0C461A570A06A4F7A584
:100A9000E02D9701A601B201C4010995BFEFCB1A61
:100AA000DB0A29813A81C1012B803C80280E391E46
:100AB000F901EA0DFB1DFA83E9830C151D05B8F653
:100AC00042C04B815C814A155B0570F4A426B526B3
:100AD0004A255B255C834B83A426B526C026D126F8
:100AE0000C251D25C026D12620E030E080E090E0D6
:100AF0001DC0D401ED91FC91B2010E94AF0C3B01ED
:100B00006C0C7D1CC901B2010E94AF0C661A770AF9
:100B100006A4F7A5E02D9701A301B501C40109952D
:100B2000BFEFAB1ABB0A29813A81C1011C01200E1B
:100B3000311EF901EC0DFD1DFA83E9834B815C81C7
:100B40004A155B05B0F60F900F900F900F90DF9154
:100B5000CF911F910F91FF90EF90DF90CF90BF90BA
:100B6000AF909F908F907F906F905F904F903F904D
:100B70002F9008954F925F926F927F928F929F92E3
:100B8000AF92BF92CF92DF92EF92FF920F931F939B
:100B9000CF93DF936C01EB015A0148013701290122
:100BA0000DC0D601ED91FC9100A0F1A1E02D7301E3
:100BB0008401A501BE01C60109952696F201219185
:100BC0002F012111EECFDF91CF911F910F91FF9057
:100BD000EF90DF90CF90BF90AF909F908F907F90DD
:100BE0006F905F904F9008952F923F924F925F9237
:100BF0006F927F928F929F92AF92BF92CF92DF922D
:100C0000EF92FF920F931F93CF93DF9300D000D00A
:100C10001F92CDB7DEB75C017D836C834A01322F12
:100C20003701260186E0289FA00111245A834983B9
:100C3000180118C0D501ED91FC9102A0F3A1E02D9F
:100C400062017301232FA4016C817D81C5013B8367
:100C50000995EC81FD8149815A81E40FF51FFD83DF
:100C6000EC833B81D1010D911D010111E3CF0F9068
:100C70000F900F900F900F90DF91CF911F910F91D8
:100C8000FF90EF90DF90CF90BF90AF909F908F90AC
:100C90007F906F905F904F903F902F9008954F926C
:100CA0005F926F927F928F929F92AF92BF92CF92FC
:100CB000DF92EF92FF920F931F93CF93DF93B22EA9
:100CC000A02E37014601C22ED12CE601E3E0CC0F65
:100CD000DD1FEA95E1F726E0B29E70011124DC01E8
:100CE000ED91FC9100A8F1A9E02D8E0197010995E5
:100CF0006CE281E00E940C02512C0A2D112707FDA5
:100D0000109500521109F3E0000F111FFA95E1F759
:100D1000B1E0CB1AD1082DC0852D6B2D0E94A30CFC
:100D2000F801E80FF11DE458FF4F4490A12C1BC0BF
:100D300047FE06C0672D80E00E940C02662D05C0AC
:100D4000692D80E00E940C02682D80E00E940C0258
:100D50008A2D6B2D0E94A30C292F30E02C153D0508
:100D600009F4440CA3942A2D30E02E153F0504F31A
:100D70005394252D30E02C173D0774F2DF91CF916D
:100D80001F910F91FF90EF90DF90CF90BF90AF90A9
:100D90009F908F907F906F905F904F900895AF924B
:100DA000BF92CF92DF92EF92FF920F931F93CF9358
:100DB000DF93C22FB02EA12EDC01ED91FC9100A893
:100DC000F1A9E02D08E010E026E030E009956CE2A2
:100DD00081E00E940C02C12CD12CDD27C7FDD095EB
:100DE000A097A3E0CC0FDD1FAA95E1F7F601EC0F69
:100DF000FD1FE458FF4F049116E007FF06C06A2D5F
:100E000080E00E940C026B2D05C06F2D80E00E94D7
:100E10000C026E2D80E00E940C02000F115069F749
:100E2000BFEFCB1ADB0A88E0C816D104F9F6DF91D0
:100E3000CF911F910F91FF90EF90DF90CF90BF90D7
:100E4000AF900895AF92BF92CF92DF92EF92FF9250
:100E50000F931F93CF93DF93E9015801DC01ED91CC
:100E6000FC9100A8F1A9E02D09956CE281E00E94B7
:100E70000C0212C06F2D80E00E940C026E2D80E0EB
:100E80000E940C02BFEFCB1ADB0A02C0C12CD12C8E
:100E9000CA14DB0479F721972097C1F7DF91CF912E
:100EA0001F910F91FF90EF90DF90CF90BF90AF9088
:100EB0000895BF92CF92DF92EF92FF920F931F930C
:100EC000CF93DF93EB017A0169016AE281E00E942E
:100ED0000C026D2F80E00E940C02BC2E6C2F80E073
:100EE0000E940C022197CC0DDD1D6D2F80E00E9429
:100EF0000C026B2D61506C0D80E00E940C026BE2C5
:100F000081E00E940C026F2D80E00E940C02CE2D29
:100F10006E2D80E00E940C0281E0E81AF108E00EDC
:100F2000F11E6F2D80E00E940C026C2F6150600F4B
:100F300080E0DF91CF911F910F91FF90EF90DF90B4
:100F4000CF90BF900C940C02CF93DF93EC016AE238
:100F500081E00E940C0260E080E00E940C0260E0F0
:100F600080E00E940C02888599850197692F80E0B6
:100F70000E940C026885615080E00E940C026BE2C6
:100F800081E00E940C0260E080E00E940C0260E0C0
:100F900080E00E940C028A859B850197692F80E082
:100FA0000E940C026A85615080E0DF91CF910C9421
:100FB0000C020F931F93CF93DF93E901DC01ED91B6
:100FC000FC9100A8F1A9E02D01E010E021E030E063
:100FD00009956CE281E00E940C026D2F80E00E9476
:100FE0000C026C2F80E0DF91CF911F910F910C9438
:100FF0000C02CF92DF92EF92FF920F931F93CF9349
:10100000DF93EC01D62EC72EE881F98102A8F3A95F
:10101000E02D09956CE281E00E940C0200E010E0F6
:1010200015C06C2D80E00E940C026D2D80E00E94A6
:101030000C028FEFE81AF80A02C0E12CF12C8A8525
:101040009B85E816F90668F30F5F1F4F8885998521
:101050000817190790F3DF91CF911F910F91FF901F
:10106000EF90DF90CF9008950F931F93CF93DF936E
:101070001F92CDB7DEB78C01862F69830E9489024B
:101080006981613071F028F0623019F0633091F4B9
:1010900008C020E431E0F8013187208720EF30E0FC
:1010A00007C020EF30E0F8013187208720E431E0ED
:1010B00033872287F80163830F90DF91CF911F91CF
:1010C0000F910895862F0C94AE02DC0112962C919C
:1010D000129786E0289F9001112414968D919C917F
:1010E0001597820F931F15969C938E931497820FDA
:1010F000931F18964D915C9119974817590740F422
:10110000ED91FC91119704A8F5A9E02DCD0109946A
:101110000895CF93DF93EC011D821C822A8188E021
:10112000289F900111248E819F81820F931F9F839E
:101130008E83820F931F4A855B854817590758F4A1
:10114000E881F9816E857F85068CF78DE02DCE01D3
:1011500009951F821E82DF91CF910895FC0183EDD6
:1011600091E091838083158214821782168281E038
:101170008283838380EF90E09187808780E491E091
:10118000938782878FEF9FEF9587848717861686D0
:101190000895CF93DF93EC01E881F9810288F38908
:1011A000E02D0995CE01DF91CF910895FC01628376
:1011B00008951F93CF93DF931F92CDB7DEB7182FFB
:1011C00081E099830E94AE02812F99810F90DF9177
:1011D000CF911F9108951F93CF93DF931F92CDB7A7
:1011E000DEB7182F80E099830E94AE02812F99818B
:1011F0000F90DF91CF911F910895CF92DF92EF92E0
:10120000FF920F93CF93DF93EC01E881F9816A306D
:1012100021F404A8F5A9E02D15C0CE84DF84EC8468
:10122000FD844E815F818C819D8102A0F3A1E02D20
:10123000062F2A81BC01CE010995E881F98106A813
:10124000F7A9E02DCE010995CE01DF91CF910F9145
:10125000FF90EF90DF90CF900895682F8CE092E0A0
:101260000E94FD0880E090E008954F925F926F9297
:101270007F928F929F92AF92BF92CF92DF92EF9226
:10128000FF920F931F93CF93DF938C014A015B0171
:10129000C9E0D0E0C12C8AECD82E8AE9E82E8BE395
:1012A000F82E9AE0492E512C612C712CC501B40105
:1012B000A70196010E94C30C232B242B252B29F177
:1012C00019C0C501B401A70196010E94C30CCA014F
:1012D000B901A30192010E94C30C605DC8010E9484
:1012E000FD08C701B601A30192010E94C30C690168
:1012F0007A0105C0BAE04B2E512C612C712CC1141F
:10130000D104E104F104E9F60BC0C701B601A30161
:1013100092010E94C30C69017A01219739F6EACF44
:10132000C801DF91CF911F910F91FF90EF90DF9057
:10133000CF90BF90AF909F908F907F906F905F9075
:101340004F9008954F925F926F927F928F929F92EB
:10135000AF92BF92CF92DF92EF92FF920F931F93C3
:10136000CF93DF938C014A015B0177FF07C088248C
:1013700099245401841A950AA60AB70A77FF04C073
:101380006DE2C8010E94FD08C9E0D0E0C12C3AEC32
:10139000D32E3AE9E32E3BE3F32E4AE0442E512CC0
:1013A000612C712CC501B401A70196010E94C30CE8
:1013B000232B242B252B29F119C0C501B401A7012A
:1013C00096010E94C30CCA01B901A30192010E94B7
:1013D000C30C605DC8010E94FD08C701B601A301EE
:1013E00092010E94C30C69017A0105C02AE0422ED5
:1013F000512C612C712CC114D104E104F104E9F6E3
:101400000BC0C701B601A30192010E94C30C690180
:101410007A01219739F6EACFC801DF91CF911F9168
:101420000F91FF90EF90DF90CF90BF90AF909F9083
:101430008F907F906F905F904F900895CF92DF9242
:10144000EF92FF920F931F93CF93DF936C018B0169
:1014500024E030E0C0E1D7E2EAE0F0E0C801BE01FC
:101460000E94AF0C672BD1F013C0C801BE010E94CF
:10147000AF0CCB01B7010E94AF0C682F605DC601B5
:101480000E94FD08CE01B7010E94AF0CEB0103C022
:101490005AE0E52EF12C209741F709C0CE01BF019B
:1014A0000E94AF0CEB0121503109C1F6F1CFC6010A
:1014B000DF91CF911F910F91FF90EF90DF90CF9030
:1014C0000895CF92DF92EF92FF920F931F93CF93E5
:1014D000DF936C018B0177FF04C000271127061BE7
:1014E000170B77FF04C06DE2C6010E94FD0824E0DF
:1014F00030E0C0E1D7E2EAE0F0E0C801BE010E94BE
:10150000AF0C672BD1F013C0C801BE010E94AF0C15
:10151000CB01B7010E94AF0C682F605DC6010E942D
:10152000FD08CE01B7010E94AF0CEB0103C06AE0D9
:10153000E62EF12C209741F709C0CE01BF010E9491
:10154000AF0CEB0121503109C1F6F1CFC601DF919B
:10155000CF911F910F91FF90EF90DF90CF90089562
:101560000F931F93CF93DF938C01EB0102C00E9476
:10157000FD086991C8016111FACFDF91CF911F91E8
:101580000F91089580911C0290911D02892B51F4B6
:1015900060E070E08DE299E00E94EB0C90931D02F8
:1015A00080931C0280911C0290911D020895CF939C
:1015B000DF93EC01E881F9816E857F85068CF78DDC
:1015C000E02D09951D821C821F821E82DF91CF9122
:1015D00008950E94E9018CE092E00E94D70A61E040
:1015E0008CE092E00E94D60886E091E00E94360DE1
:1015F00082E291E00E94360D63E08CE092E00E946E
:10160000D60885E591E00E94360D61E08CE092E01D
:101610000E94D6088CE291E0909311028093100210
:1016200086E290E0909313028093120284E691E0A8
:101630000E94360DC12C88EFD82E92E0E92E0AE0E8
:1016400010E028EC30E048E350E063E770E08CE025
:1016500092E00E9432048AE891E00E94360D20EE6A
:10166000E22E27E0F22E06E010E024EB30E044E426
:1016700050E066E770E08CE092E00E9422078AE981
:1016800091E00E94360D2FE130E04CE450E068E735
:1016900070E08CE092E00E94D9072FE130E04CE44A
:1016A00050E06AE770E08CE092E00E94D9072FE1F9
:1016B00030E04CE450E06CE770E08CE092E00E9497
:1016C000D9072FE130E04CE450E06EE770E08CE0A9
:1016D00092E00E94D9072FE130E04CE450E060E84E
:1016E00070E08CE092E00E94D9072FE130E04CE4FA
:1016F00050E062E870E08CE092E00E94D9078EEA48
:1017000091E00E94360DE12C38EFF32E08EC10E04A
:101710002CE231E044E650E068EC70E08CE092E0CE
:101720000E94B7044FE1E42EF12C0EE610E028EC05
:1017300030E042ED50E06CE271E08CE092E00E941B
:10174000B704E12C58EFF52E04E610E02CE231E06E
:1017500048EC50E068EC70E08CE092E00E94B70446
:101760006FE1E62EF12C02ED10E028EC30E04EE6C1
:1017700050E06CE271E08CE092E00E94B704E12C52
:1017800078EFF72E08EC10E02CE231E044E650E070
:1017900064E670E08CE092E00E94B704EFE1EE2E88
:1017A000F12C0EE610E024E630E042ED50E06CE271
:1017B00071E08CE092E00E94B704E12CF8EFFF2E7C
:1017C00004E610E02CE231E048EC50E064E670E022
:1017D0008CE092E00E94B704AFE1EA2EF12C02ED1A
:1017E00010E024E630E04EE650E06CE271E08CE080
:1017F00092E00E94B704E12CB8EFFB2E08EC10E059
:101800002CE231E040E050E068EC70E08CE092E0E7
:101810000E94B7041FE1E12EF12C0AE010E028EC51
:1018200030E042ED50E06CE271E08CE092E00E942A
:10183000B704E12C08EFF02E00E010E02CE231E0DC
:1018400048EC50E068EC70E08CE092E00E94B70455
:101850008FE1E82EF12C02ED10E028EC30E04AE0B8
:1018600050E06CE271E08CE092E00E94B704E12C61
:1018700098EFF92E06E910E02CE231E046E950E05D
:1018800064E670E08CE092E00E94B7042FE1E22E63
:10189000F12C00EA10E024E630E040EA50E06CE28F
:1018A00071E08CE092E00E94B704E12C38EFF32E57
:1018B00008EC10E02AEF30E040E050E06AEF70E022
:1018C0008CE092E00E94B7044FE1E42EF12C00E09E
:1018D00010E024E031E048EC50E064E071E08CE09E
:1018E00092E00E94B7048FEB91E00E94360DFFCF8B
:1018F000FC01758364830895FC01778366830895F2
:10190000FC0175836483578346830895FC018481B9
:1019100095810895FC01868197810895FC01758762
:1019200064870895FC01778766870895FC018485A4
:101930000895FC0186850895FC01838108958CE05B
:1019400092E00C94AE08991B79E004C0991F961799
:1019500008F0961B881F7A95C9F780950895AA1BF1
:10196000BB1B51E107C0AA1FBB1FA617B70710F08A
:10197000A61BB70B881F991F5A95A9F780959095BC
:10198000BC01CD010895A1E21A2EAA1BBB1BFD01CB
:101990000DC0AA1FBB1FEE1FFF1FA217B307E4074E
:1019A000F50720F0A21BB30BE40BF50B661F771FA6
:1019B000881F991F1A9469F7609570958095909586
:1019C0009B01AC01BD01CF010895EE0FFF1F0590F3
:1019D000F491E02D09940F931F93CF93DF93EC01C3
:1019E0008B01009731F46115710519F4E0E0F0E026
:1019F00037C06EE070E081E090E00E94650DFC0170
:101A00000097A1F380E883830115110571F0138716
:101A1000028781E8838380911E0290911F02892BA7
:101A200021F4F0931F02E0931E022097C9F0D187A2
:101A3000C0878381826083838091200290912102FC
:101A4000892B71F4F0932102E0932002809122020D
:101A500090912302892B21F4F0932302E093220238
:101A6000CF01DF91CF911F910F9108950F931F9395
:101A7000CF93DF938C01E0912002F09121028381CA
:101A800081FF1BC0C0E0D0E005C00995892B11F093
:101A9000CFEFDFEFF80181918F016091200270910B
:101AA0002102DB011896ED91FC9119978111EDCF80
:101AB0008AE00995892B09F402C0CFEFDFEFCE0150
:101AC000DF91CF911F910F9108950F931F93CF93A3
:101AD000DF93689F8001699F100D789F100D11247E
:101AE000C8010E94830DC82FD92F209731F0A8017B
:101AF00060E070E08C2F0E94BA0ECE01DF91CF9192
:101B00001F910F9108950F931F93CF93DF9382300E
:101B1000910510F482E090E0E0912602F091270216
:101B200020E030E0C0E0D0E023C040815181481780
:101B30005907A8F04817590761F4828193812097CB
:101B400019F09B838A832EC09093270280932602EC
:101B500029C02115310529F04217530710F0A901BA
:101B600002C0BE01DF0102811381EF019A01F80179
:101B70003097D9F62115310509F1281B390B24308E
:101B8000310590F412968D919C9113976115710512
:101B900021F0FB019383828304C0909327028093FA
:101BA0002602FD01329644C0FD01E20FF31F81932E
:101BB0009193225031092D933C933AC020912402F5
:101BC00030912502232B41F4209102013091030131
:101BD00030932502209324022091000130910101CD
:101BE0002115310541F42DB73EB7409104015091C4
:101BF0000501241B350BE0912402F0912502E21728
:101C0000F307A0F42E1B3F0B2817390778F0AC011F
:101C10004E5F5F4F2417350748F04E0F5F1F5093FC
:101C20002502409324028193919302C0E0E0F0E00A
:101C3000CF01DF91CF911F910F910895EF92FF9205
:101C40000F931F93CF93DF93009709F48EC0DC01AD
:101C5000129713961C921E921297E0902602F09013
:101C60002702E114F10489F42D913C911197280F7A
:101C7000391F80912402909125028217930789F5DC
:101C8000B0932502A093240270C0E70120E030E069
:101C900001C0EA01CA17DB0738F44A815B819E0163
:101CA00041155105B1F722C0AC0142505109FA016A
:101CB000D383C28300811181BC01600F711F6C1737
:101CC0007D0761F468817981600F711F6E5F7F4FBE
:101CD000718360836A817B817383628321153105FF
:101CE00029F4B0932702A09326023FC0F901B383E1
:101CF000A283E90149915991C40FD51FAC17BD07C3
:101D000071F4DC019E918E91840F951F0296918350
:101D1000808312968D919C91139793838283A0E088
:101D2000B0E002C0D7017C01F70182819381009766
:101D3000C9F7C701029620813181820F931F20913C
:101D40002402309125022817390779F4109729F4D5
:101D5000109227021092260204C013961C921E9223
:101D60001297F0922502E0922402CDB7DEB7E6E0AA
:101D70000C94CD0EDC0101C06D9341505040E0F752
:101D800008952A88398848885F846E847D848C848D
:101D90009B84AA84B984C884DF80EE80FD800C8196
:101DA0001B81AA81B981CE0FD11D0FB6F894DEBF79
:0C1DB0000FBECDBFED010895F894FFCFE9
:101DBC000000280220002A2A2A20544654206C694C
:101DCC0062726172792074657374696E67202A2A55
:101DDC002A005354444F5554206F75747075742CED
:101DEC00206F7269656E746174696F6E2C20464742
:101DFC002F424720636F6C6F75722C204247206C0A
:101E0C006967687400466F6E742073697A65207414
:101E1C00657374004368616E67652074657874201F
:101E2C00706F736974696F6E202620776F726420EF
:101E3C0077617270207465737400447261772066E8
:101E4C0072616D65207465737400447261772072E1
:101E5C00656374616E676C6520746573740044729D
:101E6C00617720706F696E747320746573740044AD
:101E7C00726177206C696E657320746573740000F1
:101E8C00000000780C7C0C800C860C8A0C8E0C925A
:101E9C000C960C990C34089C0C6208D70AB70432C7
:101EAC0004F907CF064F067C03B402BA05F40522E9
:0C1EBC0007D9075907A40789086508002A
:00000001FF
